:1000000032C00000FDCF0000FBCF0000F9CF0000A0
:10001000F7CF0000F5CF0000F3CF0000F1CF0000D4
:10002000EFCF0000EDCF0000EBCF0000E9CF0000E4
:10003000E7CF00001BC00000E3CF0000E1CF0000CD
:10004000DFCF0000DDCF0000DBCF0000D9CF000004
:10005000D7CF0000D5CF0000D3CF0000D1CF000014
:10006000CFCF0000CDCFEEE7FCE00994EF93FF93F4
:10007000E8EFFBE00994022C022CB4E00B1A00E03C
:10008000001530F4B1E00B1A000000000000F7CFBB
:1000900000000000089500E41FE120E030E0089532
:1000A000BB27AA279927882700FF04C0840F951F24
:1000B000A61FB71F440F551F661F771F369527953C
:1000C0001795079589F730502040100769F79D0173
:1000D0008C010895C801BA01AA1BBB1B51E107C0DE
:1000E000AA1FBB1FA617B70710F0A61BB70B881FC8
:1000F000991F5A95A9F7809590950895C9019A017D
:10010000AB01B801A1E21A2EAA1BBB1BFD010DC059
:10011000AA1FBB1FEE1FFF1FA217B307E407F507B7
:1001200020F0A20BB30BE40BF50B661F771F881FA3
:10013000991F1A9469F76095709580959095089528
:100140001AE303E20A95F1F71A95E1F700000000BF
:10015000089502E00A95F1F7000000000895CF939A
:10016000DF93CDB7DEB72497CDBFDEBF219693DFF7
:1001700048EE53E060E070E093DFA10160E0762F8D
:10018000BDDF8B019C013695279517950795088350
:10019000198381DFA20160E0762F82DF48815981D7
:1001A00060E0762F440F551F661F771FA7DF8B0176
:1001B0009C01A801B9017F936F935F934F934AE02D
:1001C00050E00881198186DF8C014F915F916F911A
:1001D0007F910883198300E010E020E030E00417ED
:1001E00015072607370708F07DC0E0913901F09127
:1001F0003A01108100913B01012BE0913901F0910E
:100200003A0100838E01F80131960081002319F133
:10021000B0E0BA83BB83342F452F562F672F8E0152
:10022000F801319620810A811B810217B0E01B077B
:1002300068F43F922F9222241EDF2F903F900A8174
:100240001B810F5F1F4F0A831B83E9CF762F652F1A
:10025000542F432F00C0FE0100813F922F92202E89
:100260000ADF2F903F90E0913901F0913A0110811F
:10027000009138010123E0913901F0913A010083A6
:100280008E01F801319600810023D9F0B0E0BA83E5
:10029000BB838E01F801319620810A811B810217F0
:1002A000B0E01B0768F43F922F922224E4DE2F90E7
:1002B0003F900A811B810F5F1F4F0A831B83E9CF89
:1002C00000C0FE0100813F922F92202ED4DE2F909D
:1002D0003F908A019B010150104020403040A8010E
:1002E000B90179CFE0913901F0913A011081009183
:1002F00038010123E0913901F0913A0100832396FE
:10030000CDBFDEBFDF91CF910895992779E004C07A
:10031000991F941708F0941B001F7A95C9F7009550
:100320000895C801BA0197FB092E07260AD077FD68
:1003300004D00CD006D000201AF4709561957F4F40
:100340000895F6F7909581959F4F0895AA1BBB1BC2
:1003500051E107C0AA1FBB1FA617B70710F0A61BC5
:10036000B70B881F991F5A95A9F780959095BC01E6
:10037000CD01089508952F920FC0B0E82B2E19C01B
:10038000B0EC2B2E16C0B4E92B2E13C0B4ED2B2EDF
:1003900010C0B0E82B2E0DC0B1E02B1671F3B2E007
:1003A0002B1671F3B3E02B1671F3B4E02B1671F337
:1003B000F0CF032D0150020D202EB0913701B8600F
:1003C000B0933701202EA8D4B0913701B77FB093F6
:1003D0003701242CA1D4B0913701B860B093370114
:1003E0002F900895CF93DF93CDB7DEB72397CDBF7E
:1003F000DEBF21964F92B0E0B8830DC0B1E0B88364
:1004000017C0B6E0B88314C0BCE0B88311C0B1E136
:10041000B8830EC00DC0B1E03B1681F3B2E03B16CD
:1004200081F3B3E03B1681F3B4E03B1681F3F2CFE6
:10043000AAC3B2E0BA831A8103E00117F0F0088181
:100440000F5F09830881102F20E01E5F2F4F098165
:100450001017B0E02B076CF03F922F92B4E04B2EB8
:1004600039802A8088DF2F903F9009810F5F0983B0
:10047000E9CF0A810F5F0A83DECF08810F5F09830E
:100480000881102F20E01E5F2F4F09811017B0E068
:100490002B07A4F03F922F92B1E04B2E3980B1E0B0
:1004A0002B2E69DFB2E04B2E3980B4E02B2E63DFB8
:1004B0002F903F9009810F5F0983E2CFB1E0BA83AB
:1004C0001A8104E0011790F03F922F924424388063
:1004D0002A8051DF08810D5F4424302E2A804BDFB3
:1004E0002F903F900A810F5F0A83EACF75C3B1E076
:1004F000BA831A8104E00117E8F0088109830881B2
:10050000102F20E01E5F2F4F09811017B0E02B073E
:100510006CF03F922F92B4E04B2E39802A802BDF73
:100520002F903F9009810F5F0983E9CF0A810F5F08
:100530000A83DFCFB1E0BA831A8104E0011770F0BB
:1005400008810D5F3F922F924424302E2A8013DFC2
:100550002F903F900A810F5F0A83EECF3DC3088141
:100560000F5F09830881102F20E01D5F2F4F098145
:100570001017B0E02B07A4F03F922F92B2E04B2E61
:100580003980B4E02B2EF7DEB4E04B2E3980B3E097
:100590002B2EF1DE2F903F9009810F5F0983E2CF70
:1005A000088109830881102F20E01E5F2F4F0981E9
:1005B0001017B0E02B07A4F03F922F92B1E04B2E22
:1005C0003980B1E02B2ED7DEB2E04B2E3980B2E07D
:1005D0002B2ED1DE2F903F9009810F5F0983E2CF50
:1005E000B1E0BA831A8102E0011770F008810D5F53
:1005F0003F922F924424302E2A80BDDE2F903F90D0
:100600000A810F5F0A83EECFB3E0BA831A8104E058
:10061000011760F03F922F92442438802A80ABDE8D
:100620002F903F900A810F5F0A83F0CFD5C20881D7
:1006300009830881102F20E01E5F2F4F09811017BA
:10064000B0E02B0704F13F922F92B1E04B2E39809E
:10065000B1E02B2E90DEB2E04B2E3980B2E02B2E93
:100660008ADEB4E04B2E3980B3E02B2E84DEB2E07C
:100670004B2E3980B4E02B2E7EDE2F903F900981E7
:100680000F5F0983D6CFB1E0BA831A8104E0011766
:1006900070F008810D5F3F922F924424302E2A8003
:1006A0006ADE2F903F900A810F5F0A83EECF94C2DB
:1006B000088109830881102F20E01E5F2F4F0981D8
:1006C0001017B0E02B07B4F0B3E0BA830A8105300D
:1006D00068F43F922F92B4E04B2E39802A804BDE93
:1006E0002F903F900A810F5F0A83F0CF09810F5F3F
:1006F0000983E0CF08810F5F09830881102F20E074
:100700001E5F2F4F09811017B0E02B07A4F03F9216
:100710002F92B4E04B2E3980B1E02B2E2CDEB2E0CC
:100720004B2E3980B2E02B2E26DE2F903F90098190
:100730000F5F0983E2CFB1E0BA831A8102E00117AB
:1007400060F03F922F92442438802A8014DE2F904C
:100750003F900A810F5F0A83F0CFB1E0BA831A811C
:1007600004E0011770F008810D5F3F922F9244243E
:10077000302E2A8000DE2F903F900A810F5F0A837F
:10078000EECF2AC208810F5F09830881102F20E075
:100790001D5F2F4F09811017B0E02B07A4F03F9287
:1007A0002F92B1E04B2E3980B1E02B2EE4DDB4E086
:1007B0004B2E3980B2E02B2EDEDD2F903F90098149
:1007C0000F5F0983E2CFB1E0BA831A8102E001171B
:1007D00060F03F922F92442438802A80CCDD2F9005
:1007E0003F900A810F5F0A83F0CF08810983088157
:1007F000102F20E01E5F2F4F09811017B0E02B074C
:1008000074F03F922F92B1E04B2E3980B3E02B2E43
:10081000B2DD2F903F9009810F5F0983E8CFB3E0ED
:10082000BA831A8104E0011770F008810D5F3F92CE
:100830002F924424302E2A809EDD2F903F900A81F3
:100840000F5F0A83EECF088109830881102F20E013
:100850001E5F2F4F09811017B0E02B0774F03F92F5
:100860002F92B2E04B2E3980B4E02B2E84DD2F90F6
:100870003F9009810F5F0983E8CFAEC1B1E0BA8331
:100880001A8102E00117F0F008810F5F09830881E7
:10089000102F20E01D5F2F4F09811017B0E02B07AC
:1008A0006CF03F922F92B4E04B2E39802A8063DDAA
:1008B0002F903F9009810F5F0983E9CF0A810F5F75
:1008C0000A83DECFB1E0BA831A8104E0011760F039
:1008D0003F922F92442438802A804DDD2F903F9004
:1008E0000A810F5F0A83F0CF08810F5F09830881B7
:1008F000102F20E01E5F2F4F09811017B0E02B074B
:10090000A4F03F922F92B1E04B2E3980B3E02B2E12
:1009100032DDB2E04B2E3980B4E02B2E2CDD2F904F
:100920003F9009810F5F0983E2CFB3E0BA831A8158
:1009300004E0011770F008810D5F3F922F9244246C
:10094000302E2A8018DD2F903F900A810F5F0A8396
:10095000EECF42C1B2E0BA831A8104E00117E8F099
:10096000088109830881102F20E01E5F2F4F098125
:100970001017B0E02B076CF03F922F92B4E04B2E93
:1009800039802A80F8DC2F903F9009810F5F09831E
:10099000E9CF0A810F5F0A83DFCF088109830881CD
:1009A000102F20E01E5F2F4F09811017B0E02B079A
:1009B00074F03F922F92B1E04B2E3980B1E02B2E94
:1009C000DADC2F903F9009810F5F0983E8CFB1E017
:1009D000BA831A8104E0011770F008810D5F3F921D
:1009E0002F924424302E2A80C6DC2F903F900A811B
:1009F0000F5F0A83EECFF0C008810F5F0983088183
:100A0000102F20E01E5F2F4F09811017B0E02B0739
:100A1000A4F03F922F92B2E04B2E3980B2E02B2E01
:100A2000AADCB4E04B2E3980B3E02B2EA4DC2F904F
:100A30003F9009810F5F0983E2CF08810F5F09832F
:100A40000881102F20E01E5F2F4F09811017B0E0A2
:100A50002B07A4F03F922F92B1E04B2E3980B1E0EA
:100A60002B2E89DCB2E04B2E3980B4E02B2E83DCB8
:100A70002F903F9009810F5F0983E2CFB1E0BA83E5
:100A80001A8104E0011790F03F922F92442438809D
:100A90002A8071DC08810D5F4424302E2A806BDCB3
:100AA0002F903F900A810F5F0A83EACF95C008819B
:100AB00009830881102F20E01E5F2F4F0981101736
:100AC000B0E02B07BCF0B3E0BA831A8104E0011751
:100AD00068F03F922F92B4E04B2E39802A804BDC95
:100AE0002F903F900A810F5F0A83EFCF09810F5F3C
:100AF0000983DFCF08810F5F09830881102F20E071
:100B00001E5F2F4F09811017B0E02B07A4F03F9212
:100B10002F92B1E04B2E3980B1E02B2E2CDCB2E0CD
:100B20004B2E3980B2E02B2E26DC2F903F9009818E
:100B30000F5F0983E2CFB1E0BA831A8104E00117A5
:100B400070F008810D5F3F922F924424302E2A804E
:100B500012DC2F903F900A810F5F0A83EECFB1E045
:100B6000BA831A8102E0011760F03F922F92442469
:100B700038802A8000DC2F903F900A810F5F0A8323
:100B8000F0CF2AC029C0B0E02B1609F452CCB1E056
:100B90002B1609F4ACCCB2E02B1609F4E0CCB3E090
:100BA0002B1609F444CDB4E02B1609F481CDB5E041
:100BB0002B1609F4E7CDB6E02B1609F45FCEB7E0AB
:100BC0002B1609F4C7CEB8E02B1609F415CFB9E0FF
:100BD0002B1609F46CCFD6CF4F902296CDBFDEBF37
:100BE000DF91CF910895B0913701B77FB09337016E
:100BF00093D0B0913701B860B0933701089505E8FC
:100C00000A95F1F7000008952F923F924F924AE023
:100C1000022D7BDB102F4AE0022D77DB092F0F938B
:100C20003F92B3E03B2E212EDDDB3F900F913F92B0
:100C3000B4E03B2E202ED6DB3F904AE0032D65DB4F
:100C4000102F4AE0032D61DB092F0F93B1E03B2EFB
:100C5000212EC8DB0F91B2E03B2E202EC3DBB091DA
:100C60003701B5FF0FC0B3E04B2EBAE03B2EB2E028
:100C70002B2E81DBB3E04B2EBAE03B2EB3E02B2EC4
:100C80007ADB0EC0B4E04B2EBAE03B2EB2E02B2E46
:100C900072DBB4E04B2EBAE03B2EB3E02B2E6BDBC5
:100CA0004F903F902F9008952F923F924F924AE09D
:100CB0004F923F922F9250E047FD5FEF042D10E0DE
:100CC00047FC1FEF2EDB062F2F903F90005D3F92D9
:100CD0002F923F92402E322C2F904DDB2F903F9041
:100CE0004F904AE03F922F9250E047FD5FEF042D76
:100CF00010E047FC1FEF15DB082F2F903F90102FBF
:100D0000105D022D0F5F202E412E232C302E33DB61
:100D10004F903F902F90089527FAB0912500B7F992
:100D2000B093250026FAB0912500B6F9B0932500BE
:100D300025FAB0912500B5F9B093250024FAB091B9
:100D40002500B4F9B0932500B0913701009025003B
:100D5000E894B3FF689402F800922500B091250052
:100D6000B860B0932500F5D9B0912500B77FB09356
:100D7000250023FAB0912500B7F9B093250022FA97
:100D8000B0912500B6F9B093250021FAB091250065
:100D9000B5F9B093250020FAB0912500B4F9B093CD
:100DA0002500B091370100902500E894B3FF6894C6
:100DB00002F800922500B0912500B860B09325009C
:100DC000C8D9B0912500B77FB0932500B091370105
:100DD000B3FF02C0B5D901C012DF08956F925F92D0
:100DE0004F923F922F9260DF25D12F903F904F90EE
:100DF0005F906F90023019F4042D0F5F402E6F92B8
:100E00005F924F923F922F9215D12F903F904F902B
:100E10005F906F90033019F4042D0150402E54144C
:100E20000CF4462C46140CF4452C6F925F924F92B2
:100E30003F922F92FFD02F903F904F905F906F90F6
:100E40000130B1F41EE501E80A95F1F71A95E1F7D2
:100E50006F925F924F923F922F92ECD02F903F90E3
:100E60004F905F906F90013009F4F2CF042D01C0D4
:100E7000B5CF0895B0913701B4FF0AC0B0E0B09388
:100E80003301B0E0B0933001B0E0B09336010CC054
:100E9000009134010093330100913501009330013A
:100EA00000912F0100933601B0E0B0933101B0936F
:100EB0003201B0E0B0938000B2E0B0938100BCEFAB
:100EC000B0938500B6E1B0938400B0913701B16072
:100ED000B0933701B0913701B062B0933701B09150
:100EE0003701BD7FB0933701BBB1B061BBB9BBB1B6
:100EF000BF7DBBB908952F920FC0B0E82B2E19C04B
:100F0000B0EC2B2E16C0B4E92B2E13C0B4ED2B2E53
:100F100010C0B0E82B2E0DC0B1E02B1671F3B2E07B
:100F20002B1671F3B3E02B1671F3B4E02B1671F3AB
:100F3000F0CF032D0150020D202E202EEDDEB091BA
:100F40003701B77FB093370110E0E12FF0E0E40DF7
:100F5000F51D0081002379F0E12FF0E0E40DF51D8F
:100F600000811F932F92202E3EDE2F901F91012F84
:100F70000F5F102FEACFB0913701B860B0933701FF
:100F80002F900895BBB1BF7EBBB9BCEFB093850075
:100F9000B6E1B0938400B0E0B0938000B0E0B093CD
:100FA0008100B0913701B062B0933701B091370141
:100FB000B260B0933701B0913701BE7FB093370173
:100FC0000895CF93DF93CDB7DEB72197CDBFDEBFB6
:100FD00021962F923F924F925F92B0E0B8830881A2
:100FE0000930E0F40BB0B0E20B260BB8BDE24B2E9B
:100FF000B0E05B2EB8E52B2EB2E03B2EB0D829E155
:101000001AE502EB0A95F1F71A95E1F72A95D1F75F
:101010000000000008810F5F0883E1CFBBB1B06220
:10102000BBB95F904F903F902F90CDBFDEBFDF9157
:10103000CF9108952F923F924F925F92B9B1B0FF36
:101040000BC0B9E14B2EB0E05B2EB8EE2B2EB3E017
:101050003B2E85D801E01DC0B9B1B1FF0BC0B9E18D
:101060004B2EB0E05B2EB0ED2B2EB7E03B2E77D8A9
:1010700002E00FC0B9B1B2FF0BC0B9E14B2EB0E036
:101080005B2EB8E52B2EB2E03B2E69D803E001C001
:1010900000E05F904F903F902F900895B42D31E085
:1010A000BB2319F0330FBA95E9F730933B01032FB7
:1010B0000095009338012092390130923A01122DA7
:1010C000232D1150204010933C0120933D01E12F2E
:1010D000F22F0081032BE12FF22F0083E0913901E1
:1010E000F0913A011081009138010123E09139011A
:1010F000F0913A0100830895CF93DF93CDB7DEB727
:101100002297CDBFDEBF21962F92B0E0B98319811F
:1011100004E0011708F45FC00981000F000F000F01
:10112000005C202EF9DDB0E0B883188107E00117DC
:1011300008F44DC037C01DE529E10881E02FF0E03B
:10114000E10FF21F0491202E4EDD3DC015E629E18E
:101150000881E02FF0E0E10FF21F0491202E43DD23
:1011600032C01DE629E10881E02FF0E0E10FF21F17
:101170000491202E38DD27C01DE429E10881E02FED
:10118000F0E0E10FF21F0491202E2DDD1CC015E5CB
:1011900029E10881E02FF0E0E10FF21F0491202EF9
:1011A00022DD11C00981003009F4C5CF0981013069
:1011B00009F4CCCF09810230A1F209810330E1F2B8
:1011C0000981043021F308810F5F0883AECF0981C4
:1011D0000F5F09839CCF2F902196CDBFDEBFDF919B
:1011E000CF910895B0912500B77FB0932500B091BD
:1011F0002500BB7FB0932500B0912500BF77B09349
:101200002500B0912500BF7BB0932500B09125004B
:10121000BF7DB0932500B0912500BF7EB09325001F
:10122000B0912400B860B0932400B0912400B46061
:10123000B0932400B0912400B061B0932400B09129
:101240002400B062B0932400B0912400B064B09345
:101250002400B0912400B068B0932400E0EAF0E0EC
:101260000995E0EAF0E00995E0EAF0E00995B0912F
:101270002500B062B0932500B0912500B061B09315
:101280002500B0912500B860B0932500E9EAF0E0B0
:101290000995B0912500B77FB0932500E0EAF0E012
:1012A0000995B0912500B860B0932500E9EAF0E017
:1012B0000995B0912500B77FB0932500E0EAF0E0F2
:1012C0000995B0912500B860B0932500E9EAF0E0F7
:1012D0000995B0912500B77FB0932500E0EAF0E0D2
:1012E0000995B0912500BF7EB0932500B0912500EF
:1012F000B860B0932500E9EAF0E00995B0912500C7
:10130000B77FB0932500E0EAF0E00995B0912500A1
:10131000B860B0932500E9EAF0E00995B0912500A6
:10132000B77FB0932500B0912500BF7DB093250015
:10133000B0912500B068B0932500B0912500B86049
:10134000B0932500E9EAF0E00995B0912500B77F58
:10135000B0932500E0EAF0E00995B0912500BF7751
:10136000B0932500B0912500B061B0932500B091F5
:101370002500B860B0932500E9EAF0E00995B09146
:101380002500B77FB0932500B0912500BF7EB093B4
:101390002500B0912500B860B0932500E9EAF0E09F
:1013A0000995B0912500B77FB0932500E0EAF0E001
:1013B0000995B0912500B860B0932500E9EAF0E006
:1013C0000995B0912500B77FB0932500B091250015
:1013D000B061B0932500B0912500B860B0932500AE
:1013E000E9EAF0E00995B0912500B77FB0932500B8
:1013F000E0EAF0E00995B0912500BF7EB0932500AA
:10140000B0912500B860B0932500E9EAF0E00995B5
:10141000B0912500B77FB0932500B0912500B0684A
:10142000B0932500B0912500B064B0932500B09131
:101430002500B062B0932500B0912500B061B09353
:101440002500B0912500B860B0932500E9EAF0E0EE
:101450000995B0912500B77FB0932500E0EAF0E050
:101460000995B0913701B860B093370108952F9274
:101470003F9200913601003031F4309030012090DD
:101480003301C2DB05C03090360120903001BCDB57
:10149000B0913701B2FF06C094DDB0913701BB7F38
:1014A000B09337013F902F9008952F923F924F9223
:1014B000B0E8B0936100B0E0B0936100B0E0B4B9BF
:1014C000B0E0B7B9B8E3BAB9B0E0B5B9B0E0B8B90F
:1014D000B0E0BBB9B0E0B4BDB0E0B5BDB0E0B6BD02
:1014E000B0E0B7BDB0E0B8BDB0E0B0938000B2E00E
:1014F000B0938100BCEFB0938500B6E1B093840057
:10150000B0E0B0938700B0E0B0938600B0E0B09355
:101510008900B0E0B0938800B0E0B0938B00B0E0F9
:10152000B0938A00B0E0B093B600B0E0B093B000E2
:10153000B0E0B093B100B0E0B093B200B0E0B093CF
:10154000B300B0E0B093B400B0E0B0936900B0E095
:10155000BDBBB0E0B0936800B0E0B0936E00B1E006
:10156000B0936F00B0E0B0937000B0E0B093C100F2
:10157000B0E8B0BFB0E0B0937B00B0E0B0937F00C4
:10158000B0E0B0937A00B0E0BCBDB0E0B093BC0076
:1015900029DEB1E02B2EC0DBBCE02B2EBDDBB3E09F
:1015A0004B2EBBE22B2EB0E03B2E78DDA5DDEADC36
:1015B000B0913701B061B0933701B0913701B0629B
:1015C000B0933701B0913701BB7FB0933701789466
:1015D0004F903F902F9008952F923F924F925F929D
:1015E0006F9228DD013009F0C2C022E010EA03E961
:1015F0000A95F1F71A95E1F72A95D1F700001ADD5F
:10160000013009F0B4C0BEDCB1E02B2E85DBB9E0BF
:101610004B2EB1E05B2EB1E03B2EB1E02B2E6BDC0C
:10162000B0E04B2EB1E05B2EB1E03B2EB2E02B2EB2
:1016300062DCBBE14B2EB1E05B2EB1E03B2EB3E0B0
:101640002B2E59DCB3E14B2EB1E05B2EB1E03B2EEB
:10165000B4E02B2E50DC29E01EE105EE0A95F1F7EF
:101660001A95E1F72A95D1F7000040902F01B2E0DA
:101670003B2EB1E02B2E18DB6624B7E15B2E4090A9
:101680002F01B2E03B2EB1E02B2EA8DB00932F01FF
:1016900029E01EE105EE0A95F1F71A95E1F72A9582
:1016A000D1F7000040903501B2E03B2EB4E02B2E84
:1016B000FBDA6624BBE35B2E40903501B2E03B2EA3
:1016C000B4E02B2E8BDB0093350129E01EE105EE03
:1016D0000A95F1F71A95E1F72A95D1F700004090A5
:1016E0003401B2E03B2EB7E02B2EDEDA6624BBE3FA
:1016F0005B2E40903401B2E03B2EB7E02B2E6EDB28
:101700000093340129E01EE105EE0A95F1F71A95E0
:10171000E1F72A95D1F7000000903701442404FC3A
:101720004394B4E03B2EB6E02B2EBEDA6624B1E043
:101730005B2E00903701442404FC4394B4E03B2E1C
:10174000B6E02B2E4BDB00FBB0913701B4F9B09320
:10175000370129E01EE105EE0A95F1F71A95E1F748
:101760002A95D1F7000086DBB1E02B2ED5DA6F90F9
:101770005F904F903F902F900895B0913701B0FF48
:1017800030C0B0913701B4FF19C0109133010091FE
:101790003401101791F410913001009135011017A8
:1017A00061F41091360100912F01101731F4EADB3A
:1017B000B0913701B460B093370112C0009133018A
:1017C000003071F400913001003051F40091360185
:1017D000003031F4D7DBB0913701B460B0933701FA
:1017E00001C0D0DB089505900D920197E1F70895AF
:1017F0000F920F931F932F933F93BF93BFB7BF9346
:10180000B0913701B1FD6DC0BCEFB0938500B6E17A
:10181000B0938400009131011091320198012F5F43
:101820003F4F209331013093320107EE13E002174E
:10183000130708F056C00BB0B0E10B260BB80090B0
:101840003701B0E20B2600923701B0E0B0933101CE
:10185000B0933201B0913701B4FF25C0009133013C
:10186000102F1F5F109333010BE30117DCF4B0E07E
:10187000B093330100913001102F1F5F109330019E
:101880000BE301177CF4B0E0B09330010091360116
:10189000102F1F5F1093360107E101171CF4B0E011
:1018A000B09336011EC00091330101500093330103
:1018B0000030BCF4BBE3B093330100913001015020
:1018C0000093300100306CF4BBE3B0933001009121
:1018D000360101500093360100301CF4B0E0B093A3
:1018E0003601BF91BFBFBF913F912F911F910F91C3
:1018F0000F90FF91EF911895FFFFFFFFBFEFBDBF66
:10190000B4E0BEBF38D0D1DD67DE37DFB0DDFCCF5D
:10191000FFCFFFFFFFFF2D2D3A2D2D3A2D2D005328
:1019200065742054696D653A0054797065202D2DD9
:10193000003031203D205550202F203030203D20D8
:10194000444F574E0000000000000000000000005F
:10195000030300000000000000000000001F1F1F24
:101960001F1F1F1F1F1F1F1F1F0000000000000060
:10197000001F1F1F1FFFA0E0B1E0E6E1F9E187E3D0
:1019800090E031DF0895FFFFFFFFFFFFFFFFFFFF44
:00000001FF
