:1000000012C0FECFFDCFFCCFFBCFFACFF9CFF8CF98
:10001000F7CFF6CFF5CFF4CFF3CFF2CFF1CFF0CFCC
:06002000EFCFEECFEDCFA3
:06002600EEE5FBE0099489
:1016BC00BFE5BDBFB4E0BEBFCDB7DEB72697CDBF8B
:1016CC00DEBF21962F923F924F9259D9B0D9B0B329
:1016DC00B2FF16C0B0B3B2FF01C0FCCFB1E34B2ECA
:1016EC00BDE03B2EB1E02B2EE4E9F0E00995B1E32F
:1016FC00B883B0E0B9838E011801E3E7F3E00995F4
:10170C00B0B3B3FF18C0B0B3B3FF01C0FCCFB2E3AA
:10171C004B2EBDE03B2EB1E02B2EE4E9F0E0099519
:10172C00B2E3BA83B0E0BB838E010E5F1F4F18018A
:10173C00E3E7F3E00995B0B3B4FF18C0B0B3B4FF5E
:10174C0001C0FCCFB3E34B2EBDE03B2EB1E02B2E02
:10175C00E4E9F0E00995B3E3BC83B0E0BD838E010E
:10176C000C5F1F4F1801E3E7F3E00995B0B3B5FF29
:10177C0010C0B0B3B5FF01C0FCCF29E11AE502EBF4
:10178C000A95F1F71A95E1F72A95D1F700000000B8
:10179C0088DCE4E2F0E00995013089F4EBECF0E050
:1017AC000995102F003258F00EE7011740F0412E2A
:1017BC00BDE03B2EB2E02B2EE4E9F0E0099587CF9B
:0817CC004F903F902F90FFCFDA
:10098A002F92B0E0B8BBB0E0B7BBB0E0B5BBB0E007
:10099A00B4BBB0E0B2BBB0ECB1BBB0E0B3BFB0E047
:1009AA00B2BFB0E0BFBDB0E0BEBDB0E0BDBDB0E01B
:1009BA00BCBDB0E0B7BDB0E0B6BDB0E0BBBDB0E015
:1009CA00BABDB0E0B9BDB0E0B8BDB0E0B2BDB0E00C
:1009DA00B5BDB0E0B4BDB0E0B3BDB0E0B5BFB0E006
:1009EA00B9BFB0E0BAB9B0E8B8B9B0E0B0BFB0E0EA
:1009FA00B6B9B0E0BDB9B0E0B6BFABDEB1E02B2E00
:100A0A00A9DCBCE02B2EA6DCB3E3B9B9B0E0B0BDDB
:100A1A00772466245ADC29E11AE502EB0A95F1F7F4
:100A2A001A95E1F72A95D1F7000000002F90089552
:000A3A00BC
:10075C00B0913800BD7FB0933800B0913800BE7FA7
:10076C00B0933800B0913800BF7DB0933800B09191
:10077C003800BF7EB0933800B0913800B77FB0938B
:10078C003800B0913800BB7FB0933800B09137007F
:10079C00B260B0933700B0913700B160B0933700BE
:1007AC00B0913700B460B0933700B0913700B860A7
:1007BC00B0933700B0913700B061B0933700B0916F
:1007CC003700B062B093370061DC60DC5FDCB09165
:1007DC003800B860B0933800B0913800B460B09372
:1007EC003800B0913800B260B093380043DCB0915F
:1007FC003800BD7FB093380049DCB0913800B2604E
:10080C00B093380037DCB0913800BD7FB09338001E
:10081C003DDCB0913800B260B09338002BDCB09165
:10082C003800BD7FB093380031DCB0913800BB7F0D
:10083C00B0933800B0913800B260B09338001ADC35
:10084C00B0913800BD7FB093380020DCB0913800F7
:10085C00B260B09338000EDCB0913800BD7FB0931D
:10086C003800B0913800B77FB0933800B0913800A1
:10087C00B062B0933800B0913800B260B0933800D9
:10088C00F9DBB0913800BD7FB0933800FFDBB0913D
:10089C003800BF7DB0933800B0913800B460B0938D
:1008AC003800B0913800B260B0933800E3DBB091FF
:1008BC003800BD7FB0933800B0913800BB7FB09347
:1008CC003800B0913800B260B0933800D3DBB091EF
:1008DC003800BD7FB0933800D9DBB0913800B260DE
:1008EC00B0933800C7DBB0913800BD7FB0933800AF
:1008FC00B0913800B460B0933800B0913800B26059
:10090C00B0933800B7DBB0913800BD7FB09338009E
:10091C00BDDBB0913800BB7FB0933800B09138008C
:10092C00B260B0933800A6DBB0913800BD7FB093B5
:10093C003800B0913800B062B0933800B0913800F4
:10094C00B061B0933800B0913800B860B093380003
:10095C00B0913800B460B0933800B0913800B260F8
:10096C00B093380087DBB0913800BD7FB09338006E
:0E097C008DDBB0916600B160B0936600089507
:100098001AE303E20A95F1F71A95E1F70000000068
:0200A8000895B9
:0C00800002E00A95F1F70000000008956E
:10035E0027FAB0913800B5F9B093380026FAB0916B
:10036E003800B4F9B093380025FAB0913800B3F9DB
:10037E00B093380024FAB0913800B2F9B093380037
:10038E00B091660000903800E894B0FF689400F8D1
:10039E0000923800B0913800B260B093380069DE38
:1003AE00B0913800BD7FB093380023FAB091380079
:1003BE00B5F9B093380022FAB0913800B4F9B09381
:1003CE00380021FAB0913800B3F9B093380020FA12
:1003DE00B0913800B2F9B0933800B0916600009039
:1003EE003800E894B0FF689400F800923800B0919D
:1003FE003800B260B09338003CDEB0913800BD7F5B
:10040E00B0933800B0916600B0FF02C03EDE01C06E
:04041E00CDDE089592
:0A01BA0005E80A95F1F7000008952A
:1002D400B8E1B0936700B0E0B0936800B6E1B093C2
:1002E4006400B0E0B0936500B4E2B0936000B0E0A5
:1002F400B0936100B5E3B0936200B0E0B0936300E3
:10030400B1B3BE7FB1BBB1B3B260B1BB062D072997
:0C031400066800BD0AB108610AB908952E
:100A3A00CF93DF93CDB7DEB7C05BD040CDBFDEBF6B
:100A4A0021962F923F924F925F926F92BB85BE7F03
:100A5A00BB87B2B3B064B2BB18E605EE0A95F1F7EC
:100A6A001A95E1F7B2B3BF7BB2BB21E11CE30CECF0
:100A7A000A95F1F71A95E1F72A95D1F7BB85B0FDEA
:100A8A00BFC08E01BBE05B2EB0E06B2E4424180180
:100A9A004BDEE4EDF7E1DE011C968DE090E070DDBF
:100AAA008E01045F1F4F2801B3E03B2EB1E02B2ECD
:100ABA00CEDDB1E4B98FB4E5BA8FB0E2BB8FBDE346
:100ACA00BC8FB0E0BD8F8E01075E1F4F2801B5E0D5
:100ADA003B2EB2E02B2EBBDD29E11AE502EB0A958B
:100AEA00F1F71A95E1F72A95D1F700000000B2B3A1
:100AFA00B068B2BBB1E4BE8FB4E5BF8FBDE0B8A3A6
:100B0A00BAE0B9A3B0E0BAA38E01025E1F4F180182
:100B1A00E5DDBDE0BBA3B0E0BCA39E012D5D3F4F68
:100B2A008E01B6E06B2E290118012FDD9E01BFE46C
:100B3A00BDA3BBE4BEA3B0E0BFA38E010B5D1F4FF4
:100B4A0029011801E8DB003019F5B2B3B068B2BB6D
:100B5A00BFE4B8A7BBE4B9A7BEE2BAA7B0E0BBA797
:100B6A008E01085D1F4F2801BAE03B2EB2E02B2E02
:100B7A006EDD25E217E80CE80A95F1F71A95E1F718
:100B8A002A95D1F700000000BB85B160BB8737C04A
:100B9A00B2B3BF77B2BBB5E4BCA7B2E5BDA7B2E5B5
:100BAA00BEA7B0E0BFA78E01045D1F4F2801BAE0BF
:100BBA003B2EB2E02B2E4BDD25E217E80CE80A9516
:100BCA00F1F71A95E1F72A95D1F700000000B0E293
:100BDA00B8ABB0E2B9ABB0E2BAABB0E2BBABB0E231
:100BEA00BCABB0E0BDAB8E01005D1F4F2801B9E080
:100BFA003B2EB2E02B2E2BDDBB85BE7FBB873ECFC3
:100C0A00B2B3BF77B2BB8E01BBE05B2EB0E06B2EF6
:100C1A004424180189DDB1E02B2E9CDBEEEFF7E1CD
:100C2A00DE01D69680E190E0ABDC8E010A5C1F4FB4
:100C3A002801B1E03B2EB1E02B2E09DDFE01EA5B73
:100C4A00FF4FB1E4B083FE01E95BFF4FB4E5B08327
:100C5A00FE01E85BFF4FBBE2B083FE01E75BFF4F9B
:100C6A00B6E5B083FE01E65BFF4FBDE0B083FE014F
:100C7A00E55BFF4FB0E0B0838E010A5B1F4F18019E
:100C8A002DDDFE01E45BFF4FBDE0B083FE01E35BB7
:100C9A00FF4FB0E0B0839E01245B3F4F8E01BBE063
:100CAA006B2E2901180171DC8E01BDE05B2EB8E4C0
:100CBA004B2E180182DA22E51BE200E00A95F1F7D1
:100CCA001A95E1F72A95D1F700000000000000000C
:100CDA008E01BBE05B2EB0E06B2E4424180124DDAC
:100CEA00B1E02B2E37DBE6E1F8E1DE01A25BBF4F74
:100CFA008BE090E045DC8E01025B1F4F2801B1E0DA
:100D0A003B2EB1E02B2EA3DCFE01E75AFF4FB1E4E4
:100D1A00B083FE01E65AFF4FB4E5B083FE01E55AFF
:100D2A00FF4FBBE2B083FE01E45AFF4FB2E5B08346
:100D3A00FE01E35AFF4FB2E4B083FE01E25AFF4FCD
:100D4A00BDE0B083FE01E15AFF4FB0E0B0838E01EF
:100D5A00075A1F4F1801C2DCFE01E05AFF4FBDE0DF
:100D6A00B083FE01EF59FF4FB0E0B0839E01205AD5
:100D7A003F4F8E01BBE06B2E2901180106DC8E0164
:100D8A00BDE05B2EB2E44B2E180117DA22E51BE216
:100D9A0000E00A95F1F71A95E1F72A95D1F70000D4
:100DAA000000000000008E01BBE05B2EB0E06B2E5D
:100DBA0044241801B9DCB1E02B2ECCDAEAE2F8E1DE
:100DCA00DE01AE59BF4F89E090E0DADB8E010E59A1
:100DDA001F4F2801B1E03B2EB1E02B2E38DCFE017B
:100DEA00E559FF4FB1E4B083FE01E459FF4FB4E582
:100DFA00B083FE01E359FF4FBBE2B083FE01E25923
:100E0A00FF4FB2E5B083FE01E159FF4FB3E4B0836F
:100E1A00FE01E059FF4FBDE0B083FE01EF58FF4FDE
:100E2A00B0E0B0838E0105591F4F180157DCFE014F
:100E3A00EE58FF4FBDE0B083FE01ED58FF4FB0E022
:100E4A00B0839E012E583F4F8E01BBE06B2E2901C5
:100E5A0018019BDB8E01BDE05B2EB3E44B2E18011B
:100E6A00ACD922E51BE200E00A95F1F71A95E1F701
:100E7A002A95D1F700000000000000008E01BBE0B7
:100E8A005B2EB0E06B2E442418014EDCB1E02B2E11
:100E9A0061DAECE3F8E1DE01AC58BF4F8AE090E09A
:100EAA006FDB8E010C581F4F2801B1E03B2EB1E0D9
:100EBA002B2ECDDBFE01E258FF4FB1E4B083FE01D9
:100ECA00E158FF4FB4E5B083FE01E058FF4FBBE2A3
:100EDA00B083FE01EF57FF4FB2E5B083FE01EE5734
:100EEA00FF4FB0E5B083FE01ED57FF4FBDE0B08381
:100EFA00FE01EC57FF4FB0E0B0838E0102581F4F3E
:100F0A001801ECDBFE01EB57FF4FBDE0B083FE0199
:100F1A00EA57FF4FB0E0B0839E012B573F4F8E0137
:100F2A00BBE06B2E2901180130DB8E01BDE05B2E80
:100F3A00B0E54B2E180141D922E51BE200E00A95E3
:100F4A00F1F71A95E1F72A95D1F7000000000000A1
:100F5A0000008E01BBE05B2EB0E06B2E442418012A
:100F6A00E3DBB1E02B2EF6D9EFE4F8E1DE01A95775
:100F7A00BF4F8CE090E004DB8E0109571F4F280118
:100F8A00B1E03B2EB1E02B2E62DBFE01ED56FF4FA6
:100F9A00B1E4B083FE01EC56FF4FB4E5B083FE0125
:100FAA00EB56FF4FBBE2B083FE01EA56FF4FB2E5B4
:100FBA00B083FE01E956FF4FB6E4B083FE01E8565E
:100FCA00FF4FBDE0B083FE01E756FF4FB0E0B083AC
:100FDA008E010D561F4F180181DBFE01E656FF4FA9
:100FEA00BDE0B083FE01E556FF4FB0E0B0839E013D
:100FFA0026563F4F8E01BBE06B2E29011801C5DA38
:10100A008E01BDE05B2EB6E44B2E1801D6D822E540
:10101A001BE200E00A95F1F71A95E1F72A95D1F754
:10102A000000000000000000B1E02B2E93D9B2B3FB
:10103A00B064B2BB29E01EE105EE0A95F1F71A95F4
:10104A00E1F72A95D1F70000E4E6F8E1DE01A456BB
:10105A00BF4F8AE090E094DA8E0104561F4F2801B0
:10106A00B4E03B2EB1E02B2EF2DAEEE6F8E1DE0137
:10107A00AA55BF4F8AE090E083DA8E010A551F4FC6
:10108A002801B4E03B2EB2E02B2EE1DA6F905F909C
:10109A004F903F902F90C155DF4FCDBFDEBFDF91FC
:0410AA00CF91089545
:10073200A101252D362D052D162D01501040502ECC
:10074200612EB22FB32B39F0FA0140828A010F5F7A
:0A0752001F4FA801EECF81010895AA
:100658002F920FC0B0E82B2E19C0B0EC2B2E16C06D
:10066800B4E92B2E13C0B4ED2B2E10C0B0E82B2EFE
:100678000DC0B1E02B1671F3B2E02B1671F3B3E0A5
:100688002B1671F3B4E02B1671F3F0CF032D015044
:10069800020D202E202E5FDEB0916600BE7FB09343
:1006A800660010E0E12FF0E0E40DF51D0081002365
:1006B80079F0E12FF0E0E40DF51D00811F932F92F2
:1006C800202E6BDD2F901F91012F0F5F102FEACF87
:0E06D800B0916600B160B09366002F90089557
:1001A200B0916600BE7FB0936600D8D0B091660071
:0801B200B160B09366000895EE
:1006E600CF93DF93CDB7DEB72197CDBFDEBF21967F
:1006F600B0E0B883F1010081102F012F003089F09E
:100706003F922F92202EBFDC2F903F9008810F5FE3
:100716000883E02FF0E0E20DF31D0081102F012F7A
:0C072600EDCFCDBFDEBFDF91CF91089575
:0C008C00E0916700F0916800099508956C
:10003000BBB1B5FD01C0FCCFBBB1B6FF03C0BBB1C6
:08004000B064BBB92CB80895AF
:1005940020E000E0302F662009F458C0BFEF6B164E
:1005A40019F0062D0150602E3F932F936F925F92A6
:1005B4004F923F922F925CDD2F903F904F905F902F
:1005C4006F902F913F91003009F4EECF3F932F931A
:1005D4006F925F924F923F922F92DBDD2F903F906C
:1005E4004F905F906F902F913F91102FE22FF0E08A
:1005F400E20DF31D0083022F0F5F202FE32FF0E0A5
:10060400E40DF51D0081011721F4032F0F5F302F36
:100614000AC030E0F2010081011729F4032F0F5FB3
:10062400102F312F00C0E32FF0E0E40DF51D008101
:10063400003059F4022F10E0031BB0E01B0BF8014B
:10064400E20DF31DB0E0B08304C0A5CFF101B0E02A
:04065400B0830895D2
:0C007400E0916000F09161000995089592
:04002C000CB1089576
:0A0048000BB0002707FC0395089594
:0A006A000BB0002706FC0395089573
:0C019600E0916400F09165000995089567
:10032000F1010081002379F0F1011081F2010081D7
:10033000101749F481010F5F1F4F180182010F5FF1
:100340001F4F2801EDCFF1011081F2010081002E35
:0E035000B0E01B2E012F10E0001911090895D6
:1001C400CF93DF93CDB7DEB72897CDBFDEBF21969F
:1001D40010E020E0B881BE7FB88300C0E12FF0E0DA
:1001E400E20DF31D0081041549F4B881B0FD07C088
:1001F400012FB881B160B883202F00C000C0012F47
:100204000F5F102FE02FF0E0E20DF31D00810515C4
:1002140029F7322F422F00C0E32FF0E0E20DF31D47
:100224000081003208F443C0E32FF0E0E20DF31D37
:1002340010810EE7011708F43AC0E32FF0E0E20D55
:10024400F31D1081032F041B0F5F3F934F923F92C6
:100254002F92412E302EB2E02B2E64DF2F903F9050
:100264004F903F91B0E2B983B0E2BA83B0E2BB836E
:10027400B0E2BC83B0E2BD83B0E2BE83B0E0BF8332
:100284001C2F2D2F1F5F2F4F032F041B0E5F3F9337
:100294005F924F923F922F92412E522E302EB2E017
:1002A4002B2ED8D12F903F904F905F903F91032FEA
:1002B4000F5F302FE02FF0E0E20DF31D00810515F4
:1002C40009F0AACF2796CDBFDEBFDF91CF91089565
:0002D4002A
:100128002F920FC0B0E82B2E19C0B0EC2B2E16C0A2
:10013800B4E92B2E13C0B4ED2B2E10C0B0E82B2E33
:100148000DC0B1E02B1671F3B2E02B1671F3B3E0DA
:100158002B1671F3B4E02B1671F3F0CF032D015079
:10016800020D202EB0916600B160B0936600202E7B
:10017800F2D0B0916600BE7FB0936600242CEBD01D
:0E018800B0916600B160B09366002F900895AC
:0A058A0005900D920197E1F7089526
:1010AE00CF93DF93CDB7DEB7CD58D040CDBFDEBFE7
:1010BE0021962F923F924F925F926F927F928F92D4
:1010CE009F92FE01E457FF4FB0E0B083B1E02B2EAC
:1010DE003FD9E8E7F8E1DE0189E090E04FDA8E01D2
:1010EE002801B5E03B2EB1E02B2EAFDAB2B3B068DB
:1010FE00B2BBB2B3BF7BB2BB29E11AE502EB0A95D4
:10110E00F1F71A95E1F72A95D1F700000000B1E04A
:10111E002B2E1ED9E1E8F8E1DE0119968FE090E062
:10112E002DDA8E01075F1F4F2801B1E03B2EB1E093
:10113E002B2E8BDAE0E9F8E1DE0158968DE090E097
:10114E001DDA8E01085E1F4F2801B1E03B2EB2E082
:10115E002B2E7BDA9924B1E08B2EFE01E457FF4F44
:10116E004190B0E05B2E652C752CB2E03B2EBDE0BD
:10117E002B2E50D9013069F4EDE9F8E1DE01959698
:10118E008DE090E0FBD98E010B5D1F4F1801A4DAA4
:10119E006AC229E11AE502EB0A95F1F71A95E1F711
:1011AE002A95D1F700000000FE01E457FF4FB3E08F
:1011BE00B083B1E02B2ECCD8EAEAF8E1DE01D2966C
:1011CE0080E190E0DBD98E010E5C1F4F2801B1E06B
:1011DE003B2EB1E02B2E39DAB1E09B2EB3E08B2EF5
:1011EE00FE01E457FF4F4190B0E05B2E652C752C4D
:1011FE00B2E03B2EB1E02B2E0DD9FE01E457FF4F8E
:10120E000083013040F0FE01E457FF4F108103E0F0
:10121E00011708F005C0FE01E457FF4FB3E0B0839D
:10122E00FE01EE5BFF4FB1E4B083FE01ED5BFF4FBD
:10123E00B4E5B083FE01EC5BFF4FBBE2B083FE0171
:10124E00EB5BFF4FB6E4B083FE01EA5BFF4FB5E503
:10125E00B083FE01E95BFF4FB0E0B0838E010E5B01
:10126E001F4F180139DAFE01E457FF4F0081005D70
:10127E00202EE6E4F0E00995FE01E85BFF4FBDE0AD
:10128E00B083FE01E75BFF4FBAE0B083FE01E65B81
:10129E00FF4FB0E0B0838E01085B1F4F18011CDAC0
:1012AE0029E11AE502EB0A95F1F71A95E1F72A956D
:1012BE00D1F700000000FE01E457FF4FB8E0B08305
:1012CE00B1E02B2E45D8E3ECF8E1DE01A55BBF4F74
:1012DE008EE090E053D98E01055B1F4F2801B1E0DF
:1012EE003B2EB1E02B2EB1D9B1E09B2EB8E08B2E68
:1012FE00FE01E457FF4F4190B0E05B2E652C752C3C
:10130E00B2E03B2EB1E02B2E85D8FE01E457FF4F05
:10131E000083013040F0FE01E457FF4F108108E0DA
:10132E00011708F005C0FE01E457FF4FB8E0B08387
:10133E00FE01E75AFF4FB1E4B083FE01E65AFF4FBC
:10134E00B4E5B083FE01E55AFF4FBBE2B083FE0168
:10135E00E45AFF4FB0E5B083FE01E35AFF4FB0E011
:10136E00B0838E01075A1F4F1801B6D9FE01E457FC
:10137E00FF4F0081005D202EE6E4F0E00995FE01AE
:10138E00E25AFF4FBDE0B083FE01E15AFF4FBAE0D3
:10139E00B083FE01E05AFF4FB0E0B0838E01025AD7
:1013AE001F4F180199D929E11AE502EB0A95F1F7B9
:1013BE001A95E1F72A95D1F700000000B1E02B2E27
:1013CE00EFEAF1E00995E9EDF8E1DE01AF59BF4F23
:1013DE008DE090E0D3D88E010F591F4F2801B1E058
:1013EE003B2EB1E02B2E31D9B1E09B2EBFE78B2ED9
:1013FE00FE01E457FF4F4190B0E05B2E652C752C3B
:10140E00B2E03B2EB1E02B2E05D8FE01E457FF4F84
:10141E000083013040F0FE01E457FF4F10810FE7CB
:10142E00011708F005C0FE01E457FF4FB1E0B0838D
:10143E00FE01E457FF4F0081013088F1FE01E457B1
:10144E00FF4F108109E0011750F1E6EEF8E1DE01E1
:10145E00A259BF4F88E090E091D88E0102591F4FDC
:10146E0018013AD9FE01E457FF4F0081005D202E8E
:10147E00E6E4F0E00995FE01EA58FF4FBDE0B083C7
:10148E00FE01E958FF4FBAE0B083FE01E858FF4F66
:10149E00B0E0B0838E010A581F4F18011DD9FE010E
:1014AE00E457FF4F00810A3008F45FC0FE01E45795
:1014BE00FF4F108103E6011708F457C0FE01E758ED
:1014CE00FF4FB1E4B083FE01E658FF4FB4E5B083A1
:1014DE00FE01E558FF4FBBE2B083FE01E458FF4F1B
:1014EE00B6E4B083FE01E358FF4FB5E5B083FE01CD
:1014FE00E258FF4FB0E3B083FE01E158FF4FB0E07A
:10150E00B0838E0107581F4F1801E6D8FE01E4572D
:10151E00FF4F00814AE0E9E2F0E00995005D202EE0
:10152E00E6E4F0E00995FE01E457FF4F00814AE042
:10153E00E9E2F0E00995092F005D202EE6E4F0E0E7
:10154E000995FE01E058FF4FBDE0B083FE01EF5755
:10155E00FF4FBAE0B083FE01EE57FF4FB0E0B0830D
:10156E008E0100581F4F1801B7D8FE01E457FF4FE8
:10157E000081043608F46CC0FE01E457FF4F108161
:10158E000FE7011708F464C0FE01ED57FF4FB1E4F9
:10159E00B083FE01EC57FF4FB4E5B083FE01EB576D
:1015AE00FF4FBBE2B083FE01EA57FF4FB6E4B083B4
:1015BE00FE01E957FF4FB5E5B083FE01E857FF4F37
:1015CE00B0E0B0838E010D571F4F180185D8FE0174
:1015DE00E457FF4F008144E6E9E2F0E00995005D33
:1015EE00202EE6E4F0E00995FE01E457FF4F00815E
:1015FE004AE0E9E2F0E009954AE0E9E2F0E0099517
:10160E00092F005D202EE6E4F0E00995FE01E45777
:10161E00FF4F00814AE0E9E2F0E00995092F005DF5
:10162E00202EE6E4F0E00995FE01E757FF4FBDE0FE
:10163E00B083FE01E657FF4FBAE0B083FE01E557D7
:10164E00FF4FB0E0B0838E0107571F4F180144D8EB
:10165E0029E11AE502EB0A95F1F71A95E1F72A95B9
:10166E00D1F700000000B1E02B2EEFEAF1E0099572
:10167E00B2B3BF77B2BBB2B3B064B2BB21E11CE36D
:10168E000CEC0A95F1F71A95E1F72A95D1F7CED918
:10169E009F908F907F906F905F904F903F902F9084
:0E16AE00C457DF4FCDBFDEBFDF91CF9108954F
:10042200CF93DF93CDB7DEB76397CDBFDEBF219603
:100432008E017F926F925F924F923F922F92242C65
:10044200302E412E31DE2F903F908E013F922F921F
:100452003F922801322C2F90FED02F903F904F9048
:100462005F906F907F90B0B3B3FF12C022E010EAAA
:1004720003E90A95F1F71A95E1F72A95D1F70000F9
:10048200820193010F5F1F4F2F4F3F4F2801390108
:10049200082D10E0212F312F0415150526053705EB
:1004A2001CF5B0E2B987B0E2BA87B0E2BB87B0E22E
:1004B200BC87B0E0BD878E01075F1F4F7F926F92AE
:1004C2005F924F923F922F923F922801322C2F90AF
:1004D200C2D02F903F904F905F906F907F90492CA9
:1004E200B0E05B2E652C752CB0B3B4FF12C022E0D5
:1004F20010EA03E90A95F1F71A95E1F72A95D1F77F
:100502000000820193010150104020403040280138
:1005120039014914B0E05B066B067B061CF5B0E2BC
:10052200BE87B0E2BF87B0E2B88BB0E2B98BB0E071
:10053200BA8B8E01025F1F4F7F926F925F924F9232
:100542003F922F923F922801322C2F9084D02F90ED
:100552003F904F905F906F907F90482CB0E05B2E61
:10056200652C752CB0B3B2FF03C0082D0F5F06C017
:10057200B0B3B5FF02C0042D01C05ACF6296CDBF01
:08058200DEBFDF91CF91089567
:1000AA00CF93DF93CDB7DEB72297CDBFDEBF2196C0
:1000BA0010E0133050F4E12FF0E0E30DF41DB0E24C
:1000CA00B083012F0F5F102FF4CFE12FF0E0E30D83
:1000DA00F41DB0E0B083012F0150302F032F10E040
:1000EA00030D141D088319834AE0022DADDF092F81
:1000FA00202F205D08811981F80120834AE0022D12
:10010A00A3DF202E003009F404C0032F0150302F42
:0E011A00E5CF2196CDBFDEBFDF91CF910895D6
:10005200992779E004C0991F941708F0941B001F98
:080062007A95C9F70095089595
:0D17D400436865636B696E672052462E0006
:0517E1004154203D0011
:0517E60041540D0A0052
:0217EB000D00EF
:0317ED004F4B005F
:0417F0004F4B2E002D
:0417F4004552520008
:0617F8002020202020004B
:1017FE00524620532F572056657273696F6E3A000A
:06180E0041542B560D00B1
:021814000D00C5
:0B1816004261756420526174653A0065
:0718210041542B52420D005F
:021828000D00B1
:09182A004368616E6E656C3A00C2
:0718330041542B52430D004C
:02183A000D009F
:0A183C00545820506F7765723A008F
:0718460041542B52500D002C
:02184D000D008C
:0C184F0054582D5258204D6F64653A002B
:07185B0041542B52460D0021
:021862000D0077
:0A186400434D442053656E743A00B2
:0A186E00434D44205263762E3A00E9
:07190F002020202020200011
:0119160000D0
:0119170000CF
:091878005365747570205246009E
:0F1881004C6F61642044656661756C74733F0041
:0D18900059203D203120204E203D20300009
:0D189D0041542B44454641554C540D0A0062
:1018AA005365742054582D5258204D6F64653A0080
:0618BA0041542B465500CD
:0318C0000D0A000E
:0E18C30053657420545820506F7765723A00B8
:0518D10041542B500002
:0318D6000D0A00F8
:0D18D900536574204368616E6E656C3A00C3
:0818E60041542B46553030003F
:0318EE000D0A00E0
:0718F10041542B4655300065
:0318F8000D0A00D6
:0618FB0041542B4655008C
:031901000D0A00CC
:0119040000E2
:0519050020202020005D
:05190A00202020200058
:00000001FF
