:100000005DC4FECFFDCFFCCFFBCFFACFF9CFF8CF49
:10001000F7CFF6CFF5CFF4CFF3CFF2CFF1CFF0CFCC
:02002000EFCF20
:1008BC00BFE5BDBFB2E0BEBFDAD02F923F924F92E0
:1008CC005F92A9DFBFE64B2EB0E05B2EB1E03B2E72
:1008DC00B1E02B2E24DFB4E74B2EB0E05B2EB1E061
:1008EC003B2EB2E02B2E1BDFBEE74B2EB0E05B2E77
:1008FC00B1E03B2EB3E02B2E12DFB9E74B2EB0E06C
:10090C005B2EB1E03B2EB4E02B2E09DFBAE64B2E6A
:10091C00B0E05B2EBCE03B2EB1E02B2E00DFB5E649
:10092C004B2EB0E05B2EBCE03B2EB2E02B2EF7DE64
:10093C00B0E64B2EB0E05B2EBCE03B2EB3E02B2E92
:10094C00EEDEB3E84B2EB0E05B2EBCE03B2EB4E009
:10095C002B2EE5DEB1E03B2EB0E82B2E27DF1595D4
:10096C0007952801B1E03B2EB5E02B2E62DDB1E0FE
:10097C003B2EB0E92B2E1ADF159507952801B2E016
:10098C003B2EB5E02B2E55DDB1E03B2EB0EA2B2EE5
:10099C000DDF159507952801B3E03B2EB5E02B2E06
:1009AC0048DDB1E03B2EB0EB2B2E00DF1595079503
:1009BC002801B4E03B2EB5E02B2E3BDDB1E03B2E05
:1009CC00B0EC2B2EF3DE159507952801B1E03B2EEC
:1009DC00B0E12B2E2EDDB1E03B2EB0ED2B2EE6DE62
:1009EC00159507952801B2E03B2EB0E12B2E21DDA9
:1009FC00B1E03B2EB0EE2B2ED9DE159507952801D4
:100A0C00B3E03B2EB0E12B2E14DDB1E03B2EB0EF6A
:100A1C002B2ECCDE159507952801B4E03B2EB0E1CA
:100A2C002B2E07DD25E01FE002EF0A95F1F71A9552
:100A3C00E1F72A95D1F78ECF5F904F903F902F9092
:020A4C00FFCFDA
:100822002F92B0E0BBBBB0EFBABBB0E0B8BBB0E058
:10083200B7BBB0E0B5BBB0EEB4BBB0E0B2BBB0E0AA
:10084200B1BBB0E0B7B9B0E0B6B9B0E0B3BFB0E0A9
:10085200B2BFB0E0B1BFB0E0BFBDB0E0BEBDB0E07E
:10086200BDBDB0E0BCBDB0E0B5BDB0E0B4BDB0E070
:10087200BBBDB0E0BABDB0E0B9BDB0E0B8BDB0E05C
:10088200B5BFB0E0B6BFB0E0B9BFB0E0BAB9B0E84A
:10089200B8B9B0E0BDB9B0E0BEB9B2DCB1E02B2E60
:1008A2004DDCBCE02B2E4ADC38DC18E605EE0A955E
:0A08B200F1F71A95E1F72F90089571
:10020200B0913500BF77B0933500B0913500BF7B18
:10021200B0933500B0913B00BF77B0933B00B091F3
:100222003B00BF7BB0933B00B0913B00BF7DB093DE
:100232003B00B0913B00BF7EB0933B00B0913400D5
:10024200B068B0933400B0913400B064B09334001D
:10025200B0913A00B061B0933A00B0913A00B06206
:10026200B0933A00B0913A00B064B0933A00B091C2
:100272003A00B068B0933A0004DF03DF02DFB091C6
:100282003B00B062B0933B00B0913B00B061B093D1
:100292003B00B0913500B068B0933500C4DEB09138
:1002A2003500BF77B0933500ECDEB0913500B06811
:1002B200B0933500B8DEB0913500BF77B09335000A
:1002C200E0DEB0913500B068B0933500ACDEB0919D
:1002D2003500BF77B0933500D4DEB0913B00BF7ECE
:1002E200B0933B00B0913500B068B09335009BDE0F
:1002F200B0913500BF77B0933500C3DEB0913500C1
:10030200B068B09335008FDEB0913500BF77B093FF
:100312003500B0913B00BF7DB0933B00B0913B00F4
:10032200B068B0933B00B0913500B068B09335002F
:100332007ADEB0913500BF77B0933500A2DEB0917E
:100342003B00BF77B0933B00B0913B00B061B093EC
:100352003B00B0913500B068B093350064DEB091D7
:100362003500BF77B0933500B0913B00BF7EB093AC
:100372003B00B0913500B068B093350054DEB091C7
:100382003500BF77B09335007CDEB0913500B068A0
:10039200B093350048DEB0913500BF77B093350099
:1003A200B0913B00B061B0933B00B0913500B068B2
:1003B200B093350038DEB0913500BF77B093350089
:1003C20060DEB0913B00BF7EB0933B00B091350040
:1003D200B068B093350027DEB0913500BF77B09397
:1003E2003500B0913B00B068B0933B00B0913B0048
:1003F200B064B0933B00B0913B00B062B0933B005D
:10040200B0913B00B061B0933B00B0913500B06851
:10041200B093350008DEB0913500BF77B093350058
:0E04220030DEB0918C00B160B0938C00089574
:100084001AE303E20A95F1F71A95E1F7000000007C
:020094000895CD
:0C00280002E00A95F1F7000000000895C6
:10013E0027FAB0913B00B7F9B0933B0026FAB09185
:10014E003B00B6F9B0933B0025FAB0913B00B5F9F0
:10015E00B0933B0024FAB0913B00B4F9B0933B004E
:10016E00B0918C0000903500E894B0FF689406F8CA
:10017E0000923500B0913500B068B09335004DDF78
:10018E00B0913500BF77B093350023FAB0913B00A4
:10019E00B7F9B0933B0022FAB0913B00B6F9B09399
:1001AE003B0021FAB0913B00B5F9B0933B0020FA29
:1001BE00B0913B00B4F9B0933B00B0918C0000902D
:1001CE003500E894B0FF689406F800923500B091BF
:1001DE003500B068B093350020DFB0913500BF77A1
:1001EE00B0933500B0918C00B0FF02C044DF01C067
:0401FE001ADF089567
:0A00340005E80A95F1F700000895B1
:10011C002F923F924F92B0E0B8BBB0EBB7BB4424E8
:10012C00B1E03B2EB0E12B2E84DF4F903F902F900F
:02013C00089524
:10003E00B7E8B0938A00B0E0B0938B00BBE4B09306
:10004E008800B0E0B0938900B7B3B068B7BBB7B360
:10005E00BF7BB7BBB7B3B062B7BBB7B3B061B7BB0B
:10006E0032FABEB1B0F9BEB9032D037004290229CC
:06007E0000640DB90895B5
:10072A002F920FC0B0E82B2E19C0B0EC2B2E16C09A
:10073A00B4E92B2E13C0B4ED2B2E10C0B0E82B2E2B
:10074A000DC0B1E02B1671F3B2E02B1671F3B3E0D2
:10075A002B1671F3B4E02B1671F3F0CF032D015071
:10076A00020D202E202EE6DCB0918C00BE7FB093C5
:10077A008C0010E0E12FF0E0E40DF51D008100236C
:10078A0079F0E12FF0E0E40DF51D00811F932F921F
:10079A00202E82DC2F901F91012F0F5F102FEACF9E
:0E07AA00B0918C00B160B0938C002F90089538
:1000A200B0918C00BE7FB0938C0048D0B0918C0090
:0800B200B160B0938C000895C9
:1007B8002F92B8B3BF7EB8BB2F92B1E02B2E67DC67
:1007C8002F90A1DC102F22249EDCB8B3B061B8BBF7
:1007D800412F50E0342F222710E0022B132B9801D1
:1007E80014C089011370980114C089011770980109
:1007F80000701470103009F4003031F000E010E09F
:10080800021B130B980100C004C0B1E03B1649F36A
:0A081800ECCF890113702F900895B2
:0C0096002FB8BEB1B7FD01C0FCCF08952B
:0E010E002FB8BEB1B7FD01C0FCCF0FB10895F0
:10043E00CF93DF93CDB7DEB72897CDBFDEBF219622
:10044E002F923F924F925F92B0E2B883B0E2B9839F
:10045E00B0E2BA83B0E2BB83B0E2BC83B0E0BD834E
:10046E0000E010E0401651064CF4FE01BDE2B083F0
:10047E0000E010E004191509280103C0FE01B0E2E6
:10048E00B08307EE13E0041515050CF06FC00FE0F6
:10049E0017E2041515050CF469C08E010F5F1F4F8E
:1004AE000E831F835F924F923F922F9240E157E24D
:1004BE008201FCDD8C0148EE53E0F8DD8B012F90BC
:1004CE003F904F905F90202F205D0E811F81F8018D
:1004DE0020838E010E5F1F4F0E831F835F924F92FC
:1004EE003F922F9248EE53E08201E0DD8C0144E60C
:1004FE0050E0DCDD8B012F903F904F905F90202FCE
:10050E00205D0E811F81F80120838E010D5F1F4F2C
:10051E000E831F835F924F923F922F9244E650E0DC
:10052E008201C4DD8C014AE050E0C0DD8B012F90CA
:10053E003F904F905F90202F205D0E811F81F8011C
:10054E0020838E010C5F1F4F0E831F833F922F92CD
:10055E004AE050E08201AADD8C012F903F90202FBF
:10056E00205D0E811F81F8012083C8C003E610E0D4
:10057E00041515050CF058C007EE13E0041515050B
:10058E000CF452C08E01F8013196B0E2B0838E01A8
:10059E000E5F1F4F0E831F835F924F923F922F92DB
:1005AE0048EE53E0820182DD8C0144E650E07EDDB0
:1005BE008B012F903F904F905F90202F205D0E81EA
:1005CE001F81F80120838E010D5F1F4F0E831F8345
:1005DE005F924F923F922F9244E650E0820166DD89
:1005EE008C014AE050E062DD8B012F903F904F90DE
:1005FE005F90202F205D0E811F81F80120838E01D8
:10060E000C5F1F4F0E831F833F922F924AE050E0E4
:10061E0082014CDD8C012F903F90202F205D0E81AA
:10062E001F81F80120836AC009E010E0041515054A
:10063E000CF041C003E610E0041515050CF43BC0A8
:10064E008E01F8013196B0E2B0838E01F801329638
:10065E00B0E2B0838E010D5F1F4F0E831F835F923A
:10066E004F923F922F9244E650E082011FDD8C01A3
:10067E004AE050E01BDD8B012F903F904F905F9032
:10068E00202F205D0E811F81F80120838E010C5FCB
:10069E001F4F0E831F833F922F924AE050E082013C
:1006AE0005DD8C012F903F90202F205D0E811F8144
:1006BE00F801208323C08E01F8013196B0E2B08399
:1006CE008E01F8013296B0E2B0838E01F8013396B6
:1006DE00B0E2B0838E010C5F1F4F0E831F833F92DB
:1006EE002F924AE050E08201E1DC8C012F903F9086
:1006FE00202F205D0E811F81F80120838E013F92F5
:10070E002801322C2F900AD05F904F903F902F905F
:0C071E002796CDBFDEBFDF91CF9108957C
:1000BA00C801BA0197FB092E07260AD077FD04D09A
:1000CA000CD006D000201AF4709561957F4F0895E0
:1000DA00F6F7909581959F4F0895AA1BBB1B51E196
:1000EA0007C0AA1FBB1FA617B70710F0A61BB70B9E
:1000FA00881F991F5A95A9F780959095BC01CD0143
:04010A0008950895B7
:0E043000EC2FFD2F05900D920197E1F7089536
:100A7A00A0E6B0E0C2E5DAE088E290E0D4DC0895CE
:050A52004348363A00A4
:050A57004348353A00A0
:050A5C004348343A009C
:050A61004348303A009B
:050A66004348313A0095
:050A6B004348333A008E
:050A70004348323A008A
:050A75004348373A0080
:00000001FF
