:10000000FFC6FECFFDCFFCCFFBCFFACFF9CFF8CFA5
:10001000F7CFF6CFF5CFF4CFF3CFF2CFF1CFF0CFCC
:10002000EFCFEECFEDCFECCFEBCFEACFE9CFE8CFFC
:10003000E7CFE6CFFFFFFFFFFFFF002329F41123E7
:1000400019F4222309F433230895F7DF39F04158D6
:100050005F4F342F220F36952795362B0895EDDF0D
:1000600079F0632F6078220F331F432F5FE7451B22
:1000700055275040269530E8232B3327989403C00A
:1000800044275527662708950095109520953095AB
:100090000F5F1F4F2F4F3F4F0895E1DF21F0662381
:1000A00009F0F2DF98940895C8DF11F19F938F93C0
:1000B0008EE790E0332351F03695279517950795F5
:1000C00048175907B4F44F5F5F4FF4CF8095909570
:1000D000019622239AF0000F111F221F481759077B
:1000E0001CF041505040F5CF00271127222733271D
:1000F00008C033270FEF102F2FE7322F8F919F91DA
:10010000A4DF0895CADF09F441C0E62ED52EC42E1F
:10011000B32EA22E912E802E002D112D222D332DA7
:10012000BCDF09F43DC0842F952F8C199D09B9F0CF
:1001300072F49095809501964C2D5D2D883180F557
:1001400035952795179507950197D1F708C0883100
:10015000E8F4B594A794979487940197D1F766270C
:100160002EF0080D191D2A1D3B1D09C0801A910A89
:10017000A20AB30A082D192D2A2D3B2D332312F480
:1001800083DF60E891DF01C060DF16C0002D112D14
:10019000222D332DD6F751DFC1F340E83427F5CFB8
:1001A000082D192D2A2D3B2D4C2D5D2D6E2D332321
:1001B0005AF76ADF60E8E8CF08956894A3DF0895EE
:1001C000FCDF332332F039DF11F001E003C00027F8
:1001D00001C00FEF0895042E152E262E372EF0DFC6
:1001E0000023089505E80A95F1F70000089537DF28
:1001F00081F1E62ED52EC42EB32EA22E912E802E66
:10020000002D112D222D332D2ADF19F16E254C0DD5
:100210005D1D40385307F4F441387FEF5707FCF079
:1002200088279927AA27BB2770E2B695A7959795A7
:100230008795379527951795079520F4880D991D73
:10024000AA1DBB1D7A9589F7032F3A2F292F182F46
:100250002BDF0AC00FEF102F2FE73FE7FACF002761
:10026000102F202F302FF5CF08951AE303E20A95BF
:10027000F1F71A95E1F700000000089502E00A95F1
:10028000F1F7000000000895B0911C01BE7FB0930B
:100290001C0161D1B0911C01B160B0931C010895A3
:1002A0002F920FC0B0E82B2E19C0B0EC2B2E16C029
:1002B000B4E92B2E13C0B4ED2B2E10C0B0E82B2EBA
:1002C0000DC0B1E02B1671F3B2E02B1671F3B3E061
:1002D0002B1671F3B4E02B1671F3F0CF032D015000
:1002E000020D202EB0911C01B160B0931C01202E94
:1002F00032D1B0911C01BE7FB0931C01242C2BD1B4
:10030000B0911C01B160B0931C012F90089563DF80
:100310001CF00024039401C000240895042E152E1F
:10032000262E372E64DF002E112E222E332E089516
:100330002F920FC0B0E82B2E19C0B0EC2B2E16C098
:10034000B4E92B2E13C0B4ED2B2E10C0B0E82B2E29
:100350000DC0B1E02B1671F3B2E02B1671F3B3E0D0
:100360002B1671F3B4E02B1671F3F0CF032D01506F
:10037000020D202E202EEFD0B0911C01BE7FB09335
:100380001C0110E0E12FF0E0E40DF51D00810023D9
:1003900079F0E12FF0E0E40DF51D00811F932F921D
:1003A000202E72DF2F901F91012F0F5F102FEACFA9
:1003B000B0911C01B160B0931C012F90089547E1EA
:1003C0006627552726F0332312F45EDE60E86CDEE4
:1003D00008953F932F931F930F93002D112D222DDE
:1003E000332D3DDE09F44BC0E62ED52EC42EB32EA0
:1003F000A22E912E802E0F911F912F913F912FDED3
:1004000061F16E254C195D09403853073CF54138C0
:100410007FEF57077CF180E27724632E522E412E26
:10042000302F222711270027000F111F221F331FF3
:10043000441C551C661C771C28F0481859086A088B
:100440007B0804C0480C591C6A1C7B1C0AF0016024
:100450008A9551F74150504027DE16C00FEF102FFC
:100460002FE73FE76623C9F3E8DDB9F3342D30E821
:100470003425F3CF0027102F202F302FEECF0F90F1
:100480000F900F900F90EACF0895E9DDF1F055231A
:10049000C2F04F31A8F44731C1F050F44195495EA4
:1004A00005C035952795179507954A95D1F70DC045
:1004B0004751000F111F221F331F4A95D1F705C066
:1004C0003FE7232F132F032F03C0662309F0DCDD42
:1004D0000895C801BA01AA1BBB1B51E107C0AA1F9E
:1004E000BB1FA617B70710F0A61BB70B881F991FD5
:1004F0005A95A9F78095909508954F923F922F9223
:10050000B0E42B2E28D02F903F9020E007E0021778
:1005100098F00CED1EE0E22FF0E0E00FF11F0491E7
:100520002F933F922F92202EAFDE2F903F902F914E
:10053000022F0F5F202FEACF3F922F92B2E02B2E97
:100540000AD02F903F903F922F924424A9DE2F9003
:100550003F904F90089527FAB0912500B7F9B093D6
:10056000250026FAB0912500B6F9B093250025FAAA
:10057000B0912500B5F9B093250024FAB09125007B
:10058000B4F9B0932500B0911C0100902500E894C7
:10059000B0FF689402F800922500B0912500B86081
:1005A000B09325006BDEB0912500B77FB093250096
:1005B00023FAB0912500B7F9B093250022FAB09143
:1005C0002500B6F9B093250021FAB0912500B5F9C0
:1005D000B093250020FAB0912500B4F9B09325001E
:1005E000B0911C0100902500E894B0FF689402F8D7
:1005F00000922500B0912500B860B09325003EDE42
:10060000B0912500B77FB0932500B0911C01B0FFD9
:1006100002C02BDE01C0E6DD0895B0912500B77F52
:10062000B0932500B0912500BB7FB0932500B09119
:100630002500BF77B0932500B0912500BF7BB09314
:100640002500B0912500BF7DB0932500B091250015
:10065000BF7EB0932500B0912400B860B093240011
:10066000B0912400B460B0932400B0912400B06134
:10067000B0932400B0912400B062B0932400B091F4
:100680002400B064B0932400B0912400B068B0930B
:100690002400EBDDEADDE9DDB0912500B062B09326
:1006A0002500B0912500B061B0932500B0912500E0
:1006B000B860B0932500E2DDB0912500B77FB0931C
:1006C0002500D3DDB0912500B860B0932500D6DDBC
:1006D000B0912500B77FB0932500C7DDB09125000C
:1006E000B860B0932500CADDB0912500B77FB09304
:1006F0002500BBDDB0912500BF7EB0932500B091F1
:100700002500B860B0932500B9DDB0912500B77F12
:10071000B0932500AADDB0912500B860B093250004
:10072000ADDDB0912500B77FB0932500B0912500D5
:10073000BF7DB0932500B0912500B068B09325002F
:10074000B0912500B860B093250098DDB0912500E8
:10075000B77FB093250089DDB0912500BF77B093B6
:100760002500B0912500B061B0932500B09125001F
:10077000B860B093250082DDB0912500B77FB093BB
:100780002500B0912500BF7EB0932500B0912500D3
:10079000B860B093250072DDB0912500B77FB093AB
:1007A000250063DDB0912500B860B093250066DDBB
:1007B000B0912500B77FB0932500B0912500B061BE
:1007C000B0932500B0912500B860B093250056DDA8
:1007D000B0912500B77FB093250047DDB09125008B
:1007E000BF7EB0932500B0912500B860B09325007E
:1007F00045DDB0912500B77FB0932500B09125006D
:10080000B068B0932500B0912500B064B093250086
:10081000B0912500B062B0932500B0912500B06181
:10082000B0932500B0912500B860B093250026DD77
:10083000B0912500B77FB093250017DDB0911C0162
:10084000B160B0931C010895C6DC1CF4002403942D
:1008500001C000240895CF93DF93CDB7DEB7229770
:10086000CDBFDEBF21962F923F92B0E0B883B9830F
:100870003F922F9240E050E060E070E082019301EF
:10088000E3DF002800E009F001E02F903F90002313
:1008900019F13F922F928201930140E050E060E80D
:1008A0007FEB3CDD2F903F9028013901022D015054
:1008B0007F926F925F924F923F922F92BAE14B2EAE
:1008C000B1E05B2E232C302E33DD2F903F904F90E4
:1008D0005F906F907F9015C0022D01507F926F92B4
:1008E0005F924F923F922F92B8E14B2EB1E05B2E78
:1008F000232C302E1DDD2F903F904F905F906F90F6
:100900007F903F922F9240E050E060E070E08201E3
:100910009301FDDC002800E009F001E02F903F90FA
:100920000023F9F03F922F9240E050E060E271E442
:100930008201930189DF002800E009F001E02F9097
:100940003F90002371F03F922F928201930140E08B
:1009500050E06AE774E4E2DC2F903F9096DD088374
:1009600019833F922F9240E050E060E271E48201EF
:100970009301CDDC002800E009F001E02F903F90CA
:100980000023F9F03F922F9240E050E068EC72E4CF
:100990008201930159DF002800E009F001E02F9067
:1009A0003F90002371F03F922F928201930140E02B
:1009B00050E068EC72E4B2DC2F903F9066DD088373
:1009C00019833F922F9240E050E068EC72E482017C
:1009D00093019DDC002800E009F001E02F903F909A
:1009E0000023F9F03F922F9240E050E06AE774E470
:1009F0008201930129DF002800E009F001E02F9037
:100A00003F90002371F03F922F928201930140E0CA
:100A100050E060E271E482DC2F903F9036DD088385
:100A200019833F922F9240E050E06AE774E482011C
:100A300093016DDC002800E009F001E02F903F9069
:100A40000023B1F03F922F9240E050E46CE176E455
:100A500082019301F9DE002800E009F001E02F9007
:100A60003F90002329F0820193010FDD0883198351
:100A700048EE53E0088119812CDD8C01005D7F92E6
:100A80006F925F924F923F92402E322C2F9008DC53
:100A90004F905F906F907F9040E050E060E070E09A
:100AA0008201930134DC002800E009F001E000231A
:100AB000C1F040E050E060E271E482019301C4DEE5
:100AC000002800E009F001E0002359F07F926F92C6
:100AD0005F924F92BEE22B2ED7DB4F905F906F90CC
:100AE0007F9044E650E008811981F3DC8C014AE0F4
:100AF00050E0EFDC8D01005D7F926F925F924F922C
:100B0000202EC2DB4F905F906F907F9040E050E0CE
:100B100060E271E482019301FADB002800E009F051
:100B200001E00023C1F040E050E068EC72E4820193
:100B300093018ADE002800E009F001E0002359F06B
:100B40007F926F925F924F92BEE22B2E9DDB4F9071
:100B50005F906F907F904AE050E008811981B9DC86
:100B60008C014AE050E0B5DC8D01005D7F926F9210
:100B70005F924F92202E88DB4F905F906F907F9016
:100B800040E050E068EC72E482019301C0DB002891
:100B900000E009F001E00023C1F040E050E06AE726
:100BA00074E48201930150DE002800E009F001E0C6
:100BB000002359F07F926F925F924F92BEE22B2EEC
:100BC00063DB4F905F906F907F904AE050E0088128
:100BD00019817FDC8D01005D7F926F925F924F9251
:100BE000202E52DB4F905F906F907F9040E050E05E
:100BF0006AE774E4820193018ADB002800E009F0CF
:100C000001E0002381F040E050E46CE176E48201F1
:100C100093011ADE002800E009F001E0002319F03A
:100C2000B0E22B2E31DB3F902F902196CDBFDEBF5F
:100C3000DF91CF910895042E152E262E372EBDDA82
:100C4000002E112E222E332E0895042E152E262E20
:100C5000372EBFDB002E112E222E332E08956894DE
:100C6000AEDB08952F923F924F925F92B0E8B0931F
:100C70006100B0E0B0936100B0E0B5B9B0E0B4B9E4
:100C8000B0E0B8B9B0E0B7B9B0E0BBB9B1E0BAB95B
:100C9000B0E0B4BDB0E0B5BDB0E0B6BDB0E0B7BD4A
:100CA000B0E0B8BDB0E0B0938000B0E0B093810098
:100CB000B0E0B0938500B0E0B0938400B0E0B093B2
:100CC0008700B0E0B0938600B0E0B0938900B0E058
:100CD000B0938800B0E0B0938B00B0E0B0938A008E
:100CE000B0E0B093B600B0E0B093B000B0E0B09325
:100CF000B100B0E0B093B200B0E0B093B300B0E0A8
:100D0000B093B400B0E0B0936900B0E0BDBBB0E018
:100D1000B0936800B0E0B0936E00B0E0B0936F00A5
:100D2000B0E0B0937000B0E0B093C100B0E0B09319
:100D30007B00B0E8B0BFB0E0B0937F00B0E0B0930C
:100D40007E00B0ECB0937C00B4EAB0937A00B0E0DF
:100D5000B0937B00B0E0BCBDB0E0B093BC005DDC04
:100D6000B1E02B2EF8DBBCE02B2EF5DBB7E04B2EF1
:100D7000B1E05B2EB1E03B2EB1E02B2ED9DAB0E032
:100D80004B2EB1E05B2EB1E03B2EB2E02B2ED0DA41
:100D9000B3E03B2EB2E02B2EB0DB5F904F903F9044
:100DA0002F900895BBB1B160BBB9B8ECB0937C0093
:100DB0000AE10A95F1F700000000B0917A00B064F2
:100DC000B0937A0000917A000071003009F4FACFF4
:100DD00000917A00006100937A002091780030E061
:100DE0004091790050E0142F0027022B132BBBB148
:100DF000BE7FBBB9089505900D920197E1F7089564
:100E0000BFEFBDBFB4E0BEBF6DD02F923F924F92F7
:100E10005F926F927F9226DFC5DF20E0322F1FDFC7
:100E2000A801B9017F936F935F934F9340E050E027
:100E300062E973E409DD0028B0E009F0B1E00B2FAE
:100E40004F915F916F917F91002369F00FE812EC51
:100E500025E83FE363DA4CEE51E16CE873E4EBDE46
:100E6000A801B9010CC003EE15EA2BE73FE356DAFF
:100E700041E75DEF62E873E4DEDEA801B9018A01B3
:100E80009B0143E353E363E570E4DFDE28013901AE
:100E9000B2E03B2EB7E02B2EDEDC25E01FE002EFB8
:100EA0000A95F1F71A95E1F72A95D1F7B5CF7F901A
:100EB0006F905F904F903F902F90FFCFFFFFFFFF0D
:100EC000542F20433A20004156522054656D702E15
:100ED0002053656E736F720020002D000E0A0E0005
:100EE00000000000A0E0B1E0E0ECFEE08CE190E06A
:100EF00082DF0895FFFFFFFFFFFFFFFFFFFFFFFF00
:00000001FF
