:100000000C94CA0B0C9400000C9400000C9400009B
:100010000C9400000C9400000C9400000C94000060
:100020000C9400000C9400000C9400000C94000050
:100030000C9400000C9400000C94B70B0C9400007E
:100040000C9400000C9400000C9400000C94000030
:100050000C9400000C9400000C9400000C94000020
:100060000C9400000C9400000C9400000C94000010
:100070000C9400000C9400000C9400000C94000000
:0C0080000C9400000C9400000C94000094
:10179400BFEFBDBFB0E1BEBF0E94690CCDB7DEB7DD
:1017A4002197CDBFDEBF21962F923F924F925F9239
:1017B4006F927F928F929F92B881BE7FB88320DE12
:1017C400B1DDB7DEAFDF24DFB0916300B0FD14C03C
:1017D400B0916300B0FD01C0FBCFB0E0BEBDB0E08E
:1017E400B7BFB0910A01B160B0930A01B1E0B09300
:1017F4000901B881B160B883B881B0FF2FC00091EE
:101804000901013030F01091090109E0011708F0D5
:1018140025C0609006015090070140900801309067
:101824000501209001010E94220350900201409082
:10183400040130900301209000010E940403B88148
:10184400BE7FB883B0E0B0930901B0910A01BE7FB6
:10185400B0930A01B3E0BEBDB4E0B7BFB881B0FF36
:1018640002C013DC2AC0B7E08B2EB1E09B2EB8E097
:101874006B2EB1E07B2EB5E04B2EB1E05B2EB1E0D8
:101884002B2EB1E03B2E009106010F9307DDADB77F
:10189400BEB71196ADBFBEBFB2E08B2EB1E09B2E9A
:1018A400B4E06B2EB1E07B2EB3E04B2EB1E05B2EA7
:1018B400B0E02B2EB1E03B2EC4DB83CF9F908F9002
:0E18C4007F906F905F904F903F902F90FFCFDE
:101404002F92B0910A01BE7FB0930A01B0E0BBBB3A
:10141400B0E0BABBB0E0B8BBB0E0B7BBB0E0B5BBBE
:10142400B0E0B4BBB0E0B2BBB0E0B1BBB0E0B3B9C4
:10143400B0E0B2B9B0E0B0936200B0E0B093610044
:10144400BFE1B0936500B0E0B0936400B0E0B0BF1A
:10145400B0E0B3BFB0E0B2BFB0E0B1BFB0E0BFBD79
:10146400B3E0BEBDB0E0BDBDB0E0BCBDB0E0B7BD53
:10147400B0E0B6BDB0E0BBBDB0E0BABDB0E0B9BD50
:10148400B0E0B8BDB0E0B0937900B0E0B0937800BC
:10149400B0E0B5BDB0E0B4BDB0E0B3BDB0E0B09372
:1014A4008B00B0E0B0938A00B0E0B0938900B0E064
:1014B400B0938800B0E0B0938100B0E0B0938000B6
:1014C400B0E0B0938700B0E0B0938600B0E0B09392
:1014D4008500B0E0B0938400B0E0B0938300B0E046
:1014E400B0938200B0E0B0936A00B0E0BABFB0E05D
:1014F400B9BFB4E0B7BFB0E0B0937D00B0E0BAB913
:10150400B0E0B0939A00B0E8B8B9B0E0B0BDB0E0D4
:10151400B6B9B0E0BDB9B0E0B093740078943BD9EB
:10152400C6D9B1E02B2E61D9BCE02B2E5ED92F9009
:02153400089518
:10079A002F923F92B0917100BE7FB0937100B091D9
:1007AA007100BD7FB0937100B0E2B093700057DE64
:1007BA003324BEE02B2E75DEB8E03B2EBFE02B2E95
:0807CA0070DE3F902F900895AE
:1004AC002F929ADF2F92B0ED2B2EA5DF2F90A3DF8A
:0A04BC00232CA1DF82DF2F900895AA
:1003E400B4EAB0937400B0917400B7FD01C0FBCFC0
:0E03F4007CDF0830B0E009F0B1E00B2F089577
:0802EE0000917100087F0895E2
:1004020020927300B4E8B0937400B0917400B7FD09
:0604120001C0FBCF0895BC
:0803C600B4E9B093740008953E
:0E046800B0E3B0937100B4E0B0937400089557
:1008B200B0916200BD7FB0936200B0916200BE7FD2
:1008C200B0936200B0916200BF7DB0936200B091BC
:1008D2006200BF7EB0936200B0916200B77FB093B6
:1008E2006200B0916200BB7FB0936200B091610080
:1008F200B260B0936100B0916100B160B0936100E9
:10090200B0916100B460B0936100B0916100B860D1
:10091200B0936100B0916100B061B0936100B09199
:100922006100B062B0936100DFDDDEDDDDDDB0913C
:100932006200B860B0936200B0916200B460B0939C
:100942006200B0916200B260B0936200BBDDB09110
:100952006200BD7FB0936200C7DDB0916200B260F9
:10096200B0936200AFDDB0916200BD7FB0936200D0
:10097200BBDDB0916200B260B0936200A3DDB091C2
:100982006200BD7FB0936200AFDDB0916200BB7FB9
:10099200B0936200B0916200B260B093620092DDE7
:1009A200B0916200BD7FB09362009EDDB0916200A3
:1009B200B260B093620086DDB0916200BD7FB093F9
:1009C2006200B0916200B77FB0936200B0916200A2
:1009D200B062B0936200B0916200B260B093620004
:1009E20071DDB0916200BD7FB09362007DDDB09198
:1009F2006200BF7DB0936200B0916200B460B093B8
:100A02006200B0916200B260B09362005BDDB091AF
:100A12006200BD7FB0936200B0916200BB7FB09371
:100A22006200B0916200B260B09362004BDDB0919F
:100A32006200BD7FB093620057DDB0916200B26088
:100A4200B09362003FDDB0916200BD7FB09362005F
:100A5200B0916200B460B0936200B0916200B26083
:100A6200B09362002FDDB0916200BD7FB09362004F
:100A72003BDDB0916200BB7FB0936200B091620037
:100A8200B260B09362001EDDB0916200BD7FB09390
:100A92006200B0916200B062B0936200B0916200F5
:100AA200B061B0936200B0916200B860B09362002E
:100AB200B0916200B460B0936200B0916200B26023
:100AC200B0936200FFDCB0916200BD7FB093620020
:0E0AD2000BDDB0910A01B260B0930A010895E5
:1004EA001AE303E20A95F1F71A95E1F70000000012
:0204FA00089563
:0C04C60002E00A95F1F700000000089524
:1007EE0027FAB0916200B5F9B093620026FAB09183
:1007FE006200B4F9B093620025FAB0916200B3F9C9
:10080E00B093620024FAB0916200B2F9B093620024
:10081E00B0910A0100906200E894B1FF689400F86C
:10082E0000926200B0916200B260B093620044DE4A
:10083E00B0916200BD7FB093620023FAB091620066
:10084E00B5F9B093620022FAB0916200B4F9B09398
:10085E00620021FAB0916200B3F9B093620020FAFF
:10086E00B0916200B2F9B0936200B0910A010090AB
:10087E006200E894B1FF689400F800926200B091B3
:10088E006200B260B093620017DEB0916200BD7F6D
:10089E00B0936200B0910A01B1FF02C01FDE01C029
:0408AE00E3DD0895E9
:0A04760005E80A95F1F7000008956B
:10132800CF93DF93CDB7DEB7EC97CDBFDEBF219665
:101338002F923F924F925F926F9260900601509069
:10134800070140900801309005012090010176D9ED
:101358005090020140900401309003012090000158
:101368004FD9E8ECF0E0DE018BE090E0B5DB8E01D0
:101378002801B6E03B2EB1E02B2EC4D9E3EDF0E016
:10138800DE011B9683E190E0A7DB8E01055F1F4F0E
:101398002801B1E03B2EB2E02B2EB4D9E6EEF0E006
:1013A800DE015E9685E190E097DB8E01025E1F4FBD
:1013B8002801B1E03B2EB3E02B2EA4D9EBEFF0E0EF
:1013C800DE01D39689E090E087DB8E010D5C1F4F2C
:1013D8002801B1E03B2EB4E02B2E94D9B6E03B2E89
:1013E800B4E02B2E62D96F905F904F903F902F9072
:0C13F800EB96CDBFDEBFDF91CF910895D2
:100644002F923F922F92242CE5DE2F903F922F92EF
:10065400302E222429DF2F903F902F92232CDADE94
:10066400302EB1E02B2E20DF2F901AC004C010E6EC
:1006740006C010E404C0B1E05B16C9F3FACF1F93BF
:10068400C9DE1F910F71012B302EB2E02B2E0CDF2F
:100694000BC0C0DE0F73302EB2E02B2E05DF04C07A
:0E06A400B1E06B1619F3F5CF3F902F9008953B
:10041800CF93DF93CDB7DEB72197CDBFDEBF21964F
:100428004AE0022D75DF000F000F000F000F007F5C
:1004380008834AE0022D6CDF092F102F1F700881F6
:0C044800012BCDBFDEBFDF91CF910895E6
:10031800992779E004C0991F941708F0941B001FCF
:080328007A95C9F700950895CC
:100608002F923F9205DF3F92302EB3E02B2E4ADF28
:100618003F90232CFDDE302EB4E02B2E43DF242C1C
:10062800F7DE302EB5E02B2E3DDF252CF1DE302E07
:0C063800B6E02B2E37DF3F902F90089586
:10070C002F920FC0B0E82B2E19C0B0EC2B2E16C0B8
:10071C00B4E92B2E13C0B4ED2B2E10C0B0E82B2E49
:10072C000DC0B1E02B1671F3B2E02B1671F3B3E0F0
:10073C002B1671F3B4E02B1671F3F0CF032D01508F
:10074C00020D202E202E4DD0B0910A01BD7FB0930A
:10075C000A0110E0E12FF0E0E40DF51D008100230B
:10076C0079F0E12FF0E0E40DF51D00811F932F923D
:10077C00202EA9DE2F901F91012F0F5F102FEACF93
:0E078C00B0910A01B260B0930A012F90089557
:1004D200B0910A01BD7FB0930A0188D1B0910A019F
:0804E200B260B0930A01089515
:1006B2004F923F922F92B0E42B2E98D02F903F90E2
:1006C20020E0283098F407E511E0E22FF0E0E00F97
:1006D200F11F04912F933F922F92202EF9DE2F903B
:1006E2003F902F91022F0F5F202FEBCF3F922F923F
:1006F200B2E02B2E7BD02F903F903F922F9244243A
:0A07020010DF2F903F904F900895F4
:100524002F920FC0B0E82B2E19C0B0EC2B2E16C0A2
:10053400B4E92B2E13C0B4ED2B2E10C0B0E82B2E33
:100544000DC0B1E02B1671F3B2E02B1671F3B3E0DA
:100554002B1671F3B4E02B1671F3F0CF032D015079
:10056400020D202EB0910A01B260B0930A01202E30
:100574003CD1B0910A01BD7FB0930A01242C35D13E
:0E058400B0910A01B260B0930A012F90089561
:0A0AE00005900D920197E1F70895CB
:10153600CF93DF93CDB7DEB72897CDBFDEBF219619
:101546002F923F924F925F9240900101B2E03B2E64
:10155600B7E02B2E0BDD40900501B2E03B2EBAE042
:101566002B2E04DD40900801B2E03B2EBDE02B2E71
:10157600FDDC00910901003049F4B2E05B2EB0E1D8
:101586004B2E309006012090070107DDB0910A012D
:10159600B0FF19C0BAE3B883B0E0B9838E01280161
:1015A600B9E03B2EB2E02B2EAED8BAE3BA83B0E058
:1015B600BB838E010E5F1F4F2801BCE03B2EB2E0BD
:1015C6002B2EA1D81AC0B0E2BC83B0E0BD838E0139
:1015D6000C5F1F4F2801B9E03B2EB2E02B2E93D8AB
:1015E600B0E2BE83B0E0BF838E010A5F1F4F2801C1
:1015F600BCE03B2EB2E02B2E86D85F904F903F90FA
:0E1606002F902796CDBFDEBFDF91CF910895C4
:100F72002F923F924AE0042DCED9005D4F923F92CC
:100F8200402E322C2F90CDDA4F904AE0042DC3D957
:0E0F9200092F005D202E9CDA3F902F900895CD
:100FA000CF93DF93CDB7DEB72C97CDBFDEBF2196B1
:100FB0002F923F924F925F9236C01EC0B1E4B88329
:100FC000BEE2B983BDE4BA83B0E0BB838E01342CAA
:100FD000252C28019BDB16C0B0E5BC83BEE2BD8397
:100FE000BDE4BE83B0E0BF838E010C5F1F4F342C85
:100FF000252C28018BDB06C0B0E02B16F9F2B1E0FE
:101000002B1651F316C0B0E2B887B0E2B987B0E250
:10101000BA87B0E0BB878E01085F1F4F342C252CA8
:10102000280174DB06C0B1E03B1639F2B0E03B1694
:1010300051F35F904F903F902F902B96CDBFDEBF26
:06104000DF91CF9108953D
:101728002F923F924F9240900301B3E03B2EB7E0D7
:101738002B2E1BDCB3E04B2EBAE03B2E209004018D
:1017480007DA40900201B3E03B2EBFE02B2E0DDC00
:10175800B3E04B2EB2E13B2E2090000108DB4F9006
:061768003F902F90089550
:100B5800CF93DF93CDB7DEB7EC97CDBFDEBF21963D
:100B68002F924F925F92CAC0BAE4B883B1E4B983B6
:100B7800BEE4BA83BEE2BB83B0E0BC838E01242C02
:100B88002801C0DDEBC0B6E4BD83B5E4BE83B2E4A2
:100B9800BF83BEE2B887B0E0B9878E010B5F1F4FF5
:100BA800242C2801AFDDDAC0BDE4BA87B1E4BB87E5
:100BB800B2E5BC87BEE2BD87B0E0BE878E01065FA6
:100BC8001F4F242C28019EDDC9C0B1E4BF87B0E5C2
:100BD800B88BB2E5B98BBEE2BA8BB0E0BB8B8E01A5
:100BE800015F1F4F242C28018DDDB8C0BDE4BC8BEC
:100BF800B1E4BD8BB9E5BE8BB0E2BF8BB0E0B88F76
:100C08008E010C5E1F4F242C28017CDDA7C0BAE49E
:100C1800B98FB5E5BA8FBEE4BB8FBEE2BC8FB0E03A
:100C2800BD8F8E01075E1F4F242C28016BDD96C0F7
:100C3800BAE4BE8FB5E5BF8FBCE4B8A3BEE2B9A3E2
:100C4800B0E0BAA38E01025E1F4F242C28015ADDA2
:100C580085C0B1E4BBA3B5E5BCA3B7E4BDA3BEE2C0
:100C6800BEA3B0E0BFA38E010D5D1F4F242C280149
:100C780049DD74C0B3E5B8A7B5E4B9A7B0E5BAA72C
:100C8800BEE2BBA7B0E0BCA78E01085D1F4F242CB5
:100C9800280138DD63C0BFE4BDA7B3E4BEA7B4E54F
:100CA800BFA7BEE2B8ABB0E0B9AB8E01035D1F4F82
:100CB800242C280127DD52C0BEE4BAABBFE4BBAB8D
:100CC800B6E5BCABBEE2BDABB0E0BEAB8E010E5C20
:100CD8001F4F242C280116DD41C0B4E4BFABB5E496
:100CE800B8AFB3E4B9AFBEE2BAAFB0E0BBAF8E0104
:100CF800095C1F4F242C280105DD30C0B1E02B16FC
:100D080009F432CFB2E02B1609F43DCFB3E02B162D
:100D180009F44ACFB4E02B1609F457CFB5E02B16E7
:100D280009F464CFB6E02B1609F471CFB7E02B169F
:100D380009F47ECFB8E02B1609F48BCFB9E02B1657
:100D480009F498CFBAE02B1609F4A5CFBBE02B160F
:100D580009F4B2CFBCE02B1609F4BFCF5F904F90D7
:0E0D68002F90EB96CDBFDEBFDF91CF910895A7
:100D7600CF93DF93CDB7DEB76C97CDBFDEBF21969D
:100D86002F924F925F9267C0B3E5B883B5E5B983FA
:100D9600BEE4BA83B0E0BB838E01242C2801B3DC09
:100DA60074C0BDE4BC83BFE4BD83BEE4BE83B0E0D3
:100DB600BF838E010C5F1F4F242C2801A4DC65C065
:100DC600B4E5B887B5E5B987B5E4BA87B0E0BB87BF
:100DD6008E01085F1F4F242C280195DC56C0B7E50D
:100DE600BC87B5E4BD87B4E4BE87B0E0BF878E019B
:100DF600045F1F4F242C280186DC47C0B4E5B88B5E
:100E0600B8E4B98BB2E5BA8BB0E0BB8B8E01005F5C
:100E16001F4F242C280177DC38C0B6E4BC8BB2E522
:100E2600BD8BB9E4BE8BB0E0BF8B8E010C5E1F4F4D
:100E3600242C280168DC29C0B3E5B88FB1E4B98F4A
:100E4600B4E5BA8FB0E0BB8F8E01085E1F4F242C2D
:100E5600280159DC1AC0B1E02B1609F495CFB2E08F
:100E66002B1609F49ECFB3E02B1609F4A9CFB4E0F4
:100E76002B1609F4B4CFB5E02B1609F4BFCFB6E0B4
:100E86002B1659F2B7E02B16B9F25F904F902F90C0
:0C0E96006B96CDBFDEBFDF91CF910895B9
:10161400CF93DF93CDB7DEB76197CDBFDEBF219601
:101624002F923F924F925F925EDA088719872A873A
:101634003B8740E050E060E070E00E94ED0200284B
:10164400B0E009F0B1E00B2F002309F44BC040E0F7
:1016540050E06CE872E4088519852A853B850E9470
:10166400F402002800E009F001E0002309F43AC084
:10167400088519852A853B850E94C9020C87402E5E
:10168400B4E03B2EBAE02B2E72DCBEE2B883B0E0AD
:10169400B9838E012801BCE03B2EB4E02B2E34D854
:1016A4000C8510E0212F312F0E9440020D871E87E8
:1016B4002F87388B4D855E856F85788908851985D8
:1016C4002A853B85ECDB40E050E068EC72E40E9444
:1016D4002A020E94C902402EB4E03B2EBDE02B2E0C
:1016E40046DC16C0BDE2BA83BDE2BB83BEE2BC8366
:1016F400BDE2BD83BDE2BE83B0E0BF838E010E5F59
:101704001F4F2801B4E03B2EBAE02B2E0E94860323
:101714005F904F903F902F906096CDBFDEBFDF91DA
:04172400CF910895C4
:100AEA00CF93DF93CDB7DEB72A97CDBFDEBF21966E
:100AFA002F92B2E12B2EC2DC0883B1E12B2EBEDC91
:100B0A0009830881B6E00695BA95E9F7037010E003
:100B1A00212F312FB0DC40E050E060E87EE395DC25
:100B2A000E831F8328873987098110E007FD1FEF8D
:100B3A00212F312FEFDC4E815F8168857985D9DCE1
:0E0B4A002F902996CDBFDEBFDF91CF91089589
:100486002F92ADDF2F92B0ED2B2EB8DF2F90B6DF77
:10049600A6DFB1ED2B2EB2DF22242ADF102F90DF4C
:0604A600012F2F900895C4
:1002F600B4E8B093740020FAB0917400B6F9B093E4
:100306007400B0917400B7FD01C0FBCF009173007B
:02031600089548
:06048000689456DF0895A8
:1003300047E16627552726F0332312F4CFDF60E824
:040340009FDF08959E
:1002DC0000951095209530950F5F1F4F2F4F3F4F76
:0202EC00089573
:1002800073DF11F19F938F938EE790E0332351F04A
:10029000369527951795079548175907B4F44F5F7A
:1002A0005F4FF4CF80959095019622239AF0000F2E
:1002B000111F221F481759071CF041505040F5CF1D
:1002C000002711272227332708C033270FEF102FCD
:0C02D0002FE7322F8F919F914FDF089590
:10016800002329F4112319F4222309F433230895D1
:0001780087
:10017800F7DF39F041585F4F342F220F3695279516
:04018800362B089575
:10045400042E152E262E372E73DF002E112E222E5B
:04046400332E089596
:100344002DDF81F1E62ED52EC42EB32EA22E912EB2
:10035400802E002D112D222D332D20DF19F16E2535
:100364004C0D5D1D40385307F4F441387FEF5707B7
:10037400FCF088279927AA27BB2770E2B695A79592
:1003840097958795379527951795079520F4880DA8
:10039400991DAA1DBB1D7A9589F7032F3A2F292F82
:1003A400182F6CDF0AC00FEF102F2FE73FE7FACFAB
:0C03B4000027102F202F302FF5CF0895C8
:1001A000E3DF79F0632F6078220F331F432F5FE77F
:1001B000451B55275040269530E8232B332798942C
:0A01C00003C0442755276627089561
:06051E00E89407DF0895D8
:1004FC00042E152E262E372E5DDF002E112E222EC9
:04050C00332E0895ED
:0603C000E89403DF08953C
:1001CA00E0DF09F441C0E62ED52EC42EB32EA22EAE
:1001DA00912E802E002D112D222D332DD2DF09F4E0
:1001EA003DC0842F952F8C199D09B9F072F4909512
:1001FA00809501964C2D5D2D883180F53595279592
:10020A00179507950197D1F708C08831E8F4B59496
:10021A00A794979487940197D1F766272EF0080D33
:10022A00191D2A1D3B1D09C0801A910AA20AB30A88
:10023A00082D192D2A2D3B2D332312F44AD060E8BC
:10024A001AD001C094DF16C0002D112D222D332D96
:10025A00D6F785DFC1F340E83427F5CF082D192DED
:10026A002A2D3B2D4C2D5D2D6E2D33235AF731D07F
:06027A0060E8E8CF0895E2
:0E018C0009D021F0662309F0A3D098940895BD
:0E05DA009ADF1CF00024039401C00024089551
:0E051000042E152E262E372E5ADF00230895B6
:1003CE00E5DE332332F0C9DE11F001E003C0002771
:0603DE0001C00FEF0895BD
:06019A00689416D00895E0
:1005E800002E112E222E332E042F152F262F372FB3
:1005F800EADE00231CF00024039401C000240895BF
:00060800F2
:1005920006DEF1F05523C2F04F31A8F44731C1F025
:1005A20050F44195495E05C03595279517950795F5
:1005B2004A95D1F70DC04751000F111F221F331F5B
:1005C2004A95D1F705C03FE7232F132F032F03C00E
:0805D200662309F082DE0895A2
:100EA200042E152E262E372E77D9002E112E222E05
:040EB200332E08953E
:10108E00CF93DF93CDB7DEB76497CDBFDEBF21968A
:10109E002F923F924F925F92C7C0B1E05B2E4424D5
:1010AE00B6E02B2EB1E03B2EFFDE009106010130A3
:1010BE0081F4B1E3B883B2E3B983B8E4BA83B0E0A4
:1010CE00BB838E012801B0E13B2EB2E02B2E17DB45
:1010DE0011C0B2E3BC83B4E3BD83B8E4BE83B0E019
:1010EE00BF838E010C5F1F4F2801B0E13B2EB2E093
:1010FE002B2E05DBC4C000910601013081F5B1E055
:10110E005B2E4424B7E02B2EB1E03B2ECDDE0091BA
:10111E000701003091F4B1E4B887BEE2B987BDE4AF
:10112E00BA87B0E0BB878E01085F1F4F2801B0E180
:10113E003B2EB2E02B2EE3DA11C0B0E5BC87BEE247
:10114E00BD87BDE4BE87B0E0BF878E01045F1F4F31
:10115E002801B0E13B2EB2E02B2ED1DA14C0B0E262
:10116E00B88BB0E2B98BB0E2BA8BB0E0BB8B8E011C
:10117E00005F1F4F2801B0E13B2EB2E02B2EBFDAED
:10118E00B3E0B09309017BC000910601013051F428
:10119E00BCE05B2EB1E04B2EB1E02B2EB1E03B2E2E
:1011AE0083DE08C0B7E15B2E4424B1E02B2EB1E004
:1011BE003B2E7ADE64C0BBE35B2E4424B5E02B2EBF
:1011CE00B1E03B2E71DE5BC0BBE35B2E4424B8E086
:1011DE002B2EB1E03B2E68DE52C0BFE15B2EB1E09C
:1011EE004B2EB3E02B2EB1E03B2E5EDE48C0BCE0B2
:1011FE005B2EB1E04B2EB4E02B2EB1E03B2E54DE35
:10120E003EC0B3E65B2E4424B2E02B2EB1E03B2E63
:10121E004BDE35C0B7E05B2EB1E04B2EB0E02B2E8F
:10122E00B1E03B2E41DE2BC000910901013009F4E3
:10123E0034CF00910901023009F45DCF009109010C
:10124E00033009F4A1CF00910901043009F4B3CFA2
:10125E0000910901053009F4B7CF0091090106305C
:10126E0009F4BBCF00910901073009F4C0CF0091FA
:10127E000901083031F200910901093059F25F90ED
:10128E004F903F902F906396CDBFDEBFDF91CF91F1
:02129E000895B1
:100EB600B0916300B4FD0FC022E010EA03E90A9581
:100EC600F1F71A95E1F72A95D1F7000000910B0189
:100ED6000F5F00930B01B0916300B1FD0FC022E0DC
:100EE60010EA03E90A95F1F71A95E1F72A95D1F781
:100EF600000000910B01015000930B0120910B01A2
:100F0600052D10E00217B0E027FDBFEF1B0714F414
:100F160040920B0100910B0110E007FD1FEF041535
:100F2600B0E01B0714F450920B01B0916300B2FDC0
:100F36000AC0B0916300B2FD01C0FBCF0091090168
:100F4600015000930901B0916300B3FD0AC0B0914E
:100F56006300B3FD01C0FBCF009109010F5F009351
:0C0F6600090100910B01F10100830895C6
:1012A000CF93DF93CDB7DEB72596088108833F92B1
:1012B0002F922224E8D8202E8CDAF3010083B1E0AB
:1012C0002B2EE1D8202E85DA2F903F90F20100835B
:1012D00024C03F922F92B2E02B2ED5D80072B5E0F9
:1012E0000695BA95E9F7F4010083B2E02B2ECBD82E
:1012F0000F71202E6EDA2F903F90F101008311C004
:101300003F922F92B2E02B2EBED80F73202E61DABF
:101310002F903F90F101008304C008810130C9F291
:08132000EFCFDF91CF9108959A
:1007D200222D2F70022D007F102F1695169516953B
:0C07E20016950AE0109F002D020F0895EC
:101046003F922F92B6E02B2E1BDA202EBFDBF40147
:101056000083B5E02B2E14DA0F71202EB7DBF301D7
:101066000083B4E02B2E0CDA0F73202EAFDBF201D7
:101076000083B3E02B2E04DA0770202EA7DB2F9017
:081086003F90F1010083089581
:1018D200A0E0B1E0EDE4F1E08AE090E00E94700562
:0218E200089567
:10176E000F92EF93FF93BF93BFB7BF9300900A0101
:10177E00B1E00B2600920A01BF91BFBFBF91FF914E
:06178E00EF910F90189589
:08015700060909060000000082
:01014D0001B0
:01014E000AA6
:01014F000FA0
:010150001F8F
:010151000CA1
:010152000AA2
:0101530001AA
:0101540000AA
:010155000A9F
:0101560000A8
:0B00C8004453333233312052544300C4
:1000D30054696D653A202D2D3A2D2D3A2D2D202D65
:0300E3002D2D00C0
:1000E600446174653A202D2D202D2D2D2D202D2D8A
:0500F600202D2D2D005E
:0900FB0054656D702F20433A009A
:02015F003A0064
:020161003A0062
:0201630020007A
:02016500200078
:04014100412E4D00FE
:04014500502E4D00EB
:040149002020200052
:05008C004A414E2E0068
:050091004645422E006F
:050096004D41522E0057
:05009B004150522E004F
:0500A0004D4159200054
:0500A5004A554E2E003B
:0500AA004A554C2E0038
:0500AF004155472E0041
:0500B4005345502E0031
:0500B9004F43542E002E
:0500BE004E4F562E001C
:0500C3004445432E003E
:0401040053554E0001
:040108004D4F4E0009
:04010C005455450001
:04011000574544000B
:0401140054485200F9
:040118004652490002
:04011C0053415400F7
:020134002E009B
:060136002D2D2E2D2D00E1
:04013C0000000000BF
:0101400000BE
:040120003132480030
:040124003234480029
:04012800412E4D0017
:04012C00502E4D0004
:04013000202020006B
:00000001FF
