:1000000010C0FECFFDCFFCCFFBCFFACFF9CFF8CF9A
:10001000F7CFF6CFF5CFF4CFF3CFF2CFF1CFF0CFCC
:02002000EFCF20
:06002200E1E3FAE009949D
:10146200BFE5BDBFB2E0BEBFCDB7DEB72C97CDBFE3
:10147200DEBF21962F923F924F925F926F927F92A0
:10148200D3DE45DFBEE92B2EB4E13B2EB4E54B2E75
:10149200B1EC5B2ECFDD40E050E46CE176E4EDEBA5
:1014A200F1E00995088319832A833B83B4E03B2E3C
:1014B200B0E12B2E07DF0C831D832801B0E06B2ED9
:1014C200762CB1E03B2EB4E02B2E45DC0C811D8145
:1014D20020E0322F3DDC45EC59E46CE97FE3EDEB93
:1014E200F1E00995E7ECF1E0099528013901B1E055
:1014F2003B2EB0E12B2E2FDCB4E03B2EB0E52B2EA1
:10150200E1DE0E831F832801B0E06B2E762CB2E061
:101512003B2EB4E02B2E1FDC0E811F8120E0322FE8
:1015220017DCA801B90100E010EF2FE735E4E1E98B
:10153200F2E0099540E050E060E87FE3E3EBF1E0A0
:10154200099540E050E46CE176E4EDEBF1E00995B9
:10155200488159816A817B81E1E9F2E009951801AC
:1015620029017DDBA801B90100E010EE26E735E490
:10157200E1E9F2E0099540E050E868E873E4E3EB62
:10158200F1E00995E7ECF1E0099528013901B2E0B3
:101592003B2EB0E12B2EDFDBB4E03B2EB0E22B2E54
:1015A20091DE088719872801B0E06B2E762CB3E014
:1015B2003B2EB4E02B2ECFDB0885198520E0322F9D
:1015C200C7DBA801B90100E010EF2FE735E4E1E93C
:1015D200F2E0099540E050E060E87FE3E3EBF1E000
:1015E200099540E050E068EC72E4EDEBF1E009951A
:1015F200A801B90100E014E224EF38E4E1E9F2E0E5
:101602000995E7ECF1E0099528013901B3E03B2E99
:10161200B0E12B2EA0DBB4E03B2EB0E62B2E52DE47
:101622000A871B872801B0E06B2E762CB4E03B2E94
:10163200B4E02B2E90DB0A851B8520E0322F88DB5D
:1016420045EC59E46CE97FE3EDEBF1E00995E7EC59
:10165200F1E0099528013901B4E03B2EB0E12B2ECF
:101662007ADB29E11AE502EB0A95F1F71A95E1F71F
:101672002A95D1F70000000019CF7F906F905F90FC
:081682004F903F902F90FFCF25
:10122A002F92B0E0BBBBB0EFBABBB0E0B8BBB0E046
:10123A00B7BBB0E0B5BBB0EEB4BBB0E8B2BBB0E789
:10124A00B1BBB0E0B7B9B0E0B6B9B0E0B3BFB0E097
:10125A00B2BFB0E0B1BFB0E0BFBDB0E0BEBDB0E06C
:10126A00BDBDB0E0BCBDB0E0B5BDB0E0B4BDB0E05E
:10127A00BBBDB0E0BABDB0E0B9BDB0E0B8BDB0E04A
:10128A00B5BFB0E0B6BFB0E0B9BFB0E0BAB9B0E838
:10129A00B8B9B0E0BDB9D6DBBEDAB1E02B2E97D92A
:1012AA00BCE02B2E94D925E01FE002EF0A95F1F756
:0C12BA001A95E1F72A95D1F72F900895BE
:100A4E00B0E8B2BBB0E7B1BBB2B3BF7BB2BBB2B31F
:100A5E00B062B2BBB2B3B061B2BBB2B3B064B2BB40
:080A6E00B2B3BF7DB2BB0895D5
:10082000B0913500BF77B0933500B0913500BF7BF4
:10083000B0933500B0913B00BF77B0933B00B091CF
:100840003B00BF7BB0933B00B0913B00BF7DB093BA
:100850003B00B0913B00BF7EB0933B00B0913400B1
:10086000B068B0933400B0913400B064B0933400F9
:10087000B0913A00B061B0933A00B0913A00B062E2
:10088000B0933A00B0913A00B064B0933A00B0919E
:100890003A00B068B0933A00E7DCE6DCE5DCB09102
:1008A0003B00B062B0933B00B0913B00B061B093AD
:1008B0003B00B0913500B068B0933500DEDDB091FB
:1008C0003500BF77B0933500CFDCB0913500B0680C
:1008D000B0933500D2DDB0913500BF77B0933500CD
:1008E000C3DCB0913500B068B0933500C6DDB0917F
:1008F0003500BF77B0933500B7DCB0913B00BF7EC9
:10090000B0933B00B0913500B068B0933500B5DDD1
:10091000B0913500BF77B0933500A6DCB0913500BB
:10092000B068B0933500A9DDB0913500BF77B093C2
:100930003500B0913B00BF7DB0933B00B0913B00D0
:10094000B068B0933B00B0913500B068B09335000B
:1009500094DDB0913500BF77B093350085DCB09160
:100960003B00BF77B0933B00B0913B00B061B093C8
:100970003B00B0913500B068B09335007EDDB0919A
:100980003500BF77B0933500B0913B00BF7EB09388
:100990003B00B0913500B068B09335006EDDB0918A
:1009A0003500BF77B09335005FDCB0913500B0689B
:1009B000B093350062DDB0913500BF77B09335005C
:1009C000B0913B00B061B0933B00B0913500B0688E
:1009D000B093350052DDB0913500BF77B09335004C
:1009E00043DCB0913B00BF7EB0933B00B09135003B
:1009F000B068B093350041DDB0913500BF77B0935A
:100A00003500B0913B00B068B0933B00B0913B0023
:100A1000B064B0933B00B0913B00B062B0933B0038
:100A2000B0913B00B061B0933B00B0913500B0682D
:100A3000B093350022DDB0913500BF77B09335001B
:0E0A400013DCB0916000B160B09360000895C7
:100268001AE303E20A95F1F71A95E1F70000000096
:020278000895E7
:0C047A0002E00A95F1F700000000089570
:1005D80027FAB0913B00B7F9B0933B0026FAB091E7
:1005E8003B00B6F9B0933B0025FAB0913B00B5F952
:1005F800B0933B0024FAB0913B00B4F9B0933B00B0
:10060800B091600000903500E894B0FF689406F857
:1006180000923500B0913500B068B093350029DFFD
:10062800B0913500BF77B093350023FAB0913B0005
:10063800B7F9B0933B0022FAB0913B00B6F9B093FA
:100648003B0021FAB0913B00B5F9B0933B0020FA8A
:10065800B0913B00B4F9B0933B00B09160000090BA
:100668003500E894B0FF689406F800923500B09120
:100678003500B068B0933500FCDEB0913500BF7727
:10068800B0933500B0916000B0FF02C0E9DD01C051
:04069800A1DE089542
:0A03DC0005E80A95F1F70000089506
:10131000CF93DF93CDB7DEB7A497CDBFDEBF2196C5
:101320002F923F924F925F92B1E4B883B0E3B983BA
:10133000B0E0BA838E012801B1E03B2EB1E02B2E44
:10134000A2D8B1E4BB83B1E3BC83B0E0BD838E011E
:101350000D5F1F4F2801B1E03B2EB2E02B2E93D83A
:10136000B1E4BE83B2E3BF83B0E0B8878E010A5F09
:101370001F4F2801B1E03B2EB3E02B2E84D8B1E4FF
:10138000B987B3E3BA87B0E0BB878E01075F1F4F11
:101390002801B1E03B2EB4E02B2E75D8B6E5BC8712
:1013A000B2E5BD87BFE2BE87BDE6BF87B6E5B88BB5
:1013B000B0E0B98B8E01045F1F4F2801BAE03B2ECD
:1013C000B1E02B2E60D8B4E5BA8BB3E6BB8BBFE29D
:1013D000BC8BB0E2BD8BB3E4BE8BB0E0BF8B8E01A3
:1013E0000E5E1F4F2801BAE03B2EB2E02B2E4BD8E9
:1013F000BCE4B88FB4E4B98FBFE2BA8FBCE4BB8F52
:10140000B8E7BC8FB0E0BD8F8E01085E1F4F28018A
:10141000BAE03B2EB3E02B2E36D8B6E5BE8FB9E648
:10142000BF8FBFE2B8A3BDE6B9A3B6E5BAA3B0E0EB
:10143000BBA38E01025E1F4F2801BAE03B2EB4E031
:101440002B2E21D8BDE03B2EB2E02B2EE3DB5F90AC
:101450004F903F902F90A396CDBFDEBFDF91CF91ED
:021460000895ED
:100486002F920FC0B0E82B2E19C0B0EC2B2E16C041
:10049600B4E92B2E13C0B4ED2B2E10C0B0E82B2ED2
:1004A6000DC0B1E02B1671F3B2E02B1671F3B3E079
:1004B6002B1671F3B4E02B1671F3F0CF032D015018
:1004C600020D202E202E85D0B0916000BE7FB09305
:1004D600600010E0E12FF0E0E40DF51D008100233F
:1004E60079F0E12FF0E0E40DF51D00811F932F92C6
:1004F600202EB4DF2F901F91012F0F5F102FEACF10
:0E050600B0916000B160B09360002F90089536
:10046200B0916000BE7FB0936000B5D0B0916000E3
:08047200B160B0936000089531
:100C14004F922F92B0E42B2EDDDC2F9020E007E0E2
:100C2400021788F00AEF16E1E22FF0E0E00FF11F5F
:100C340004912F932F92202E12DC2F902F91022FAC
:100C44000F5F202FECCF2F92B2E02B2EC3DC2F901E
:0C0C54002F924424CDDB2F904F90089588
:1003F4002F920FC0B0E82B2E19C0B0EC2B2E16C0D4
:10040400B4E92B2E13C0B4ED2B2E10C0B0E82B2E64
:100414000DC0B1E02B1671F3B2E02B1671F3B3E00B
:100424002B1671F3B4E02B1671F3F0CF032D0150AA
:10043400020D202EB0916000B160B0936000202EB8
:10044400C9D0B0916000BE7FB0936000242CC2D0AC
:0E045400B0916000B160B09360002F900895E9
:10103600CF93DF93CDB7DEB72397CDBFDEBF219623
:101046006F927F928F929F925F924F923F922F92D2
:101056008101920140E050E060E070E058DA00283B
:1010660000E009F001E02F903F904F905F90002341
:1010760029F000E010E020E83FE3CAC05F924F92FB
:101086003F922F924EEF54ED62EB72E48101920192
:1010960057D9002800E009F001E02F903F904F90CB
:1010A6005F90002329F00FEF1FEF2FE73FE7B0C057
:1010B6005F924F923F922F9240E55CEA6EEA72ECA5
:1010C600810192018DD9002800E009F001E02F90FE
:1010D6003F904F905F90002329F000E010E020E061
:1010E60030E096C05F924F923F922F9240E050E0E0
:1010F60060E070E08101920173D9002800E009F0F8
:1011060001E02F903F904F905F900A83002361F09B
:1011160081019201B0E00B27B0E01B27B0E02B273E
:10112600B0E83B27180129015F924F923F922F9218
:10113600810192014BE35AEA68EB7FE31BD92F90BA
:101146003F904F905F90180129015F924F923F9216
:101156002F9218012901F0DA2F903F904F905F905F
:1011660013D90883198320E017FD2FEF322F30D9CA
:101176005F924F923F922F92A801B901810192018D
:10118600EFD82F903F904F905F90180129015F9202
:101196004F923F922F92B9E08B2EB0E09B2EBAE889
:1011A6006B2EB6E17B2E1801290193DC68807980CD
:1011B60018012901D0DC2F903F904F905F901801C5
:1011C60029010A81002311F15F924F923F922F92DB
:1011D600810192014FEF5FEF6FE77FE798D9002813
:1011E60000E009F001E02F903F904F905F900023C0
:1011F60029F000E010E020E030E00AC0A101B201D1
:1012060000E010E020E83FE389D902C081019201A5
:101216009F908F907F906F902296CDBFDEBFDF911B
:04122600CF910895C7
:10073E00CF93DF93CDB7DEB72497CDBFDEBF219623
:10074E00288239824A825B82FE01019111912191A8
:10075E003191B7E13695279517950795BA95D1F74B
:10076E00107098012F573040A90100E010E02017BB
:10077E003107CCF440E050E060E070E00881198170
:10078E002A813B8129DE002800E009F001E00023E8
:10079E0029F000E010E020E83FEB35C000E010E06B
:1007AE0020E030E030C008E110E00417150728F40F
:1007BE00088119812A813B8126C0088119812A81ED
:1007CE003B81DEDD01DEA801B9017F936F935F935C
:1007DE004F93488159816A817B81AEDD0028B0E05C
:1007EE0009F0B1E00B2F4F915F916F917F91002334
:1007FE0041F08A019B0140E050E060E87FE3ACDD10
:10080E0002C08A019B012396CDBFDEBFDF91CF913F
:02081E0008953B
:0E03E600F8DE1CF40024039401C000240895E6
:0E01D800042E152E262E372EE6DF0023089566
:1001AE00FCDF332332F039DF11F001E003C000270A
:0601BE0001C00FEF0895DF
:0601A8006894A3DF089536
:1000F200CADF09F441C0E62ED52EC42EB32EA22E9D
:10010200912E802E002D112D222D332DBCDF09F4CE
:100112003DC0842F952F8C199D09B9F072F49095EA
:10012200809501964C2D5D2D883180F5359527956A
:10013200179507950197D1F708C08831E8F4B5946F
:10014200A794979487940197D1F766272EF0080D0C
:10015200191D2A1D3B1D09C0801A910AA20AB30A61
:10016200082D192D2A2D3B2D332312F479DF60E857
:1001720091DF01C07EDF16C0002D112D222D332DFF
:10018200D6F751DFC1F340E83427F5CF082D192DFA
:100192002A2D3B2D4C2D5D2D6E2D33235AF760DF1A
:0601A20060E8E8CF0895BB
:0E008800D7DF21F0662309F0E8DF9894089591
:10003800F7DF79F0632F6078220F331F432F5FE7D4
:10004800451B55275040269530E8232B3327989495
:0A00580003C04427552766270895CA
:10002800002329F4112319F4222309F43323089512
:00003800C8
:1000620000951095209530950F5F1F4F2F4F3F4FF2
:020072000895EF
:10009600C8DF11F19F938F938EE790E0332351F0E1
:1000A600369527951795079548175907B4F44F5F66
:1000B6005F4FF4CF80959095019622239AF0000F1A
:1000C600111F221F481759071CF041505040F5CF09
:1000D600002711272227332708C033270FEF102FB9
:0C00E6002FE7322F8F919F91C2DF089509
:10007400D9DF39F041585F4F342F220F3695279539
:04008400362B08957A
:10038E0054DEF1F05523C2F04F31A8F44731C1F0DD
:10039E0050F44195495E05C03595279517950795FB
:1003AE004A95D1F70DC04751000F111F221F331F61
:1003BE004A95D1F705C03FE7232F132F032F03C014
:0803CE00662309F047DE0895E3
:0603D600E894F5DE089535
:1001C40047E16627552726F0332312F448DF60E819
:0401D40060DF08954B
:10034600002E112E222E332E042F152F262F372F57
:100356002BDF00231CF40024039401C0002408951D
:0003660097
:10036600042E152E262E372E1CDF002E112E222EA1
:04037600332E089585
:100B5C00CF93DF93CDB7DEB72497CDBFDEBF219601
:100B6C00288239824A825B820A811B8100781F7736
:100B7C00B7E016950795BA95E1F79801260D371D44
:100B8C00390100E010E0201731072CF400E010E0F0
:100B9C0020E030E033C00FEF10E006151705BCF471
:100BAC0040E050E060E070E08101920116DC00282A
:100BBC0000E009F001E0002329F00FEF1FEF2FE711
:100BCC003FEF1CC00FEF1FEF2FE73FE717C007E009
:100BDC00B02F9301BB2321F0220F331FBA95E1F7FD
:100BEC000A811B812027312720783F772027312746
:100BFC002A833B83088119812A813B812396CDBFAF
:080C0C00DEBFDF91CF910895D6
:100AD8008401000F111F000F111FF801E60DF71D0B
:100AE8000591159125913591A801B901B82DB9291C
:100AF80071F19F928F925F924F923F922F92810154
:100B0800920137DC2F903F904F905F908F909F908D
:100B1800A401415050404A01440F551F440F551F2E
:100B2800FA01E60DF71D45915591659175919F92D2
:100B38008F925F924F923F922F929BDB2F903F9024
:100B48004F905F908F909F90A801B901CFCF8A01F5
:040B58009B01089560
:10037A00042E152E262E372E34DF002E112E222E75
:04038A00332E089571
:1001EC0025DF81F1E62ED52EC42EB32EA22E912E14
:1001FC00802E002D112D222D332D18DF19F16E2597
:10020C004C0D5D1D40385307F4F441387FEF570710
:10021C00FCF088279927AA27BB2770E2B695A795EB
:10022C0097958795379527951795079520F4880D01
:10023C00991DAA1DBB1D7A9589F7032F3A2F292FDB
:10024C00182F23DF0AC00FEF102F2FE73FE7FACF4D
:0C025C000027102F202F302FF5CF089521
:10027A00042E152E262E372EB1DF002E112E222EF9
:04028A00332E089572
:0601E600E89484DF089597
:0E05140061DE19F40024039401C00024089550
:10052200042E152E262E372EB1DE002E112E222E4F
:04053200332E0895C7
:10028E003F932F931F930F93002D112D222D332D5E
:10029E00CCDE09F44BC0E62ED52EC42EB32EA22EE4
:1002AE00912E802E0F911F912F913F91BEDE61F105
:1002BE006E254C195D09403853073CF541387FEFE8
:1002CE0057077CF180E27724632E522E412E302F79
:1002DE00222711270027000F111F221F331F441C36
:1002EE00551C661C771C28F0481859086A087B08AC
:1002FE0004C0480C591C6A1C7B1C0AF001608A95CC
:10030E0051F741505040C0DE16C00FEF102F2FE7AF
:10031E003FE76623C9F381DEB9F3342D30E8342587
:10032E00F3CF0027102F202F302FEECF0F900F90EE
:08033E000F900F90EACF089523
:1012C6002F92B2B3BF7DB2BB022D00680329202E38
:1012D6005DD92ED938D9202F30E03F932F9333D9BB
:1012E6002F913F91402F50E0B2B3B062B2BB122FA4
:1012F6000027042B152B1695079516950795169519
:0A1306000795169507952F9008959E
:1005920018E000E00117F0F4B7E0022D0695BA95D5
:1005A200E9F700FBB2B3B4F9B2BB022D000F202E63
:1005B200B2B3BF7BB2BBB2B3B064B2BB1F931BE09A
:1005C20003E60A95F1F71A95E1F71F91012F015001
:0605D200102FDFCF089599
:10053600B2B3B064B2BB00000000B2B3BF7BB2BBC3
:0605460000000000089512
:10054C0018E000E0202F00E00117D8F4022F000F74
:10055C00202FB2B3B064B2BBB2B3BF7BB2BB1F939C
:10056C001BE003E60A95F1F71A95E1F71F9100B22B
:10057C00002707FC0395022B202F012F0150102F71
:06058C00E2CF022F0895EA
:100D5800CF93DF93CDB7DEB72497CDBFDEBF219603
:100D68002F923F9200E010E020E030E0401651065C
:100D780062067306ECF400E010E020E030E00419AD
:100D880015092609370928013901BDE2B883B0E001
:100D9800B9838E017F926F925F924F923F922801A2
:100DA800322C2F906CDB4F905F906F907F9014C027
:100DB800B0E2BA83B0E0BB838E010E5F1F4F7F9213
:100DC8006F925F924F923F922801322C2F9057DBFF
:100DD8004F905F906F907F9007EE13E020E030E037
:100DE80004151505260537050CF068C00FE017E255
:100DF80020E030E004151505260537050CF45EC023
:100E08007F926F925F924F9240E157E260E070E00C
:100E1800820193013FDC8B019C0148EE53E060E0C6
:100E280070E038DC89019A014F905F906F907F9055
:100E3800005D202E12DB7F926F925F924F9248EEF8
:100E480053E060E070E08201930124DC8B019C0197
:100E580044E650E060E070E01DDC89019A014F90A3
:100E68005F906F907F90005D202EF7DA7F926F92EF
:100E78005F924F9244E650E060E070E08201930197
:100E880009DC8B019C014AE050E060E070E002DC84
:100E980089019A014F905F906F907F90005D202E9E
:100EA800DCDA4AE050E060E070E082019301F2DBB6
:100EB8008B019C01005D202ED0DAB1C003E610E062
:100EC80020E030E004151505260537050CF050C064
:100ED80007EE13E020E030E0041515052605370578
:100EE8000CF446C0B0E22B2EB8DA7F926F925F9274
:100EF8004F9248EE53E060E070E082019301CADB54
:100F08008B019C0144E650E060E070E0C3DB89019E
:100F18009A014F905F906F907F90005D202E9DDA30
:100F28007F926F925F924F9244E650E060E070E0EB
:100F380082019301AFDB8B019C014AE050E060E045
:100F480070E0A8DB89019A014F905F906F907F90C5
:100F5800005D202E82DA4AE050E060E070E0820115
:100F6800930198DB8B019C01005D202E76DA57C037
:100F780009E010E020E030E00415150526053705E6
:100F88000CF038C003E610E020E030E00415150549
:100F9800260537050CF42EC0B0E22B2E5EDAB0E23F
:100FA8002B2E5BDA7F926F925F924F9244E650E06D
:100FB80060E070E0820193016DDB8B019C014AE0E7
:100FC80050E060E070E066DB89019A014F905F9025
:100FD8006F907F90005D202E40DA4AE050E060E09C
:100FE80070E08201930156DB8B019C01005D202E8D
:100FF80034DA15C0B0E22B2E30DAB0E22B2E2DDA1F
:10100800B0E22B2E2ADA4AE050E060E070E082017C
:10101800930140DB8B019C01005D202E1EDA3F907E
:0E1028002F902396CDBFDEBFDF91CF910895AC
:10069C00C9019A01AB01B80197FB092E05260ED0B2
:1006AC0057FD04D014D00AD0001C38F45095409556
:1006BC00309521953F4F4F4F5F4F0895F6F790952A
:1006CC008095709561957F4F8F4F9F4F0895A1E254
:1006DC001A2EAA1BBB1BFD010DC0AA1FBB1FEE1FB0
:1006EC00FF1FA217B307E407F50720F0A21BB30BFB
:1006FC00E40BF50B661F771F881F991F1A9469F777
:10070C0060957095809590959B01AC01BD01CF01D2
:02071C0008953E
:100C6000CF93DF93CDB7DEB72297CDBFDEBF2196FE
:100C70006F927F928F929F925F924F923F922F92AC
:100C800040E050E060E070E08101920148DD002822
:100C900000E009F001E02F903F904F905F9000231B
:100CA00029F000E010E020E030E049C08E0138017A
:100CB000E2DE5F924F923F922F9240E050E060E080
:100CC00070E45BDB40E050E060E87FE34CDB2F90BA
:100CD0003F904F905F901801290148815981415000
:100CE0005040488359835F924F923F922F92B8E0D1
:100CF0008B2EB0E09B2EB6ED6B2EB6E17B2E18014D
:100D00002901EADE2F903F904F905F901801290152
:100D10000881198120E017FD2FEF322F5CDB5F92F5
:100D20004F923F922F9248E152E761E37FE325DB48
:100D30002F903F904F905F90A101B2019EDA9F905B
:100D40008F907F906F902196CDBFDEBFDF91CF91C6
:020D5000089504
:100A7600CF93DF93CDB7DEB72497CDBFDEBF2196E8
:100A8600288239824A825B820A811B8100781F771D
:100A9600B7E016950795BA95E1F70E571040F301A2
:100AA600019311932A813B818901B0E00B27BFE3B3
:100AB6001B2700781F77022713270A831B830881C9
:100AC60019812A813B812396CDBFDEBFDF91CF916D
:020AD600089581
:10071E00002E112E222E332E042F152F262F372F7B
:10072E003FDD00231CF00024039401C00024089533
:00073E00BB
:060D5200689437DA0895F1
:0816FA000609090600000000CA
:1016D600FFE6DB2EC4FF7F3F80EFFFBE90E1A93E11
:1016E600EC8276BE82AD2B3E0E3CC3BD87D1133D48
:0416F6004178D3BBA9
:10168A000000803F1872313FF0FD753E4758633DB8
:10169A0058951D3C82C4AE3AA8782139EF93803719
:0816AA00A092A7354656153445
:0316B200413000C4
:0316B500413100C0
:0316B800413200BC
:0316BB00413300B8
:0616BE0056522F6D56008C
:0616C40054632F204300D7
:0616CA004C442F4C780097
:0616D00056692F6D560063
:00000001FF
