:100000000C94A50D0C9400000C9400000C940000BE
:100010000C9400000C9400000C9400000C94000060
:100020000C9400000C9400000C9400000C94000050
:100030000C9400000C9400000C9400000C94000040
:100040000C9400000C9400000C9400000C94000030
:040050000C9400000C
:101B4A00BFE5BDBFB4E0BEBF0E94890ECDB7DEB708
:101B5A00EF97CDBFDEBF21962F923F924F925F92B1
:101B6A006F927F928F929F92E9EDFCE1DE01D3960C
:101B7A0088E090E07DDF81DFE6EAFCE1DE0185E1D5
:101B8A0090E076DF8E012801B1E03B2EB1E02B2EEA
:101B9A009ADEEBEBFCE1DE0155968AE090E068DF25
:101BAA008E010B5E1F4F2801B2E03B2EB2E02B2EB6
:101BBA008ADEE5ECFCE1DE015F968AE090E058DF20
:101BCA008E01015E1F4F2801B2E03B2EB3E02B2E9F
:101BDA007ADEEFECFCE1DE0199968AE090E048DFDC
:101BEA008E01075D1F4F2801B2E03B2EB4E02B2E79
:101BFA006ADEB2E03B2EB8E02B2E3ADEB4E03B2E92
:101C0A00B8E02B2E35DE9E01295C3F4F8E010D5C1C
:101C1A001F4F29011801A2DD6FA878AC89AC9AACD4
:101C2A002BA83CA84DA85EA895DE0BAF1CAF2DAF24
:101C3A003EAFB1E08B2E4BA85CA86DA87EA8B2E09F
:101C4A003B2EBFE02B2E0BDCB1E08B2E4FA858ACFD
:101C5A0069AC7AACB3E03B2EBFE02B2E00DCB1E0DE
:101C6A008B2E4BAC5CAC6DAC7EACB4E03B2EBFE0D3
:101C7A002B2EF5DB21E218E709E90A95F1F71A9507
:101C8A00E1F72A95D1F70000BECF9F908F907F9001
:0C1C9A006F905F904F903F902F90FFCF15
:101A84002F92B0E0BBBBB0E0BABBBFE0B8BBB0EFD5
:101A9400B7BBB0E0B5BBBFE0B4BBB0E0B2BBB6E728
:101AA400B1BBB0E0B3BFB0E0B2BFB0E0BCBFB0E028
:101AB400BFBDB0E0BEBDB0E0BDBDB0E0BCBDB0E0F8
:101AC400B7BDB0E0B6BDB0E0BBBDB0E0BABDB0E0FC
:101AD400B9BDB0E0B8BDB0E0B2BDB0E0B5BDB0E0F6
:101AE400B4BDB0E0B3BDB0E0B5BFB0E0B4BFB0E0EA
:101AF400B9BFB0E0BBB9B8E1BAB9B6E8B0BDB0E0BF
:101B0400B0BDBCE0B9B9B0E8B8B9B0E0B0BFB0E0BE
:101B1400B6B9B0E0BDB9B0E0B6BF0E944105B1E0CE
:101B24002B2E3BDCBCE02B2E38DC0E94D40429E0B5
:101B34001EE105EE0A95F1F71A95E1F72A95D1F71A
:061B440000002F9008953F
:100A8200B0913200BF7EB0933200B0913200BF7B92
:100A9200B0933200B0913800BF77B0933800B09174
:100AA2003800BF7BB0933800B0913800BF7DB0935F
:100AB2003800B0913800BF7EB0933800B091310059
:100AC200B061B0933100B0913100B064B0933100A5
:100AD200B0913700B061B0933700B0913700B06287
:100AE200B0933700B0913700B064B0933700B09143
:100AF2003700B068B0933700EBDBEADBE9DBB0919B
:100B02003800B062B0933800B0913800B061B09351
:100B12003800B0913200B061B0933200C4DBB091C2
:100B22003200BF7EB0933200D3DBB0913200B061AD
:100B3200B0933200B8DBB0913200BF7EB093320086
:100B4200C7DBB0913200B061B0933200ACDBB09140
:100B52003200BF7EB0933200BBDBB0913800BF7E63
:100B6200B0933800B0913200B061B09332009BDB99
:100B7200B0913200BF7EB0933200AADBB091320056
:100B8200B061B09332008FDBB0913200BF7EB09380
:100B92003200B0913800BF7DB0933800B091380078
:100BA200B068B0933800B0913200B061B0933200B7
:100BB2007ADBB0913200BF7EB093320089DBB09114
:100BC2003800BF77B0933800B0913800B061B0936D
:100BD2003800B0913200B061B093320064DBB09162
:100BE2003200BF7EB0933200B0913800BF7EB09326
:100BF2003800B0913200B061B093320054DBB09152
:100C02003200BF7EB093320063DBB0913200B0613C
:100C1200B093320048DBB0913200BF7EB093320015
:100C2200B0913800B061B0933800B0913200B06139
:100C3200B093320038DBB0913200BF7EB093320005
:100C420047DBB0913800BF7EB0933800B0913200DC
:100C5200B061B093320027DBB0913200BF7EB09317
:100C62003200B0913800B068B0933800B0913800CB
:100C7200B064B0933800B0913800B062B0933800DD
:100C8200B0913800B061B0933800B0913200B061D9
:100C9200B093320008DBB0913200BF7EB0933200D5
:0E0CA20017DBB0916500B160B0936500089556
:1002D20013E708E40A95F1F71A95E1F7000008958B
:0002E2001C
:0A02A80005E00A95F1F70000089543
:10139E0027FAB0913800B7F9B093380026FAB09119
:1013AE003800B6F9B093380025FAB0913800B5F987
:1013BE00B093380024FAB0913800B4F9B0933800E5
:1013CE00B091650000903200E894B0FF689406F882
:1013DE0000923200B0913200B061B09332000E94A0
:1013EE005401B0913200BF7EB093320023FAB09117
:1013FE003800B7F9B093380022FAB0913800B6F938
:10140E00B093380021FAB0913800B5F9B093380096
:10141E0020FAB0913800B4F9B0933800B09165005D
:10142E0000903200E894B0FF689406F80092320003
:10143E00B0913200B061B09332000E945401B0916D
:10144E003200BF7EB0933200B0916500B0FF03C092
:0A145E000E94690101C0D3D808956F
:0E060C0012E009E00A95F1F71A95E1F708955A
:1009A800B4B3BF7EB4BBB4B3B860B4BBB5B3B061C5
:0409B800B5BB08952E
:1018D0002F920FC0B0E82B2E19C0B0EC2B2E16C0E3
:1018E000B4E92B2E13C0B4ED2B2E10C0B0E82B2E74
:1018F0000DC0B1E02B1671F3B2E02B1671F3B3E01B
:101900002B1671F3B4E02B1671F3F0CF032D0150B9
:10191000020D202E202E43DDB0916500BE7FB093D6
:10192000650010E0E12FF0E0E40DF51D00810023DB
:1019300079F0E12FF0E0E40DF51D00811F932F9267
:10194000202E26D82F901F91012F0F5F102FEACF46
:0E195000B0916500B160B09365002F900895CE
:10099000B0916500BE7FB093650001D5B091650050
:0809A000B160B09365000895F9
:10187A004F922F92B0E42B2E8DDD2F9020E028304E
:10188A0088F405E01DE1E22FF0E0E00FF11F04917A
:10189A002F932F92202E77D82F902F91022F0F5F00
:1018AA00202FEDCF2F92B2E02B2E74DD2F903F9296
:1018BA002F923F924424322C2F900E943C042F9066
:0618CA003F904F900895CD
:100878002F920FC0B0E82B2E19C0B0EC2B2E16C04B
:10088800B4E92B2E13C0B4ED2B2E10C0B0E82B2EDC
:100898000DC0B1E02B1671F3B2E02B1671F3B3E083
:1008A8002B1671F3B4E02B1671F3F0CF032D015022
:1008B800020D202EB0916500B160B0936500202E26
:1008C8006AD5B0916500BE7FB0936500242C63D5CE
:0E08D800B0916500B160B09365002F90089557
:10176600CF93DF93CDB7DEB72497CDBFDEBF2196EB
:10177600B0E0B883B983B0E0BA83BB83B0E0B0937E
:1017860064008E015F924F923F922F92442418017B
:1017960019D92F903F904F905F90009364003F922D
:1017A6002F9228803980E7DD40E050E060E271E466
:1017B6000E944A012F903F900E9495030093620079
:1017C600109363008E010E5F1F4F5F924F923F9200
:1017D6002F92B1E04B2E1801F5D800936400488093
:1017E60059802A803B801CDD2F903F904F905F9060
:1017F6003F922F9240E050E060E271E40E944A017D
:101806002F903F900E949503009360001093610013
:10181600009162001091630020E0322F0E940D03B8
:101826005F924F923F922F9240E050E060E271E467
:1018360016D82F903F90F101019311932193319384
:10184600009160001091610020E0322F0E940D038C
:1018560040E050E060E271E402D84F905F90F20100
:1018660001931193219331932396CDBFDEBFDF9170
:04187600CF91089571
:1009CA00CF93DF93CDB7DEB72397CDBFDEBF219696
:1009DA00B0E0B883F101B0E0B193B193E5DD442012
:1009EA0019F0B5E04B2E02C0B3E04B2E3F922F9286
:1009FA00242C5ADE2F903F90002311F001E036C0DC
:100A0A00B4B3BF7EB4BB0881003F90F41FE305E591
:100A1A000A95F1F71A95E1F700000000B3B3B4FDA7
:100A2A0003C0B0E0B88304C008810F5F0883EBCF2E
:100A3A000881002311F002E019C03F922F92B1E021
:100A4A002B2EE9DD0983B1E02B2EE5DD0A83222472
:100A5A00E2DD2F903F900981302F22270A8110E092
:100A6A00022B132BF1010193119300E02296CDBFC3
:080A7A00DEBFDF91CF9108956A
:1005B200B4B3BF7EB4BBB5B3B860B5BB05E00A95B2
:1005C200F1F70000B4B3B061B4BBB5B3BF7EB5BB45
:1005D20005E00A95F1F70000B5B3B77FB5BB05E0BA
:1005E2000A95F1F70000B5B3B860B5BB05E00A950E
:1005F200F1F70000B4B3BF7EB4BB05E00A95F1F792
:0A0602000000B5B3B77FB5BB089543
:1006B20020E810E0B4B3B061B4BB00E00217D0F49C
:1006C200022F022121F0B5B3B061B5BB03C0B5B3AF
:1006D200BF7EB5BBB5B3B860B5BB00E10A95F1F713
:1006E200B5B3B77FB5BB00E10A95F1F7022F0695C6
:1006F200202FE3CFB4B3BF7EB4BBB5B3B061B5BBFB
:10070200B5B3B860B5BB00E10A95F1F7B3B3B4FF76
:1007120002C011E000C005E00A95F1F70000B5B390
:08072200B77FB5BB012F08955C
:1006200010E820E0B4B3BF7EB4BBB5B3B061B5BBD6
:10063000B5B3B77FB5BB00E00117C8F4B5B3B86078
:10064000B5BB05E00A95F1F70000B3B3B4FF04C0F1
:10065000022F012B202F00C0B5B3B77FB5BB05E03B
:100660000A95F1F70000012F0695102FE4CFB4B3DF
:10067000B061B4BBB1E02B1621F4B5B3BF7EB5BBFE
:1006800003C0B5B3B061B5BBB5B3B860B5BB00E1ED
:100690000A95F1F7B5B3B77FB5BB05E00A95F1F759
:1006A0000000B4B3BF7EB4BBB5B3B061B5BB022F1D
:0206B0000895AB
:10137C00810120E0322F4BD94AE057ED63E27CE348
:10138C000E944A0146E656E66EE172E40E94C301F1
:02139C000895B2
:06061A006894E5DD08957F
:1001E80047E16627552726F0332312F476DF60E8C7
:0401F80046DF089541
:1000E20000951095209530950F5F1F4F2F4F3F4F72
:0200F20008956F
:10008600F0DF11F19F938F938EE790E0332351F0C9
:10009600369527951795079548175907B4F44F5F76
:1000A6005F4FF4CF80959095019622239AF0000F2A
:1000B600111F221F481759071CF041505040F5CF19
:1000C600002711272227332708C033270FEF102FC9
:0C00D6002FE7322F8F919F91BADF089521
:10006800002329F4112319F4222309F433230895D2
:0000780088
:1000540009D039F041585F4F342F220F3695279538
:04006400362B08959A
:10029400042E152E262E372EAFDF002E112E222EE1
:0402A400332E089558
:1001FC00D6DF81F1E62ED52EC42EB32EA22E912E53
:10020C00802E002D112D222D332DC9DF19F16E25D5
:10021C004C0D5D1D40385307F4F441387FEF570700
:10022C00FCF088279927AA27BB2770E2B695A795DB
:10023C0097958795379527951795079520F4880DF1
:10024C00991DAA1DBB1D7A9589F7032F3A2F292FCB
:10025C00182F13DF0AC00FEF102F2FE73FE7FACF4D
:0C026C000027102F202F302FF5CF089511
:1001AA005EDF79F0632F6078220F331F432F5FE7FA
:1001BA00451B55275040269530E8232B3327989422
:0A01CA0003C0442755276627089557
:10038600042E152E262E372E29DF002E112E222E74
:04039600332E089565
:0601E200689487DF089518
:1000F400C1DF09F441C0E62ED52EC42EB32EA22EA4
:10010400912E802E002D112D222D332DB3DF09F4D5
:100114003DC0842F952F8C199D09B9F072F49095E8
:10012400809501964C2D5D2D883180F53595279568
:10013400179507950197D1F708C08831E8F4B5946D
:10014400A794979487940197D1F766272EF0080D0A
:10015400191D2A1D3B1D09C0801A910AA20AB30A5F
:10016400082D192D2A2D3B2D332312F4B8DF60E816
:1001740088DF01C06DDF16C0002D112D222D332D17
:10018400D6F770DFC1F340E83427F5CF082D192DD9
:100194002A2D3B2D4C2D5D2D6E2D33235AF79FDFD9
:0601A40060E8E8CF0895B9
:0E00780098D021F0662309F030D098940895B6
:10122600CF93DF93CDB7DEB76C97CDBFDEBF2196E8
:10123600820120E0322FEED93F922F924AE057EDFD
:1012460063E27CE324D846E656E66EE172E498D87B
:101256002F903F90088719872A873B87810120E0D6
:10126600322FD8D9088F198F2A8F3B8F42EA57EE33
:101276006BE376EB0CD8488D598D6A8D7B8D07D83C
:10128600488D598D6A8D7B8D0C8B1D8B2E8B3F8BDC
:1012960004E513EE25E23DE30E944A014C895D898F
:1012A6006E897F8963D840E050E060E870EC5ED8D4
:1012B600088319832A833B8340E050E068EC71E49D
:1012C600088519852A853B855BD8488D598D6A8D99
:1012D6007B8D0C8B1D8B2E8B3F8B0CEA15EC27EA36
:1012E60038E30E944A014AE057ED63E27CE33ED8C8
:1012F6004C895D896E897F890E944A01488159819E
:101306006A817B8133D80C831D832E833F8340E023
:1013160050E068EC72E40E9459010028B0E009F040
:10132600B1E00B2F002339F0B0E0BC83BD83B8ECED
:10133600BE83B2E4BF834DEC5CEC6CEC7DE30C81C8
:101346001D812E813F810BD8002800E009F001E0C5
:10135600002339F0BDECBC83BCECBD83BE83BDE38A
:10136600BF830C811D812E813F816B96CDBFDEBF71
:06137600DF91CF91089504
:10037200042E152E262E372E89DF002E112E222E28
:04038200332E089579
:06028E00E89431DF089541
:1002B200002E112E222E332E042F152F262F372FEC
:1002C200DADF00231CF40024039401C00024089503
:0002D2002C
:10027800B4DF332332F0F4DE11F001E003C00027CD
:0602880001C00FEF089514
:0E03640037DF1CF40024039401C00024089528
:0E01D400042E152E262E372E4DD00023089512
:10072A003FDDF1F05523C2F04F31A8F44731C1F053
:10073A0050F44195495E05C035952795179507955B
:10074A004A95D1F70DC04751000F111F221F331FC1
:10075A004A95D1F705C03FE7232F132F032F03C074
:08076A00662309F0B9DC0895D3
:10086400042E152E262E372EF1DD002E112E222ECB
:04087400332E089582
:100450003F932F931F930F93002D112D222D332D9A
:10046000A4DE09F44BC0E62ED52EC42EB32EA22E48
:10047000912E802E0F911F912F913F9196DE61F169
:100480006E254C195D09403853073CF541387FEF24
:1004900057077CF180E27724632E522E412E302FB5
:1004A000222711270027000F111F221F331F441C72
:1004B000551C661C771C28F0481859086A087B08E8
:1004C00004C0480C591C6A1C7B1C0AF001608A9508
:1004D00051F741505040D7DD16C00FEF102F2FE7D6
:1004E0003FE76623C9F3C0DDB9F3342D30E8342586
:1004F000F3CF0027102F202F302FEECF0F900F902B
:080500000F900F90EACF08955F
:10195E00CF93DF93CDB7DEB72C97CDBFDEBF2196E9
:10196E005F924F923F922F9240E050E068EC72E40B
:10197E00830194010E943204180129010E94B903C7
:10198E002F903F904F905F90088719872A873B874B
:10199E005F924F923F922F9203EC15EF2CE831E4B9
:1019AE00A101B2010E944A012F903F904F905F908B
:1019BE000C831D832E833F8308EB1EE123E733E464
:1019CE00A101B2010E94B901088319832A833B83C6
:1019DE000C811D812E813F817F936F935F934F9377
:1019EE00488159816A817B810E9432044F915F91B7
:1019FE006F917F91488559856A857B850E94B901D3
:101A0E00A801B9017F936F935F934F9348EB5EE10B
:101A1E0063E773E40E944A014F915F916F917F914A
:101A2E000C831D832E833F8303EC15EF2CE831E4EA
:101A3E000E94C301088319832A833B830C811D8175
:101A4E002E813F817F936F935F934F93488159818E
:101A5E006A817B810E9432044F915F916F917F91D9
:0C1A6E002B96CDBFDEBFDF91CF91089515
:10077200CF93DF93CDB7DEB72297CDBFDEBF2196F1
:100782006F927F928F929F925F924F923F922F929F
:1007920040E050E060E070E081019201B7DE0028A5
:1007A20000E009F001E02F903F904F905F9000230E
:1007B20029F000E010E020E030E049C08E0138016D
:1007C20015DE5F924F923F922F9240E050E060E040
:1007D20070E45FDD40E050E060E87FE3D3DD2F901E
:1007E2003F904F905F9018012901488159814150F3
:1007F2005040488359835F924F923F922F92B8E0C4
:100802008B2EB0E09B2EB1EE6B2EBCE17B2E18013D
:1008120029018CDE2F903F904F905F9018012901A3
:100822000881198120E017FD2FEF322F6CDE5F92D5
:100832004F923F922F9248E152E761E37FE329DD35
:100842002F903F904F905F90A101B20191DD9F9058
:100852008F907F906F902196CDBFDEBFDF91CF91B9
:020862000895F7
:1003EE00CF93DF93CDB7DEB72497CDBFDEBF219677
:1003FE00288239824A825B820A811B8100781F77AC
:10040E00B7E016950795BA95E1F70E571040F30130
:10041E00019311932A813B818901B0E00B27BFE341
:10042E001B2700781F77022713270A831B83088157
:10043E0019812A813B812396CDBFDEBFDF91CF91FB
:02044E0008950F
:10052E008401000F111F000F111FF801E60DF71DBA
:10053E000591159125913591A801B901B82DB929CB
:10054E0071F19F928F925F924F923F922F92810103
:10055E00920199DE2F903F904F905F908F909F90D9
:10056E00A401415050404A01440F551F440F551FDE
:10057E00FA01E60DF71D45915591659175919F9282
:10058E008F925F924F923F922F92ECDE2F903F9080
:10059E004F905F908F909F90A801B901CFCF8A01A5
:0405AE009B01089510
:10050E00002E112E222E332E042F152F262F372F8D
:10051E00ACDE00231CF00024039401C000240895D7
:00052E00CD
:06050800E8946EDE089588
:10146800CF93DF93CDB7DEB72497CDBFDEBF2196EC
:101478002F924F925F926F927F928201930151D97E
:10148800088319832A833B838F927F926F925F929E
:101498004F923F922F922801390106DC2F903F90FE
:1014A8004F905F906F907F90088119812A813B81CE
:1014B80027D83F922F92A801B901820193010E9477
:1014C800C30140E050E068EC72E40E944A012F90AA
:1014D8003F908F9026D9088319832A833B8340E065
:1014E80050E060E070E0041715072607370784F41A
:1014F8000880198000E010E0001911090A801B809B
:1015080020E030E020093109088319832A833B83CE
:101518008F923F922F9240E050E060E070E08201AD
:1015280093010E94B201002800E009F001E02F9029
:101538003F908F900023F9F082019301B0E00B27D0
:10154800B0E01B27B0E02B27B0E83B272801390182
:101558007F926F925F924F923F922F923F92BDE29D
:101568004B2E322C2F9084D92F903F904F905F9024
:101578006F907F9012C07F926F925F924F923F92CE
:101588002F923F92B0E24B2E322C2F9071D92F9090
:101598003F904F905F906F907F908F923F922F92E5
:1015A80040E050E46CE176E48201930103DA00281C
:1015B80000E009F001E02F903F908F900023E1F0C8
:1015C8008F923F922F9240E050E563EC77E48201DE
:1015D80093010E94B201002800E009F001E02F9079
:1015E8003F908F90002341F0022D0A5F682C4880BD
:1015F8005980202E74D9A8C08F923F922F9240E034
:1016080050E06AE774E482019301D4D9002800E02D
:1016180009F001E02F903F908F900023E1F08F9226
:101628003F922F9240E050E46CE176E4820193010E
:101638000E94B201002800E009F001E02F903F90DD
:101648008F90002341F0022D0B5F682C4880598051
:10165800202E45D979C08F923F922F9240E050E0DA
:1016680068EC72E482019301A5D9002800E009F032
:1016780001E02F903F908F900023E1F08F923F92EE
:101688002F9240E050E06AE774E4820193010E94DF
:10169800B201002800E009F001E02F903F908F9000
:1016A800002341F0022D0C5F682C48805980202EC1
:1016B80016D94AC08F923F922F9240E050E060E2E4
:1016C80071E48201930176D9002800E009F001E075
:1016D8002F903F908F900023E1F08F923F922F92AE
:1016E80040E050E068EC72E4820193010E94B2018C
:1016F800002800E009F001E02F903F908F90002330
:1017080041F0022D0D5F682C48805980202EE7D8C3
:101718001BC08F923F922F9240E050E060E271E44C
:10172800820193010E94B201002800E009F001E063
:101738002F903F908F90002339F0022D0E5F682C78
:1017480048805980202ECBD87F906F905F904F9023
:0E1758002F902396CDBFDEBFDF91CF91089575
:100CB000CF93DF93CDB7DEB72997CDBFDEBF2196A7
:100CC0002F923F924F925F926F927F92B0E2B883E1
:100CD000B0E2B983B0E2BA83B0E2BB83B0E2BC83D6
:100CE000B0E2BD83B0E0BE8300E010E020E030E081
:100CF000401651066206730674F4FE01BDE2B0832D
:100D000000E010E020E030E0041915092609370959
:100D10002801390103C0FE01B0E2B0830FE017E201
:100D200020E030E004151505260537050CF0AEC0AF
:100D30008E010F5F1F4F0F8318877F926F925F9214
:100D40004F923F922F9240E157E260E070E08201C3
:100D50009301C7DA89019A012F903F904F905F90DD
:100D60006F907F90202F205D0F811885F8012083E0
:100D70008E010E5F1F4F0F8318877F926F925F92D5
:100D80004F923F922F9240E157E260E070E0820183
:100D90009301A7DA8B019C0148EE53E060E070E01C
:100DA000A0DA89019A012F903F904F905F906F9049
:100DB0007F90202F205D0F811885F80120838E0100
:100DC0000D5F1F4F0F8318877F926F925F924F9234
:100DD0003F922F9248EE53E060E070E08201930171
:100DE00080DA8B019C0144E650E060E070E079DA43
:100DF00089019A012F903F904F905F906F907F9064
:100E0000202F205D0F811885F80120838E010C5F53
:100E10001F4F0F8318877F926F925F924F923F927E
:100E20002F9244E650E060E070E08201930159DACD
:100E30008B019C014AE050E060E070E052DA8901E9
:100E40009A012F903F904F905F906F907F90202F4E
:100E5000205D0F811885F80120838E010B5F1F4FE5
:100E60000F8318873F922F924AE050E060E070E0D5
:100E70008201930136DA8B019C012F903F90202F45
:100E8000205D0F811885F8012083BBC107EE13E0B8
:100E900020E030E004151505260537050CF09DC04F
:100EA0000FE017E220E030E00415150526053705B0
:100EB0000CF493C08E010F5F1F4F0F8318877F9232
:100EC0006F925F924F923F922F9240E157E260E023
:100ED00070E08201930105DA8B019C0148EE53E03A
:100EE00060E070E0FED989019A012F903F904F9009
:100EF0005F906F907F90202F205D0F811885F80103
:100F000020838E010E5F1F4F0F8318877F926F9291
:100F10005F924F923F922F9248EE53E060E070E074
:100F200082019301DED98B019C0144E650E060E030
:100F300070E0D7D989019A012F903F904F905F9030
:100F40006F907F90202F205D0F811885F8012083FE
:100F50008E010D5F1F4F0F8318877F926F925F92F4
:100F60004F923F922F9244E650E060E070E08201A1
:100F70009301B7D98B019C014AE050E060E070E03A
:100F8000B0D989019A012F903F904F905F906F9058
:100F90007F90202F205D0F811885F80120838E011E
:100FA0000C5F1F4F0F8318873F922F924AE050E04B
:100FB00060E070E08201930194D98B019C012F9035
:100FC0003F90202F205D0F811885F80120838E012E
:100FD000F8013596B0E2B08314C103E610E020E0DA
:100FE00030E004151505260537050CF07BC007EE2B
:100FF00013E020E030E004151505260537050CF454
:1010000071C08E010F5F1F4F0F8318877F926F9201
:101010005F924F923F922F9248EE53E060E070E073
:10102000820193015ED98B019C0144E650E060E0AF
:1010300070E057D989019A012F903F904F905F90AF
:101040006F907F90202F205D0F811885F8012083FD
:101050008E010E5F1F4F0F8318877F926F925F92F2
:101060004F923F922F9244E650E060E070E08201A0
:10107000930137D98B019C014AE050E060E070E0B9
:1010800030D989019A012F903F904F905F906F90D7
:101090007F90202F205D0F811885F80120838E011D
:1010A0000D5F1F4F0F8318873F922F924AE050E049
:1010B00060E070E08201930114D98B019C012F90B4
:1010C0003F90202F205D0F811885F80120838E012D
:1010D000F8013496B0E2B0838E01F8013596B0E2A3
:1010E000B0838FC009E010E020E030E00415150562
:1010F000260537050CF059C003E610E020E030E08B
:1011000004151505260537050CF44FC08E010F5F39
:101110001F4F0F8318877F926F925F924F923F927B
:101120002F9244E650E060E070E082019301D9D84C
:101130008B019C014AE050E060E070E0D2D8890168
:101140009A012F903F904F905F906F907F90202F4B
:10115000205D0F811885F80120838E010E5F1F4FDF
:101160000F8318873F922F924AE050E060E070E0D2
:1011700082019301B6D88B019C012F903F90202FC4
:10118000205D0F811885F80120838E01F8013396C8
:10119000B0E2B0838E01F8013496B0E2B0838E01E4
:1011A000F8013596B0E2B0832CC08E010F5F1F4F5F
:1011B0000F8318873F922F924AE050E060E070E082
:1011C000820193018ED88B019C012F903F90202F9C
:1011D000205D0F811885F80120838E01F801329679
:1011E000B0E2B0838E01F8013396B0E2B0838E0195
:1011F000F8013496B0E2B0838E01F8013596B0E282
:10120000B0838E013F922801322C2F9061D37F90C2
:101210006F905F904F903F902F902896CDBFDEBF8C
:06122000DF91CF9108955B
:1002E200C9019A01AB01B80197FB092E05260ED070
:1002F20057FD04D014D00AD0001C38F45095409514
:10030200309521953F4F4F4F5F4F0895F6F79095E7
:100312008095709561957F4F8F4F9F4F0895A1E211
:100322001A2EAA1BBB1BFD010DC0AA1FBB1FEE1F6D
:10033200FF1FA217B307E407F50720F0A21BB30BB8
:10034200E40BF50B661F771F881F991F1A9469F734
:1003520060957095809590959B01AC01BD01CF0190
:020362000895FC
:1008E600CF93DF93CDB7DEB72697CDBFDEBF219678
:1008F6002F923F924F925F92BEE2B883B0E2B983E5
:10090600B0E2BA83B0E0BB838E010F5F1F4F0C834A
:100916001D836F925F924F923F922F924AE050E072
:10092600820138DD8B012F903F904F905F906F9042
:10093600202F205D0C811D81F801208301E0061522
:10094600A0F48E010E5F1F4F0C831D833F922F92E2
:100956004AE050E082011EDD8C012F903F90202F4F
:10096600205D0C811D81F80120838E013F922801B4
:10097600322C2F90AAD75F904F903F902F902596BC
:0A098600CDBFDEBFDF91CF910895D1
:10039A00C801BA0197FB092E07260AD077FD04D0B7
:1003AA000CD006D000201AF4709561957F4F0895FD
:1003BA00F6F7909581959F4F0895AA1BBB1B51E1B3
:1003CA0007C0AA1FBB1FA617B70710F0A61BB70BBB
:1003DA00881F991F5A95A9F780959095BC01CD0160
:0403EA0008950895D5
:0E09BC000BDC1CF00024039401C000240895FD
:0A1A7A0005900D920197E1F7089521
:101D1200A0E6B0E0EDE0FDE185E090E00E943D0D3F
:021D2200089522
:081D05000006090906000000B8
:101CE100FFE6DB2EC4FF7F3F80EFFFBE90E1A93E00
:101CF100EC8276BE82AD2B3E0E3CC3BD87D1133D37
:041D01004178D3BB97
:021D0D000000D4
:021D0F000000D2
:011D110000D1
:101CA60053485431782052482D54656D7020536541
:051CB6006E736F720067
:0A1CBB0054656D702E2F20433A008F
:0A1CC500522E48756D2F20253A00BD
:0A1CCF0044657720502F20433A00AF
:041CD9000000000007
:041CDD000000000003
:00000001FF
