:1000000019C0FECFFDCFFCCFFBCFFACFF9CFF8CF91
:10001000F7CFF6CFF5CFF4CFF3CFF2CFF1CFF0CFCC
:10002000EFCFEECFEDCFECCFEBCFEACFE9CFE8CFFC
:10003000E7CFE6CFECE7FDE00994002329F4112394
:1000400019F4222309F433230895F7DF79F0632F9D
:100050006078220F331F432F5FE7451B5527504021
:10006000269530E8232B3327989403C0442755273F
:1000700066270895E2DF39F041585F4F342F220F91
:1000800036952795362B0895009510952095309537
:100090000F5F1F4F2F4F3F4F0895D7DF21F066238B
:1000A00009F0F2DF98940895C8DF11F19F938F93C0
:1000B0008EE790E0332351F03695279517950795F5
:1000C00048175907B4F44F5F5F4FF4CF8095909570
:1000D000019622239AF0000F111F221F481759077B
:1000E0001CF041505040F5CF00271127222733271D
:1000F00008C033270FEF102F2FE7322F8F919F91DA
:10010000B9DF0895CADF09F441C0E62ED52EC42E0A
:10011000B32EA22E912E802E002D112D222D332DA7
:10012000BCDF09F43DC0842F952F8C199D09B9F0CF
:1001300072F49095809501964C2D5D2D883180F557
:1001400035952795179507950197D1F708C0883100
:10015000E8F4B594A794979487940197D1F766270C
:100160002EF0080D191D2A1D3B1D09C0801A910A89
:10017000A20AB30A082D192D2A2D3B2D332312F480
:1001800083DF60E891DF01C075DF16C0002D112DFF
:10019000222D332DD6F751DFC1F340E83427F5CFB8
:1001A000082D192D2A2D3B2D4C2D5D2D6E2D332321
:1001B0005AF76ADF60E8E8CF08956894A3DF0895EE
:1001C000FCDF332332F039DF11F001E003C00027F8
:1001D00001C00FEF089539DF81F1E62ED52EC42E30
:1001E000B32EA22E912E802E002D112D222D332DD7
:1001F0002CDF19F16E254C0D5D1D40385307F4F4CA
:1002000041387FEF5707FCF088279927AA27BB279B
:1002100070E2B695A7959795879537952795179589
:10022000079520F4880D991DAA1DBB1D7A9589F7A5
:10023000032F3A2F292F182F37DF0AC00FEF102F67
:100240002FE73FE7FACF0027102F202F302FF5CFD1
:100250000895042E152E262E372EB2DF0023089582
:10026000F8DF19F40024039401C0002408950091DC
:100270007C00007E022900937C00B0917A00B0647B
:10028000B0937A00B0917A00B6FF01C0FBCF209105
:10029000780030E000917900102F0027022B132BFB
:1002A0000895CF93DF93CDB7DEB72497CDBFDEBFE0
:1002B0002196288239824A825B820A811B810078DA
:1002C0001F77B7E016950795BA95E1F79801260DC7
:1002D000371D390100E010E0201731072CF400E051
:1002E00010E020E030E033C00FEF10E006151705F6
:1002F000BCF440E050E060E070E081019201B9D0D0
:10030000002800E009F001E0002329F00FEF1FEFC3
:100310002FE73FEF1CC00FEF1FEF2FE73FE717C09E
:1003200007E0B02F9301BB2321F0220F331FBA95B2
:10033000E1F70A811B812027312720783F7720278A
:1003400031272A833B83088119812A813B812396A7
:10035000CDBFDEBFDF91CF910895CF93DF93CDB7AF
:10036000DEB72497CDBFDEBF2196288239824A822C
:100370005B820A811B8100781F77B7E0169507958D
:10038000BA95E1F70E571040F301019311932A81BA
:100390003B818901B0E00B27BFE31B2700781F7763
:1003A000022713270A831B83088119812A813B8135
:1003B0002396CDBFDEBFDF91CF9108952F920FC05E
:1003C000B0E82B2E19C0B0EC2B2E16C0B4E92B2EA2
:1003D00013C0B4ED2B2E10C0B0E82B2E0DC0B1E031
:1003E0002B1671F3B2E02B1671F3B3E02B1671F3F9
:1003F000B4E02B1671F3F0CF032D0150020D202E27
:10040000B0910901B160B0930901202E0ED7B091CF
:100410000901BE7FB0930901242C07D7B0910901CF
:10042000B160B09309012F9008950FDEF1F05523CC
:10043000C2F04F31A8F44731C1F050F44195495E04
:1004400005C035952795179507954A95D1F70DC0A5
:100450004751000F111F221F331F4A95D1F705C0C6
:100460003FE7232F132F032F03C0662309F00CDE71
:100470000895EFDE1CF40024039401C000240895C5
:1004800036D7F5DE0895042E152E262E372EA3DE40
:10049000002E112E222E332E0895002E112E222EE4
:1004A000332E042F152F262F372F8ADE00231CF022
:1004B0000024039401C0002408953F932F931F93B9
:1004C0000F93002D112D222D332DBFDD09F44BC0CC
:1004D000E62ED52EC42EB32EA22E912E802E0F9155
:1004E0001F912F913F91B1DD61F16E254C195D098E
:1004F000403853073CF541387FEF57077CF180E2E5
:100500007724632E522E412E302F222711270027C9
:10051000000F111F221F331F441C551C661C771C23
:1005200028F0481859086A087B0804C0480C591C70
:100530006A1C7B1C0AF001608A9551F741505040BB
:10054000B3DD16C00FEF102F2FE73FE76623C9F387
:1005500074DDB9F3342D30E83425F3CF0027102FA4
:10056000202F302FEECF0F900F900F900F90EACFEB
:100570000895E894C7DD0895CF93DF93CDB7DEB734
:100580002C97CDBFDEBF21966F927F925F924F92E4
:100590003F922F9240E050E060E070E081019201D4
:1005A0007CDF002800E009F001E02F903F904F90A1
:1005B0005F90002329F000E010E020E030E0B9C0B7
:1005C000288239824A825B825F924F923F922F92B9
:1005D00040E050E060E87FE3810192014ADF0028BB
:1005E00000E009F001E02F903F904F905F900023D2
:1005F000A9F05F924F923F922F92488159816A8170
:100600007B8100E010E020E83FE3A5D02F903F90F1
:100610004F905F90088319832A833B838E01065F86
:100620001F4F5F924F923F922F923801288039805E
:100630004A805B8092DE4A855B85559547953A01F5
:10064000180129012EDE2F903F904F905F90088374
:1006500019832A833B835F924F923F922F9240E00F
:1006600050E060E87FE38101920103DF002800E0B1
:1006700009F001E02F903F904F905F900023A9F088
:100680005F924F923F922F92488159816A817B817C
:1006900000E010E020E83FE35ED02F903F904F90C5
:1006A0005F90088319832A833B83B4E1B887B0E065
:1006B000B9875F924F923F922F92488159816A8108
:1006C0007B818101920147D0488159816A817B8178
:1006D0009CD040E050E060E070E43DD00C831D838E
:1006E0002E833F83488159816A817B81B9DD00284F
:1006F000B0E009F0B1E00B2F2F903F904F905F904A
:10070000002309F012C00C811D812E813F810883D6
:1007100019832A833B830885198501501040088777
:100720001987B02FB12B09F0C4CF088119812A8114
:100730003B817F906F902B96CDBFDEBFDF91CF9135
:10074000089587DD1CF00024039401C0002408955F
:10075000689437D10895042E152E262E372EADDE3F
:10076000002E112E222E332E0895CF93DF93CDB776
:10077000DEB72596488159816A817B817F936F938B
:100780005F934F939F928F927F926F925F924F925F
:100790003F922F9281019201D4DF002800E009F0FE
:1007A00001E02F903F904F905F906F907F908F90DF
:1007B0009F904F915F916F917F91002319F08A0173
:1007C0009B0120C09F928F927F926F925F924F9277
:1007D0003F922F92A301B401810192015EDE0028B5
:1007E00000E009F001E02F903F904F905F906F90F4
:1007F0007F908F909F90002319F08301940102C095
:1008000081019201DF91CF910895042E152E262E9D
:10081000372EAFDE002E112E222E332E0895042EF9
:10082000152E262E372EC9DC002E112E222E332E09
:100830000895C801BA01AA1BBB1B51E107C0AA1F3A
:10084000BB1FA617B70710F0A61BB70B881F991F71
:100850005A95A9F780959095089500E41FE120E04E
:1008600030E00895B0910901BE7FB0930901DDD455
:10087000B0910901B160B09309010895022C022CD6
:10088000B4E00B1A00E0001530F4B1E00B1A0000E0
:1008900000000000F7CF000000000895BB27AA2742
:1008A0009927882700FF04C0840F951FA61FB71F34
:1008B000440F551F661F771F369527951795079587
:1008C00089F730502040100769F79D018C01089589
:1008D000C9019A01AB01B801A1E21A2EAA1BBB1BE8
:1008E000FD010DC0AA1FBB1FEE1FFF1FA217B307FC
:1008F000E407F50720F0A20BB30BE40BF50B661F22
:10090000771F881F991F1A9469F7609570958095D5
:10091000909508951AE303E20A95F1F71A95E1F725
:10092000000000000895CF93DF93CDB7DEB72D9779
:10093000CDBFDEBF21962F923F924F925F92B0E0E3
:10094000B883B0E0B983BA83BB83BC830881003429
:10095000F8F4222495DD20E0322FFADEA801B90157
:1009600092DD09871A872B873C8709811A812B81A1
:100970003C81EEDE49855A856B857C8546DF55DDF9
:1009800009831A832B833C8308810F5F0883DECFA2
:1009900009811A812B813C81B6E036952795179500
:1009A0000795BA95D1F7D4DE18012901E5DD5F90EE
:1009B0004F903F902F902C96CDBFDEBFDF91CF910F
:1009C000089547E16627552726F0332312F45CDBB0
:1009D00060E86ADB0895CF93DF93CDB7DEB7229747
:1009E000CDBFDEBF21962F923F92B0E0B883B9838E
:1009F0008F923F922F9240E050E060E271E48201DA
:100A0000930137DD002800E009F001E02F903F90CE
:100A10008F90002381F08F923F922F928201930159
:100A200040E050E06AE774E42EDD2F903F908F9015
:100A3000FCDC088319838F923F922F9240E050E0B4
:100A400060E271E4820193017CDE002800E009F09D
:100A500001E02F903F908F90002319F18F923F92E9
:100A60002F9240E050E068EC72E48201930101DDD6
:100A7000002800E009F001E02F903F908F900023C4
:100A800081F08F923F922F928201930140E050E0DB
:100A900068EC72E4F8DC2F903F908F90C6DC0883FE
:100AA000198348EE53E008811981C3DE8C01005D93
:100AB0008F927F926F925F924F923F92402E322C94
:100AC0002F907CDC4F905F906F907F908F90B1E083
:100AD0008B1609F060C040E050E060E271E48201F2
:100AE0009301C7DC002800E009F001E0002359F081
:100AF0007F926F925F924F92BEE22B2EB3DE4F90A9
:100B00005F906F907F9044E650E00881198191DEFC
:100B10008C014AE050E08DDE8D01005D7F926F9286
:100B20005F924F92202E9EDE4F905F906F907F904D
:100B300040E050E060E271E48201930102DE0028AF
:100B400000E009F001E0002381F040E050E068ECB3
:100B500072E4820193018DDC002800E009F001E0DD
:100B6000002319F0BEE22B2E7DDE4AE050E0088122
:100B700019815FDE8C014AE050E05BDE8D01005D93
:100B8000202E70DE4AE050E00881198152DE8D018E
:100B9000005D202E67DE3F902F902196CDBFDEBFF7
:100BA000DF91CF91089505E80A95F1F700000895C7
:100BB00002E00A95F1F7000000000895E89401DFD3
:100BC000089505900D920197E1F70895CF93DF9373
:100BD000CDB7DEB7AE97CDBFDEBF21962F923F9245
:100BE0004F925F926F927F928F929F92E6E7FBE126
:100BF000DE01149688E090E0E4DFB0E0B0930001FD
:100C000092DE13DC0C871D8700910001073008F08D
:100C10004AC000910001202F30E0220F331F0AE06C
:100C200011E0F901E00FF11F219131910C851D8533
:100C30002017310790F160910001262F30E0220F3C
:100C4000331F0AE011E0F901E00FF11F019111914A
:100C50000C831D83462F50E04F5F5F4F9A01220F98
:100C6000331F0AE011E0F901E00FF11F019111912A
:100C70000E831F8301E011E0E62FF0E0E00FF11F8B
:100C800000810887B0E0B98701E011E0FA01E00FC8
:100C9000F11F00810A87B0E0BB87009100010F5F60
:100CA00000930001B1CF0A851B8520E0322F50DD73
:100CB0000AA71BA72CA73DA70885198520E0322F7E
:100CC00047DD0EA31FA328A739A70E811F8120E0AF
:100CD000322F3EDD0AA31BA32CA33DA30C811D8153
:100CE00020E0322F35DD0E8F1F8F28A339A30C850E
:100CF0001D8520E0322F2CDDAAA4BBA4CCA4DDA44A
:100D00006EA07FA088A499A42AA03BA04CA05DA0BF
:100D10004E8D5F8D68A179A1DF92CF92BF92AF9285
:100D20009F928F927F926F925F924F923F922F92FB
:100D30003A014B0118012901E7D2ADB7BEB71C96A5
:100D4000ADBFBEBF088319832A833B8340E050E0D8
:100D500060E271E4A2DB0028B0E009F0B1E00B2F03
:100D6000002339F0B0E0B883B983B0E2BA83B1E4CC
:100D7000BB8340E050E060EA72E4088119812A8177
:100D80003B81DFDC002800E009F001E0002339F0BE
:100D9000B0E0B883B983B0EABA83B2E4BB83088118
:100DA00019812A813B819F908F907F906F905F90F7
:100DB0004F903F902F90AD96CDBFDEBFDF91CF918A
:100DC0000895CF93DF93CDB7DEB72497CDBFDEBFB5
:100DD000219643DD48EE53E060E070E05FDDA10165
:100DE00060E0762F75DD8B019C0136952795179570
:100DF00007950883198331DDA20160E0762F4EDD6F
:100E00004881598160E0762F440F551F661F771F78
:100E10005FDD8B019C01A801B9017F936F935F9304
:100E20004F934AE050E00881198103DD8C014F9116
:100E30005F916F917F910883198300E010E020E0BB
:100E400030E0041715072607370708F07DC0E0914A
:100E50001C01F0911D01108100912101012BE091F5
:100E60001C01F0911D0100838E01F8013196008173
:100E7000002319F1B0E0BA83BB83342F452F562FDE
:100E8000672F8E01F801319620810A811B8102179C
:100E9000B0E01B0768F43F922F922224EFDC2F90E2
:100EA0003F900A811B810F5F1F4F0A831B83E9CF8D
:100EB000762F652F542F432F00C0FE0100813F92F3
:100EC0002F92202EDBDC2F903F90E0911C01F091BF
:100ED0001D011081009120010123E0911C01F0917E
:100EE0001D0100838E01F801319600810023D9F0A5
:100EF000B0E0BA83BB838E01F801319620810A816C
:100F00001B810217B0E01B0768F43F922F92222446
:100F1000B5DC2F903F900A811B810F5F1F4F0A8322
:100F20001B83E9CF00C0FE0100813F922F92202E4B
:100F3000A5DC2F903F908A019B010150104020407A
:100F40003040A801B90179CFE0911C01F0911D0159
:100F50001081009120010123E0911C01F0911D01FD
:100F600000832396CDBFDEBFDF91CF9108952F92EE
:100F70000FC0B0E82B2E19C0B0EC2B2E16C0B4E970
:100F80002B2E13C0B4ED2B2E10C0B0E82B2E0DC0AD
:100F9000B1E02B1671F3B2E02B1671F3B3E02B1610
:100FA00071F3B4E02B1671F3F0CF032D0150020D55
:100FB000202E202E3AD1B0910901BE7FB0930901B5
:100FC00010E0E12FF0E0E40DF51D0081002379F041
:100FD000E12FF0E0E40DF51D00811F932F92202EEC
:100FE00041DC2F901F91012F0F5F102FEACFB0919E
:100FF0000901B160B09309012F900895B0912500C7
:10100000B77FB0932500B0912500BB7FB09325003A
:10101000B0912500BF77B0932500B0912500BF7B2C
:10102000B0932500B0912500BF7DB0932500B0910D
:101030002500BF7EB0932500B0912400B860B09326
:101040002400B0912400B460B0932400B091240037
:10105000B061B0932400B0912400B062B09324003A
:10106000B0912400B064B0932400B0912400B06823
:10107000B09324004FDC4EDC4DDCB0912500B06213
:10108000B0932500B0912500B061B0932500B091D8
:101090002500B860B09325008BDDB0912500B77FA7
:1010A000B093250037DCB0912500B860B0932500DF
:1010B0007FDDB0912500B77FB09325002BDCB09188
:1010C0002500B860B093250073DDB0912500B77F8F
:1010D000B09325001FDCB0912500BF7EB0932500A2
:1010E000B0912500B860B093250062DDB091250075
:1010F000B77FB09325000EDCB0912500B860B093A7
:10110000250056DDB0912500B77FB0932500B09142
:101110002500BF7DB0932500B0912500B068B09345
:101120002500B0912500B860B093250041DDB09155
:101130002500B77FB0932500EDDBB0912500BF7788
:10114000B0932500B0912500B061B0932500B09117
:101150002500B860B09325002BDDB0912500B77F46
:10116000B0932500B0912500BF7EB0932500B091CB
:101170002500B860B09325001BDDB0912500B77F36
:10118000B0932500C7DBB0912500B860B09325006F
:101190000FDDB0912500B77FB0932500B0912500F9
:1011A000B061B0932500B0912500B860B0932500E0
:1011B000FFDCB0912500B77FB0932500ABDBB09189
:1011C0002500BF7EB0932500B0912500B860B09394
:1011D0002500EEDCB0912500B77FB0932500B091DB
:1011E0002500B068B0932500B0912500B064B0939D
:1011F0002500B0912500B062B0932500B091250084
:10120000B061B0932500B0912500B860B09325007F
:10121000CFDCB0912500B77FB09325007BDBB09188
:101220000901B160B0930901089527FAB091250032
:10123000B7F9B093250026FAB0912500B6F9B0931E
:10124000250025FAB0912500B5F9B093250024FAC0
:10125000B0912500B4F9B0932500B0910901009038
:101260002500E894B0FF689402F800922500B09140
:101270002500B860B09325009BDCB0912500B77FB6
:10128000B093250023FAB0912500B7F9B09325005B
:1012900022FAB0912500B6F9B093250021FAB09159
:1012A0002500B5F9B093250020FAB0912500B4F9D6
:1012B000B0932500B091090100902500E894B0FF9B
:1012C000689402F800922500B0912500B860B093B0
:1012D00025006EDCB0912500B77FB0932500B0915A
:1012E0000901B0FF02C016DB01C05DDC0895B7E361
:1012F000B0931E01B1E0B0931F01B7E8B0937A003C
:10130000B0E0B0937C000895CF93DF93CDB7DEB704
:101310006097CDBFDEBF21960C891D892E893F893C
:101320000C8B1D8B2E8B3F8B088D198D2A8D3B8D41
:10133000088F198F2A8F3B8F0C8D1D8D2E8D3F8D21
:101340000C8F1D8F2E8F3F8F9F928F927F926F9267
:101350005F924F923F922F92488D598D6A8D7B8D6F
:101360000C8D1D8D2E8D3F8D5ADA2F903F904F9012
:101370005F906F907F908F909F900C871D872E8736
:101380003F879F928F927F926F925F924F923F9290
:101390002F92A301B4010C891D892E893F893FDA60
:1013A000088319832A833B830C851D852E853F8501
:1013B000488159816A817B81CED92F903F904F908F
:1013C0005F906F907F908F909F900C871D872E87E6
:1013D0003F87A301B4018101920121DA4C855D852B
:1013E0006E857F8550D8488D598D6A8D7B8D0DDA3D
:1013F0002F96CDBFDEBFDF91CF910895CF93DF93BE
:10140000CDB7DEB725962F923F924F925F926F92A3
:101410007F928F929F92088119812A813B81088354
:1014200019832A833B830C811D812E813F810C838C
:101430001D832E833F83088508877F926F925F927A
:101440004F92B1E08B2EC7DA4F905F906F907F90F4
:101450000885013049F57F926F925F924F9237D2A3
:101460004F905F906F907F90023049F4820193011A
:101470004AE057ED63E27CE3C8D9280139017F9245
:101480006F925F924F9223D24F905F906F907F90B8
:10149000033049F44AE057ED63E27CE382019301B3
:1014A000BED92801390128C07F926F925F924F9276
:1014B0000ED24F905F906F907F90023049F482017E
:1014C000930140E050E060E07FE39FD928013901BB
:1014D0007F926F925F924F92FAD14F905F906F9090
:1014E0007F90033049F440E050E060E07FE3820108
:1014F000930195D928013901120123016C807D8067
:101500008E809F80088119812A813B813F932F9390
:101510001F930F932AD9ADB7BEB71496ADBFBEBF08
:10152000280139019F908F907F906F905F904F902E
:101530003F902F90DF91CF910895B42D31E0BB23E0
:1015400019F0330FBA95E9F730932101032F009575
:101550000093200120921C0130921D01122D232D99
:101560001150204010931A0120931B01E12FF22FFC
:101570000081032BE12FF22F0083E0911C01F091F9
:101580001D011081009120010123E0911C01F091C7
:101590001D0100830895CF93DF93CDB7DEB7AF97DA
:1015A000CDBFDEBF21962F923F924F925F926F92F6
:1015B0007F928F929F92B0E0BFA3B8A7B9A7BAA7B6
:1015C000B881BE7FB883B0E0B0930001B1E02B2EAC
:1015D0002CDEE0E3FBE1DE01119681E190E0F1DA3F
:1015E0008E010F5F1F4F2801B1E03B2EB1E02B2E83
:1015F000BEDC25E217E80CE80A95F1F71A95E1F749
:101600002A95D1F700000000B1E02B2E0EDEB4E4E5
:10161000BA8BBAE3BB8BB0E0BC8B8E010E5E1F4F62
:101620002801B3E03B2EB1E02B2EA1DCB3E5BD8B4E
:10163000BAE3BE8BB0E0BF8B8E010B5E1F4F28015B
:10164000BCE03B2EB1E02B2E92DCB6E5B88FBAE3BE
:10165000B98FB0E0BA8F8E01085E1F4F2801B3E04A
:101660003B2EB2E02B2E83DCB0E04B2E5B2EB0E2A3
:101670006B2EB0E47B2EB2E03B2EB5E02B2EB1E01A
:10168000BF93B0E0BF93BF93BF93BF93B0E4BF934A
:10169000B0EABF93B0E0BF93BF93B0DEADB7BEB7C3
:1016A0001996ADBFBEBF0BA31CA32DA33EA30091F3
:1016B0000001083008F0FAC00091000110E00F5F4F
:1016C0001F4F20E017FD2FEF322F78DA88242801F2
:1016D0003901B1E03B2EBEE02B2E7DD9F8D004308D
:1016E00021F40880B1E00B260882B881B0FF3BC02E
:1016F000BEE3BB8FB0E0BC8F8E01055E1F4F28019B
:10170000B1E03B2EB2E02B2E32DCB0E2BD8FB0E078
:10171000BE8F8E01035E1F4F2801B1E03B2EB1E06A
:101720002B2E25DC4BA05CA06DA07EA0B2E03B2E52
:10173000B5E02B2EB1E0BF93B0E0BF93BF93BF9352
:10174000BF93B0E4BF93B0EABF93B0E0BF93BF9341
:1017500055DEADB7BEB71996ADBFBEBF0BA31CA378
:101760002DA33EA33CC0BEE3BF8FB0E0B8A38E0163
:10177000015E1F4F2801B1E03B2EB1E02B2EF7DBBD
:10178000B0E2B9A3B0E0BAA38E010F5D1F4F2801EC
:10179000B1E03B2EB2E02B2EEADB4FA058A469A4A7
:1017A0007AA4B1E03B2EB5E02B2EB0E0BF93B1E4BC
:1017B000BF93B0E1BF93B0E0BF93BF93B2E4BF93D8
:1017C000B4EBBF93B0E0BF93BF9318DEADB7BEB725
:1017D0001996ADBFBEBF0FA318A729A73AA725E04A
:1017E0001FE002EF0A95F1F71A95E1F72A95D1F774
:1017F0006ED0013009F059C000910001202F30E077
:10180000220F331F0AE011E0020F131F0DA71EA7BE
:1018100066247724882499242BA03CA04DA05EA0A8
:10182000B4E4BF93BFE7BF93B0ECBF93B0E0BF9306
:10183000B0E0BF93BF93BF93BF93B0E4BF93B0EA50
:10184000BF93B0E0BF93BF935FDDADB7BEB71C964B
:10185000ADBFBEBFE5E1F2E009952DA53EA5F901BA
:101860000193119321E031E00091000110E0020F9B
:10187000131F0DA71EA70FA118A529A53AA5E5E1DD
:10188000F2E009951DA52EA5E12FF22F008325E09A
:101890001FE002EF0A95F1F71A95E1F72A95D1F7C3
:1018A000009100010F5F0093000101CFB1E02B2EEA
:1018B000BCDC9F908F907F906F905F904F903F9097
:1018C0002F90AE96CDBFDEBFDF91CF9108952F92BE
:1018D0003F924F925F92B9B1B0FF0BC0BAE04B2E6E
:1018E000B0E05B2EB8EE2B2EB3E03B2E6ADA01E0BF
:1018F0002BC0B9B1B1FF0BC0B5E04B2EB0E05B2EF1
:10190000B8EB2B2EBBE03B2E5CDA02E01DC0B9B178
:10191000B2FF0BC0B5E04B2EB0E05B2EB0ED2B2E2E
:10192000B7E03B2E4EDA03E00FC0B9B1B3FF0BC0F6
:10193000BAE04B2EB0E05B2EB0E22B2EB3E03B2E94
:1019400040DA04E001C000E05F904F903F902F909C
:1019500008952F923F924F92B0E8B0936100B0E0AB
:10196000B0936100B0E0B4B9B0E0B7B9B0EFBAB9C4
:10197000B0E0B5B9B0E0B8B9B0E0BBB9B0E0BCBD5B
:10198000B0E0B4BDB0E0B5BDB0E0B6BDB0E0B0937E
:101990008000B0E0B0938100B0E0B0938500B0E08B
:1019A000B0938400B0E0B093B600B0E0B093B00064
:1019B000B0E0B093B100B0E0B093B200B0E0B0934B
:1019C0008700B0E0B0938600B0E0B7BDB0E0B8BD2E
:1019D000B0E0B0938900B0E0B0938800B0E0B0937D
:1019E0008B00B0E0B0938A00B0E0B093B300B0E0F9
:1019F000B093B400B0E0B093B600B0E0B5BFB0E0D3
:101A0000B0936E00B0E0B0936F00B0E0B0937000A0
:101A1000B0E0B093C100B0E8B0BFB0E0B0937B00DD
:101A2000B0E0B0937F00B0E0B0937A00B0E0BCBD0E
:101A3000B0E0B093BC005BDCB7E04B2EBBE22B2EDA
:101A4000B0E03B2E7ADDDADAB1E02B2EEEDBBCE043
:101A50002B2EEBDB4F903F902F900895CF93DF9389
:101A6000CDB7DEB76497CDBFDEBF21962F923F92F0
:101A70004F925F926F927F928F92A8D8A801B9017E
:101A8000EAE5FBE1DE0181E190E09BD88E017F93E6
:101A90006F935F934F932801B1E03B2EB1E02B2E63
:101AA00066DA4F915F916F917F91B1E08B2E2A01A1
:101AB0003B01B2E03B2EB5E02B2EEBEEF4E00995B6
:101AC000B3E6B98BBDE6BA8BB0E0BB8B8E010F5E7F
:101AD0001F4F2801BBE03B2EB2E02B2E48DA8F903F
:101AE0007F906F905F904F903F902F906396CDBF07
:101AF000DEBFDF91CF910895BFEFBDBFB4E0BEBFA1
:101B000040D027DFE4DE043071F425E01FE002EF6F
:101B10000A95F1F71A95E1F72A95D1F7D8DE043046
:101B200009F439DD01C09ADFEDCFFFCFFFFFFFFFE2
:101B300043616C6962726174696F6E204D6F646598
:101B400000443A00533A00563A003E0020003E005E
:101B500020000000000000000000417070726F78EB
:101B60002E2044697374616E636500636D0000002C
:101B70000000000000000000000000000000000065
:101B800000FFA0E0B1E0E0E8FBE181E090E019D8DF
:101B90000895FFFFFFFFFFFFFFFFFFFFFFFFFFFFB6
:00000001FF
