:020000040000FA
:1000000001010101010101010101010101010101E0
:1000100001010101010101010101010101010101D0
:1000200001010101010101010101010101010101C0
:1000300001010101010101010101010101010101B0
:1000400001010101010101010101010101010101A0
:100050000101010101010101010101010101010190
:100060000101010101010101010101010101010180
:100070000101010101010101010101010101010170
:100080000101010101010101010101010101010160
:100090000101010101010101010101010101010150
:1000A0000101010101010101010101010101010140
:1000B0000101010101010101010101010101010130
:1000C0000101010101010101010101010101010120
:1000D0000101010101010101010101010101010110
:1000E0000101010101010101010101010101010100
:1000F00001010101010101010101010101010101F0
:1001000001010101010101010101010101010101DF
:1001100001010101010101010101010101010101CF
:1001200001010101010101010101010101010101BF
:1001300001010101010101010101010101010101AF
:10014000010101010101010101010101010101019F
:10015000010101010101010101010101010101018F
:10016000010101010101010101010101010101017F
:10017000010101010101010101010101010101016F
:10018000010101010101010101010101010101015F
:10019000010101010101010101010101010101014F
:1001A000010101010101010101010101010101013F
:1001B000010101010101010101010101010101012F
:1001C000010101010101010101010101010101011F
:1001D000010101010101010101010101010101010F
:1001E00001010101010101010101010101010101FF
:1001F00001010101010101010101010101010101EF
:00000001FF
