:1000000021C1FECFFDCFFCCFFBCFFACFF9CFF8CF88
:10001000F7CFF6CFF5CFF4CFF3CFF2CFF1CFF0CFCC
:10002000EFCFEECFEDCFECCFEBCFEACFE9CFE8CFFC
:04003000E7CFE6CF61
:10024400BFEFBDBFB2E0BEBF7FDF24DFA801103027
:1002540009F4043021F40BB0B2E00B260BB8503093
:1002640009F4463021F40BB0B4E00B260BB850303F
:1002740009F4493021F40BB0B8E00B260BB8503028
:1002840009F4403121F40BB0B0E10B260BB8DDCFFB
:02029400FFCF9A
:10014C00B0E8B0936100B0E0B0936100B0E0B5B935
:10015C00B0E0B4B9B0E0B8B9B0E0B7B9B0E0BBB991
:10016C00BEE3BAB9B0E0B4BDB0E0B5BDB0E0B6BD69
:10017C00B0E0B7BDB0E0B8BDB0E0B0938000B0E087
:10018C00B0938100B0E0B0938500B0E0B0938400F0
:10019C00B0E0B0938700B0E0B0938600B0E0B093CD
:1001AC008900B0E0B0938800B0E0B0938B00B0E071
:1001BC00B0938A00B0E0B093B600B0E0B093B0005A
:1001CC00B0E0B093B100B0E0B093B200B0E0B09347
:1001DC00B300B0E0B093B400B0E0B0936900B0E00D
:1001EC00BDBBB0E0B0936800B0E0B0936E00B0E07F
:1001FC00B0936F00B0E0B0937000B0E0B093C1006A
:10020C00B0E8B0BFB0E0B0937B00B0E0B0937F003B
:10021C00B0E0B0937A00B0E0BCBDB0E0B093BC00ED
:10022C0029E11AE502EB0A95F1F71A95E1F72A95FF
:08023C00D1F700000000089555
:1000980040E050E060E070E080E0C8DF093009F03F
:1000A800FCCFC4DF102F012F093011F4BFDFFCCFC4
:1000B8004F3050F510C0052F162F272F382F01600D
:1000C800502F612F722F832F0EC00DC00FEF1FEF1F
:1000D8002FEF3FEF36C0013071F30030B1F3093034
:1000E800A9F3063099F3042F0F5F402F052F162F21
:1000F800272F382F000F111F221F331F502F612F5A
:10010800722F832F93DFD4CF062F172F282F30E09D
:10011800402F052F102F1F931AE20EE80A95F1F7CA
:100128001A95E1F700001F91042F0A7A011729F4A4
:10013800042F10E0212F312F04C00FEF1FEF2FEFF6
:040148003FEF0895E8
:1000340000E0102FB9B1B0FD01C0FCCFBBB1BF7D52
:10004400BBB9B9B1B0FF0CC0012F0F5F102F0AE18B
:100054000A95F1F700000000BBB1B062BBB9F1CF63
:10006400BBB1BF7DBBB909E1011720F41B3410F407
:1000740009E00FC00FEA011720F4113E10F401E06B
:1000840008C00BE4011720F41D3710F400E001C090
:0400940006E00895E5
:010296000067
:010297000066
:040298000000000062
:01029C000061
:01029D000060
:00000001FF
