:1000000031C6FECFFDCFFCCFFBCFFACFF9CFF8CF73
:10001000F7CFF6CFF5CFF4CFF3CFF2CFF1CFF0CFCC
:02002000EFCF20
:100C6400BFE5BDBFB2E0BEBF26D0E2DECBDE0330BF
:100C740031F4C8DE033009F4FCCF2CDF02C027DFD7
:060C84005EDEF4CFFFCF9D
:100A34002F92B0E0BBBBB0E0BABBB0E0B8BBB0E053
:100A4400B7BBB0E0B5BBBEEFB4BBB0E0B2BBB0E087
:100A5400B1BBB0E0B7B9B0E0B6B9B0E0B3BFB0E095
:100A6400B2BFB0E0B1BFB0E0BFBDB0E0BEBDB0E06A
:100A7400BDBDB0E0BCBDB0E0B5BDB0E0B4BDB0E05C
:100A8400BBBDB0E0BABDB0E0B9BDB0E0B8BDB0E048
:100A9400BBBFB0E0B5BFB0E0B6BFB0E0BABFB0E036
:100AA400B9BFB0E0BAB9B0E8B8B9B0E0BDB950DD8B
:100AB400FEDDB1E02B2EC9DCBCE02B2EC6DC18E633
:0E0AC40005EE0A95F1F71A95E1F72F900895C7
:100554002F923F924F925F925BDF08B30E7F08BBEE
:100564000D7F08BB15E107EC0A95F1F71A95E1F741
:100574003324BEE82B2E54DF10918D000FE10117B8
:1005840070F000918D00013050F010918C000CE05F
:10059400011728F000918D00013008F00FC0BAE077
:1005A4004B2EBAE03B2EBAE02B2EE7DEB7E05B2EF3
:1005B4004424B1E03B2EB1E02B2E00DF5F904F903E
:0605C4003F902F90089506
:1004140007B3016007BB026007BB046007BB089514
:00042400D8
:100424002F9208B3016008BB09DE232C07DEB8B3A2
:08043400BE7FB8BB2F900895B4
:1000400018E000E00117B8F4022D0170003021F033
:10005000B8B3B460B8BB03C008B30B7F08BB08B328
:10006000026008BB0D7F08BB022D0695202E012FD4
:080070000150102FE6CF0895A6
:10037E002F923F9220928F00AFDE202E3F92302E92
:10038E00B4E82B2E48D03F9030929000232CA4DE60
:10039E00302E302EB2E82B2E3ED040929100242CDF
:1003AE009BDE402E302EB0E82B2E35D03F902F9076
:0203BE000895A0
:1000E600CF93DF93CDB7DEB72197CDBFDEBF219685
:1000F6004AE0022D96DF000F000F000F000F007F71
:1001060008834AE0022D8DDF092F102F1F7008810A
:0C011600012BCDBFDEBFDF91CF9108951B
:10002800992779E004C0991F941708F0941B001FC2
:080038007A95C9F700950895BF
:1003C0002F923F9220928D008EDE202E3F92302E73
:1003D000B6E82B2E27D03F9030928C00232C83DE62
:1003E000302E302EB8E82B2E1DD040928B00242CBE
:1003F0007ADE402E302EBCE82B2E14D050928E0088
:10040000252C71DE502E302EBAE82B2E0BD03F90CB
:040410002F9008958C
:1006B200B0913500B77FB0933500B0913500BB7F64
:1006C200B0933500B0913500BF77B0933500B0914B
:1006D2003500BF7BB0933500B0913500BF7DB0933C
:1006E2003500B0913500BF7EB0933500B091340033
:1006F200B860B0933400B0913400B460B093340069
:10070200B0913400B061B0933400B0913400B06263
:10071200B0933400B0913400B064B0933400B0911F
:100722003400B068B093340088DE87DE86DEB09194
:100732003500B062B0933500B0913500B061B0932E
:100742003500B0913500B860B093350011DEB0913C
:100752003500B77FB093350070DEB0913500B860D8
:10076200B093350005DEB0913500B77FB093350008
:1007720064DEB0913500B860B0933500F9DDB09118
:100782003500B77FB093350058DEB0913500BF7E9B
:10079200B0933500B0913500B860B0933500E8DD14
:1007A200B0913500B77FB093350047DEB091350088
:1007B200B860B0933500DCDDB0913500B77FB093FF
:1007C2003500B0913500BF7DB0933500B091350052
:1007D200B068B0933500B0913500B860B093350081
:1007E200C7DDB0913500B77FB093350026DEB091FA
:1007F2003500BF77B0933500B0913500B061B0934A
:100802003500B0913500B860B0933500B1DDB091DC
:100812003500B77FB0933500B0913500BF7EB093FD
:100822003500B0913500B860B0933500A1DDB091CC
:100832003500B77FB093350000DEB0913500B86067
:10084200B093350095DDB0913500B77FB093350098
:10085200B0913500B061B0933500B0913500B86009
:10086200B093350085DDB0913500B77FB093350088
:10087200E4DDB0913500BF7EB0933500B091350014
:10088200B860B093350074DDB0913500B77FB09396
:100892003500B0913500B068B0933500B0913500A5
:1008A200B064B0933500B0913500B062B0933500BA
:1008B200B0913500B061B0933500B0913500B860A9
:1008C200B093350055DDB0913500B77FB093350058
:0E08D200B4DDB0919200B160B0939200089531
:10043C001AE303E20A95F1F71A95E1F700000000C0
:02044C00089511
:0C03720002E00A95F1F700000000089579
:10044E0027FAB0913500B7F9B093350026FAB0917E
:10045E003500B6F9B093350025FAB0913500B5F9EF
:10046E00B093350024FAB0913500B4F9B09335004D
:10047E00B091920000903500E894B0FF689402F8B5
:10048E0000923500B0913500B860B09335006ADF48
:10049E00B0913500B77FB093350023FAB091350097
:1004AE00B7F9B093350022FAB0913500B6F9B09392
:1004BE00350021FAB0913500B5F9B093350020FA28
:1004CE00B0913500B4F9B0933500B0919200009020
:1004DE003500E894B0FF689402F800923500B091B0
:1004EE003500B860B09335003DDFB0913500B77F71
:1004FE00B0933500B0919200B0FF02C098DF01C0FA
:04050E0066DE089508
:0A01DC0005E80A95F1F70000089508
:100A0800B9B3B3FD02C003E010C0B9B3B2FD02C070
:100A180004E00BC0B9B3B0FD02C001E006C0B9B331
:0C0A2800B1FD02C002E001C000E0089532
:100AD800CF93DF93CDB7DEB72497CDBFDEBF219686
:100AE8002F923F924F925F926F927F92B1E07B2E4E
:100AF8006624B7E15B2E40908F00B1E03B2EB5E055
:100B08002B2E5FDD088329E01EE105EE0A95F1F73B
:100B18001A95E1F72A95D1F70000B1E07B2E6624FB
:100B2800BBE35B2E40909000B1E03B2EB8E02B2E4B
:100B380048DD098329E01EE105EE0A95F1F71A95CB
:100B4800E1F72A95D1F70000B1E07B2E6624BBE3DC
:100B58005B2E40909100B1E03B2EBBE02B2E31DDA7
:100B68000A8329E01EE105EE0A95F1F71A95E1F7E7
:100B78002A95D1F700004A8039802880FCDB772449
:100B8800B1E06B2EB7E05B2E40908E00B2E03B2EBA
:100B9800B3E02B2E16DD0B8329E01EE105EE0A9546
:100BA800F1F71A95E1F72A95D1F70000B1E07B2E0D
:100BB800B1E06B2EBFE15B2E40908D00B2E03B2E82
:100BC800B7E02B2EFEDC088329E01EE105EE0A952E
:100BD800F1F71A95E1F72A95D1F70000B1E07B2EDD
:100BE800B1E06B2EBCE05B2E40908C00B2E03B2E57
:100BF800BAE02B2EE6DC098329E01EE105EE0A9512
:100C0800F1F71A95E1F72A95D1F70000B1E07B2EAC
:100C18006624B3E65B2E40908B00B2E03B2EBDE02D
:100C28002B2ECFDC0A8329E01EE105EE0A95F1F7A9
:100C38001A95E1F72A95D1F700005B804A80398040
:100C48002880BADB7F906F905F904F903F902F90F5
:0C0C58002396CDBFDEBFDF91CF91089541
:1005CA00CF93DF93CDB7DEB72197CDBFDEBF21969C
:1005DA000880B1E00B26088224E018EA0CE00A95AC
:1005EA00F1F71A95E1F72A95D1F70000000007D232
:1005FA00013019F4042D0F5F402E052D10E004156B
:10060A00B0E047FCBFEF1B070CF4462CF8D10230D0
:10061A0019F4042D0150402E042D10E047FC1FEF61
:10062A000615B0E01B070CF4452C2BC015C02F9201
:10063A00A0DD2F9015C05F924F923F922F923F926A
:10064A00BCE74B2EB0E05B2E322C2F903DDE2F9074
:10065A003F904F905F9004C0B881B0FDE8CFEBCFD8
:10066A0015C00AC02F92242CB9DD2F9009C02F92F1
:10067A002224B4DD2F9004C0B881B0FDF3CFF7CFA8
:10068A0005C0B1E07B1609F4D1CFEBCFB8D1043065
:10069A0029F4B881B0FF02C0042D01C099CFCDBFA3
:0806AA00DEBFDF91CF9108953E
:10017C002F923F924F924AE0042D50DF005D4F9238
:10018C003F922F923F92402E322C2F906FDF2F9068
:10019C003F904F904AE0042D41DF092F102F105D46
:1001AC00022D0F5F412E232C302E60DF4F903F909D
:0401BC002F900895E3
:100078002F920FC0B0E82B2E19C0B0EC2B2E16C053
:10008800B4E92B2E13C0B4ED2B2E10C0B0E82B2EE4
:100098000DC0B1E02B1671F3B2E02B1671F3B3E08B
:1000A8002B1671F3B4E02B1671F3F0CF032D01502A
:1000B800020D202EB0919200B160B0939200202ED4
:1000C800C2D1B0919200BE7FB0939200242CBBD1D4
:0E00D800B0919200B160B09392002F90089505
:1002D2002F920FC0B0E82B2E19C0B0EC2B2E16C0F7
:1002E200B4E92B2E13C0B4ED2B2E10C0B0E82B2E88
:1002F2000DC0B1E02B1671F3B2E02B1671F3B3E02F
:100302002B1671F3B4E02B1671F3F0CF032D0150CD
:10031200020D202E202E9AD0B0919200BE7FB09373
:10032200920010E0E12FF0E0E40DF51D00810023C2
:1003320079F0E12FF0E0E40DF51D00811F932F927B
:10034200202E0FDF2F901F91012F0F5F102FEACF6A
:0E035200B0919200B160B09392002F90089588
:10016400B0919200BE7FB09392006FD1B091920093
:08017400B160B0939200089500
:1001E6002F923F924F925F9250C0B0E74B2EB0E0F5
:1001F6005B2EB3E03B2EB2E02B2E68D062C0B4E794
:100206004B2EB0E05B2EB3E03B2EB2E02B2E5ED041
:1002160058C0B8E74B2EB0E05B2EB3E03B2EB2E001
:100226002B2E54D04EC0BCE64B2EB0E05B2EB3E076
:100236003B2EB2E02B2E4AD044C0B0E64B2EB0E0A7
:100246005B2EB3E03B2EB2E02B2E40D03AC0B4E694
:100256004B2EB0E05B2EB3E03B2EB2E02B2E36D019
:1002660030C0B8E64B2EB0E05B2EB3E03B2EB2E0DA
:100276002B2E2CD026C0B3E84B2EB0E05B2EB3E07D
:100286003B2EB2E02B2E22D01CC0B1E02B1609F477
:10029600ACCFB2E02B1609F4B2CFB3E02B1609F4BB
:1002A600B8CFB4E02B1609F4BECFB5E02B1609F48F
:1002B600C4CFB6E02B1609F4CACFB7E02B1689F2E5
:0C02C600DACF5F904F903F902F9008958A
:060AD2001FDD05DF0895A1
:100512002F92B5E82B2E23DF00938F000F73202E2E
:100522004EDE00938F00B3E82B2E19DF009390006C
:100532000F77202E44DE00939000B1E82B2E0FDFC0
:10054200009391000F77202E3ADE009391002F90B6
:0205520008950A
:1003600008B3016008BB6CDEDCDEB8B3BE7FB8BB8F
:020370000895EE
:1001220018E020E0B7B3BB7FB7BB00E00117A0F433
:10013200022F0695202F06B30470003021F0022F03
:100142000068202F00C008B3026008BB0D7F08BB07
:10015200012F0150102FE9CF07B3046007BB022F14
:020162000895FE
:1001C000222D2F70022D007F102F16951695169553
:0C01D00016950AE0109F002D020F089504
:1008E0002F92B7E82B2E3CDD00938D000F73202E46
:1008F00067DC00938D00B9E82B2E32DD00938C006D
:100900000F71202E5DDC00938C00BBE82B2E28DDC0
:1009100000938E000770202E53DC00938E00BDE8FC
:100920002B2E1EDD00938B00202E4ADC00938B00C3
:040930002F90089567
:100942002F923F924F925F9240908F00B1E03B2EE8
:10095200B5E02B2E12DCBFE74B2EB0E05B2EB7E0EA
:100962003B2EB1E02B2EB4DC40909000B1E03B2E48
:10097200B8E02B2E02DCB1E84B2EB0E05B2EBAE0E1
:100982003B2EB1E02B2EA4DC40909100B1E03B2E37
:10099200BBE02B2EF2DB20908E0024DC40908D00F9
:1009A200B2E03B2EB7E02B2EE8DBB9E84B2EB0E0ED
:1009B2005B2EB9E03B2EB2E02B2E8ADC40908C00FD
:1009C200B2E03B2EBAE02B2ED8DBB7E84B2EB0E0DC
:1009D2005B2EBCE03B2EB2E02B2E7ADC40908B00EB
:1009E200B2E03B2EBDE02B2EC8DB21E11CE30CEC78
:1009F2000A95F1F71A95E1F72A95D1F75F904F9092
:060A02003F902F900895C3
:0E093400EC2FFD2F05900D920197E1F708952D
:100CBA00A0E6B0E0CEE8DCE08BE290E036DE089514
:040C8E005448520074
:040C9200465249007D
:040C96005341540072
:040C9A005745440076
:040C9E0053554E005C
:040CA2004D4F4E0064
:040CA600545545005C
:030CAA0020200007
:020CAD003A000B
:020CAF003A0009
:040CB10020202000DF
:020CB5002F000E
:020CB7002F000C
:00000001FF
