:1000000060C600C000C000C000C000C000C000C08A
:1000100000C000C000C000C000C000C000C000C0E0
:1000200000C000C000C0FFFFFFFFFFFF002329F456
:10003000112319F4222309F433230895F7DF39F04B
:1000400041585F4F342F220F36952795362B089550
:10005000EDDF79F0632F6078220F331F432F5FE7C6
:10006000451B55275040269530E8232B332798947D
:1000700003C04427552766270895009510952095BD
:1000800030950F5F1F4F2F4F3F4F0895E1DF21F055
:10009000662309F0F2DF98940895C8DF11F19F9369
:1000A0008F938EE790E0332351F03695279517957F
:1000B000079548175907B4F44F5F5F4FF4CF809509
:1000C0009095019622239AF0000F111F221F4817C6
:1000D00059071CF041505040F5CF00271127222727
:1000E000332708C033270FEF102F2FE7322F8F91C0
:1000F0009F91A4DF0895CADF09F441C0E62ED52EF2
:10010000C42EB32EA22E912E802E002D112D222D25
:10011000332DBCDF09F43DC0842F952F8C199D0928
:10012000B9F072F49095809501964C2D5D2D883133
:1001300080F535952795179507950197D1F708C054
:100140008831E8F4B594A794979487940197D1F7F0
:1001500066272EF0080D191D2A1D3B1D09C0801AA7
:10016000910AA20AB30A082D192D2A2D3B2D3323FB
:1001700012F483DF60E891DF01C060DF16C0002D5C
:10018000112D222D332DD6F751DFC1F340E834274E
:10019000F5CF082D192D2A2D3B2D4C2D5D2D6E2DC3
:1001A00033235AF76ADF60E8E8CF08956894A3DF45
:1001B0000895FCDF332332F039DF11F001E003C092
:1001C000002701C00FEF0895042E152E262E372E7E
:1001D000F0DF002308953F932F931F930F93002D7B
:1001E000112D222D332D34DF09F44BC0E62ED52EF0
:1001F000C42EB32EA22E912E802E0F911F912F91DF
:100200003F9126DF61F16E254C195D094038530797
:100210003CF541387FEF57077CF180E27724632E6D
:10022000522E412E302F222711270027000F111F99
:10023000221F331F441C551C661C771C28F04818CD
:1002400059086A087B0804C0480C591C6A1C7B1CAE
:100250000AF001608A9551F7415050401EDF16C0E8
:100260000FEF102F2FE73FE76623C9F3DFDEB9F367
:10027000342D30E83425F3CF0027102F202F302FD6
:10028000EECF0F900F900F900F90EACF08959CDF64
:100290001CF40024039401C000240895E8942BDF8B
:1002A00008951AE303E20A95F1F71A95E1F70000C1
:1002B0000000089502E00A95F1F70000000008959B
:1002C00083DF19F40024039401C00024089547E15A
:1002D0006627552726F0332312F4CFDE60E8DDDEF3
:1002E0000895B6DE81F1E62ED52EC42EB32EA22EB1
:1002F000912E802E002D112D222D332DA9DE19F1E6
:100300006E254C0D5D1D40385307F4F441387FEFE6
:100310005707FCF088279927AA27BB2770E2B695D4
:10032000A79597958795379527951795079520F465
:10033000880D991DAA1DBB1D7A9589F7032F3A2FA9
:10034000292F182FAADE0AC00FEF102F2FE73FE743
:10035000FACF0027102F202F302FF5CF0895002E31
:10036000112E222E332E042F152F262F372F21DF6B
:1003700000231CF00024039401C000240895042EDF
:10038000152E262E372E27DF002E112E222E332E4D
:100390000895042E152E262E372E80DF002E112EC6
:1003A000222E332E089527B8B6B1B064B6B9B6B1CF
:1003B000B6FF01C0FCCF24B130E005B1102F0027FB
:1003C000022B132B0895CF93DF93CDB7DEB724977D
:1003D000CDBFDEBF2196288239824A825B820A81A4
:1003E0001B8100781F77B7E016950795BA95E1F75E
:1003F0000E571040F301019311930A811B8198015C
:10040000B0E02B27BFE33B2720783F770A811B8191
:10041000202731272A833B83088119812A813B8148
:100420002396CDBFDEBFDF91CF910895CF93DF93A9
:10043000CDB7DEB72497CDBFDEBF219628823982A3
:100440004A825B820A811B8100781F77B7E016958C
:100450000795BA95E1F79801260D371D390100E09F
:1004600010E0201731072CF400E010E020E030E02D
:1004700035C00FEF10E006151705BCF440E050E062
:1004800060E070E08101920102DF002800E009F0E5
:1004900001E0002329F00FEF1FEF2FE73FEF1EC011
:1004A0000FEF1FEF2FE73FE719C007E0B02F9301D1
:1004B000BB2321F0220F331FBA95E1F70A811B817C
:1004C0002027312720783F770A811B812027312779
:1004D0002A833B83088119812A813B812396CDBFE2
:1004E000DEBFDF91CF91089505E80A95F1F700008E
:1004F0000895B0917800BE7FB09378005ED2B0913D
:100500007800B160B093780008956894E0DE0895B3
:100510009FDDF1F05523C2F04F31A8F44731C1F00F
:1005200050F44195495E05C0359527951795079577
:100530004A95D1F70DC04751000F111F221F331FDD
:100540004A95D1F705C03FE7232F132F032F03C090
:10055000662309F092DD0895C9019A01AB01B80143
:10056000A1E21A2EAA1BBB1BFD010DC0AA1FBB1FB7
:10057000EE1FFF1FA217B307E407F50720F0A20B39
:10058000B30BE40BF50B661F771F881F991F1A9496
:1005900069F760957095809590950895042E152EB5
:1005A000262E372E9EDE002E112E222E332E08955B
:1005B000B3EDB0937600B1E0B0937700B7E8B6B989
:1005C0000895CF93DF93CDB7DEB72C97CDBFDEBFB5
:1005D00021966F927F925F924F923F922F9240E0CE
:1005E00050E060E070E081019201B9DE002800E097
:1005F00009F001E02F903F904F905F90002329F089
:1006000000E010E020E030E0B9C0288239824A8260
:100610005B825F924F923F922F9240E050E060E801
:100620007FE38101920133DE002800E009F001E060
:100630002F903F904F905F900023A9F05F924F92D0
:100640003F922F92488159816A817B8100E010E0BE
:1006500020E83FE394DE2F903F904F905F90088317
:1006600019832A833B838E01065F1F4F5F924F924F
:100670003F922F923801288039804A805B80A3DE28
:100680004A855B85559547953A0118012901CEDECB
:100690002F903F904F905F90088319832A833B836C
:1006A0005F924F923F922F9240E050E060E87FE3EC
:1006B00081019201ECDD002800E009F001E02F90BB
:1006C0003F904F905F900023A9F05F924F923F922E
:1006D0002F92488159816A817B8100E010E020E8F7
:1006E0003FE34DDE2F903F904F905F90088319833A
:1006F0002A833B83B4E1B887B0E0B9875F924F9219
:100700003F922F92488159816A817B8181019201B8
:1007100036DE488159816A817B813BDE40E050E0D2
:1007200060E070E42CDE0C831D832E833F834881C0
:1007300059816A817B81C4DD0028B0E009F0B1E015
:100740000B2F2F903F904F905F90002309F012C025
:100750000C811D812E813F81088319832A833B836D
:10076000088519850150104008871987B02FB12BD3
:1007700009F0C4CF088119812A813B817F906F9055
:100780002B96CDBFDEBFDF91CF910895B091380099
:10079000BD7FB0933800B0913800BE7FB093380071
:1007A000B0913800BF7DB0933800B0913800BF7E63
:1007B000B0933800B0913800B77FB0933800B09153
:1007C0003800BB7FB0933800B0913700B260B0936F
:1007D0003700B0913700B160B0933700B091370067
:1007E000B460B0933700B0913700B860B093370071
:1007F000B0913700B061B0933700B0913700B0626C
:10080000B09337004EDD4DDD4CDDB0913800B8605F
:10081000B0933800B0913800B460B0933800B09114
:100820003800B260B093380045DDB0913800BD7F2C
:10083000B093380036DDB0913800B260B093380024
:1008400039DDB0913800BD7FB09338002ADDB0911A
:100850003800B260B09338002DDDB0913800BD7F14
:10086000B09338001EDDB0913800BB7FB0933800E4
:10087000B0913800B260B09338001CDDB091380000
:10088000BD7FB09338000DDDB0913800B260B093F9
:10089000380010DDB0913800BD7FB0933800B091C2
:1008A0003800B77FB0933800B0913800B062B09391
:1008B0003800B0913800B260B0933800FBDCB091E2
:1008C0003800BD7FB0933800ECDCB0913800BF7DBC
:1008D000B0933800B0913800B460B0933800B09154
:1008E0003800B260B0933800E5DCB0913800BD7FCD
:1008F000B0933800B0913800BB7FB0933800B0910E
:100900003800B260B0933800D5DCB0913800BD7FBC
:10091000B0933800C6DCB0913800B260B0933800B4
:10092000C9DCB0913800BD7FB0933800B091380079
:10093000B460B0933800B0913800B260B093380022
:10094000B9DCB0913800BD7FB0933800AADCB0911B
:100950003800BB7FB0933800B0913800B260B093DC
:100960003800A8DCB0913800BD7FB0933800B0915A
:100970003800B062B0933800B0913800B061B093E5
:100980003800B0913800B860B0933800B0913800AA
:10099000B460B0933800B0913800B260B0933800C2
:1009A00089DCB0913800BD7FB09338007ADCB0911B
:1009B0007800B160B0937800089527FAB0913800BC
:1009C000B5F9B093380026FAB0913800B4F9B09375
:1009D000380025FAB0913800B3F9B093380024FA02
:1009E000B0913800B2F9B0933800B091780000901F
:1009F0003800E894B0FF689400F800923800B09195
:100A00003800B260B093380055DCB0913800BD7F3B
:100A1000B093380023FAB0913800B5F9B09338009C
:100A200022FAB0913800B4F9B093380021FAB091AD
:100A30003800B3F9B093380020FAB0913800B2F919
:100A4000B0933800B091780000903800E894B0FF7F
:100A5000689400F800923800B0913800B260B0930A
:100A6000380028DCB0913800BD7FB0933800B091D9
:100A70007800B0FF02C015DC01C036DD089598DDB6
:100A800092DC0895CF93DF93CDB7DEB72297CDBF29
:100A9000DEBF21962F923F924F925F9200916000AD
:100AA000109161000883198344E650E060E070E033
:100AB0008101920151DD8B019C01202F205D088175
:100AC0001981F801208300916000109161000F5F8F
:100AD0001F4F088319834AE050E060E070E0810115
:100AE00092013ADD8B019C014AE050E060E070E049
:100AF00033DD8D019F01202F205D08811981F801D0
:100B0000208300916000109161000D5F1F4F0883EA
:100B100019834AE050E060E070E0810192011CDD41
:100B20008D019F01202F205D08811981F80120830C
:100B30004090600050906100B1E03B2EB2E02B2E5F
:100B400073D05F904F903F902F902196CDBFDEBF26
:100B5000DF91CF9108952F9219DEB1E02B2E2DDF7A
:100B6000BCE02B2E2ADF24DD29E01EE105EE0A95EC
:100B7000F1F71A95E1F72A95D1F700002F90089523
:100B8000CF93DF93CDB7DEB72697CDBFDEBF2196DB
:100B90002F923F924F925F92B0E0B883B983BA83AD
:100BA000BB83B0E0BC83BD830C811D81183009F488
:100BB000003008F5222463DF20E0322FA6DCA801F4
:100BC000B901ECDCA5DC488159816A817B81040F85
:100BD000151F261F371F088319832A833B830AE1C9
:100BE0000A95F1F7000000000C811D810F5F1F4F77
:100BF0000C831D83D9CF088119812A813B81BBE0F9
:100C00003695279517950795BA95D1F77EDC18018B
:100C10002901D7DC5F904F903F902F902596CDBF54
:100C2000DEBFDF91CF9108952F920FC0B0E82B2E39
:100C300019C0B0EC2B2E16C0B4E92B2E13C0B4EDA6
:100C40002B2E10C0B0E82B2E0DC0B1E02B1671F387
:100C5000B2E02B1671F3B3E02B1671F3B4E02B1650
:100C600071F3F0CF032D0150020D202E202EA5DEB2
:100C7000B0917800BE7FB093780010E0E12FF0E0F3
:100C8000E40DF51D0081002379F0E12FF0E0E40D83
:100C9000F51D00811F932F92202E2BDC2F901F918A
:100CA000012F0F5F102FEACFB0917800B160B093A1
:100CB00078002F90089505900D920197E1F708951F
:100CC000BFE5BDBFB4E0BEBF22D02F923F924F928E
:100CD0005F9241DFB2E64B2EB0E05B2EB1E03B2EDF
:100CE000B1E02B2EA1DF4CDF13DC18012901CADE95
:100CF000FACFFFCFFFFFFFFF6F0054656D70657285
:100D000061747572653A0030302E30274300A0E6DA
:100D1000B0E0E8EFFCE086E190E0CDDF0895FFFF72
:00000001FF
