:1000000032C00000FDCF0000FBCF0000F9CF0000A0
:10001000F7CF0000F5CF0000F3CF0000F1CF0000D4
:10002000EFCF0000EDCF0000EBCF0000E9CF0000E4
:10003000E7CF0000E5CF0000E3CF0000E1CF0000F4
:10004000DFCF0000DDCF0000DBCF0000D9CF000004
:10005000D7CF0000D5CF0000D3CF0000D1CF000014
:10006000CFCF0000CDCFECE5F0E10994002329F4D7
:10007000112319F4222309F433230895F7DF79F0CB
:10008000632F6078220F331F432F5FE7451B5527EF
:100090005040269530E8232B3327989403C04427FB
:1000A000552766270895E2DF39F041585F4F342F16
:1000B000220F36952795362B08950095109520959B
:1000C00030950F5F1F4F2F4F3F4F0895D7DF21F01F
:1000D000662309F0F2DF98940895C8DF11F19F9329
:1000E0008F938EE790E0332351F03695279517953F
:1000F000079548175907B4F44F5F5F4FF4CF8095C9
:100100009095019622239AF0000F111F221F481785
:1001100059071CF041505040F5CF002711272227E6
:10012000332708C033270FEF102F2FE7322F8F917F
:100130009F91B9DF0895CADF09F441C0E62ED52E9C
:10014000C42EB32EA22E912E802E002D112D222DE5
:10015000332DBCDF09F43DC0842F952F8C199D09E8
:10016000B9F072F49095809501964C2D5D2D8831F3
:1001700080F535952795179507950197D1F708C014
:100180008831E8F4B594A794979487940197D1F7B0
:1001900066272EF0080D191D2A1D3B1D09C0801A67
:1001A000910AA20AB30A082D192D2A2D3B2D3323BB
:1001B00012F483DF60E891DF01C075DF16C0002D07
:1001C000112D222D332DD6F751DFC1F340E834270E
:1001D000F5CF082D192D2A2D3B2D4C2D5D2D6E2D83
:1001E00033235AF76ADF60E8E8CF08956894A3DF05
:1001F0000895FCDF332332F039DF11F001E003C052
:10020000002701C00FEF0895042E152E262E372E3D
:10021000F0DF0023089505E00A95F1F70000089546
:100220003F932F931F930F93002D112D222D332DCC
:1002300025DF09F44BC0E62ED52EC42EB32EA22EF8
:10024000912E802E0F911F912F913F9117DF61F119
:100250006E254C195D09403853073CF541387FEF56
:1002600057077CF180E27724632E522E412E302FE7
:10027000222711270027000F111F221F331F441CA4
:10028000551C661C771C28F0481859086A087B081A
:1002900004C0480C591C6A1C7B1C0AF001608A953A
:1002A00051F74150504019DF16C00FEF102F2FE7C4
:1002B0003FE76623C9F3DADEB9F3342D30E834259D
:1002C000F3CF0027102F202F302FEECF0F900F905D
:1002D0000F900F90EACF0895E8942DDF0895B09124
:1002E0002A00BF7BB0932A0096DF95DFB0912A00E9
:1002F000BF77B0932A008FDF8EDFB0912A00B06401
:10030000B0932A0088DF87DFB0912A00B068B093ED
:100310002A00089579DF1CF40024039401C000240E
:100320000895B0912A00B064B0932A0074DF73DF9F
:10033000B0912A00BF77B0932A00B0910001BE7F30
:10034000B0930001B0912900B7FD06C0B091000143
:10035000B0FF01C001C0F6CF5EDF5DDF5CDF5BDFB9
:100360005ADF59DF58DF57DFB0912A00BF7BB093C7
:100370002A0051DF50DF0895E894C2D10895840126
:10038000000F111F000F111FF801E60DF71D059159
:10039000159125913591A801B901B82DB92971F1AF
:1003A0009F928F925F924F923F922F928101920182
:1003B000E5D52F903F904F905F908F909F90A40134
:1003C000415050404A01440F551F440F551FFA0138
:1003D000E60DF71D45915591659175919F928F920C
:1003E0005F924F923F922F927AD12F903F904F90F1
:1003F0005F908F909F90A801B901CFCF8A019B0198
:100400000895CF93DF93CDB7DEB72497CDBFDEBF7E
:100410002196B0E8B883B0E0B98308811981B02F84
:10042000B12B09F43AC0F7DEF6DEF5DEF4DEB0916A
:100430002A00B068B0932A00EEDEEDDE0881198153
:1004400002211070B02FB12B31F0B0912A00BF7B88
:10045000B0932A0005C0B0912A00B064B0932A007E
:10046000DADED9DEB0912A00BF77B0932A00B091CE
:100470000001BE7FB0930001B0912900B7FD06C016
:10048000B0910001B0FF01C001C0F6CF0881198111
:100490001695079508831983C0CFBDDEBCDEB091E9
:1004A0002A00B068B0932A00B6DEB5DEB0912A000B
:1004B000BF7BB0932A00AFDEAEDEADDEACDEB09126
:1004C0002A00BF77B0932A00B0910001BE7FB0939D
:1004D0000001B0912900B7FD06C0B0910001B0FF46
:1004E00001C001C0F6CFB0E0BA83BB8394DE93DED7
:1004F000B0912900B6FF05C00A811B8101600A8303
:100500001B8389DE88DE87DE86DE85DE84DE83DE91
:1005100082DE81DE80DE7FDE7EDE7DDE7CDE7BDEF7
:100520007ADEB0912A00B068B0932A00B0912A0018
:10053000B064B0932A000A812396CDBFDEBFDF915D
:10054000CF9108959801249F8001259F100D349F1D
:10055000100D0895CF93DF93CDB7DEB72297CDBFAF
:10056000DEBF21966F927F928F929F925F924F9201
:100570003F922F9240E050E060E070E081019201F4
:100580001BD1002800E009F001E02F903F904F9030
:100590005F90002329F000E010E020E030E049C047
:1005A0008E01380123D15F924F923F922F9240E00B
:1005B00050E060E070E4E2D440E050E060E87FE3C7
:1005C000F7D52F903F904F905F90180129014881F7
:1005D000598141505040488359835F924F923F92D6
:1005E0002F92B8E08B2EB0E09B2EBEE76B2EB5E2CB
:1005F0007B2E18012901C3DE2F903F904F905F9012
:10060000180129010881198120E017FD2FEF322FF1
:10061000B3DE5F924F923F922F9248E152E761E33F
:100620007FE3ACD42F903F904F905F90A101B20137
:1006300056D09F908F907F906F902196CDBFDEBF58
:10064000DF91CF9108954BDE2F92B8E72B2ED9DEA4
:10065000232CD7DE2F90D5DE64DE0895C9019A01E0
:10066000AB01B80197FB092E05260ED057FD04D02B
:1006700014D00AD0001C38F450954095309521953F
:100680003F4F4F4F5F4F0895F6F7909580957095C7
:1006900061957F4F8F4F9F4F0895A1E21A2EAA1B9D
:1006A000BB1BFD010DC0AA1FBB1FEE1FFF1FA21722
:1006B000B307E407F50720F0A21BB30BE40BF50B1F
:1006C000661F771F881F991F1A9469F760957095A8
:1006D000809590959B01AC01BD01CF010895042E3A
:1006E000152E262E372EF8DD002E112E222E332E1B
:1006F00008958ADD19F40024039401C000240895AC
:1007000047E16627552726F0332312F4D6DC60E84C
:10071000E4DC0895B3DC81F1E62ED52EC42EB32E91
:10072000A22E912E802E002D112D222D332DA6DCF0
:1007300019F16E254C0D5D1D40385307F4F4413816
:100740007FEF5707FCF088279927AA27BB2770E27D
:10075000B695A795979587953795279517950795FA
:1007600020F4880D991DAA1DBB1D7A9589F7032FCA
:100770003A2F292F182FB1DC0AC00FEF102F2FE7C7
:100780003FE7FACF0027102F202F302FF5CF089505
:10079000C801BA01AA1BBB1B51E107C0AA1FBB1F9E
:1007A000A617B70710F0A61BB70B881F991F5A95FD
:1007B000A9F7809590950895002E112E222E332EA4
:1007C000042F152F262F372F14DD00231CF00024B3
:1007D000039401C000240895042E152E262E372ED2
:1007E0001FDD002E112E222E332E0895CF93DF937E
:1007F000CDB7DEB72497CDBFDEBF219628823982E0
:100800004A825B820A811B8100781F77B7E01695C8
:100810000795BA95E1F70E571040F3010193119334
:100820002A813B818901B0E00B27BFE31B270078B9
:100830001F77022713270A831B83088119812A81C6
:100840003B812396CDBFDEBFDF91CF9108952F92DC
:100850003F92032D00552F923324202EF4DE2F904B
:10086000022D0F702F923324202EEDDE2F90022DBB
:10087000007F069506950695069500613324202E87
:10088000E2DE3F902F900895042D0052402F0AE79A
:10089000021520F42224032D0F5F302ED8DF50E004
:1008A0005630E8F44F935F9306E010E050E04ADEE4
:1008B0005F914F9126E533E2020F131FE52FF0E021
:1008C000E00FF11F04913F922F92B0E63B2E202EB5
:1008D000BADE2F903F90052F0F5F502FE1CF089584
:1008E000CF93DF93CDB7DEB72497CDBFDEBF219680
:1008F000288239824A825B820A811B8100781F77B5
:10090000B7E016950795BA95E1F79801260D371DC2
:10091000390100E010E0201731072CF400E010E06E
:1009200020E030E033C00FEF10E006151705BCF4EF
:1009300040E050E060E070E081019201EBDC0028D3
:1009400000E009F001E0002329F00FEF1FEF2FE78F
:100950003FEF1CC00FEF1FEF2FE73FE717C007E087
:10096000B02F9301BB2321F0220F331FBA95E1F77B
:100970000A811B812027312720783F7720273127C4
:100980002A833B83088119812A813B812396CDBF2D
:10099000DEBFDF91CF910895B0912A00BF7BB09365
:1009A0002A00B0912A00BF77B0932A00B0912B00A3
:1009B000BF7BB0932B00B0912B00BF77B0932B007F
:1009C000B0910001BE7FB0930001B0912900B7FD46
:1009D00006C0B0910001B0FF01C001C0F6CF08957C
:1009E0002F924F925F926F927F9200E010E020E092
:1009F00030E04016510662067306D4F47F926F927F
:100A00005F924F923F922F92BDE24B2E3DDF2F908F
:100A10003F904F905F906F907F9000E010E020E05B
:100A200030E00419150926093709280139010FC0DA
:100A30007F926F925F924F923F922F92B0E24B2E35
:100A400023DF2F903F904F905F906F907F900FE04B
:100A500017E220E030E004151505260537050CF0F7
:100A6000AAC07F926F925F924F923F922F9240E185
:100A700057E260E070E082019301F0DD89019A01A4
:100A80002F903F90102F105D022D0A5F3F922F9202
:100A9000412E202EF9DE2F903F904F905F906F9067
:100AA0007F907F926F925F924F923F922F9240E1A0
:100AB00057E260E070E082019301D0DD8B019C0180
:100AC00048EE53E060E070E0C9DD89019A012F90A3
:100AD0003F90102F105D022D045F3F922F92412E08
:100AE000202ED2DE2F903F904F905F906F907F909E
:100AF0007F926F925F924F923F922F9248EE53E017
:100B000060E070E082019301A9DD8B019C0144E665
:100B100050E060E070E0A2DD89019A012F903F90E3
:100B2000102F105D022D0E5E3F922F92412E202E2F
:100B3000ABDE2F903F904F905F906F907F907F92B1
:100B40006F925F924F923F922F9244E650E060E0A6
:100B500070E08201930182DD8B019C014AE050E04C
:100B600060E070E07BDD89019A012F903F90102FAB
:100B7000105D022D085E3F922F92412E202E84DEC2
:100B80002F903F904F905F906F907F903F922F9269
:100B90004AE050E060E070E0820193015FDD8B018C
:100BA0009C012F903F90102F105D022D025E412E70
:100BB000202E6ADEDDC107EE13E020E030E00415F0
:100BC0001505260537050CF09EC00FE017E220E062
:100BD00030E004151505260537050CF494C07F9206
:100BE0006F925F924F923F922F9240E157E260E006
:100BF00070E08201930132DD8B019C0148EE53E0ED
:100C000060E070E02BDD89019A012F903F90102F5A
:100C1000105D022D0A5F3F922F92412E202E34DE6E
:100C20002F903F904F905F906F907F907F926F9248
:100C30005F924F923F922F9248EE53E060E070E057
:100C4000820193010BDD8B019C0144E650E060E0E2
:100C500070E004DD89019A012F903F90102F105D04
:100C6000022D045F3F922F92412E202E0DDE2F90F9
:100C70003F904F905F906F907F907F926F925F92C6
:100C80004F923F922F9244E650E060E070E0820184
:100C90009301E4DC8B019C014AE050E060E070E0ED
:100CA000DDDC89019A012F903F90102F105D022DFD
:100CB0000E5E3F922F92412E202EE6DD2F903F9028
:100CC0004F905F906F907F903F922F924AE050E05C
:100CD00060E070E082019301C1DC8B019C012F90E8
:100CE0003F90102F105D022D085E3F922F92412EF3
:100CF000202ECADD2F903F90022D025EB0E24B2ED7
:100D0000202EC2DD35C103E610E020E030E00415FE
:100D10001505260537050CF081C007EE13E020E02D
:100D200030E004151505260537050CF477C07F92D1
:100D30006F925F924F923F922F9248EE53E060E0A5
:100D400070E0820193018ADC8B019C0144E650E053
:100D500060E070E083DC89019A012F903F90102FB2
:100D6000105D022D0A5F3F922F92412E202E8CDDC6
:100D70002F903F904F905F906F907F907F926F92F7
:100D80005F924F923F922F9244E650E060E070E015
:100D90008201930163DC8B019C014AE050E060E03A
:100DA00070E05CDC89019A012F903F90102F105D5C
:100DB000022D045F3F922F92412E202E65DD2F9051
:100DC0003F904F905F906F907F903F922F924AE0BC
:100DD00050E060E070E08201930140DC8B019C01F7
:100DE0002F903F90102F105D022D0E5E3F922F929C
:100DF000412E202E49DD2F903F90022D085E3F921C
:100E00002F92B0E24B2E202E3FDD2F903F90022DEF
:100E1000025EB0E24B2E202E37DDAAC009E010E0C2
:100E200020E030E004151505260537050CF064C0F8
:100E300003E610E020E030E004151505260537052F
:100E40000CF45AC07F926F925F924F923F922F9212
:100E500044E650E060E070E082019301FFDB8B012B
:100E60009C014AE050E060E070E0F8DB89019A0103
:100E70002F903F90102F105D022D0A5F3F922F920E
:100E8000412E202E01DD2F903F904F905F906F906C
:100E90007F903F922F924AE050E060E070E0820144
:100EA0009301DCDB8B019C012F903F90102F105D94
:100EB000022D045F3F922F92412E202EE5DC2F90D1
:100EC0003F90022D0E5E3F922F92B0E24B2E202ECD
:100ED000DBDC2F903F90022D085E3F922F92B0E214
:100EE0004B2E202ED1DC2F903F90022D025EB0E2DF
:100EF0004B2E202EC9DC3CC03F922F924AE050E09E
:100F000060E070E082019301A9DB8B019C012F90CE
:100F10003F90102F105D022D0A5F3F922F92412EBD
:100F2000202EB2DC2F903F90022D045F3F922F9233
:100F3000B0E24B2E202EA8DC2F903F90022D0E5EAB
:100F40003F922F92B0E24B2E202E9EDC2F903F90AE
:100F5000022D085E3F922F92B0E24B2E202E94DCA1
:100F60002F903F90022D025EB0E24B2E202E8CDCA3
:100F70007F906F905F904F902F900895042E152EC4
:100F8000262E372EC7DB002E112E222E332E08954B
:100F900075D8F1F05523C2F04F31A8F44731C1F0B4
:100FA00050F44195495E05C03595279517950795ED
:100FB0004A95D1F70DC04751000F111F221F331F53
:100FC0004A95D1F705C03FE7232F132F032F03C006
:100FD000662309F072D808952F924F925F925F9224
:100FE0004F923F922F92BEE24B2E4EDC2F903F90BD
:100FF0004F905F9048EE53E08201CADB8C01102FC6
:10100000105D022D0A5F5F924F923F922F92412E08
:10101000202E3ADC2F903F904F905F9001E0061514
:1010200008F061C048EE53E08201B2DB8D0144E676
:1010300050E0AEDB8C01102F105D022D045F5F923B
:101040004F923F922F92412E202E1EDC2F903F90E8
:10105000022D0E5E3F922F92B0E24B2E202E14DC1A
:101060002F903F904F905F9002E0061508F03BC034
:1010700044E650E082018CDB8D014AE050E088DBE1
:101080008C01102F105D022D0E5E5F924F923F92E9
:101090002F92412E202EF8DB2F903F90022D085EDC
:1010A0003F922F92B0E24B2E202EEEDB2F903F90FE
:1010B0004F905F9003E00615B0F44AE050E08201E3
:1010C00067DB8D01102F105D022D085E3F922F927D
:1010D000412E202ED9DB2F903F90022D025EB0E2F0
:1010E0004B2E202ED1DB5F904F902F900895CF9301
:1010F000DF93CDB7DEB72197CDBFDEBF21963F92FC
:10110000B0E0B88308810830E8F42F9238802224B8
:101110009EDB2F90E4D82F92B8E72B2E72D9B0E641
:101120002B2E6FD92F9010E0103838F41F9369D907
:101130001F91012F0F5F102FF7CFF3D808810F5F9A
:101140000883E0CF3F90CDBFDEBFDF91CF91089500
:1011500020E0E22FF0E0E40DF51D00812F935F9277
:101160004F923F922F92402E8FDB2F903F904F90C7
:101170005F902F91122F1F5F212F022D0A5F202ECB
:10118000E12FF0E0E40DF51D0081003248F0E22F80
:10119000F0E0E40DF51D10810FE7011708F0D9CF3D
:1011A0000895D8D949ED5BE56EED7EE3E7DE08955D
:1011B000042E152E262E372E19D8002E112E222E53
:1011C000332E089521D81CF00024039401C000247C
:1011D0000895B0E4B0937C00022D006400937C007D
:1011E00005E30A95F1F70000B0917A00B064B0937E
:1011F0007A0000917A0004FD01C0FBCF00917A00D3
:10120000006100937A002091780030E040917900ED
:1012100050E0142F0027022B132B9801103009F4F3
:10122000013018F401E010E001C089010895CF9366
:10123000DF93CDB7DEB72C97CDBFDEBF21966F927F
:101240007F925F924F923F922F9240E050E060E099
:1012500070E081019201B0DA002800E009F001E0BD
:101260002F903F904F905F90002329F000E010E016
:1012700020E030E0BBC0288239824A825B825F92E4
:101280004F923F922F9240E050E060E87FE381016F
:10129000920140D8002800E009F001E02F903F9033
:1012A0004F905F900023A9F05F924F923F922F9250
:1012B000488159816A817B8100E010E020E83FE3AA
:1012C0008BDA2F903F904F905F90088319832A8389
:1012D0003B838E01065F1F4F5F924F923F922F928A
:1012E0003801288039804A805B8080DA4A855B85B6
:1012F000559547953A0118012901F2DA2F903F9050
:101300004F905F90088319832A833B835F924F92AB
:101310003F922F9240E050E060E87FE3810192012C
:10132000EAE8F1E00995002800E009F001E02F90DB
:101330003F904F905F900023A9F05F924F923F92B1
:101340002F92488159816A817B8100E010E020E87A
:101350003FE342DA2F903F904F905F9008831983CC
:101360002A833B83B4E1B887B0E0B9875F924F929C
:101370003F922F92488159816A817B81810192013C
:101380002BDA488159816A817B81A9D940E050E0FC
:1013900060E070E421DA0C831D832E833F83488153
:1013A00059816A817B81A5D90028B0E009F0B1E0BC
:1013B0000B2F2F903F904F905F90002309F012C0A9
:1013C0000C811D812E813F81088319832A833B83F1
:1013D000088519850150104008871987B02FB12B57
:1013E00009F0C4CF088119812A813B817F906F90D9
:1013F0002B96CDBFDEBFDF91CF9108952F923F9204
:10140000132D169516951695412F012F000F000FDD
:10141000000F002E032D0019502FB7E0012F10E010
:10142000000F111FBA95E1F7222D30E0200F311F78
:1014300001E011E0F901E00FF11F0081102F042DF0
:101440000170003051F0B52F01E0BB2319F0000FFF
:10145000BA95E9F7012B502F0AC0B52F01E0BB2345
:1014600019F0000FBA95E9F700950123502FB7E066
:10147000042F10E0000F111FBA95E1F7222D30E084
:10148000200F311F01E011E0F901E00FF11F50833F
:10149000342EDDD9B0E63B2E252ED5D83F902F90A7
:1014A000089505900D920197E1F70895689428D961
:1014B00008952F923F9270DA29E01EE105EE0A9519
:1014C000F1F71A95E1F72A95D1F700003324BEEA27
:1014D0002B2EB9D83324B8EA2B2EB5D83324BFE34A
:1014E0002B2EB1D83324B3ED2B2EADD833242224A8
:1014F000AAD83324B0E42B2EA6D83324B1EA2B2E5D
:10150000A2D83324B8EC2B2E9ED83324BAED2B2E40
:101510009AD83324B2E12B2E96D83324B1E82B2E5F
:1015200092D83324BFEF2B2E8ED83324B4EA2B2E3F
:101530008AD83324B6EA2B2E86D83324B5ED2B2E49
:1015400082D83324B0E82B2E7ED83324B9ED2B2E4D
:101550007AD83324B5E22B2E76D83324BBED2B2E4C
:1015600072D83324B0E22B2E6ED83324B2E22B2E65
:101570006AD83324222467D83324B7E02B2E63D8CB
:101580003324B0EB2B2E5FD83324B0E12B2E5BD865
:101590003324222458D83324B0E22B2E54D83324B9
:1015A000B2E02B2E50D83324BDE82B2E4CD8332458
:1015B000B4E12B2E48D83324BFEA2B2E44D83F90D9
:1015C0002F900895CF93DF93CDB7DEB7259648814E
:1015D00059816A817B817F936F935F934F939F9231
:1015E0008F927F926F925F924F923F922F928101E2
:1015F0009201E8DD002800E009F001E02F903F9023
:101600004F905F906F907F908F909F904F915F91E0
:101610006F917F91002319F08A019B0120C09F9256
:101620008F927F926F925F924F923F922F92A3017F
:10163000B40181019201C0D8002800E009F001E066
:101640002F903F904F905F906F907F908F909F90E2
:10165000002319F08301940102C081019201DF91FE
:10166000CF910895CF93DF93CDB7DEB76097CDBF0D
:10167000DEBF21960C891D892E893F890C8B1D8B1D
:101680002E8B3F8B088D198D2A8D3B8D088F198FDE
:101690002A8F3B8F0C8D1D8D2E8D3F8D0C8F1D8FB6
:1016A0002E8F3F8F9F928F927F926F925F924F9279
:1016B0003F922F92488D598D6A8D7B8D0C8D1D8D9B
:1016C0002E8D3F8D75DD2F903F904F905F906F90E6
:1016D0007F908F909F900C871D872E873F879F92CA
:1016E0008F927F926F925F924F923F922F92A301BF
:1016F000B4010C891D892E893F895ADD088319831D
:101700002A833B830C851D852E853F854881598121
:101710006A817B8161D82F903F904F905F906F904E
:101720007F908F909F900C871D872E873F87A30106
:10173000B401810192013CDD4C855D856E857F851C
:101740001DDC488D598D6A8D7B8DEFE6F3E00995A0
:101750002F96CDBFDEBFDF91CF910895CF93DF935A
:10176000CDB7DEB72397CDBFDEBF21961F81088599
:10177000088709850987103009F432C02614370418
:1017800024F4322D6882732F03C0362D2882732FE4
:10179000481459041CF449828A8202C089824A8210
:1017A00008810717E0F03981132F0A81011798F09B
:1017B0001F935F924F923F922F924884312E272E93
:1017C0001DDE2F903F904F905F901F91012F0F5F74
:1017D000302F132FEACF072F0F5F702FE1CF4CC0B0
:1017E0009F928F925F924F923F922F924201088573
:1017F0000F93FCD0ADB7BEB71196ADBFBEBF2F9053
:101800003F904F905F908F909F905F924F923F924A
:101810002F92240108850F93E9D0ADB7BEB711967A
:10182000ADBFBEBF2F903F904F905F907F926F9261
:101830005F924F923F922F92310108850F93D6D03D
:10184000ADB7BEB71196ADBFBEBF2F903F904F90C2
:101850005F906F907F905F924F923F922F92130113
:1018600008850F93C3D0ADB7BEB71196ADBFBEBF4D
:101870002F903F904F905F900985003051F108857F
:1018800000955F924F923F922F92342C402EB6DDFE
:101890002F903F90088500953F922F92402E382C34
:1018A000ADDD2F903F904F905F90088500955F923F
:1018B0004F923F922F92342C402E262C9FDD08858C
:1018C0000095402E382C262C99DD2F903F904F907C
:1018D0005F902296CDBFDEBFDF91CF910895CF9369
:1018E000DF93CDB7DEB72797CDBFDEBF2196B0E43B
:1018F000B883B0E0B983BA83B0E0BB83BC83BD8357
:10190000BE83188100E0011708F038C03F922F9283
:10191000B1E02B2E5EDC20E0322FC8DD40E050E845
:101920006FEF73E445DC34DBA801E2EAF2E00995ED
:101930004B815C816D817E8120E017FD2FEF322F7E
:10194000040F151F261F371F0B831C832D833E8317
:1019500005E30A95F1F7000022243BDC2F903F902D
:1019600029813A81020F131F09831A8305E30A951F
:10197000F1F70000088101500883C3CF0B811C815F
:101980002D813E81B6E03695279517950795BA9536
:10199000D1F78CDD5F924F923F922F92180129016F
:1019A00046DC2F903F904F905F90F2DAF101019367
:1019B000119309811A81B6E016950795BA95E1F75A
:1019C00020E0322F73DD3F922F924CED5FE069EC07
:1019D0007FE3D4DA2F903F90DBDAF2010193119389
:1019E0002696CDBFDEBFDF91CF910895CF93DF93D1
:1019F000CDB7DEB7259648819401241935095901E0
:101A0000830102191309502F612F00E010E0201705
:101A1000310744F400E010E00A191B0958012FEFC8
:101A20003FEF02C021E030E000E010E05017610716
:101A30004CF400E010E0051B160B502F612F9FEFB8
:101A4000AFEF02C091E0A0E0052F162F000F111F8D
:101A5000702F812F8501000F111F502F612F6F9361
:101A60005F933F932F934F935F924F923F922F92AA
:101A7000342C442EC3DC2F903F904F905F904F91B9
:101A80002F913F915F916F91571768070CF03AC003
:101A9000072F182F159507950801052F162F0019E8
:101AA0001109580169012614370459F100E010E0CA
:101AB000A016B1064CF08601040D151D2801850104
:101AC000071B180B580100C0292F3A2F220D331D78
:101AD0001901052F162F0A0D1B1D58014F936F93E7
:101AE0005F935F924F923F922F92342C442E222E7E
:101AF00085DC2F903F904F905F905F916F914F9159
:101B0000D2CF46C0052F162F159507950801072F30
:101B1000182F001911095801BF92AF926F935F936C
:101B2000672F782F892F9A2FA42F59014F915F91FA
:101B30002F913F914814590459F100E010E020170B
:101B400031074CF08C01020D131D18018901041B93
:101B5000150B680101C069019501240D351D29018E
:101B60008B010C0D1D1D1F930F935F934F935F927D
:101B70004F923F922F924A2E322E40DC2F903F9070
:101B80004F905F904F915F910F911F919801D2CF2D
:101B9000DF91CF910895CF93DF93CDB7DEB76C97E8
:101BA000CDBFDEBF21962F923F924F925F92B1E45C
:101BB000B883B6E7B983B7E6BA83BFE2BB83B4E6BE
:101BC000BC83B2E4BD83B0E0BE838E012801332420
:101BD0002224BEDAE9EAF5E2DE01179688E090E019
:101BE00060DC8E01095F1F4F28013324B5E52B2EE1
:101BF000AFDAB4E6BF87B2E4B88BB0E0B98B8E0140
:101C0000015F1F4F2801B2E03B2E2224A1DAB1E38D
:101C1000BA8BB2E3BB8BB6E3BC8BB0E0BD8B8E015D
:101C20000E5E1F4F2801B3E03B2E222491DAB7E36A
:101C3000BE8BB8E3BF8BB0E0B88F8E010A5E1F4F3A
:101C40002801B5E03B2EB6E02B2E82DAB3E3B98F44
:101C5000B0E3BA8FB0E0BB8F8E01075E1F4F280143
:101C6000B7E03B2EB6E02B2E73DA5F904F903F909B
:101C70002F906B96CDBFDEBFDF91CF9108952F924D
:101C8000B0E8B0936100B0E0B0936100B0E0B5B9E6
:101C9000B0E0B4B9B0E0B8B9B0E0B7B9B0E0BBB942
:101CA000B0E0BAB9B0E0B4BDB0E0B5BDB0E0B6BD2B
:101CB000B0E0B7BDB0E0B8BDB0E0B0938000B0E038
:101CC000B0938100B0E0B0938500B0E0B0938400A1
:101CD000B0E0B0938700B0E0B0938600B0E0B0937E
:101CE0008900B0E0B0938800B0E0B0938B00B0E022
:101CF000B0938A00B0E0B093B600B0E0B093B0000B
:101D0000B0E0B093B100B0E0B093B200B0E0B093F7
:101D1000B300B0E0B093B400B0E0B0936900B0E0BD
:101D2000BDBBB0E0B0936800B0E0B0936E00B0E02F
:101D3000B0936F00B0E0B0937000B0E0B093C1001A
:101D4000B0E8B0BFB0E0B0937B00B0E0B0937F00EC
:101D5000BFE3B0937E00B0E4B0937C00B6EAB093EA
:101D60007A00B0E0B0937B00B0E0BCBDB0E0B093CF
:101D7000BC009FDB2224BBD92F900895CF93DF9323
:101D8000CDB7DEB72497CDBFDEBF21962F924F92FD
:101D90005F926F927F9282019301FAD80883198330
:101DA0002A833B838F927F926F925F924F923F92F2
:101DB0002F9228013901E0EFF4E009952F903F9030
:101DC0004F905F906F907F90088119812A813B81AD
:101DD000ECEBF1E009953F922F92A801B901820145
:101DE0009301E6D940E050E46CE176E4C7D82F9047
:101DF0003F908F90CDD8088319832A833B8340E09E
:101E000050E060E070E0041715072607370784F4F8
:101E10000880198000E010E0001911090A801B8079
:101E200020E030E020093109088319832A833B83AD
:101E30008F923F922F9240E050E46CE176E4820171
:101E40009301C0D9002800E009F001E02F903F90F5
:101E50008F900023E9F08F923F922F9240E050E55F
:101E600063EC77E482019301EAE8F1E00995002848
:101E700000E009F001E02F903F908F90002341F0A7
:101E8000022D0C5D682C48805980202EA5D8D8C022
:101E90008F923F922F9240E050E06AE774E4820113
:101EA000930190D9002800E009F001E02F903F90C5
:101EB0008F900023E9F08F923F922F9240E050E400
:101EC0006CE176E482019301EAE8F1E009950028EB
:101ED00000E009F001E02F903F908F90002341F047
:101EE000022D025E682C48805980202E75D8A8C02B
:101EF0008F923F922F9240E050E068EC72E48201B2
:101F0000930160D9002800E009F001E02F903F9094
:101F10008F900023E9F08F923F922F9240E050E0A3
:101F20006AE774E482019301EAE8F1E00995002888
:101F300000E009F001E02F903F908F90002341F0E6
:101F4000022D085E682C48805980202E45D878C024
:101F50008F923F922F9240E050E060E271E4820164
:101F6000930130D9002800E009F001E02F903F9064
:101F70008F900023E9F08F923F922F9240E050E043
:101F800068EC72E482019301EAE8F1E00995002827
:101F900000E009F001E02F903F908F90002341F086
:101FA000022D0E5E682C48805980202E15D848C01E
:101FB0008F923F922F9240E050E060E271E4820104
:101FC0009301EAE8F1E00995002800E009F001E05A
:101FD0002F903F908F90002399F1022D045F7F9204
:101FE0006F925F924F923F922F92682C4880598057
:101FF000202EECEEF7E009952F903F904F905F90E8
:102000006F907F903F922F9240E050E060E070E050
:1020100082019301EAE8F1E00995002800E009F067
:1020200001E02F903F90002331F0BDE24B2EE4E41D
:10203000F4E0099505C0B0E24B2EE4E4F4E0099524
:102040007F906F905F904F902F902396CDBFDEBF13
:10205000DF91CF9108952F923F924F925F9281012D
:1020600020E0322F23DA47E75EEB6FE97BE3EEEB0C
:10207000F7E009954FEB54E66FEF7FE3ECEEF3E00A
:102080000995180129018DD840E050E060EA71E41B
:10209000EEEBF7E0099540E050E06CED72E4EFE61E
:1020A000F3E009954DEC5CEC64EF71E481D85F904E
:1020B0004F903F902F900895BFEFBDBFB8E0BEBFD7
:1020C000CDB7DEB72F97CDBFDEBF21962F923F92BF
:1020D0004F925F926F927F928F929F92B0E0BB83FC
:1020E000BC83B0E0BD83BE83CADD55DDBFE38B2E6C
:1020F000B0E09B2EB4E16B2EB0E07B2EB0E14B2E16
:10210000B0E05B2EB4E12B2EB0E03B2EB1E0BF93EC
:102110006DDCADB7BEB71196ADBFBEBFB7E1B8833A
:1021200008810F3708F00DC19E012B5F3F4F8E01D4
:102130000D5F1F4F29011801D2DB2B803C808BDF04
:102140000F83188729873A872D803E8084DF0B878D
:102150001C872D873E87B1E08B2E4F805884698481
:102160007A84B1E03B2E222409DEB1E08B2E4B8431
:102170005C846D847E84B1E03B2EBCE52B2EFEDDBD
:10218000B0E06B2E7B2EB0EF8B2EB1E49B2E2F8018
:10219000388449845A84B2E4BF93BCE3BF93B0E06F
:1021A000BF93BF93B0E0BF93BF93BF93BF93B2E41D
:1021B000BF93BCEFBF93B0E0BF93BF9353DAADB70B
:1021C000BEB71C96ADBFBEBFE8ECF7E0099510E0C6
:1021D000212F312F6BD96624772488249924180164
:1021E0002901B2E4BF93BCE3BF93B0E0BF93BF93B8
:1021F000E9D9ADB7BEB71496ADBFBEBFE8ECF7E006
:1022000009950983B0E06B2E7B2EB0EF8B2EB1E4E5
:102210009B2E2B843C844D845E84B2E4BF93BCE34C
:10222000BF93B0E0BF93BF93B0E0BF93BF93BF93A2
:10223000BF93B2E4BF93BCEFBF93B0E0BF93BF9333
:1022400011DAADB7BEB71C96ADBFBEBFE8ECF7E084
:10225000099510E0212F312F29D96624772488246D
:10226000992418012901B2E4BF93BCE3BF93B0E005
:10227000BF93BF93A7D9ADB7BEB71496ADBFBEBFCE
:10228000E8ECF7E009950A83088110E00D5F1F4F25
:10229000B0E18B2EB0E09B2E3801BFE34B2EB0E0B7
:1022A0005B2E2880B0E03B2EB0E0BF93B0E0BF9340
:1022B000B1E0BF9353DAADB7BEB71396ADBFBEBFA3
:1022C0000980B0E01B2E2FE330E02019310908818E
:1022D00010E00D5F1F4F49013801BFE34B2EB0E006
:1022E0005B2E2880B0E03B2EB0E0BF93B1E0BF93FF
:1022F000B1E0BF9333DAADB7BEB71396ADBFBEBF83
:102300000A80B0E01B2E2FE330E02019310908814C
:1023100010E00D5F1F4F4901380129012880B0E00E
:102320003B2EB0E0BF93B1E0BF93B1E0BF9316DAAC
:10233000ADB7BEB71396ADBFBEBF08810C5F0883B3
:10234000EFCEECCE9F908F907F906F905F904F90EC
:102350003F902F90FFCF0000000000000000002FF2
:10236000000000000700070000147F147F14002401
:102370002A7F2A120062640813230036495522502E
:1023800000000503000000001C2241000000412263
:102390001C000014083E08140008083E080800004D
:1023A00000A0600000080808080800006060000045
:1023B000002010080402003E5149453E0000427FC3
:1023C0004000004261514946002141454B3100180F
:1023D00014127F10002745454539003C4A494930D1
:1023E000000171090503003649494936000649498B
:1023F000291E000036360000000056360000000896
:102400001422410000141414141400004122140872
:1024100000020151090600324959513E007C121157
:10242000127C007F49494936003E41414122007FEC
:102430004141221C007F49494941007F09090901A6
:10244000003E4149497A007F0808087F0000417F2B
:102450004100002040413F01007F08142241007FDD
:1024600040404040007F020C027F007F0408107F44
:10247000003E4141413E007F09090906003E4151AD
:10248000215E007F0919294600464949493100016A
:10249000017F0101003F4040403F001F2040201FBE
:1024A000003F4038403F0063140814630007087081
:1024B000080700615149454300007F414100000287
:1024C00004081020000041417F00000402010204C2
:1024D00000404040404000000102040000205454ED
:1024E0005478007F4844443800384444442000383D
:1024F0004444487F00385454541800087E090102AF
:102500000018A4A4A47C007F080404780000447D83
:102510004000004080847D00007F102844000000BF
:10252000417F4000007C04180478007C0804047893
:1025300000384444443800FC24242418001824247F
:1025400018FC007C0804040800485454542000047B
:102550003F444020003C4040207C001C2040201C88
:10256000003C4030403C004428102844001CA0A0FF
:10257000A07C004464544C44141414141414FFE656
:10258000DB2EC4FF7F3F80EFFFBE90E1A93EEC82CF
:1025900076BE82AD2B3E0E3CC3BD87D1133D417844
:1025A000D3BB4176672F6442005065616B2F644254
:1025B0000064420031323600373800333000FFFF0C
:00000001FF
