:1000000005C1FECFFDCFFCCFFBCFFACFF9CFF8CFA4
:10001000F7CFF6CFF5CFF4CFF3CFF2CFF1CFF0CFCC
:02002000EFCF20
:10020C00BFE5BDBFB2E0BEBF2F9200E0BCDFB9B30B
:10021C00B4FD0EC0102F1F5F212F06E0011710F444
:10022C0001E001C0022F013010F406E000C002C052
:0A023C00202EF4DEECCF2F90FFCF50
:10019200B0E8B6BDB0E0B6BDB0E3BBBBBFECBABB26
:1001A200B0E0B8BBB4E0B7BBB0E0B0BFB0E0B3BF43
:1001B200B0E0B2BFB0E0B6BFB0E0BCBFB0E0BFBD20
:1001C200B0E0BEBDB0E0BDBDB0E0BCBDB0E0B5BD0D
:1001D200B0E0B4BDB0E0BBBDB0E0BABDB0E0B9BD07
:1001E200B0E0B8BDB0E0B5BFB0E0BBBFB0E0B9BFF2
:1001F200B0E0BCB9B0E0BDB9B0E8B8B9B0E0B3B9ED
:0A020200B0E0B1B9B0E0B6B908955C
:100028009AC0BBB3BE7FBBBBBBB3BD7FBBBBBBB3BF
:10003800BB7FBBBBBBB3B860BBBBB8B3B460B8BB1A
:10004800BBB3B068BBBBBBB3BF7BBBBB9DC0BBB3C3
:10005800B160BBBBBBB3BD7FBBBBBBB3BB7FBBBBD3
:10006800BBB3B77FBBBBB8B3B460B8BBBBB3BF77D8
:10007800BBBBBBB3BF7BBBBB87C0BBB3BE7FBBBB7C
:10008800BBB3B260BBBBBBB3BB7FBBBBBBB3B860CE
:10009800BBBBB8B3BB7FB8BBBBB3B068BBBBBBB360
:1000A800BF7BBBBB71C0BBB3B160BBBBBBB3B260F2
:1000B800BBBBBBB3BB7FBBBBBBB3B77FBBBBB8B31F
:1000C800BB7FB8BBBBB3BF77BBBBBBB3B064BBBB69
:1000D8005BC0BBB3B160BBBBBBB3B260BBBBBBB3A4
:1000E800BB7FBBBBBBB3B860BBBBB8B3B460B8BB6A
:1000F800BBB3BF77BBBBBBB3B064BBBB45C0BBB373
:10010800B160BBBBBBB3B260BBBBBBB3B460BBBB72
:10011800BBB3B77FBBBBB8B3BB7FB8BBBBB3B0681F
:10012800BBBBBBB3B064BBBB2FC0BBB3BE7FBBBB49
:10013800BBB3BD7FBBBBBBB3BB7FBBBBBBB3B77FD5
:10014800BBBBB8B3BB7FB8BBBBB3BF77BBBBBBB391
:10015800BF7BBBBB19C0B1E02B1609F462CFB2E07C
:100168002B1609F474CFB3E02B1609F486CFB4E04C
:100178002B1609F498CFB5E02B1609F4AACFB6E0F0
:0A0188002B1609F4BCCFD1CF089567
:00000001FF
