:10000000A3C0FECFFDCFFCCFFBCFFACFF9CFF8CF07
:04001000F7CFF6CF61
:10014800BFE9BDBFB0E0BEBFCDB7DEB72197CDBF19
:10015800DEBF21962F923F92B0E0B883B4DF06B39A
:1001680000950F70102F003001F10881101739F435
:1001780000906000B1E00B260092600005C0B091CD
:100188006000BE7FB09360001F93312EB9E02B2E24
:10019800C0DF1F91188326E01EE807E40A95F1F7EF
:1001A8001A95E1F72A95D1F70000D9CF3F902F9003
:0201B800FFCF77
:1000CE00B0E8B6BDB0E0B6BDBFE0B8BBB0E1B7BBFF
:1000DE00B0E0BFBDB0E0B3BFB0E0B2BFB0E0B6BFFE
:1000EE00B0E0B9BDB0E0BBBFB0E0B5BFB0E0B9BFE6
:1000FE00B0E8B8B9B0E0B3B9B0E0B4BBB0E0B6B9EF
:0C010E00B0916000BE7FB09360000895C7
:10011A002F923F92CBDFCADFB0916000B0FF02C0DE
:10012A00C5DF01C08BDF3F92B5E03B2E90DF3F90E9
:0E013A00232CB6E03B2E8BDF3F902F900895D4
:1000B600B8B3BF7EB8BB1BE008E10A95F1F71A9505
:0800C600E1F70000A4DF08953A
:100014001FE100E00117A0F4B8B3B061B8BB09E177
:100024000A95F1F700000000B8B3BF7EB8BB0CE33B
:100034000A95F1F700000000012F0150102FE9CFBD
:0200440008951D
:10004600E6DF1BE008E10A95F1F71A95E1F70000F3
:0200560008950B
:10005800CF93DF93CDB7DEB72297CDBFDEBF219612
:10006800B0E0B98306C0B0E1B98309C0B0E2B98392
:1000780006C0B5E03B16B9F3B6E03B16B9F3B0E0FD
:10008800B8830881031568F40981022111F00FD0A3
:1000980001C0D5DF022D000F202E08810F5F0883D5
:0E00A800F0CF2196CDBFDEBFDF91CF9108953E
:00000001FF
