:1000000032C00000FDCF0000FBCF0000F9CF0000A0
:10001000F7CF0000F5CF0000F3CF0000F1CF0000D4
:10002000EFCF0000EDCF0000EBCF0000E9CF0000E4
:10003000E7CF0000E5CF0000E3CF0000E1CF0000F4
:10004000DFCF0000DDCF0000DBCF0000D9CF000004
:10005000D7CF0000D5CF0000D3CF0000D1CF000014
:06006000CFCF0000CDCF60
:06006600E4E0FFE0099454
:101E0800BFEFBDBFB8E0BEBF34D3CDB7DEB7A8972C
:101E1800CDBFDEBF21962F923F924F925F926F9275
:101E28007F928F929F92BCEEB9A3B1E5BAA3B8EBAB
:101E3800BBA3BDEBBCA3B7EFBDA3BFEFBEA3BFE77A
:101E4800BFA32BD9B1E02B2EE2D8B0EE2B2EB7E0F2
:101E58003B2E0CDE1801D8DDB0E02B2EB8EF3B2E60
:101E680005DEB1E08B2EB4E16B2EB0E07B2EBFE334
:101E78004B2EB0E05B2EBFE42B2EB0E03B2E1F9321
:101E88000F9308DEADB7BEB71296ADBFBEBF32E046
:101E980025E41DEA07E00A95F1F71A95E1F72A9576
:101EA800D1F73A95C1F7BFEF2B2E3B2EDFDD180196
:101EB800ABDDB1E08B2EB4E06B2EB0E07B2EB6E04C
:101EC8004B2EB0E05B2EB6E02B2EB0E03B2EB8EFE9
:101ED800BF93B0E0BF93DEDDADB7BEB71296ADBF1E
:101EE800BEBFB1E08B2EB4E06B2EB0E07B2EB6E027
:101EF8004B2EB0E05B2EB9E92B2EB0E03B2EB8EFAD
:101F0800BF93B0E0BF93C6DDADB7BEB71296ADBF05
:101F1800BEBFB1E08B2EB4E06B2EB0E07B2EB9E7EC
:101F28004B2EB0E05B2EB6E02B2EB0E03B2EB8EF88
:101F3800BF93B0E0BF93AEDDADB7BEB71296ADBFED
:101F4800BEBFB1E08B2EB4E06B2EB0E07B2EB9E7BC
:101F58004B2EB0E05B2EB9E92B2EB0E03B2EB8EF4C
:101F6800BF93B0E0BF9396DDADB7BEB71296ADBFD5
:101F7800BEBF22E51BE200E00A95F1F71A95E1F7EA
:101F88002A95D1F70000000000000000BFE78B2E63
:101F9800B0E09B2EBEE06B2EB0E07B2E442455248F
:101FA800BEE02B2EB0E03B2EB7E0BF93BFEFBF9350
:101FB800E1EAF4E00995ADB7BEB71296ADBFBEBF72
:101FC800BFE78B2EB0E09B2EB1E96B2EB0E07B2EE5
:101FD80044245524B1E92B2EB0E03B2EB7E0BF9343
:101FE800BFEFBF93E1EAF4E00995ADB7BEB712962B
:101FF800ADBFBEBFBEE08B2EB0E09B2EBFE96B2EFF
:10200800B0E07B2EBEE04B2EB0E05B2E22243324C2
:10201800B7E0BF93BFEFBF93E1EAF4E00995ADB72E
:10202800BEB71296ADBFBEBFB1E78B2EB0E09B2EF8
:10203800BFE96B2EB0E07B2EB1E74B2EB0E05B2EF4
:1020480022243324B7E0BF93BFEFBF93E1EAF4E063
:102058000995ADB7BEB71296ADBFBEBF22E51BE26C
:1020680000E00A95F1F71A95E1F72A95D1F70000F3
:10207800000000000000BEE68B2EB0E09B2EBEE8FC
:102088006B2EB0E07B2EB1E14B2EB0E05B2EB1E1C0
:102098002B2EB0E03B2EBFEFBF93BF93B0E0BF93B2
:1020A800BFE1BF93B1E0BF93B1E0BF93B7D9ADB77C
:1020B800BEB71696ADBFBEBF22E51BE200E00A958B
:1020C800F1F71A95E1F72A95D1F700000000000012
:1020D8000000E0E5F4E2DE018BE090E05AD88E01E2
:1020E800BFE17B2EB0E08B2EB0EE5B2EBFEF6B2EE8
:1020F800B2E04B2EBAE33B2EB6E12B2E1F930F9383
:1021080068DAADB7BEB71296ADBFBEBF32E025E400
:102118001DEA07E00A95F1F71A95E1F72A95D1F734
:102128003A95C1F7222433246FDCEBE5F4E2DE01B3
:102138001B9686E190E02DD88E01055F1F4F77240E
:102148008824B0EE5B2EBFEF6B2EB1E04B2EBAE5C4
:102158003B2EB4E12B2E1F930F933BDAADB7BEB7DE
:102168001296ADBFBEBFB2E09B2E77248824BFE194
:102178005B2EB0E06B2EB1E04B2EB4E13B2EBCE3FE
:102188002B2E09A11AA12BA13CA13F932F931F939A
:102198000F9353DAADB7BEB71496ADBFBEBF772461
:1021A8008824B0E05B2EB8EF6B2EB1E04B2EB8E27E
:1021B8003B2EBCE32B2E0FA1B0E007FDBFEFBF9372
:1021C8000F93E2EDF8E00995ADB7BEB71296ADBF33
:1021D800BEBF77248824B0EE5B2EB7E06B2EB1E04B
:1021E8004B2EBCE33B2EBCE32B2E0DA11EA11F934F
:1021F8000F93E7EFF5E00995ADB7BEB71296ADBFFF
:10220800BEBF09A11AA12BA13CA14AE057ED63E288
:102218007CE3E3ECF8E0099509A31AA32BA33CA3FC
:102228002FA121502FA30DA11EA10F5F1F4F0DA39A
:102238001EA3203814F4BFE7BFA325E01FED0CEB65
:102248000A95F1F71A95E1F72A95D1F700000000F1
:102258008ACF9F908F907F906F905F904F903F9024
:042268002F90FFCFE5
:1010A200B0E8B0936100B0E0B0936100B0E0B5B9D0
:1010B200BFE1B4B9B0E0B8B9B0E0B7B9B0E0BBB91C
:1010C200B0E0BAB9B0E0B4BDB0E0B5BDB0E0B6BD15
:1010D200B0E0B7BDB0E0B8BDB0E0B0938000B0E022
:1010E200B0938100B0E0B0938500B0E0B09384008B
:1010F200B0E0B0938700B0E0B0938600B0E0B09368
:101102008900B0E0B0938800B0E0B0938B00B0E00B
:10111200B0938A00B0E0B093B600B0E0B093B000F4
:10112200B0E0B093B100B0E0B093B200B0E0B093E1
:10113200B300B0E0B093B400B0E0B0936900B0E0A7
:10114200BDBBB0E0B0936800B0E0B0936E00B0E019
:10115200B0936F00B0E0B0937000B0E0B093C10004
:10116200B0E8B0BFB0E0B0937B00B0E0B0937F00D6
:10117200B0E0B0937A00B0E0BCBDB0E0B093BC0088
:041182003FDA0895B3
:100602002F923F92BCDE3324B1E02B2ECDDE14E0DC
:100612000DE10A95F1F71A95E1F73324B1E12B2E9A
:10062200C3DE14E00DE10A95F1F71A95E1F73324E0
:10063200B1EB2B2EB9DEB1E03B2EB1E02B2EB4DEB6
:10064200B1E03B2EBCE22B2EAFDEB1E03B2EBDE291
:100652002B2EAADE3324B2EB2B2EA6DEB1E03B2EEC
:10066200B1E02B2EA1DEB1E03B2EBCE22B2E9CDEB4
:10067200B1E03B2EBDE22B2E97DE3324B3EB2B2EC3
:1006820093DEB1E03B2EB1E02B2E8EDEB1E03B2EAD
:10069200BCE22B2E89DEB1E03B2EBDE22B2E84DEA6
:1006A200B1E03B2EB1E02B2E7FDEB1E03B2EBCE26F
:1006B2002B2E7ADEB1E03B2EBDE22B2E75DE3324EB
:1006C200B4EB2B2E71DEB1E03B2EB7E02B2E6CDEAD
:1006D2003324B0EC2B2E68DEB1E03B2EB2EA2B2E97
:1006E20063DEB1E03B2EB2E02B2E5EDEB1E03B2EAC
:1006F200B4E82B2E59DE3324B0EC2B2E55DEB1E0BC
:100702003B2EB5EC2B2E50DE3324B1EC2B2E4CDEDF
:10071200B1E03B2EBAE02B2E47DEB1E03B2E222485
:1007220043DE3324B2EC2B2E3FDEB1E03B2EBAE89F
:100732002B2E3ADEB1E03B2EBAE22B2E35DE3324ED
:10074200B3EC2B2E31DEB1E03B2EBAE82B2E2CDEA1
:10075200B1E03B2EBEEE2B2E27DE3324B4EC2B2E43
:1007620023DEB1E03B2EBEE02B2E1EDE3324B5ECA1
:100772002B2E1ADEB1E03B2E222416DE3324BAE3FE
:100782002B2E12DEB1E03B2EB5E02B2E0DDE3324F4
:10079200B6E32B2E09DEB1E03B2EB8EC2B2E04DEA5
:1007A200D7DD3324B0EE2B2EFFDDB1E03B2EB2E0DD
:1007B2002B2EFADDB1E03B2EBCE12B2EF5DDB1E0B4
:1007C2003B2EB7E02B2EF0DDB1E03B2EB2E12B2E1B
:1007D200EBDDB1E03B2EB7E32B2EE6DDB1E03B2EA5
:1007E200B2E32B2EE1DDB1E03B2EB9E22B2EDCDDB4
:1007F200B1E03B2EBDE22B2ED7DDB1E03B2EB9E2BC
:100802002B2ED2DDB1E03B2EB5E22B2ECDDDB1E0B9
:100812003B2EBBE22B2EC8DDB1E03B2EB9E32B2EE3
:10082200C3DDB1E03B2E2224BFDDB1E03B2EB1E0BF
:100832002B2EBADDB1E03B2EB3E02B2EB5DDB1E0BD
:100842003B2EB0E12B2EB0DD3324B1EE2B2EACDDEE
:10085200B1E03B2EB3E02B2EA7DDB1E03B2EBDE194
:100862002B2EA2DDB1E03B2EB7E02B2E9DDDB1E0B9
:100872003B2EB6E02B2E98DDB1E03B2EBEE22B2EB6
:1008820093DDB1E03B2EBCE22B2E8EDDB1E03B2EA0
:10089200B9E22B2E89DDB1E03B2EBDE22B2E84DDA9
:1008A200B1E03B2EBEE22B2E7FDDB1E03B2EBEE25D
:1008B2002B2E7ADDB1E03B2EB7E32B2E75DDB1E0B6
:1008C2003B2EBFE32B2E70DDB1E03B2E22246CDDEC
:1008D200B1E03B2E222468DDB1E03B2EB2E02B2EAC
:1008E20063DDB1E03B2EB0E12B2E5EDD3324B3E1BC
:1008F2002B2E5ADD10ED0AEC0A95F1F71A95E1F765
:1009020000003324B9E22B2E4FDD29E01EE105EE73
:100912000A95F1F71A95E1F72A95D1F700003324E9
:10092200BCE22B2E41DD29E01EE105EE0A95F1F72E
:100932001A95E1F72A95D1F700003F902F9008957C
:00094200B5
:10038000B5B1BD7FB5B91AE20EE80A95F1F71A9535
:10039000E1F70000B5B1B260B5B91AE20EE80A950E
:0A03A000F1F71A95E1F70000089547
:1003AA0018E0B5B1BE7FB5B9332021F0B5B1B4605C
:1003BA00B5B903C0B5B1BB7FB5B900E00117C4F444
:1003CA00B5B1BF7EB5B9022D0078003021F0B5B1C4
:1003DA00B860B5B903C0B5B1B77FB5B9B5B1B06149
:1003EA00B5B9022D000F202E012F0150102FE5CF95
:0803FA00B5B1B160B5B9089579
:100352002F923F924F925F92BFE95B2EBFE74B2EE7
:100362003324222493DE5F904F903F902F90089584
:000372008B
:10008E002F923F923F922F923324BAE22B2E86D19B
:10009E00B1E03B2E222482D12F90B1E03B2E7ED1B7
:1000AE00B1E03B2E22247AD1B1E03B2E242C76D126
:1000BE003324BBE22B2E72D1B1E03B2E22246ED123
:1000CE003F90232CB1E03B2E69D1B1E03B2E222490
:1000DE0065D1B1E03B2E252C61D13324BCE22B2E11
:0800EE005DD13F902F900895B1
:101016002F923F922F923324B6E32B2EC3D92F90D3
:10102600022D037030C0B1E03B2EB8EC2B2EBAD99E
:10103600B0E8B0930001B0EAB09301012CC0B1E072
:101046003B2EB8EA2B2EAED9B0EAB0930001B0E839
:10105600B093010120C0B1E03B2EB8E02B2EA2D9FF
:10106600B0E8B0930001B0EAB093010114C0B1E05A
:101076003B2EB8E62B2E96D9B0EAB0930001B0E825
:10108600B093010108C0003071F20130C1F20230A4
:0C10960011F3033061F33F902F90089598
:101A10004F925F921091010111500091000101500D
:101A20003F922F92512E402E33242224E7E4F0E0FF
:101A300009952F903F901091010100E00117B8F433
:101A400000910001202F00E0021768F41F933F92DD
:101A50002F92EBEEF2E009952F903F901F91022F0D
:101A60000150202FF0CF012F0150102FE6CF5F90B3
:041A70004F900895F6
:1005D6002F923F9281010070012F10E03F922F92DF
:1005E600B1E03B2E202EDEDE2F903F90022DB1E0B3
:0C05F6003B2E202ED7DE3F902F90089562
:101A7400BBE09101220F331FBA95E1F78101007E8B
:101A84001770202B312BBBE0810116950795BA9571
:081A9400E1F7022B132B08956A
:101A9C00CF93DF93CDB7DEB72297CDBFDEBF2196B4
:101AAC009F922E813F81BB24CC24C30101E010E026
:101ABC000619170908831983BC01C9019B2CAC2C8E
:101ACC0002C09B2CAC2CB0E08B1609F4C8C0AB0147
:101ADC00440D551D292D3A2D220D331D8101091957
:101AEC001A099F938F93AF929F927F936F938F92CC
:101AFC007F926F925F924F923F922F924A013901DF
:101B0C002A0118019F938F93E1EAF4E00995ADB790
:101B1C00BEB71296ADBFBEBF2F903F904F905F9057
:101B2C006F907F908F906F917F919F90AF908F91DE
:101B3C009F91A201461B570B292D3A2D220D331DC7
:101B4C00810109191A099F938F93AF929F927F93EA
:101B5C006F938F927F926F925F924F923F922F92E0
:101B6C004A0139012A0118019F938F93E1EAF4E0AD
:101B7C000995ADB7BEB71296ADBFBEBF2F903F90C3
:101B8C004F905F906F907F908F906F917F919F900F
:101B9C00AF908F919F91492D5A2D440D551D9B014E
:101BAC00220D331D8101061B170B9F938F93AF9250
:101BBC009F927F936F938F927F926F925F924F92CF
:101BCC003F922F924A0139012A0118019F938F935A
:101BDC00E1EAF4E00995ADB7BEB71296ADBFBEBF52
:101BEC002F903F904F905F906F907F908F906F9160
:101BFC007F919F90AF908F919F91A20149195A09A3
:101C0C009B01220D331D8101061B170B9F938F9394
:101C1C00AF929F927F936F938F927F926F925F920E
:101C2C004F923F922F924A0139012A0118019F933A
:101C3C008F93E1EAF4E00995ADB7BEB71296ADBF4C
:101C4C00BEBF2F903F904F905F906F907F908F9082
:101C5C006F917F919F90AF908F919F9190C0142D19
:101C6C00160F022D090D5F924F923F922F922C016D
:101C7C00312E202EEFE3F2E009952F903F904F90FC
:101C8C005F90142D190D022D060F5F924F923F920B
:101C9C002F922C01312E202EEFE3F2E009952F909C
:101CAC003F904F905F90142D160F022D09195F92E3
:101CBC004F923F922F922C01312E202EEFE3F2E027
:101CCC0009952F903F904F905F90142D190D022D78
:101CDC00061B5F924F923F922F922C01312E202E99
:101CEC00EFE3F2E009952F903F904F905F90142D09
:101CFC001919022D060F5F924F923F922F922C01D1
:101D0C00312E202EEFE3F2E009952F903F904F906B
:101D1C005F90142D161B022D090D5F924F923F926E
:101D2C002F922C01312E202EEFE3F2E009952F900B
:101D3C003F904F905F90142D161B022D09195F9246
:101D4C004F923F922F922C01312E202EEFE3F2E096
:101D5C0009952F903F904F905F90142D1919022DDB
:101D6C00061B5F924F923F922F922C01312E202E08
:101D7C00EFE3F2E009952F903F904F905F90288110
:101D8C00398100E010E020173107A4F4092D1A2D39
:101D9C00000F111F98012D5F3F4F08811981020F11
:101DAC00131F08831983092D1A2D0F5F1F4FB02E97
:101DBC00C12E19C0092D1A2D061B170B000F111F50
:101DCC0098012B5F3F4F08811981020F131F088365
:101DDC001983092D1A2D0F5F1F4FB02EC12E8B01A9
:101DEC0001501040B8016B157C050CF06ACE9F9029
:0C1DFC002196CDBFDEBFDF91CF9108958E
:10094200CF93DF93CDB7DEB72596488159819401C5
:10095200241935096901830102191309B80100E05C
:1009620010E02017310744F400E010E00C191D09D3
:1009720068012FEF3FEF02C021E030E000E010E01D
:10098200601771074CF400E010E0061B170BB8016A
:10099200BFEFAB2EBB2E04C0B1E0AB2EB0E0BB2E3E
:1009A2008B01000F111FC8018601000F111FB80132
:1009B2005F924F923F922F92342C2A015FDD2F904B
:1009C2003F904F905F90681779070CF030C08C0110
:1009D2001595079508018B01001911096801790124
:1009E2002614370419F100E010E0C016D1064CF0CD
:1009F2008701040D151D28018601081B190B6801CA
:100A020000C09501220D331D19018B010C0D1D1D16
:100A120068015F924F923F922F92342C2A01222E2C
:100A22002DDD2F903F904F905F90DACF3BC08B012E
:100A32001595079508018C010019110968017F932A
:100A42006F93BC01C501590196016A014F915F91F3
:100A52004814590439F100E010E0201731074CF036
:100A62008C01020D131D18018901041B150B78015D
:100A720001C079019501240D351D29018B010E0D4F
:100A82001F1D1F930F935F924F923F922F92260149
:100A9200322EF4DC2F903F904F905F900F911F9178
:0A0AA2009801D6CFDF91CF9108959F
:10047E002F923F92132D1F5F022D0F5F5F924F92AF
:10048E00512E402EFDDD4F905F9012019DD03F907A
:04049E002F900895FE
:10142400CF93DF93CDB7DEB72297CDBFDEBF219632
:101434002E810F810F8308851985088719870A85EE
:101444001B850A871B87203009F43AC02614370409
:101454002CF4622D562D462F852F04C0662D522D57
:10146400462F852F481459041CF44882898202C0EF
:1014740088824982082FA42F0A1708F12881802F17
:10148400122F09810117B0F01F935F924F923F9280
:101494002F9248845984312E2A2EEFE3F2E00995E5
:1014A4002F903F904F905F901F91012F0F5F202F3F
:1014B400122FE7CF0A2F0F5FA02F082FDDCF54C0C4
:1014C4009F928F925F924F923F922F924201088592
:1014D40019851F930F9333DAADB7BEB71296ADBF1C
:1014E400BEBF2F903F904F905F908F909F905F92E0
:1014F4004F923F922F922401088519851F930F93D1
:101504001EDAADB7BEB71296ADBFBEBF2F903F90E7
:101514004F905F907F926F925F924F923F922F9283
:101524003101088519851F930F9309DAADB7BEB74A
:101534001296ADBFBEBF2F903F904F905F906F90BB
:101544007F905F924F923F922F92130108851985E5
:101554001F930F93F4D9ADB7BEB71296ADBFBEBFFC
:101564002F903F904F905F900F81003071F15F9208
:101574004F923F922F92342C4A845B84EFE3F2E043
:1015840009952F903F903F922F924A845B84382C88
:10159400EFE3F2E009952F903F904F905F905F92B8
:1015A4004F923F922F92342C4A845B84262CEFE393
:1015B400F2E009954A845B84382C262CEFE3F2E0B0
:1015C40009952F903F904F905F902196CDBFDEBF3D
:0615D400DF91CF910895A4
:1015DA00CF93DF93CDB7DEB725969F9238814981A5
:1015EA00E32FF42F00814F933F934F923F922F9214
:1015FA00902EE9E7F2E009952F903F904F903F91A6
:10160A004F91132F242F1F5F2F4F312F422F06E0A8
:10161A00409E002D020D202EE12FF22F0081003274
:10162A0038F0E32FF42F10810FE7011708F0D8CF15
:08163A009F90DF91CF9108950C
:1004F200B0E04B1610F4B1E04B2E241408F4242C77
:1005020040E0453008F055C050E0583008F042C095
:10051200092D10E0005210404F935F9345E050E0E8
:10052200BBDE5F914F9120E732E2020F131FE42FEF
:10053200F0E0E00FF11F0491B52FBB2319F00695EF
:10054200BA95E9F700FF11C04F936F925F924F92F5
:100552002F926F925F92642C4F905F9067DE2F9084
:100562004F905F906F904F910EC04F936F925F923A
:100572004F922F92642C472C582C58DE2F904F907C
:100582005F906F904F91032D040D302E052F0F5F5A
:10059200502FBBCF042D000F000F000F002E032D94
:1005A2000019302E022D040D202E042F0F5F402F34
:1005B200A8CF122D140D212E00910001011748F42D
:1005C200042D0F5F202E042D000F000F000F030DCE
:0405D200302E08952A
:10022E00032D060D102F1150022D060D01505F9259
:10023E004F92512E402E24DF4F905F9040E0669CEF
:10024E009001042F10E00217130754F43F922F92DF
:10025E001201BAD12F903F90042F0F5F402FEFCF96
:02026E000895F1
:10029A009801249F8001259F100D349F100D089509
:0002AA0054
:10164200CF93DF93CDB7DEB72897CDBFDEBF21960C
:101652002F929F920C851D852E853F850C871D87B5
:101662002E873F870C851D852E853F851EDA0883D0
:1016720019832A833B839F928F927F926F925F920C
:101682004F923F922F921F930F93B0DAADB7BEB72E
:101692001296ADBFBEBF2F903F904F905F906F905C
:1016A200088119812A813B81E6E7F2E009950C83E2
:1016B2001D832E833F833F922F924C815D816E81E9
:1016C2007F810C851D852E853F85E1E5F2E0099538
:1016D20040E050E46CE176E4ECE6F2E009952F900C
:1016E2003F907F908F909F90E0D9088319832A833F
:1016F2003B8340E050E060E070E0041715072607E6
:10170200370784F40880198000E010E000191109FD
:101712000A801B8020E030E0200931090883198308
:101722002A833B839F928F927F923F922F9240E037
:101732005CE36CE176E40C851D852E853F85E5E64C
:10174200F2E00995002800E009F001E02F903F90B7
:101752007F908F909F90002359F19F928F927F925A
:101762003F922F9240E85FE463EC77E40C851D859D
:101772002E853F85EEE5F2E00995002800E009F0AC
:1017820001E02F903F907F908F909F90002381F0F7
:1017920004E2049D002D020D202E088119811F9361
:1017A2000F93A7D9ADB7BEB71296ADBFBEBF27C1C3
:1017B2009F928F927F923F922F9240E050EC69E786
:1017C20074E40C851D852E853F85E5E6F2E00995DA
:1017D200002800E009F001E02F903F907F908F9069
:1017E2009F90002359F19F928F927F923F922F9266
:1017F20040E05CE36CE176E40C851D852E853F8537
:10180200EEE5F2E00995002800E009F001E02F90F2
:101812003F907F908F909F90002381F00EE1049D76
:10182200002D020D202E088119811F930F9361D97B
:10183200ADB7BEB71296ADBFBEBFE1C09F928F9249
:101842007F923F922F9240E050E066EC72E40C856A
:101852001D852E853F85E5E6F2E00995002800E02A
:1018620009F001E02F903F907F908F909F9000238E
:1018720059F19F928F927F923F922F9240E050ECCB
:1018820069E774E40C851D852E853F85EEE5F2E05F
:101892000995002800E009F001E02F903F907F9029
:1018A2008F909F90002381F008E1049D002D020D8E
:1018B200202E088119811F930F931BD9ADB7BEB794
:1018C2001296ADBFBEBF9BC09F928F927F923F92F6
:1018D2002F9240E050E060E171E40C851D852E8579
:1018E2003F85E5E6F2E00995002800E009F001E015
:1018F2002F903F907F908F909F90002359F19F925D
:101902008F927F923F922F9240E050E066EC72E419
:101912000C851D852E853F85EEE5F2E009950028B0
:1019220000E009F001E02F903F907F908F909F9010
:10193200002381F002E1049D002D020D202E08817A
:1019420019811F930F93D5D8ADB7BEB71296ADBF0D
:10195200BEBF55C09F928F927F923F922F9240E0DE
:1019620050E060E171E40C851D852E853F85EEE532
:10197200F2E00995002800E009F001E02F903F9085
:101982007F908F909F90002309F439C00CE0049D52
:10199200002D020D4F923F922F92202E0881198125
:1019A2001F930F93A6D8ADB7BEB71296ADBFBEBFF9
:1019B2002F903F904F908F927F923F922F9240E0D4
:1019C20050E060E070E00C851D852E853F85EEE5D8
:1019D200F2E00995002800E009F001E02F903F9025
:1019E2007F908F90002331F0BDE29B2EE9E7F2E079
:1019F200099505C0B0E29B2EE9E7F2E009959F90B8
:0E1A02002F902796CDBFDEBFDF91CF910895C4
:100BEE00CF93DF93CDB7DEB72A97CDBFDEBF219669
:100BFE000E851F850E871F87B0E2B883B0E2B983DA
:100C0E00B0E2BA83B0E2BB83B0E2BC83B0E2BD8394
:100C1E002E853F8500E010E02017310764F4FE01B9
:100C2E00BDE2B0830E841F8400E010E000191109AC
:100C3E000E871F8703C0FE01B0E2B0832E853F856D
:100C4E000FE017E2021713070CF070C08E010F5F52
:100C5E001F4F088719878F927F926F925F924F92E4
:100C6E003F922F9240E157E20E851F852BDB8B01C1
:100C7E00202F205D08851985F80120838E010E5FD7
:100C8E001F4F0887198740E157E20E851F851ADB33
:100C9E008C0148EE53E016DB8B01202F205D08857A
:100CAE001985F80120838E010D5F1F4F0887198764
:100CBE0048EE53E00E851F8505DB8C0144E650E0BF
:100CCE0001DB8B01202F205D08851985F80120831B
:100CDE008E010C5F1F4F0887198744E650E00E8582
:100CEE001F85F0DA8C014AE050E0ECDA8B01202F00
:100CFE00205D08851985F80120838E010B5F1F4F3B
:100D0E00088719874AE050E00E851F85DBDA8C01D3
:100D1E002F903F904F905F906F907F908F90202FED
:100D2E00205D08851985F80120835FC12E853F85DA
:100D3E0007EE13E0021713070CF06CC02E853F85EB
:100D4E000FE017E2021713070CF464C08E010F5F59
:100D5E001F4F088719878F927F926F925F924F92E3
:100D6E003F922F9240E157E20E851F85ABDA8C0140
:100D7E0048EE53E0A7DA8B01202F205D08851985F8
:100D8E00F80120838E010E5F1F4F0887198748EEEA
:100D9E0053E00E851F8596DA8C0144E650E092DA18
:100DAE008B01202F205D08851985F80120838E0187
:100DBE000D5F1F4F0887198744E650E00E851F858B
:100DCE0081DA8C014AE050E07DDA8B01202F205D24
:100DDE0008851985F80120838E010C5F1F4F088747
:100DEE0019874AE050E00E851F856CDA8C012F9032
:100DFE003F904F905F906F907F908F90202F205D4F
:100E0E0008851985F80120838E01F8013596B0E228
:100E1E00B083EBC02E853F8503E610E00217130763
:100E2E000CF05CC02E853F8507EE13E0021713070A
:100E3E000CF454C08E010F5F1F4F088719878F92D5
:100E4E007F926F925F924F923F922F9248EE53E0B5
:100E5E000E851F8537DA8C0144E650E033DA8B01BC
:100E6E00202F205D08851985F80120838E010E5FE5
:100E7E001F4F0887198744E650E00E851F8522DA3A
:100E8E008C014AE050E01EDA8B01202F205D088590
:100E9E001985F80120838E010D5F1F4F0887198772
:100EAE004AE050E00E851F850DDA8C012F903F90A1
:100EBE004F905F906F907F908F90202F205D0885D0
:100ECE001985F80120838E01F8013496B0E2B083C3
:100EDE008E01F8013596B0E2B08387C02E853F852E
:100EEE0009E010E0021713070CF04CC02E853F8569
:100EFE0003E610E0021713070CF444C08E010F5FD7
:100F0E001F4F088719878F927F926F925F924F9231
:100F1E003F922F9244E650E00E851F85D3D98C0167
:100F2E004AE050E0CFD98B01202F205D088519852E
:100F3E00F80120838E010E5F1F4F088719874AE044
:100F4E0050E00E851F85BED98C012F903F904F909B
:100F5E005F906F907F908F90202F205D0885198570
:100F6E00F80120838E01F8013396B0E2B0838E0132
:100F7E00F8013496B0E2B0838E01F8013596B0E2F6
:100F8E00B08333C08E010F5F1F4F088719878F9272
:100F9E007F926F925F924F923F922F924AE050E073
:100FAE000E851F858FD98C012F903F904F905F90AB
:100FBE006F907F908F90202F205D08851985F80106
:100FCE0020838E01F8013296B0E2B0838E01F801D3
:100FDE003396B0E2B0838E01F8013496B0E2B0835E
:100FEE008E01F8013596B0E2B0838E011F930F93F8
:100FFE00EDD2ADB7BEB71296ADBFBEBF2996CDBF6F
:08100E00DEBFDF91CF910895D0
:1002D200C801BA0197FB092E07260AD077FD04D080
:1002E2000CD006D000201AF4709561957F4F0895C6
:1002F200F6F7909581959F4F0895AA1BBB1B51E17C
:1003020007C0AA1FBB1FA617B70710F0A61BB70B83
:10031200881F991F5A95A9F780959095BC01CD0128
:04032200089508959D
:100AF400CF93DF93CDB7DEB72A97CDBFDEBF219664
:100B04000E851F850E871F87BEE2B883B0E2B983C6
:100B1400B0E2BA83B0E2BB83B0E2BC83B0E2BD838F
:100B24008E010F5F1F4F0887198748EE53E00E852B
:100B34001F85B9DB8C01202F205D08851985F801FC
:100B4400208301E0091508F041C08E010E5F1F4F9C
:100B54000887198748EE53E00E851F85A4DB8D01B5
:100B640044E650E0A0DB8C01202F205D0885198528
:100B7400F801208302E0091548F58E010D5F1F4F2F
:100B84000887198744E650E00E851F858CDB8D01AC
:100B94004AE050E088DB8C01202F205D0885198510
:100BA400F801208303E0091588F48E010C5F1F4FC0
:100BB400088719874AE050E00E851F8574DB8D0194
:100BC400202F205D08851985F80120838E011F934D
:100BD4000F9301D5ADB7BEB71296ADBFBEBF299670
:0A0BE400CDBFDEBFDF91CF91089571
:1002AA00C801BA01AA1BBB1B51E107C0AA1FBB1F89
:1002BA00A617B70710F0A61BB70B881F991F5A95E8
:0802CA00A9F7809590950895B5
:100AAC00E1DBF1F05523C2F04F31A8F44731C1F02E
:100ABC0050F44195495E05C03595279517950795D6
:100ACC004A95D1F70DC04751000F111F221F331F3C
:100ADC004A95D1F705C03FE7232F132F032F03C0EF
:080AEC00662309F01ADC0895ED
:10027000D6DF79F0632F6078220F331F432F5FE7BB
:10028000451B55275040269530E8232B332798945B
:0A02900003C0442755276627089590
:10021E00002329F4112319F4222309F4332308951A
:00022E00D0
:1003260000951095209530950F5F1F4F2F4F3F4F2B
:02033600089528
:0604EC00E89424DF0895EE
:1003380047E16627552726F0332312F4F0DF60E8FB
:04034800D6DE089560
:1000F60093D011F19F938F938EE790E0332351F0C5
:10010600369527951795079548175907B4F44F5F05
:100116005F4FF4CF80959095019622239AF0000FB9
:10012600111F221F481759071CF041505040F5CFA8
:10013600002711272227332708C033270FEF102F58
:0C0146002FE7322F8F919F9195DF0895D5
:10007A00D1D039F041585F4F342F220F369527954A
:04008A00362B089574
:1004A200042E152E262E372E50DF002E112E222E30
:0404B200332E089548
:06034C00689401DF089532
:100152008CDF09F441C0E62ED52EC42EB32EA22E7A
:10016200912E802E002D112D222D332D7EDF09F4AC
:100172003DC0842F952F8C199D09B9F072F490958A
:10018200809501964C2D5D2D883180F5359527950A
:10019200179507950197D1F708C08831E8F4B5940F
:1001A200A794979487940197D1F766272EF0080DAC
:1001B200191D2A1D3B1D09C0801A910AA20AB30A01
:1001C200082D192D2A2D3B2D332312F4ABD060E8D4
:1001D20091DF01C051DF16C0002D112D222D332DCC
:1001E200D6F71CD0C1F340E83427F5CF082D192DDE
:1001F2002A2D3B2D4C2D5D2D6E2D33235AF792D097
:0602020060E8E8CF08955A
:0E006C0001D121F0662309F058D1989408952F
:1004D800042E152E262E372E90DF002E112E222EBA
:0404E800332E089512
:1004020036DF81F1E62ED52EC42EB32EA22E912EEA
:10041200802E002D112D222D332D29DF19F16E256D
:100422004C0D5D1D40385307F4F441387FEF5707F8
:10043200FCF088279927AA27BB2770E2B695A795D3
:1004420097958795379527951795079520F4880DE9
:10045200991DAA1DBB1D7A9589F7032F3A2F292FC3
:10046200182F48DE0AC00FEF102F2FE73FE7FACF11
:0C0472000027102F202F302FF5CF089509
:0E04CA0053DF1CF00024039401C000240895A9
:0E037200042E152E262E372E46DF002308956A
:10020800A1D0332332F007D011F001E003C000275A
:0602180001C00FEF089584
:0E04BC005ADF1CF40024039401C000240895AC
:1011A400CF93DF93CDB7DEB72897CDBFDEBF2196AF
:1011B4003C854D85B0E2B883B0E2B983B0E2BA832E
:1011C400B0E2BB83B0E2BC83B0E2BD8300E010E0D8
:1011D4003017410754F4FE01BDE2B08300E010E093
:1011E400031B140B302F412F03C0FE01B0E2B08368
:1011F40003E610E0031714070CF070C007EE13E0C9
:10120400031714070CF46AC08E010F5F1F4F0E837F
:101214001F834F933F938F927F926F925F924F926F
:101224003F922F92032F142F44E650E050D88B01A5
:101234002F903F904F905F906F907F908F903F9151
:101244004F91202F205D0E811F81F80120838E0194
:101254000E5F1F4F0E831F834F933F938F927F9296
:101264006F925F924F923F922F92032F142F44E676
:1012740050E02DD88C014AE050E029D88B012F9002
:101284003F904F905F906F907F908F903F914F91E0
:10129400202F205D0E811F81F80120838E010D5FB8
:1012A4001F4F0E831F838F927F926F925F924F9294
:1012B4003F922F92032F142F4AE050E008D88C015C
:1012C4002F903F904F905F906F907F908F90202F42
:1012D400205D0E811F81F801208393C009E010E096
:1012E400031714070CF058C003E610E003171407A3
:1012F4000CF452C08E010F5F1F4F0E831F834F9358
:101304003F938F927F926F925F924F923F922F9270
:10131400032F142F44E650E0E9E6F1E009958C012F
:101324004AE050E0E9E6F1E009958B012F903F9007
:101334004F905F906F907F908F903F914F91202FAF
:10134400205D0E811F81F80120838E010E5F1F4FE7
:101354000E831F838F927F926F925F924F923F9280
:101364002F92032F142F4AE050E0E9E6F1E00995AB
:101374008C012F903F904F905F906F907F908F9053
:10138400202F205D0E811F81F80120838E01F8013A
:101394003396B0E2B08335C000E010E03017410767
:1013A40084F109E010E0031714075CF18E010F5F6C
:1013B4001F4F0E831F838F927F926F925F924F9283
:1013C4003F922F92032F142F4AE050E0E9E6F1E018
:1013D40009958C012F903F904F905F906F907F9074
:1013E4008F90202F205D0E811F81F80120838E01B4
:1013F400F8013296B0E2B0838E01F8013396B0E280
:10140400B0838E011F930F93E6D0ADB7BEB712968B
:10141400ADBFBEBF2796CDBFDEBFDF91CF9108958C
:00142400C8
:0A119A0005900D920197E1F708950A
:10118600042E152E262E372E93D9002E112E222E02
:04119600332E089557
:0604B600E8944CDE0895FD
:10247A00A0E0B1E0E8E7F4E282E090E00CE40F9338
:10248A0002E10F930DEC0F9308E00F93089508955E
:10227000000000000000005F0000000700070014DD
:102280007F147F14242A7F2A12231308646236499C
:102290005522500005030000001C2241000041228D
:1022A0001C0014083E081408083E080800503000BE
:1022B00000080808080800606000002010080402F8
:1022C0003E5149453E00427F40004261514946210E
:1022D00041454B311814127F1027454545393C4A7A
:1022E00049493001710905033649494936064949CA
:1022F000291E003636000000563600000814224120
:102300000014141414140041221408020151090687
:10231000324979413E7E1111117E7F494949363E4D
:10232000414141227F4141221C7F494949417F0966
:102330000909013E4149497A7F0808087F00417F29
:1023400041002040413F017F081422417F4040402E
:10235000407F020C027F7F0408107F3E4141413ED6
:102360007F090909063E4151215E7F091929464628
:102370004949493101017F01013F4040403F1F2051
:1023800040201F3F4038403F631408146307087023
:1023900008076151494543007F414100020408108C
:1023A000200041417F0004020102044040404040BF
:1023B000000102040020545454787F4844443838C3
:1023C00044444420384444487F3854545418087EC8
:1023D0000901020C5252523E7F0804047800447DE9
:1023E00040002040443D007F1028440000417F40D1
:1023F000007C041804787C08040478384444443889
:102400007C14141408081414187C7C08040408486C
:1024100054545420043F4440203C4040207C1C2025
:1024200040201C3C4030403C44281028440C505074
:10243000503C4464544C44000836410000007F0086
:102440000000413608001008081008784641467818
:0124780080E3
:01247900A0C2
:0B2450004D6963726F4172656E6100A0
:10245B007777772E66622E636F6D2F4D6963726F80
:06246B004172656E610084
:04247100EC51B8BDB5
:02247500F7FF6F
:012477007FE5
:00000001FF
