:100000000C9434000C9451000C9451000C94510049
:100010000C9451000C9451000C9451000C9451001C
:100020000C9451000C9451000C9451000C9451000C
:100030000C9451000C9451000C9451000C945100FC
:100040000C9451000C9451000C9451000C945100EC
:100050000C9451000C9451000C9451000C945100DC
:100060000C9451000C94510011241FBECFEFD8E026
:10007000DEBFCDBF24E0A4E0B1E001C01D92A430FA
:10008000B207E1F711E0A0E0B1E0EAE3F0E102C07D
:1000900005900D92A430B107D9F70E9456000C9438
:1000A0001B080C9400000E94230208950E94530034
:1000B0000E94AD0240E060E088EC0E947B022FEFDE
:1000C0008BE49DE1215080409040E1F700C00000AA
:1000D00040E068EC80E00E947B022FEF8BE49DE122
:1000E000215080409040E1F700C0000048EC60E003
:1000F00080E00E947B022FEF8BE49DE12150804045
:100100009040E1F700C0000044EB64EB84EB0E94F8
:100110007B022FEF8BE49DE1215080409040E1F77E
:1001200000C00000C12CE12C00EF2FE030E04FE0D8
:1001300050E060E070E080E090E00E94F10220E09A
:1001400030E04FE050E06FE070E080E090E00E942F
:10015000F1022FEF8FE295E7215080409040E1F7C8
:1001600000C000000E94A70240E060E080EA0E9418
:100170007B0284EB8F93812CA12C0F2EF7E0EF2EC6
:10018000F12CF02D0FE010E02FE030E040E050E0E7
:1001900060E070E080E090E00E9474042FEF8FE256
:1001A00095E7215080409040E1F700C000000E9498
:1001B000A7020F2EF0EACF2EF02DE12C01E02DE06A
:1001C00030E04EE050E062E070E082E090E00E94BB
:1001D0000A04C12C0EEB21E042E050E067E070E041
:1001E00088E090E00E9421062FEF8FE295E72150F2
:1001F00080409040E1F700C000000E94A7020F90ED
:100200000F2EFFE08F2E912CF02DC0E0D0E00F2EAE
:10021000FEEBCF2EF02D0F2EFCE3EF2EF02D04E1A0
:1002200020E0AE0167E070E087E090E00E942106E8
:100230002FEF87E893E1215080409040E1F700C024
:1002400000002296C830D10511F72FEF83ED90E31F
:10025000215080409040E1F700C000000E94A702BA
:10026000C0E0D0E00F2EF0EAEF2EF02D00E420E207
:10027000A40160E070E0CE010E94A4032FEF87E8A4
:1002800093E1215080409040E1F700C000002296A9
:10029000C031D10539F7C0E0D0E00F2EF0EAEF2EE3
:1002A000F02D00E220E4AE01B40180E090E00E9475
:1002B000D7032FEF87E893E1215080409040E1F78A
:1002C00000C000002296C031D10539F72FEF83ED31
:1002D00090E3215080409040E1F700C000000E9470
:1002E000A702C0E0D0E0A4014C1B5D0B6894AA24D7
:1002F000A5F86894CC24C7F86894EE24E6F800E0EA
:100300009A01BE01CE010E940A042FEF87E893E113
:10031000215080409040E1F700C000002296C0319B
:10032000D10509F72FEF83ED90E3215080409040F5
:10033000E1F700C00000D4E040E06CE380EA0E94F6
:100340007B02C3E60E94A80729E04AE56CED880F0E
:10035000892F881F990B0E94B002C15099F7D15084
:1003600059F70E94A7026894DD24D2F829C0E12C35
:1003700000E020E0A40160E070E0CE010E94A40350
:100380000E94A8077C010E94A8078C010E94A80770
:10039000EE0CEF2CEE1CFF08000F012F001F110BBD
:1003A000880F892F881F990B282FA40160E070E027
:1003B000CE010E94A4032197D0F6DA94DD2019F033
:1003C000CFE0D0E0D4CF0E94A7020F2EF3E6CF2ECD
:1003D000F02D26C00E94A8077C010E94A8078C016E
:1003E0000E94A807EC010E94A8079701220F232F63
:1003F000221F330BA801440F452F441F550BBE018C
:10040000660F672F661F770B880F892F881F990B40
:100410000E94B002DA94D110DDCFCA94CC2029F02A
:100420000F2EF3E6DF2EF02DD5CF0E94A702EDCEE2
:1004300024982C98239A2B98259A2D98229A2A98BA
:100440000E94470208958FEE8093640084B114B82F
:1004500085B19FEF95B987B1807887B988B18F67EB
:1004600088B98AB11AB88BB19BB940E060E881E6DF
:1004700090E00E94400213BE15BE0E94180208952B
:100480002FB7F894FC01608340832FBF0895E4E602
:10049000F0E080818B7F80838CE58CBD81E08DBD19
:1004A00080E00895EF92FF920F931F93262F50E064
:1004B00060E070E07A018B01F82AD801C701A22B15
:1004C00028E140EC38EFA7FF07C03EBD0DB407FEA2
:1004D000FDCF0000000004C04EBD0DB407FEFDCFEF
:1004E000880F991FAA1FBB1F215069F71F910F91F9
:1004F000FF90EF900895CF92DF92FF920F931F939A
:10050000CF93DF93F82E062F142FC1E0D4E00F2EE7
:10051000F1E0CF2EF1E0DF2EF02DF88209831A836F
:10052000412F602F8F2D0E9452022397CC15DD059D
:10053000A1F78FEE90E00197F1F700C00000DF9186
:10054000CF911F910F91FF90DF90CF90089540E0E1
:1005500060E080E00E947B0208950E94A702089557
:100560000F931F93CF93DF93FC01EE0FFF1F8E0FAE
:100570009F1FFC01EC5FFE4F608341832283C4E038
:10058000D1E004E014E04A81698188810E9452022E
:100590002396C017D107B9F78FEE90E00197F1F7D6
:1005A00000C00000DF91CF911F910F9108950F932C
:1005B000342F422F202FFC01E295F295F07FFE2789
:1005C000E07FFE2780FD04C0CB018E0F9F1F04C07B
:1005D000CF01861B970B0F96632F0E94B0020F91DD
:1005E00008952F923F924F925F926F927F928F92D7
:1005F0009F92AF92BF92CF92DF92EF92FF920F93B2
:100600001F93CF93DF9300D000D000D0CDB7DEB7DB
:100610005C017E836D831A013C832B830983EA820C
:100620001C2D7901E61AF70A2A01481A590AFF20F7
:100630003CF4F194E194F10888248A94982C03C046
:1006400088248394912C55203CF451944194510872
:10065000CC24CA94DC2C03C0CC24C394D12C440CED
:10066000551CEE0CFF1C012F2A8149816D817E8172
:10067000C5010E94D702E414F50424F5C201959542
:1006800087953701681A790A2A143B0409F443C094
:10069000772044F02D813E81280D391D3E832D8326
:1006A00064187508AC0CBD1C6E0C7F1C012F2A81D0
:1006B00049816D817E81C5010E94D7022A143B04C5
:1006C00039F729C0C701959587953201681A790ACB
:1006D0008B819C812D813E8182179307E1F07720E9
:1006E00024F0AC0CBD1C6E187F088D819E81880D96
:1006F000991D9E838D83640C751C012F2A8149816D
:10070000BC01C5010E94D7022B813C818D819E8155
:100710002817390721F726960FB6F894DEBF0FBECB
:10072000CDBFDF91CF911F910F91FF90EF90DF90A0
:10073000CF90BF90AF909F908F907F906F905F9081
:100740004F903F902F900895AF92BF92CF92DF923B
:10075000EF92FF920F931F93CF93DF935C01EA0117
:10076000122FF02E461757072CF4962F872FBA0119
:10077000C92FD82F6B0181E0C81AD108CC16DD062D
:100780005CF40E2D2F2D412FBE01C5010E94D70212
:100790002197CC16DD06ACF3DF91CF911F910F911D
:1007A000FF90EF90DF90CF90BF90AF900895AF9201
:1007B000BF92CF92DF92EF92FF920F931F93CF934E
:1007C000DF93EB015A01122FF02E681779072CF4F2
:1007D000382F292FCB01C32FD22F6C0121E0C21A51
:1007E000D108CC16DD065CF40E2D2F2D412FB5015E
:1007F000CE010E94D7022197CC16DD06ACF3DF9123
:10080000CF911F910F91FF90EF90DF90CF90BF900D
:10081000AF9008954F925F926F927F928F929F92C6
:10082000AF92BF92CF92DF92EF92FF920F931F93FE
:10083000CF93DF933C012B014A01E9011E2DBC2C13
:10084000002349F1841795071CF47C013A0101C08B
:100850007A014C165D0634F442016E016E147F0479
:10086000B0F431C04E016201F9CFE4010A2D2B2D05
:10087000412FBE01C7010E94D7022196CC16DD068A
:10088000A8F78FEFE81AF80A6E147F04E0F0C81496
:10089000D90458F7F6CFCA2CEB2C012F9B010E94EC
:1008A000F1029E01A401BE01C3010E94F1029E015A
:1008B000A301B201C3010E94F1029E01A401B20191
:1008C000C4010E94F102DF91CF911F910F91FF901F
:1008D000EF90DF90CF90BF90AF909F908F907F90E0
:1008E0006F905F904F9008952F923F924F925F923A
:1008F0006F927F928F929F92AF92BF92CF92DF9230
:10090000EF92FF920F931F93CF93DF93CDB7DEB794
:1009100065970FB6F894DEBF0FBECDBF3C017B8755
:100920006A875E834D8338872F832801FA82E982A4
:10093000FA2C89861AA521E0C2122AC18F819885D6
:10094000861797070CF043C129813A81261737078C
:10095000DCF49F81888578876F839A878B879D8158
:100960008E817E826D82692E782E9F818885298175
:100970003A8138872F8399838A839D818E815E8215
:100980004D82492E582E0EC09F8188852A853B8531
:1009900038872F839A878B879D818E817E826D8297
:1009A000692E782E8F8198852A853B85821793073B
:1009B00074F49A858B852F8138853B872A879F839E
:1009C0008887962D872D6D807E809D838E8389817B
:1009D0009A812A853B858217930779F48D819E81C0
:1009E000861597050CF4FCC0362D272D6816790660
:1009F00014F43D812E81C301F7C02D813E8126195B
:100A000037093F872E878F8198852A853B85821BF2
:100A1000930B998B888B5201A618B70889819A810C
:100A2000821B930B9C838B8342012D813E81821A12
:100A3000930A89819A812F813885821B930B9B8B26
:100A40008A8B89819A812817390729F02150310929
:100A50003D872C8704C02F8138853D872C878C8566
:100A60009D852A853B85821793070CF43FC0690159
:100A7000412C512C212C312C9D8A8C8A912E198548
:100A8000C101688979890E943407FB01E60DF71DD1
:100A9000C2016B817C810E943407660D771D8E85B3
:100AA0009F85280E391E4A0C5B1C6E177F072CF49D
:100AB0009E2F8F2FFB01692F782FCF010196681B86
:100AC000790B6E0F7F1FE92C012F2F2DA601CF016F
:100AD0000E94D7039FEFC91AD90A2C853D852C1592
:100AE0003D0574F6192D8C889D8802C0CA84DB846C
:100AF000C6012F813885821B930B889D1001899D2B
:100B0000300C989D300C1124C6012A853B85821B30
:100B1000930B8A9D20018B9D500C9A9D500C1124A3
:100B200089819A818C159D050CF472C0C1016A8976
:100B30007B890E943407ED81FE81E60FF71FC20119
:100B40006B817C810E943407660D771D280C391C4F
:100B50004A0C5B1C6E177F072CF49E2F8F2FFB0116
:100B6000692F782FCF010196681B790B6E0F7F1FBD
:100B7000E12E09852F2DA601CF010E94D7039FEFFB
:100B8000C91AD90A29813A812C153D057CF640C045
:100B9000C12EE9840A2D2F8138854D815E816A85B9
:100BA0007B850E94F102E98429813A81A2016F814B
:100BB00078858D819E810E94F102E9842A853B859A
:100BC000A30169817A81C2010E94F10221C0898159
:100BD0009A812F813885821793070CF0F8CEC5CE05
:100BE000362D272D8D819E81632F722F64157505FB
:100BF0000CF4B2019C012F5F3F4F621B730B680F17
:100C0000791FE12E09852F2D49815A810E94D70332
:100C100065960FB6F894DEBF0FBECDBFDF91CF91C2
:100C20001F910F91FF90EF90DF90CF90BF90AF900A
:100C30009F908F907F906F905F904F903F902F90FC
:100C400008952F923F924F925F926F927F928F9270
:100C50009F92AF92BF92CF92DF92EF92FF920F934B
:100C60001F93CF93DF93CDB7DEB72E970FB6F894CF
:100C7000DEBF0FBECDBF1C012B012C8781E090E0B1
:100C80004C01841A950A7F836E83798768875101A6
:100C900066246394712C5E874D87FE2C102FCD82C5
:100CA00061019301215031093B872A873C8531300E
:100CB000B1F5ED800F2D212F4D855E85440D551D1D
:100CC000B501C6010E94D703ED80212FA2016D85D9
:100CD0007E85461B570BB501C6010E94D703ED80E8
:100CE000212F4E815F818D859E85820D931D9A8374
:100CF0008983BC01F1018D859E85E81BF90BFC837E
:100D0000EB83CF010E94D703ED80212F48855985C1
:100D100069817A818B819C810E94D70359C00D81A2
:100D20002F2D412FED85FE85E40DF51DFA83E98316
:100D3000BF01C5010E94D7020D812F2D412F6E8169
:100D40007F818D859E85820D931D9C838B830E9460
:100D5000D7020D812F2D412F69817A81C6010E9412
:100D6000D7020D812F2D412F6E817F81F1018D855D
:100D70009E85E81BF90BFA83E983CF010E94D70215
:100D80000D812F2D412F688579858B819C810E9453
:100D9000D7020D812F2D412FF2016D857E85E61B37
:100DA000F70BFC83EB83BF01C5010E94D7020D81C5
:100DB0002F2D412F6B817C81C6010E94D7020D81AE
:100DC0002F2D412F6885798589819A810E94D702CC
:100DD000992044F49301C301880F991F0196880E4E
:100DE000991E0FC093018A859B85ED85FE858E1B1C
:100DF0009F0B880F991F0596880E991E3197FE87C5
:100E0000ED87FFEF6F1A7F0A41E0C41AD1085FEF48
:100E1000A51AB50A6E817F816F5F7F4F7F836E83D6
:100E200088859985019799878887ED85FE85E217E2
:100E3000F3070CF036CF2E960FB6F894DEBF0FBE38
:100E4000CDBFDF91CF911F910F91FF90EF90DF9079
:100E5000CF90BF90AF909F908F907F906F905F905A
:100E60004F903F902F90089597FB072E16F4009413
:100E700007D077FD09D00E94480707FC05D03EF453
:100E8000909581959F4F0895709561957F4F089536
:100E9000AA1BBB1B51E107C0AA1FBB1FA617B707A0
:100EA00010F0A61BB70B881F991F5A95A9F78095BC
:100EB0009095BC01CD0108958F929F92AF92BF9201
:100EC000CF92DF92EF92FF92CF93DF93EC01688194
:100ED00079818A819B81611571058105910521F4D4
:100EE00064E279ED8BE597E02DE133EF41E050E0EE
:100EF0000E94B80749015A019B01AC01A7EAB1E47D
:100F00000E94D7076B017C01ACEEB4EFA501940100
:100F10000E94E507DC01CB018C0D9D1DAE1DBF1DA0
:100F2000B7FF03C00197A109B04888839983AA83BA
:100F3000BB839F77DF91CF91FF90EF90DF90CF90B1
:100F4000BF90AF909F908F9008950E945C07089586
:100F500080E091E00E945C070895A0E0B0E08093FB
:100F6000000190930101A0930201B0930301089541
:100F7000052E97FB1EF400940E94CF0757FD07D063
:100F80000E94EA0707FC03D04EF40C94CF0750955B
:100F90004095309521953F4F4F4F5F4F0895909565
:100FA0008095709561957F4F8F4F9F4F08950E9458
:100FB0000C08A59F900DB49F900DA49F800D911DCE
:100FC00011240895B7FF0C94D7070E94D707821BFE
:100FD000930B0895A1E21A2EAA1BBB1BFD010DC0A5
:100FE000AA1FBB1FEE1FFF1FA217B307E407F507D9
:100FF00020F0A21BB30BE40BF50B661F771F881FB5
:10100000991F1A9469F760957095809590959B014A
:10101000AC01BD01CF010895A29FB001B39FC001F3
:10102000A39F700D811D1124911DB29F700D811D14
:0A1030001124911D0895F894FFCFDC
:04103A0001000000B1
:00000001FF
