:100000000C94860D0C9400000C9400000C940000DD
:100010000C9400000C9400000C9400000C94000060
:100020000C9400000C9400000C9400000C94000050
:100030000C9400000C9400000C9400000C94000040
:100040000C9400000C9400000C9400000C94000030
:100050000C94000021D079F0632F6078220F331FB9
:10006000432F5FE7451B55275040269530E8232B4B
:100070003327989403C0442755276627089568942A
:1000800025D0089509D039F041585F4F342F220F01
:1000900036952795362B0895002329F4112319F45A
:1000A000222309F433230895EADF332332F0F4DF07
:1000B00011F001E003C0002701C00FEF0895CADF6F
:1000C00021F0662309F05DD098940895F8DF09F4D3
:1000D00041C0E62ED52EC42EB32EA22E912E802EF8
:1000E000002D112D222D332DEADF09F43DC0842F80
:1000F000952F8C199D09B9F072F490958095019611
:100100004C2D5D2D883180F53595279517950795F0
:100110000197D1F708C08831E8F4B594A794979473
:1001200087940197D1F766272EF0080D191D2A1D17
:100130003B1D09C0801A910AA20AB30A082D192D85
:100140002A2D3B2D332312F41CD060E823D001C0AC
:1001500099DF16C0002D112D222D332DD6F79CDFEF
:10016000C1F340E83427F5CF082D192D2A2D3B2D5A
:100170004C2D5D2D6E2D33235AF703D060E8E8CF68
:10018000089500951095209530950F5F1F4F2F4FC4
:100190003F4F089581DF11F19F938F938EE790E099
:1001A000332351F03695279517950795481759072A
:1001B000B4F44F5F5F4FF4CF809590950196222362
:1001C0009AF0000F111F221F481759071CF04150C9
:1001D0005040F5CF002711272227332708C03327A7
:1001E0000FEF102F2FE7322F8F919F914BDF089544
:1001F000042E152E262E372E57DF0023089599271B
:1002000079E004C0991F941708F0941B001F7A9599
:10021000C9F700950895002E112E222E332E042F9B
:10022000152F262F372F40DF00231CF400240394C2
:1002300001C00024089547E16627552726F033239F
:1002400012F49FDF60E8A6DF089507B1007E02295F
:1002500007B9B6B1B064B6B9B6B1B6FF01C0FCCF4C
:1002600024B130E005B1102F0027022B132B089585
:10027000B5E2B0937900B1E0B0937A00B7E8B6B9CF
:10028000B0E0B7B90895B4DF1CF00024039401C0B6
:1002900000240895E8941ADF0895002E112E222ECE
:1002A000332E042F152F262F372FFEDE00231CF0B0
:1002B0000024039401C0002408952F923F924F928E
:1002C0004AE0042D9CDF005D4F923F922F923F92B7
:1002D000402E322C2F902BD62F903F904F904AE0FB
:1002E000042D8DDF092F102F105D022D0F5F202EA2
:1002F000412E232C302E1BD64F903F902F900895E7
:10030000C801BA01AA1BBB1B51E107C0AA1FBB1F32
:10031000A617B70710F0A61BB70B881F991F5A9591
:10032000A9F7809590950895BB27AA279927882734
:1003300000FF04C0840F951FA61FB71F440F551F51
:10034000661F771F369527951795079589F73050C3
:100350002040100769F79D018C010895B1E02B162C
:1003600009F0A3C000916700109168002091690016
:1003700030916A000F5F1F4F2F4F3F4F0093670070
:10038000109368002093690030936A000091650023
:100390001091660020E0322F17D22F92A801B901E8
:1003A00000916F00109170002091710030917200E7
:1003B0006ADF002800E009F001E02F90002361F1DE
:1003C000109164000AE0109FA00100916700109155
:1003D00068002091690030916A0004171507B0E0A9
:1003E00057FDBFEF2B073B07B9F4B2B3B860B2BB00
:1003F000B0917B00B460B0937B00B2B3BE7FB2BB60
:10040000B2B3BD7FB2BBB0E0B0936700B0936800F9
:10041000B0936900B0936A00009060001090610092
:1004200000916500109166000019110920E0322F3B
:10043000CBD12F92A801B90100916F0010917000EB
:10044000209171003091720028DF002800E009F04F
:1004500001E02F90002349F1109164000AE0109F01
:10046000A00100916700109168002091690030910F
:100470006A0004171507B0E057FDBFEF2B073B07D5
:10048000A1F4B2B3BE7FB2BBB2B3BD7FB2BBB09179
:100490007B00BB7FB0937B00B0E0B0936700B0936C
:1004A0006800B0936900B0936A00B2E02B1609F0BF
:1004B0009FC0009167001091680020916900309101
:1004C0006A000F5F1F4F2F4F3F4F0093670010933D
:1004D00068002093690030936A00009162001091D7
:1004E000630020E0322F70D1A801B90100916F00A4
:1004F000109170002091710030917200CEDE0028C2
:1005000000E009F001E0002361F1109164000AE0CD
:10051000109FA00100916700109168002091690070
:1005200030916A0004171507B0E057FDBFEF2B07A5
:100530003B07B9F4B2B3B460B2BBB0917B00B26018
:10054000B0937B00B2B3BE7FB2BBB2B3BD7FB2BBD0
:10055000B0E0B0936700B0936800B0936900B093C7
:100560006A00209162003091630000916000109158
:100570006100020F131F20E0322F26D1A801B9011C
:1005800000916F0010917000209171003091720005
:1005900042DE002800E009F001E0002349F110915B
:1005A00064000AE0109FA0010091670010916800AC
:1005B0002091690030916A0004171507B0E057FDDB
:1005C000BFEF2B073B07A1F4B2B3BE7FB2BBB2B300
:1005D000BD7FB2BBB0917B00BD7FB0937B00B0E02C
:1005E000B0936700B0936800B0936900B0936A005D
:1005F00025E01FE002EF0A95F1F71A95E1F72A9539
:10060000D1F708959F928F927F926F925F924F924F
:100610003F922F92422C392C282C4FDEE2D02F9083
:100620003F904F905F906F907F908F909F9002309F
:1006300021F481010F5F1F4F18019F928F927F92CB
:100640006F925F924F923F922F92CBD02F903F901C
:100650004F905F906F907F908F909F90033021F428
:100660008101015010401801421453040CF413018D
:10067000261437040CF412019F928F927F926F928E
:100680005F924F923F922F92ACD02F903F904F901D
:100690005F906F907F908F909F90043011F4810154
:1006A00018C09F928F927F926F925F924F923F926B
:1006B0002F9297D02F903F904F905F906F907F90A8
:1006C0008F909F90013021F482010F5F1F4F01C076
:1006D00099CF0895BFDC81F1E62ED52EC42EB32E1E
:1006E000A22E912E802E002D112D222D332DB2DC25
:1006F00019F16E254C0D5D1D40385307F4F4413857
:100700007FEF5707FCF088279927AA27BB2770E2BD
:10071000B695A7959795879537952795179507953A
:1007200020F4880D991DAA1DBB1D7A9589F7032F0A
:100730003A2F292F182F2EDD0AC00FEF102F2FE789
:100740003FE7FACF0027102F202F302FF5CF089545
:1007500081DCF1F05523C2F04F31A8F44731C1F0EC
:1007600050F44195495E05C0359527951795079535
:100770004A95D1F70DC04751000F111F221F331F9B
:100780004A95D1F705C03FE7232F132F032F03C04E
:10079000662309F0F6DC0895022C022CB4E00B1A53
:1007A00000E0001530F4B1E00B1A0000000000007A
:1007B000F7CF00000000089500E41FE120E030E0E2
:1007C000089556DD42DD0895689435DD0895042EC0
:1007D000152E262E372E5EDD002E112E222E332EC4
:1007E00008952F923F924F925F92B6B3B0FF0BC025
:1007F000B3E64B2EB0E05B2EB8E72B2EB3E03B2EDA
:10080000C0D201E02BC0B6B3B1FF0BC0B9E04B2E94
:10081000B0E05B2EB4E82B2EB3E03B2EB2D202E068
:100820001DC0B6B3B2FF0BC0B9E04B2EB0E05B2EDB
:10083000BCEB2B2EB2E03B2EA4D203E00FC0B6B32C
:10084000B3FF0BC0B3E64B2EB0E05B2EB0E22B2E15
:10085000B3E03B2E96D204E001C000E05F904F90E1
:100860003F902F900895CF93DF93CDB7DEB7C9594E
:10087000D040CDBFDEBF21962F923F924F925F9224
:100880006F927F928F929F92B1E02B2EB9D40E94EB
:10089000B30CB0917B00B1FD05C0B0917B00B2FDFF
:1008A00001C030C0E2E2FBE1DE0183E190E0B0D1C3
:1008B0008E012801B1E03B2EB1E02B2E29D6E5E3D5
:1008C000FBE1DE01539681E190E0A2D18E010D5E45
:1008D0001F4F2801B1E03B2EB2E02B2E19D681DF4D
:1008E000023059F4B0917B00BB7FB0937B00B09194
:1008F0007B00BD7FB0937B0005C073DF033009F43C
:1009000001C0EDCFB1E02B2E7BD425E11BE40FEB32
:100910000A95F1F71A95E1F72A95D1F70000E6E478
:10092000FBE1DE01949687E190E072D18E010C5DCF
:100930001F4F2801B1E03B2EB1E02B2EE9D5EDE5AC
:10094000FBE1DE01DB9682E190E062D18E01055C85
:100950001F4F2801B1E03B2EB2E02B2ED9D5FE016E
:10096000E35BFF4FB7E2B083FE01E25BFF4FB3E40E
:10097000B083FE01E15BFF4FB0E0B0838E01035B0B
:100980001F4F2801B4E03B2EB3E02B2EC1D5B3E0BE
:100990009B2EB1E08B2E66247724B3E64B2EB0E07D
:1009A0005B2E20906500309066002CDE0093650081
:1009B00010936600103009F4003088F02091650033
:1009C0003091660003E610E00217130740F04090F4
:1009D0006500222433247BD6B1E02B2E11D425E1EF
:1009E0001BE40FEB0A95F1F71A95E1F72A95D1F779
:1009F0000000E2E7FBE1DE01A05BBF4F82E190E097
:100A000007D18E01005B1F4F2801B1E03B2EB1E002
:100A10002B2E7ED5E4E8FBE1DE01AE59BF4F81E12C
:100A200090E0F6D08E010E591F4F2801B1E03B2E09
:100A3000B2E02B2E6DD5FE01ED58FF4FB7E2B0832B
:100A4000FE01EC58FF4FB3E4B083FE01EB58FF4FBB
:100A5000B0E0B0838E010D581F4F2801B4E03B2E4B
:100A6000B3E02B2E55D5B3E09B2EB1E08B2E662440
:100A70007724B3E64B2EB0E05B2E209062003090DE
:100A80006300C0DD0093620010936300103009F42E
:100A9000003098F0209162003091630003E610E08E
:100AA0000217130750F040906200B4E02B2EB0E024
:100AB0003B2E0DD6B1E02B2EA3D325E11BE40FEB8B
:100AC0000A95F1F71A95E1F72A95D1F70000E8E9C0
:100AD000FBE1DE01AA58BF4F82E190E099D08E0180
:100AE0000A581F4F2801B1E03B2EB1E02B2E10D544
:100AF000EAEAFBE1DE01A857BF4F81E190E088D030
:100B00008E0108571F4F2801B1E03B2EB2E02B2E7B
:100B1000FFD4B3E09B2EB1E08B2E66247724B3E69E
:100B20004B2EB0E05B2E20906400B0E03B2E6ADDDF
:100B300000936400003078F01091640003E6011720
:100B400050F040906400BEE02B2EB0E03B2EBFD5AD
:100B5000B1E02B2E55D325E11BE40FEB0A95F1F7FD
:100B60001A95E1F72A95D1F70000BEE02B2EB0E0F0
:100B70003B2ED6D50093640022243324D1D5009394
:100B80006500B0E0B0936600B4E02B2EB0E03B2EE1
:100B9000C7D500936200B0E0B0936300009062009C
:100BA0001090630000916500109166000019110912
:100BB000169507950093600010936100402EB8E0F1
:100BC0002B2EB0E03B2E83D525E01FE002EF0A95E7
:100BD000F1F71A95E1F72A95D1F79F908F907F90C2
:100BE0006F905F904F903F902F90C856DF4FCDBFD2
:100BF000DEBFDF91CF910895B0917B00BE7FB093AF
:100C00007B00FED2B0917B00B160B0937B00089571
:100C100005900D920197E1F708952F92B1E02B1600
:100C200071F4B0917B00B2FD09C0B2B3BE7FB2BB1C
:100C3000B2B3B260B2BBB1E02B2E90DB17C0B2E012
:100C40002B1671F4B0917B00B1FD09C0B2B3B16055
:100C5000B2BBB2B3BD7FB2BBB2E02B2E7FDB06C00E
:100C6000B2B3BE7FB2BBB2B3BD7FB2BB2F9008950B
:100C70001AE303E20A95F1F71A95E1F70000000084
:100C80000895B6DA1CF40024039401C000240895EA
:100C900005E80A95F1F70000089502E00A95F1F7DA
:100CA000000000000895CF93DF93CDB7DEB72997FA
:100CB000CDBFDEBF21962F9240E050E0B0E0B88378
:100CC0000881003418F522247CDD5F934F9320E0E7
:100CD000322F7ADD4F915F910D831E832F833887EA
:100CE0008A0120E0322F70DD4D815E816F81788531
:100CF0006EDD2EDD212F102F05E30A95F1F70000A0
:100D000008810F5F0883412F522FDACFB6E08A01A6
:100D100016950795BA95E1F720E0322F2F90289687
:100D2000CDBFDEBFDF91CF910895042E152E262E64
:100D3000372ED0DC002E112E222E332E0895C9011D
:100D40009A01AB01B801A1E21A2EAA1BBB1BFD013F
:100D50000DC0AA1FBB1FEE1FFF1FA217B307E4079A
:100D6000F50720F0A20BB30BE40BF50B661F771F02
:100D7000881F991F1A9469F76095709580959095D2
:100D80000895CF93DF93CDB7DEB72497CDBFDEBFF5
:100D9000219612DD48EE53E060E070E0C5DAA10173
:100DA00060E0762FCCDF8B019C0136952795179557
:100DB00007950883198300DDA20160E0762FB4DA7D
:100DC0004881598160E0762F440F551F661F771FB9
:100DD000B6DF8B019C01A801B9017F936F935F93EC
:100DE0004F934AE050E0088119818ADA8C014F91D3
:100DF0005F916F917F910883198300E010E020E0FC
:100E000030E0041715072607370708F07DC0E0918A
:100E10007700F0917800108100917400012BE0912F
:100E20007700F091780000838E01F80131960081FF
:100E3000002319F1B0E0BA83BB83342F452F562F1E
:100E4000672F8E01F801319620810A811B810217DC
:100E5000B0E01B0768F43F922F9222249DDC2F9074
:100E60003F900A811B810F5F1F4F0A831B83E9CFCD
:100E7000762F652F542F432F00C0FE0100813F9233
:100E80002F92202E89DC2F903F90E0917700F091F7
:100E900078001081009173000123E0917700F091B8
:100EA000780000838E01F801319600810023D9F08B
:100EB000B0E0BA83BB838E01F801319620810A81AC
:100EC0001B810217B0E01B0768F43F922F92222487
:100ED00063DC2F903F900A811B810F5F1F4F0A83B5
:100EE0001B83E9CF00C0FE0100813F922F92202E8C
:100EF00053DC2F903F908A019B010150104020400D
:100F00003040A801B90179CFE0917700F0917800E5
:100F10001081009173000123E0917700F091780037
:100F200000832396CDBFDEBFDF91CF9108952F922E
:100F30000FC0B0E82B2E19C0B0EC2B2E16C0B4E9B0
:100F40002B2E13C0B4ED2B2E10C0B0E82B2E0DC0ED
:100F5000B1E02B1671F3B2E02B1671F3B3E02B1650
:100F600071F3B4E02B1671F3F0CF032D0150020D95
:100F7000202EB0917B00B160B0937B00202E40D139
:100F8000B0917B00BE7FB0937B00242C39D1B0910F
:100F90007B00B160B0937B002F90089510E0E12FAB
:100FA000F0E0E20DF31D0081002389F0E12FF0E075
:100FB000E20DF31D00811F933F922F92202E1CDE25
:100FC0002F903F901F91012F0F5F102FE8CF0895B2
:100FD000CF93DF93CDB7DEB7E697CDBFDEBF2196C7
:100FE0002F923F924F925F920091650010916600A0
:100FF00020E0322FE9DBA801B90100916F001091C8
:10100000700020917100309172003DD9002800E0FD
:1010100009F001E0002381F0E4E1FCE1DE0182E17E
:1010200090E0F6DD8E012801B1E03B2EB3E02B2EDF
:101030006FD2B1E02B2EF1DD0091620010916300C0
:1010400020E0322FC1DBA801B90100916F0010919F
:10105000700020917100309172001FD9002800E0CB
:1010600009F001E0002399F0E6E2FCE1DE0152968E
:1010700082E190E0CDDD8E010E5E1F4F2801B1E0D0
:101080003B2EB3E02B2E44D2B2E02B2EC6DD0091D6
:1010900065001091660020E0322F96DBA801B901AF
:1010A00000916F00109170002091710030917200DA
:1010B000E8DD002800E009F001E00023F9F00090ED
:1010C00060001090610000916500109166000019A9
:1010D000110920E0322F78DBA801B90100916F00DF
:1010E000109170002091710030917200CCD80028CE
:1010F00000E009F001E0002309F038C0009162002F
:101100001091630020E0322F5FDBA801B90100914C
:101110006F001091700020917100309172007BD8A7
:10112000002800E009F001E00023F9F020916000C0
:10113000309161000091620010916300020F131F53
:1011400020E0322F41DBA801B90100916F0010911E
:101150007000209171003091720093DD002800E052
:1011600009F001E0002309F001C012C0E8E3FCE14E
:10117000DE01949682E190E04BDD8E010C5D1F4F05
:101180002801B1E03B2EB3E02B2EC2D1222445DD55
:101190005F904F903F902F90E596CDBFDEBFDF91DF
:1011A000CF910895B42D31E0BB2319F0330FBA95D8
:1011B000E9F730937400032F009500937300209299
:1011C000770030927800122D232D1150204010937B
:1011D000750020937600E12FF22F0081032BE12F81
:1011E000F22F0083E0917700F09178001081009158
:1011F00073000123E0917700F09178000083089557
:1012000027FAB0913500B7F9B093350026FAB091BE
:101210003500B6F9B093350025FAB0913500B5F92F
:10122000B093350024FAB0913500B4F9B09335008D
:10123000B0917B0000903500E894B0FF689402F80C
:1012400000923500B0913500B860B093350025DDCF
:10125000B0913500B77FB093350023FAB0913500D7
:10126000B7F9B093350022FAB0913500B6F9B093D2
:10127000350021FAB0913500B5F9B093350020FA68
:10128000B0913500B4F9B0933500B0917B00009077
:101290003500E894B0FF689402F800923500B091F0
:1012A0003500B860B0933500F8DCB0913500B77FF9
:1012B000B0933500B0917B00B0FF02C0D9DC01C013
:1012C000E7DC0895B0913500B77FB0933500B09159
:1012D0003500BB7FB0933500B0913500BF77B09338
:1012E0003500B0913500BF7BB0933500B09135002B
:1012F000BF7DB0933500B0913500BF7EB09335000F
:10130000B0913400B860B0933400B0913400B46050
:10131000B0933400B0913400B061B0933400B09118
:101320003400B062B0933400B0913400B064B09334
:101330003400B0913400B068B093340099DC98DC8C
:1013400097DCB0913500B062B0933500B0913500B4
:10135000B061B0933500B0913500B860B0933500FE
:101360009CDCB0913500B77FB093350081DCB09143
:101370003500B860B093350090DCB0913500B77F90
:10138000B093350075DCB0913500B860B09335008E
:1013900084DCB0913500B77FB093350069DCB09143
:1013A0003500BF7EB0933500B0913500B860B09382
:1013B000350073DCB0913500B77FB093350058DC51
:1013C000B0913500B860B093350067DCB09135005E
:1013D000B77FB0933500B0913500BF7DB093350035
:1013E000B0913500B068B0933500B0913500B86069
:1013F000B093350052DCB0913500B77FB093350023
:1014000037DCB0913500BF77B0933500B09135002F
:10141000B061B0933500B0913500B860B09335003D
:101420003CDCB0913500B77FB0933500B09135000A
:10143000BF7EB0933500B0913500B860B0933500F1
:101440002CDCB0913500B77FB093350011DCB09142
:101450003500B860B093350020DCB0913500B77F1F
:10146000B0933500B0913500B061B0933500B091C4
:101470003500B860B093350010DCB0913500B77F0F
:10148000B0933500F5DBB0913500BF7EB0933500E9
:10149000B0913500B860B0933500FFDBB0913500F6
:1014A000B77FB0933500B0913500B068B093350088
:1014B000B0913500B064B0933500B0913500B062A2
:1014C000B0933500B0913500B061B0933500B09164
:1014D0003500B860B0933500E0DBB0913500B77FE0
:1014E000B0933500C5DBB0917B00B160B0937B0059
:1014F000089577D9013059F41EE501E80A95F1F70E
:101500001A95E1F76ED9013009F4FCCFACD90895F2
:101510002F920FC0B0E82B2E19C0B0EC2B2E16C0A6
:10152000B4E92B2E13C0B4ED2B2E10C0B0E82B2E37
:101530000DC0B1E02B1671F3B2E02B1671F3B3E0DE
:101540002B1671F3B4E02B1671F3F0CF032D01507D
:10155000020D202E202E54DEB0917B00BE7FB09372
:101560007B0010E0E12FF0E0E40DF51D0081002389
:1015700079F0E12FF0E0E40DF51D00811F932F922B
:10158000202E3ADB2F901F91012F0F5F102FEACFF3
:10159000B0917B00B160B0937B002F900895CF9302
:1015A000DF93CDB7DEB72797CDBFDEBF21962F9251
:1015B0003F924F9278DB08D94AE959E963E472E433
:1015C000B4DB00936B0010936C0020936D0030939C
:1015D0006E004AE057ED63E27CE3A7DB00936F0007
:1015E00010937000209371003093720000916B0093
:1015F00010916C0020916D0030916E00A9D80B8382
:101600001C832D833E8348EE53E060E070E097DB5F
:101610008B019C01005D402EB1E03B2EB2E02B2EF1
:1016200086DC44E650E060E070E00B811C812D8197
:101630003E8185DB8B019C014AE050E060E070E078
:101640007EDB8D019F01005D202ED6DABEE22B2EBF
:10165000D3DA4AE050E060E070E00B811C812D811C
:101660003E816DDB8B019C014AE050E060E070E060
:1016700066DB8D019F01005D202EBEDA4AE050E05E
:1016800060E070E00B811C812D813E8158DB8D0173
:101690009F01005D202EB0DAB7E2B883B3E4B983CE
:1016A000B0E0BA838E01180179DC25E01FE002EF7B
:1016B0000A95F1F71A95E1F72A95D1F74F903F90E7
:1016C0002F902696CDBFDEBFDF91CF910895CF93A7
:1016D000DF93CDB7DEB72297CDBFDEBF219628823C
:1016E00039820FB6BCB3B1FF01C0FCCFF8941C2FF8
:1016F0002D2FE12FF22F319600810FBBE12FF22F1A
:1017000000810EBB4DBABCB3B460BCBBBCB3B2600D
:10171000BCBB0FBE2196CDBFDEBFDF91CF91089538
:10172000CF93DF93CDB7DEB72297CDBFDEBF219633
:10173000288239820FB6BCB3B1FF01C0FCCFF89448
:101740001C2F2D2FE12FF22F319600810FBBE12F9F
:10175000F22F00810EBBBCB3B160BCBB0FBE0DB39A
:101760002196CDBFDEBFDF91CF910895CF93DF9358
:10177000CDB7DEB7C955D040CDBFDEBF21962F9281
:101780003F924F925F92B0917B00B1FD17C0B09134
:101790007B00B2FD13C0EBEBFBE1DE018AE190E0E0
:1017A00037DA8E012801B1E03B2EB4E02B2EB0DEFB
:1017B000B2B3B77FB2BBB2B3BB7FB2BBB0917B0059
:1017C000B1FD05C0B0917B00B2FD01C075C0B6E9A6
:1017D0004B2EB0E05B2EB6E22B2EB2E03B2ED1DAE0
:1017E000B0917B00B1FF20C0B0917B00B2FD1CC066
:1017F000E5EDFBE1DE015A9685E190E009DA8E0124
:10180000065E1F4F2801B1E03B2EB4E02B2E80DE98
:1018100029E11AE502EB0A95F1F71A95E1F72A9505
:10182000D1F70000000048C0B0917B00B1FD20C09E
:10183000B0917B00B2FF1CC0EAEEFBE1DE019F9697
:1018400085E190E0E5D98E01015D1F4F2801B1E0EF
:101850003B2EB4E02B2E5CDE29E11AE502EB0A9563
:10186000F1F71A95E1F72A95D1F70000000024C09E
:10187000B0917B00B1FF20C0B0917B00B2FF1CC0D3
:10188000EFEFFBE1DE01AC5BBF4F85E190E0C0D93B
:101890008E010C5B1F4F2801B1E03B2EB4E02B2ED4
:1018A00037DE29E11AE502EB0A95F1F71A95E1F71F
:1018B0002A95D1F7000000005F904F903F902F9045
:1018C000C85ADF4FCDBFDEBFDF91CF9108952F9271
:1018D0003F924F92F7DCB4E04B2EB2E32B2EB0E0F8
:1018E0003B2E60DCB1E02B2E8BDCBCE02B2E88DCA9
:1018F000BFEFB1BBB0E0B2BBB0E0B7BBB0917B0013
:10190000BB7FB0937B00B0917B00BD7FB0937B0029
:101910004F903F902F900895CF93DF93CDB7DEB7D0
:101920006597CDBFDEBF21962F923F924F925F9277
:10193000EAE4FCE1DE0185E190E06AD98E0128014C
:10194000B1E03B2EB1E02B2EE3DD29DE0FDFD1DD50
:101950003FDB5F904F903F902F906496CDBFDEBFEE
:10196000DF91CF9108952F923F924F92BEE02B2EA0
:10197000B0E03B2ED5DE0093640022E018E30EEACF
:101980000A95F1F71A95E1F72A95D1F72224332425
:10199000C7DE00936500B0E0B093660022E018E374
:1019A0000EEA0A95F1F71A95E1F72A95D1F7B4E016
:1019B0002B2EB0E03B2EB4DE00936200B0E0B0937B
:1019C000630022E018E30EEA0A95F1F71A95E1F7B1
:1019D0002A95D1F71091640003E6011700F5BDE2E6
:1019E0004B2EBEE02B2EB0E03B2E71DE22E018E342
:1019F0000EEA0A95F1F71A95E1F72A95D1F7BEE0BC
:101A00002B2EB0E03B2E8CDE0093640022E018E326
:101A10000EEA0A95F1F71A95E1F72A95D1F7209188
:101A200065003091660003E610E002171307F8F432
:101A3000B8E24B2E222433244ADE22E018E30EEAD9
:101A40000A95F1F71A95E1F72A95D1F72224332464
:101A500067DE00936500B0E0B093660022E018E313
:101A60000EEA0A95F1F71A95E1F72A95D1F7209138
:101A700062003091630003E610E00217130718F5C7
:101A8000B4E14B2EB4E02B2EB0E03B2E20DE22E062
:101A900018E30EEA0A95F1F71A95E1F72A95D1F7BE
:101AA000B4E02B2EB0E03B2E3BDE00936200B0E0B2
:101AB000B093630022E018E30EEA0A95F1F71A9555
:101AC000E1F72A95D1F70090620010906300009131
:101AD000650010916600001911091695079500938D
:101AE000600010936100402EB8E02B2EB0E03B2E3A
:101AF000EEDD22E018E30EEA0A95F1F71A95E1F718
:101B00002A95D1F74F903F902F900895BFE5BDBF24
:101B1000B8E0BEBF0E94390EDADE25DFFDDEFECF63
:101B2000FFCF526573657420416C61726D3F202058
:101B3000202020200055703D596573202020446FDF
:101B4000776E3D4E6F0053657474696E67732053F2
:101B500074657020312F33202020202000486967D1
:101B6000682054656D702E204C696D69743A0027A9
:101B7000430053657474696E6773205374657020F5
:101B8000322F33004C6F772054656D702E204C69D6
:101B90006D69743A0027430053657474696E677306
:101BA000205374657020332F33004E6F2E206F66E4
:101BB000207061737365733A2020005379737465E4
:101BC0006D204F6B61792E202020202020202020A6
:101BD0002020202000416C61726D212048656174D5
:101BE0006572204661756C742E00416C61726D21C6
:101BF00020436F6F6C6572204661756C742E0053C4
:101C0000797374656D204661696C65642E202020AF
:101C100020202000486967682054656D70657261F6
:101C20007475726521004C6F772054656D70657214
:101C3000617475726521200057697468696E204C63
:101C4000696D69742E2020202000416374697665D7
:101C50002054656D70657261747572653A2000007C
:101C60000000000000000000000000000000000074
:101C70000000A0E6B0E0EFE5FCE183E190E00E9427
:101C800008060895FFFFFFFFFFFFFFFFFFFFFFFFB5
:00000001FF
