:1000000012C0FECFFDCFFCCFFBCFFACFF9CFF8CF98
:10001000F7CFF6CFF5CFF4CFF3CFF2CFF1CFF0CFCC
:10002000EFCFEECFEDCFE8EDFBE0099401B1087F13
:1000300008952F924091750050917600609177005D
:100040007091780023B8B4E8B6BFB6B7B7FD24C046
:100050000091750010917600209177003091780022
:10006000B02FB12BB22BB32BB1F0B42FB52BB62BD5
:10007000B72B41F4B4E02B2EE0918200F091830085
:1000800009950AC08A019B01015010402040304070
:10009000A801B90100C0D9CF2F9008952F924091A7
:1000A0007500509176006091770070917800B4EA05
:1000B000B6BFB6B7B7FD25C00091750010917600A8
:1000C0002091770030917800B02FB12BB22BB32B59
:1000D000B9F0B42FB52BB62BB72B49F4B5E02B2EC6
:1000E000E0918200F0918300099501E010C08A013F
:1000F0009B010150104020403040A801B90100C0D0
:10010000D8CF94DF0830B0E009F0B1E00B2F2F908A
:100110000895B4E9B6BF0895002329F4112319F412
:10012000222309F43323089519D021F0662309F01E
:100130000CD098940895F0DF39F041585F4F342F78
:10014000220F36952795362B08950095109520950A
:1001500030950F5F1F4F2F4F3F4F0895DDDF79F030
:10016000632F6078220F331F432F5FE7451B55270E
:100170005040269530E8232B3327989403C044271A
:10018000552766270895C8DF11F19F938F938EE757
:1001900090E0332351F0369527951795079548172A
:1001A0005907B4F44F5F5F4FF4CF80959095019657
:1001B00022239AF0000F111F221F481759071CF025
:1001C00041505040F5CF002711272227332708C080
:1001D00033270FEF102F2FE7322F8F919F91ABDF37
:1001E000089587D0332332F097DF11F001E003C088
:1001F000002701C00FEF089597DF09F441C0E62EF4
:10020000D52EC42EB32EA22E912E802E002D112D70
:10021000222D332D89DF09F43DC0842F952F8C19B1
:100220009D09B9F072F49095809501964C2D5D2D45
:10023000883180F535952795179507950197D1F762
:1002400008C08831E8F4B594A794979487940197EF
:10025000D1F766272EF0080D191D2A1D3B1D09C078
:10026000801A910AA20AB30A082D192D2A2D3B2DB6
:10027000332312F46ADF60E886DF01C05CDF16C05A
:10028000002D112D222D332DD6F746DFC1F340E886
:100290003427F5CF082D192D2A2D3B2D4C2D5D2D02
:1002A0006E2D33235AF751DF60E8E8CF0895CF93DE
:1002B000DF93CDB7DEB72297CDBFDEBF21962F9259
:1002C0003F92022D098381010070012F10E0088305
:1002D000E5DEB8E82B2EADDE2880ABDE2980A9DE76
:1002E00018DF3F902F902196CDBFDEBFDF91CF91D9
:1002F0000895689481DF08953F932F931F930F9380
:10030000002D112D222D332D29DF09F44BC0E62EAF
:10031000D52EC42EB32EA22E912E802E0F911F917A
:100320002F913F911BDF61F16E254C195D0940381B
:1003300053073CF541387FEF57077CF180E2772483
:10034000632E522E412E302F222711270027000F17
:10035000111F221F331F441C551C661C771C28F0DC
:10036000481859086A087B0804C0480C591C6A1CC4
:100370007B1C0AF001608A9551F74150504003DF21
:1003800016C00FEF102F2FE73FE76623C9F3C4DE37
:10039000B9F3342D30E83425F3CF0027102F202F68
:1003A000302FEECF0F900F900F900F90EACF08955F
:1003B00047E16627552726F0332312F4C6DE60E8AE
:1003C000E2DE0895C9019A01AB01B80197FB092E3D
:1003D00005260ED057FD04D014D00AD0001C38F4E6
:1003E00050954095309521953F4F4F4F5F4F089561
:1003F000F6F790958095709561957F4F8F4F9F4F41
:100400000895A1E21A2EAA1BBB1BFD010DC0AA1F55
:10041000BB1FEE1FFF1FA217B307E407F50720F06D
:10042000A21BB30BE40BF50B661F771F881F991FE8
:100430001A9469F760957095809590959B01AC0131
:10044000BD01CF010895C801BA0197FB092E072607
:100450000AD077FD04D00CD006D000201AF4709595
:1004600061957F4F0895F6F7909581959F4F089578
:10047000AA1BBB1B51E107C0AA1FBB1FA617B707CA
:1004800010F0A61BB70B881F991F5A95A9F78095E6
:100490009095BC01CD010895089512E009E00A95F8
:1004A000F1F71A95E1F7089505E00A95F1F70000D4
:1004B000089554DE81F1E62ED52EC42EB32EA22E41
:1004C000912E802E002D112D222D332D47DE19F176
:1004D0006E254C0D5D1D40385307F4F441387FEF15
:1004E0005707FCF088279927AA27BB2770E2B69503
:1004F000A79597958795379527951795079520F494
:10050000880D991DAA1DBB1D7A9589F7032F3A2FD7
:10051000292F182F38DE0AC00FEF102F2FE73FE7E3
:10052000FACF0027102F202F302FF5CF08952F92CC
:100530003F92B2EA2B2EB0E33B2EB9DE22E018E365
:100540000EEA0A95F1F71A95E1F72A95D1F73F904F
:100550002F900895B0E3B1B9B4E0B6BF0895042E6A
:10056000152E262E372E3DDE0023089513E708E4CE
:100570000A95F1F71A95E1F7000008952F923F923E
:100580000CC0BDE62B2EB0E33B2E91DE0AC0B6E6D2
:100590002B2EB0E33B2E8BDE04C0B0E02B1689F38C
:1005A000F6CF3F902F900895042E152E262E372E2D
:1005B00080DF002E112E222E332E0895D0DF1CF462
:1005C0000024039401C000240895C9DF1CF0002416
:1005D000039401C000240895042E152E262E372ED4
:1005E00088DE002E112E222E332E0895CF93DF9316
:1005F000CDB7DEB72997CDBFDEBF21962F923F92B0
:100600004F925F926F927F92B0E2B883B0E2B9836B
:10061000B0E2BA83B0E2BB83B0E2BC83B0E2BD8398
:10062000B0E0BE8300E010E020E030E0401651066C
:100630006206730674F4FE01BDE2B08300E010E0D0
:1006400020E030E00419150926093709280139018D
:1006500003C0FE01B0E2B0830FE017E220E030E01B
:1006600004151505260537050CF0AEC08E010F5F89
:100670001F4F0F8318877F926F925F924F923F9226
:100680002F9240E157E260E070E0820193019ADE30
:1006900089019A012F903F904F905F906F907F90CB
:1006A000202F205D0F811885F80120838E010E5FB9
:1006B0001F4F0F8318877F926F925F924F923F92E6
:1006C0002F9240E157E260E070E0820193017ADE10
:1006D0008B019C0148EE53E060E070E073DE89011D
:1006E0009A012F903F904F905F906F907F90202FB6
:1006F000205D0F811885F80120838E010D5F1F4F4B
:100700000F8318877F926F925F924F923F922F9242
:1007100048EE53E060E070E08201930153DE8B010C
:100720009C0144E650E060E070E04CDE89019A01F3
:100730002F903F904F905F906F907F90202F205D83
:100740000F811885F80120838E010C5F1F4F0F83E6
:1007500018877F926F925F924F923F922F9244E65A
:1007600050E060E070E0820193012CDE8B019C017F
:100770004AE050E060E070E025DE89019A012F90A8
:100780003F904F905F906F907F90202F205D0F8162
:100790001885F80120838E010B5F1F4F0F83188788
:1007A0003F922F924AE050E060E070E082019301B6
:1007B00009DE8B019C012F903F90202F205D0F813F
:1007C0001885F8012083BBC107EE13E020E030E07C
:1007D00004151505260537050CF09DC00FE017E23E
:1007E00020E030E004151505260537050CF493C00C
:1007F0008E010F5F1F4F0F8318877F926F925F925A
:100800004F923F922F9240E157E260E070E0820108
:100810009301D8DD8B019C0148EE53E060E070E06D
:10082000D1DD89019A012F903F904F905F906F909A
:100830007F90202F205D0F811885F80120838E0185
:100840000E5F1F4F0F8318877F926F925F924F92B8
:100850003F922F9248EE53E060E070E082019301F6
:10086000B1DD8B019C0144E650E060E070E0AADD60
:1008700089019A012F903F904F905F906F907F90E9
:10088000202F205D0F811885F80120838E010D5FD8
:100890001F4F0F8318877F926F925F924F923F9204
:1008A0002F9244E650E060E070E0820193018ADD1F
:1008B0008B019C014AE050E060E070E083DD89013B
:1008C0009A012F903F904F905F906F907F90202FD4
:1008D000205D0F811885F80120838E010C5F1F4F6A
:1008E0000F8318873F922F924AE050E060E070E05B
:1008F0008201930167DD8B019C012F903F90202F97
:10090000205D0F811885F80120838E01F80135964E
:10091000B0E2B08314C103E610E020E030E004153B
:100920001505260537050CF07BC007EE13E020E027
:1009300030E004151505260537050CF471C08E014D
:100940000F5F1F4F0F8318877F926F925F924F92B6
:100950003F922F9248EE53E060E070E082019301F5
:1009600031DD8B019C0144E650E060E070E02ADD5F
:1009700089019A012F903F904F905F906F907F90E8
:10098000202F205D0F811885F80120838E010E5FD6
:100990001F4F0F8318877F926F925F924F923F9203
:1009A0002F9244E650E060E070E0820193010ADD9E
:1009B0008B019C014AE050E060E070E003DD8901BA
:1009C0009A012F903F904F905F906F907F90202FD3
:1009D000205D0F811885F80120838E010D5F1F4F68
:1009E0000F8318873F922F924AE050E060E070E05A
:1009F00082019301E7DC8B019C012F903F90202F17
:100A0000205D0F811885F80120838E01F80134964E
:100A1000B0E2B0838E01F8013596B0E2B0838FC0AA
:100A200009E010E020E030E0041515052605370543
:100A30000CF059C003E610E020E030E00415150585
:100A4000260537050CF44FC08E010F5F1F4F0F8333
:100A500018877F926F925F924F923F922F9244E657
:100A600050E060E070E082019301ACDC8B019C01FE
:100A70004AE050E060E070E0A5DC89019A012F9027
:100A80003F904F905F906F907F90202F205D0F815F
:100A90001885F80120838E010E5F1F4F0F83188782
:100AA0003F922F924AE050E060E070E082019301B3
:100AB00089DC8B019C012F903F90202F205D0F81BE
:100AC0001885F80120838E01F8013396B0E2B083D7
:100AD0008E01F8013496B0E2B0838E01F8013596AC
:100AE000B0E2B0832CC08E010F5F1F4F0F831887B9
:100AF0003F922F924AE050E060E070E08201930163
:100B000061DC8B019C012F903F90202F205D0F8195
:100B10001885F80120838E01F8013296B0E2B08387
:100B20008E01F8013396B0E2B0838E01F80134965D
:100B3000B0E2B0838E01F8013596B0E2B0838E0149
:100B40003F922801322C2F90ECD57F906F905F90D0
:100B50004F903F902F902896CDBFDEBFDF91CF9171
:100B60000895CF93DF93CDB7DEB72697CDBFDEBF15
:100B700021962F923F924F925F92BEE2B883B0E2ED
:100B8000B983B0E2BA83B0E0BB838E010F5F1F4F21
:100B90000C831D836F925F924F923F922F924AE097
:100BA00050E0820150DC8B012F903F904F905F907E
:100BB0006F90202F205D0C811D81F801208301E0C2
:100BC0000615A0F48E010E5F1F4F0C831D833F920C
:100BD0002F924AE050E0820136DC8C012F903F904A
:100BE000202F205D0C811D81F80120838E013F9212
:100BF0002801322C2F9095D55F904F903F902F90E9
:100C00002596CDBFDEBFDF91CF910895A7DAF1F031
:100C10005523C2F04F31A8F44731C1F050F441954B
:100C2000495E05C035952795179507954A95D1F7E3
:100C30000DC04751000F111F221F331F4A95D1F7D6
:100C400005C03FE7232F132F032F03C0662309F0AE
:100C50007CDA0895B0918400BE7FB09384008ED179
:100C6000B0918400B160B093840008952F920FC0BA
:100C7000B0E82B2E19C0B0EC2B2E16C0B4E92B2EE9
:100C800013C0B4ED2B2E10C0B0E82B2E0DC0B1E078
:100C90002B1671F3B2E02B1671F3B3E02B1671F340
:100CA000B4E02B1671F3F0CF032D0150020D202E6E
:100CB000B0918400B160B0938400202E5FD1B091D8
:100CC0008400BE7FB0938400242C58D1B09184005E
:100CD000B160B09384002F9008952F9240917500D9
:100CE000509176006091770070917800B4E8B6BFBB
:100CF00020FAB6B7B6F9B6BFB6B7B7FD25C00091B2
:100D00007500109176002091770030917800B02F17
:100D1000B12BB22BB32BB9F0B42FB52BB62BB72B0D
:100D200049F4B3E02B2EE0918200F0918300099505
:100D300001E00BC08A019B0101501040204030406F
:100D4000A801B90100C0D8CF03B12F900895B09188
:100D50003800BD7FB0933800B0913800BE7FB093AB
:100D60003800B0913200BF77B0933200B0913200BA
:100D7000BF7BB0933200B0913200BF7DB0933200A0
:100D8000B0913200BF7EB0933200B0913700B260B4
:100D9000B0933700B0913700B160B0933700B09195
:100DA0003100B061B0933100B0913100B062B093C6
:100DB0003100B0913100B064B0933100B091310096
:100DC000B068B0933100D2DBD1DBD0DBB091320020
:100DD000B062B0933200B0913200B061B093320093
:100DE000B0913800B260B09338005EDBB09138004B
:100DF000BD7FB0933800BADBB0913800B260B093D9
:100E0000380052DBB0913800BD7FB0933800AEDBC4
:100E1000B0913800B260B093380046DBB091380032
:100E2000BD7FB0933800A2DBB0913200BF7EB0939B
:100E30003200B0913800B260B093380035DBB09129
:100E40003800BD7FB093380091DBB0913800B260BC
:100E5000B093380029DBB0913800BD7FB0933800E3
:100E6000B0913200BF7DB0933200B0913200B068D3
:100E7000B0933200B0913800B260B093380014DB08
:100E8000B0913800BD7FB093380070DBB091320074
:100E9000BF77B0933200B0913200B061B0933200AE
:100EA000B0913800B260B0933800FEDAB0913800EB
:100EB000BD7FB0933800B0913200BF7EB093320056
:100EC000B0913800B260B0933800EEDAB0913800DB
:100ED000BD7FB09338004ADBB0913800B260B09368
:100EE0003800E2DAB0913800BD7FB0933800B0919D
:100EF0003200B061B0933200B0913800B260B0936C
:100F00003800D2DAB0913800BD7FB09338002EDBC4
:100F1000B0913200BF7EB0933200B0913800B26021
:100F2000B0933800C1DAB0913800BD7FB09338007B
:100F3000B0913200B068B0933200B0913200B0642A
:100F4000B0933200B0913200B062B0933200B091F1
:100F50003200B061B0933200B0913800B260B0930B
:100F60003800A2DAB0913800BD7FB0933800FEDAC5
:100F7000B0918400B160B0938400089527FAB091D5
:100F80003200B7F9B093320026FAB0913200B6F9C8
:100F9000B093320025FAB0913200B5F9B093320027
:100FA00024FAB0913200B4F9B0933200B0918400C9
:100FB00000903800E894B0FF689400F80092380080
:100FC000B0913800B260B09338006EDAB09138005A
:100FD000BD7FB093380023FAB0913200B7F9B093D7
:100FE000320022FAB0913200B6F9B093320021FA01
:100FF000B0913200B5F9B093320020FAB0913200CE
:10100000B4F9B0933200B091840000903800E894B5
:10101000B0FF689400F800923800B0913800B260D8
:10102000B093380041DAB0913800BD7FB0933800FA
:10103000B0918400B0FF02C099DA01C02EDA0895A1
:101040002F92B1B1BE7FB1B9B1B1BD7FB1B9B8E432
:10105000B0B980DA29E01EE105EE0A95F1F71A959C
:10106000E1F72A95D1F7000062DAB1E02B2E86DA9B
:101070002F900895042E152E262E372E3DD9002EA2
:10108000112E222E332E0895049FD001159FF001BA
:10109000249FE00DF11D069FE00DF11D349FF00D22
:1010A000259FF00D169FF00D079FF00D3327149F1D
:1010B000B00DE11DF31F059FB00DE11DF31F8D0164
:1010C0009F010895222D30E0122F00270329089553
:1010D0001FEF20E022300CF5E22FF0E027FDFFEFBC
:1010E000E20DF31D00810127302F18E000E0011709
:1010F0007CF437FF06C0032F000FB1E30B27302F1E
:1011000003C0032F000F302F012F0150102FEECFFF
:10111000022F0F5F202F132FDDCF012F0895E894AA
:1011200047D90895EC2FFD2F05900D920197E1F717
:1011300008952F92B0E0B8BBB3E0B7BBB0E0B5BB49
:10114000B0E0B4BBB0E0B2BBB0EFB1BBB0E0B3BF96
:10115000B0E0B2BFB0E0BFBDB0E0BEBDB0E0BDBD6D
:10116000B0E0BCBDB0E0B7BDB0E0B6BDB0E0BBBD67
:10117000B0E0BABDB0E0B9BDB0E0B8BDB0E0B2BD5E
:10118000B0E0B5BDB0E0B4BDB0E0B3BDB0E0B5BF58
:10119000B0E0B9BFB0E0BAB9B0E8B8B9B0E0B0BF3C
:1011A000B3E8B6B9B0E4B7B9B0E0BDB9B0E0B6BF26
:1011B000CEDDB1E02B2EE2DEBCE02B2EDFDE40DF09
:1011C0002F900895CF93DF93CDB7DEB72497CDBF8F
:1011D000DEBF21962F924F925F926F927F92820193
:1011E000930114DD088319832A833B838F927F92B6
:1011F0006F925F924F923F922F9228013901F6D958
:101200002F903F904F905F906F907F900881198151
:101210002A813B8184DF3F922F92A801B90182018C
:101220009301DAD940E050E068EC72E4BDD92F9028
:101230003F908F90EBDC088319832A833B8340E047
:1012400050E060E070E0041715072607370784F4C4
:101250000880198000E010E0001911090A801B8045
:1012600020E030E020093109088319832A833B8379
:101270008F923F922F9240E050E060E070E0820158
:1012800093019CD9002800E009F001E02F903F90E5
:101290008F900023F9F082019301B0E00B27B0E0BA
:1012A0001B27B0E02B27B0E83B27280139017F92AC
:1012B0006F925F924F923F922F923F92BDE24B2EE0
:1012C000322C2F90D3DC2F903F904F905F906F90F7
:1012D0007F9012C07F926F925F924F923F922F92B7
:1012E0003F92B0E24B2E322C2F90C0DC2F903F90DB
:1012F0004F905F906F907F908F923F922F9240E03F
:1013000050E46CE176E4820193015FD9002800E0AB
:1013100009F001E02F903F908F900023D9F08F9239
:101320003F922F9240E050E563EC77E48201930115
:1013300045D9002800E009F001E02F903F908F9000
:10134000002341F0022D0A5F682C48805980202E2E
:1013500008DCA4C08F923F922F9240E050E06AE7F1
:1013600074E48201930131D9002800E009F001E022
:101370002F903F908F900023D9F08F923F922F9221
:1013800040E050E46CE176E48201930117D9002833
:1013900000E009F001E02F903F908F90002341F092
:1013A000022D0B5F682C48805980202EDADB76C036
:1013B0008F923F922F9240E050E068EC72E48201FD
:1013C000930103D9002800E009F001E02F903F903D
:1013D0008F900023D9F08F923F922F9240E050E0FF
:1013E0006AE774E482019301E9D8002800E009F07B
:1013F00001E02F903F908F90002341F0022D0C5F71
:10140000682C48805980202EACDB48C08F923F92D8
:101410002F9240E050E060E271E482019301D5D860
:10142000002800E009F001E02F903F908F9000230A
:10143000D9F08F923F922F9240E050E068EC72E436
:1014400082019301BBD8002800E009F001E02F9051
:101450003F908F90002341F0022D0D5F682C488053
:101460005980202E7EDB1AC08F923F922F9240E04F
:1014700050E060E271E482019301A0D8002800E00E
:1014800009F001E02F903F908F90002339F0022D5A
:101490000E5F682C48805980202E63DB7F906F9010
:1014A0005F904F902F902396CDBFDEBFDF91CF91FD
:1014B0000895CF93DF93CDB7DEB72897CDBFDEBFBA
:1014C00021962F923F92B0E0B883B0E0B983B0E0AC
:1014D000BA83B0E0BB83B0E0BC83B0E0BD835F9271
:1014E0004F923F922F92B0E02B2EB4E23B2EE7E5D5
:1014F000F1E0099522E010EA03E90A95F1F71A955F
:10150000E1F72A95D1F70000EEE4F0E00995B9E89B
:101510002B2EE9E1F0E009958E010E831F83B1E0E7
:101520002B2EDBDB1E812F81E12FF22F00838E011A
:101530000F5F1F4F0E831F83B1E02B2ECEDB1E816A
:101540002F81E12FF22F00838E010E5F1F4F0E833C
:101550001F83B1E02B2EC1DB1E812F81E12FF22FE3
:1015600000838E010D5F1F4F0E831F83B1E02B2E72
:10157000B4DB1E812F81E12FF22F00838E010C5FDF
:101580001F4F0E831F83B1E02B2EA7DB1E812F81FF
:10159000E12FF22F00838E010B5F1F4F0E831F83FD
:1015A00022249BDB2F903F904F905F901E812F81D4
:1015B000E12FF22F0083E9E8F0E009951C2F2D2F91
:1015C000E12FF22F329600810E833F922F92212E2F
:1015D000322E7EDD2F903F901E81101791F49E01D8
:1015E000F901359600810E8389010D5F1F4F3F92EF
:1015F0002F9218016DDD2F903F901E81101709F476
:1016000002C001E05CC08E01F80131962081F80132
:1016100000813F922F92322E202E54DD2F903F904A
:10162000A80160E0762F07E111E120E030E02CDD39
:10163000BEE03595279517950795BA95D1F70459CA
:101640001141204030406BDD5F924F923F922F92CC
:1016500040E050E068EC72E40DDD2F903F904F9039
:101660005F90F10101931193219331938E01F80161
:1016700034962081F80133960081322E202E22DD0F
:10168000A80160E0762F01E712E020E030E0FCDC0A
:10169000BCE03595279517950795BA95D1F73FDDAD
:1016A0005F924F9240E050E068EC72E4E3DC4F90D0
:1016B0005F90F201019311932193319300E03F90E9
:1016C0002F902796CDBFDEBFDF91CF9108954F9227
:1016D0002F92B0E42B2E52DC2F9020E0283088F49B
:1016E00004ED18E1E22FF0E0E00FF11F04912F93D9
:1016F0002F92202EAFDA2F902F91022F0F5F202FE5
:10170000EDCF2F92B2E02B2E39DC2F903F922F920B
:101710003F924424322C2F90A9DA2F903F904F9083
:1017200008952F920FC0B0E82B2E19C0B0EC2B2ECD
:1017300016C0B4E92B2E13C0B4ED2B2E10C0B0E8A8
:101740002B2E0DC0B1E02B1671F3B2E02B1671F306
:10175000B3E02B1671F3B4E02B1671F3F0CF032D29
:101760000150020D202E202E09DCB0918400BE7F96
:10177000B093840010E0E12FF0E0E40DF51D00814E
:10178000002379F0E12FF0E0E40DF51D00811F93B7
:101790002F92202E5FDA2F901F91012F0F5F102FB5
:1017A000EACFB0918400B160B09384002F90089587
:1017B000BFE5BDBFB4E0BEBF91D0CDB7DEB72897BF
:1017C000CDBFDEBF21962F923F924F925F926F92D4
:1017D0007F928F92CCECD8E1DE0188E090E0A2DC31
:1017E000A8DCB9E74B2EB0E05B2EB1E03B2EB1E0B8
:1017F0002B2E97DFBCE64B2EB0E05B2EB1E03B2EEC
:10180000B2E02B2E8EDFB1E03B2EB6E02B2E5FDF59
:101810009E012C5F3F4F8E01290118014ADE2AC02C
:10182000B1E08B2E488059806A807B80B1E03B2EEE
:10183000BCE02B2EC7DCB1E08B2E4C805D806E802F
:101840007F80B2E03B2EBCE02B2EBCDC16C0B6E69F
:101850004B2EB0E05B2EB1E03B2EBDE02B2E61DFC6
:10186000B0E64B2EB0E05B2EB2E03B2EBDE02B2E5F
:1018700058DF03C00030A1F2EACF22E51BE200E00E
:101880000A95F1F71A95E1F72A95D1F700000000C3
:1018900000000000BDCF8F907F906F905F904F90C1
:1018A0003F902F90FFCFFFFFFFFF2D2D2E2D2D00FE
:1018B0002D2D2E2D2D00522E482E2F20253A0000A2
:1018C00000000054656D702F20433A0000000000B6
:1018D000000000000609090600000000A0E6B0E0D4
:1018E000CAEAD8E182E290E01DDC0895FFFFFFFF25
:00000001FF
