:1000000010C012C0FDCFFCCFFBCFFACFF9CFF8CF95
:10001000F7CFF6CFF5CFF4CFF3CFF2CFF1CFF0CFCC
:02002000EFCF20
:10002200E1ECF9E00994EF93FF93E2E8F9E0099437
:10138200BFE5BDBFB2E0BEBFCAD1CDB7DEB7C25660
:10139200D040CDBFDEBF21962F923F924F925F92F7
:1013A2006F927F928F929F92FE01E65AFF4FB0E0BA
:1013B200B193B193FE01E45AFF4FB0E0B193B19300
:1013C20076DEB2E5B883BEE2B983B8E4BA83BFE29F
:1013D200BB83B5E2BC83BAE3BD83B0E0BE838E01BA
:1013E2002801B1E03B2EB1E02B2E1ADEB4E5BF831B
:1013F200BEE2B887BFE2B987B0E2BA87B3E4BB877F
:10140200BAE3BC87B0E0BD878E01095F1F4F280198
:10141200B1E03B2EB2E02B2E03DEB4E4BE87B0E592
:10142200BF87BFE2B88BB0E2B98BB3E4BA8BBAE341
:10143200BB8BB0E0BC8B8E01025F1F4F2801B1E075
:101442003B2EB3E02B2EECDDB4E03B2EB2E02B2E94
:10145200AADEB4E03B2EB3E02B2EA5DE79DEB091FE
:101462008B00B1FFF5C021E11CE30CEC0A95F1F70A
:101472001A95E1F72A95D1F79E01265A3F4F8E0120
:10148200045A1F4F29011801B3DE202F0C3F09F027
:101492005AC0FE01E65AFF4F0191119120E017FD5B
:1014A2002FEF322FE5E5F1E00995FE01E25AFF4FF9
:1014B2000193119321933193FE01E45AFF4F01915D
:1014C200119120E017FD2FEF322FE5E5F1E00995AC
:1014D200FE01E25AFF4F41915191619171913A019E
:1014E2004B0118012901B0DA1F930F93FE01E45A50
:1014F200FF4F41905190B1E03B2EBFE02B2E6EDBAF
:10150200FE01E65AFF4F41905190B2E03B2EBFE000
:101512002B2E64DB0F911F912801B3E03B2EBFE01D
:101522002B2E5CDBE5E9F6E1DE0155968FE090E0DB
:1015320050DB8E010B5E1F4F2801B1E03B2EB4E061
:101542002B2E6EDD80C0BDE2BCA3BDE2BDA3BEE218
:10155200BEA3BDE2BFA3B0E0B8A78E010C5D1F4FD2
:101562002F932801B1E13B2EB1E02B2E59DDBDE2D4
:10157200B9A7BDE2BAA7BEE2BBA7BDE2BCA7B0E075
:10158200BDA78E01075D1F4F2801B1E13B2EB2E0DE
:101592002B2E46DDBDE2BEA7BDE2BFA7BEE2B8ABC1
:1015A200BDE2B9ABB0E0BAAB8E01025D1F4F2801BC
:1015B200B1E13B2EB3E02B2E33DD2F912D3F89F489
:1015C200E3EBF6E1DE01D3968DE090E002DB8E01E3
:1015D2000D5C1F4F2801B1E03B2EB4E02B2E20DD25
:1015E20027C02E3F91F4E0ECF6E1DE01A05CBF4F94
:1015F2008DE090E0EEDA8E01005C1F4F2801B1E031
:101602003B2EB4E02B2E0CDD13C02F3F89F4EDEC02
:10161200F6E1DE01A35BBF4F8DE090E0DADA8E01E6
:10162200035B1F4F2801B1E03B2EB4E02B2EF8DC08
:1016320025E217E80CE80A95F1F71A95E1F72A95E1
:10164200D1F700000000B0918B00BD7FB0938B00FA
:1016520029E11AE502EB0A95F1F71A95E1F72A95C5
:10166200D1F700000000FACE9F908F907F906F908C
:0A1672005F904F903F902F90FFCF44
:1010B0002F92ECD9B0918B00BD7FB0938B00B0E044
:1010C000BBBBB0E0BABBB0E0B8BBB0E0B7BBB0E010
:1010D000B5BBB0E0B4BBB0E0B2BBB0E0B1BBB0E018
:1010E000B7B9B0E0B6B9B0E0B3BFB0E0B2BFB0E0FE
:1010F000B1BFB0E0BFBDB0E0BEBDB0E0BDBDB0E0CF
:10110000BCBDB0E0B5BDB0E0B4BDB0E0BBBDB0E0CB
:10111000BABDB0E0B9BDB0E0B8BDB0E0BBBFB0E0B3
:10112000B5BFB0E0B6BFB0E0BABFB0E0B9BFB0E0A5
:10113000BAB9B0E8B8B9B0E0BDB9BFB7BF77BFBF03
:1011400044DAB1E02B2E6ADBBCE02B2E67DB2F905C
:02115000089500
:10048C0020E02A3260F401E610E0E22FF0E0E00F09
:10049C00F11FB0E0B083022F0F5F202FF2CF089531
:0004AC0050
:1005CA00B0913500B77FB0933500B0913500BB7F4D
:1005DA00B0933500B0913500BF77B0933500B09134
:1005EA003500BF7BB0933500B0913500BF7DB09325
:1005FA003500B0913500BF7EB0933500B09134001C
:10060A00B860B0933400B0913400B460B093340051
:10061A00B0913400B061B0933400B0913400B0624C
:10062A00B0933400B0913400B064B0933400B09108
:10063A003400B068B093340036DE35DE34DEB09173
:10064A003500B062B0933500B0913500B061B09317
:10065A003500B0913500B860B09335002DDEB09109
:10066A003500B77FB09335001EDEB0913500B86013
:10067A00B093350021DEB0913500B77FB0933500D5
:10068A0012DEB0913500B860B093350015DEB09136
:10069A003500B77FB093350006DEB0913500BF7ED6
:1006AA00B0933500B0913500B860B093350004DEE0
:1006BA00B0913500B77FB0933500F5DDB0913500C4
:1006CA00B860B0933500F8DDB0913500B77FB093CC
:1006DA003500B0913500BF7DB0933500B09135003B
:1006EA00B068B0933500B0913500B860B09335006A
:1006FA00E3DDB0913500B77FB0933500D4DDB0911A
:10070A003500BF77B0933500B0913500B061B09332
:10071A003500B0913500B860B0933500CDDDB091A9
:10072A003500B77FB0933500B0913500BF7EB093E6
:10073A003500B0913500B860B0933500BDDDB09199
:10074A003500B77FB0933500AEDDB0913500B860A3
:10075A00B0933500B1DDB0913500B77FB093350065
:10076A00B0913500B061B0933500B0913500B860F2
:10077A00B0933500A1DDB0913500B77FB093350055
:10078A0092DDB0913500BF7EB0933500B09135004F
:10079A00B860B093350090DDB0913500B77FB09363
:1007AA003500B0913500B068B0933500B09135008E
:1007BA00B064B0933500B0913500B062B0933500A3
:1007CA00B0913500B061B0933500B0913500B86092
:1007DA00B093350071DDB0913500B77FB093350025
:0E07EA0062DDB0918B00B160B0938B0008957A
:1002B0001AE303E20A95F1F71A95E1F7000000004E
:0202C00008959F
:0C02C20002E00A95F1F70000000008952A
:10081C0027FAB0913500B7F9B093350026FAB091AC
:10082C003500B6F9B093350025FAB0913500B5F91D
:10083C00B093350024FAB0913500B4F9B09335007B
:10084C00B0918B0000903500E894B0FF689402F8EA
:10085C0000923500B0913500B860B09335002BDDB7
:10086C00B0913500B77FB093350023FAB0913500C5
:10087C00B7F9B093350022FAB0913500B6F9B093C0
:10088C00350021FAB0913500B5F9B093350020FA56
:10089C00B0913500B4F9B0933500B0918B00009055
:1008AC003500E894B0FF689402F800923500B091DE
:1008BC003500B860B0933500FEDCB0913500B77FE1
:1008CC00B0933500B0918B00B0FF02C0EBDC01C0DF
:0408DC00D7DC0895C8
:0A028C0005E80A95F1F70000089557
:101022002F920FC0B0E82B2E19C0B0EC2B2E16C099
:10103200B4E92B2E13C0B4ED2B2E10C0B0E82B2E2A
:101042000DC0B1E02B1671F3B2E02B1671F3B3E0D1
:101052002B1671F3B4E02B1671F3F0CF032D015070
:10106200020D202E202ED9DBB0918B00BE7FB093D3
:101072008B0010E0E12FF0E0E40DF51D008100236C
:1010820079F0E12FF0E0E40DF51D00811F932F921E
:10109200202EB7DB2F901F91012F0F5F102FEACF69
:0E10A200B0918B00B160B0938B002F90089539
:10080400B0918B00BE7FB0938B0006D0B0918B006B
:08081400B160B0938B00089560
:1011A8004F922F92B0E42B2E35DB2F9020E0283081
:1011B80088F408E117E1E22FF0E0E00FF11F049155
:1011C8002F932F92202E1ADB2F902F91022F0F5F33
:1011D800202FEDCF2F92B2E02B2E1CDB2F902F92D9
:0A11E8004424AED92F904F900895D3
:100548002F920FC0B0E82B2E19C0B0EC2B2E16C07E
:10055800B4E92B2E13C0B4ED2B2E10C0B0E82B2E0F
:100568000DC0B1E02B1671F3B2E02B1671F3B3E0B6
:100578002B1671F3B4E02B1671F3F0CF032D015055
:10058800020D202EB0918B00B160B0938B00202E0D
:1005980041D1B0918B00BE7FB0938B00242C3AD10F
:0E05A800B0918B00B160B0938B002F9008953E
:10115200B0E0B093600099D9B1B3B460B1BBB2B39F
:10116200BB7FB2BB1CEB02E00A95F1F71A95E1F7DF
:101172000000B2B3B460B2BBB1B3BB7FB1BBB2E0EB
:10118200B3BFB0E4BBBFB2E0B5BFB0E4BABFB0E03A
:10119200B2BFBFB7B068BFBF02B7083C18F0BAE22F
:0611A200B0936000089507
:1011F200CF93DF93CDB7DEB72297CDBFDEBF219667
:101202002F923F92B0E0B0936000009162000139EA
:1012120008F46EC01091620004EB011708F468C074
:101222003F922F92B9E03B2EB2E02B2ED1DB2F90D2
:101232003F90202F2F933F922F92B1E13B2EBAE0A5
:101242002B2EC6DB2F903F902F91302F3F932F9361
:101252003F922F92322E202ECEDA2F903F902F9156
:101262003F91A801022F030F10E0B0E01B1F08837B
:1012720019832E3F19F03E3F09F002C00EEF39C02C
:10128200F10141935193B9E13B2EB2E12B2EA0DB48
:10129200402FB1E23B2EBAE12B2E9ADB502F342E97
:1012A200202EA9DAB801242F250F30E0B0E03B1F31
:1012B20008811981020F131F088319834E3F19F009
:1012C2005E3F09F002C00EEF14C0F2016193719308
:1012D200B9E23B2EB2E22B2E7BDB188129812070F2
:1012E2001017B0E02B0711F40CEF03C00DEF01C093
:1012F2000FEF3F902F902196CDBFDEBFDF91CF91B0
:0213020008954C
:1009D20010E0222D321608F435C0012F000F302FFF
:1009E20001E610E0E22FF0E0E00FF11F0081043693
:1009F20070F001E610E0E22FF0E0E00FF11F10814D
:100A02000CE8011720F0032F0160102F17C001E638
:100A120010E0E22FF0E0E00FF11F00810C3358F0FC
:100A220001E610E0E22FF0E0E00FF11F10810FE588
:100A3200011708F002C00EEF06C0132F022F0F5F3E
:080A4200202FC8CF012F0895F9
:0C07F800232D30E0122F00270229089565
:100A4A00CF93DF93CDB7DEB72C97CDBFDEBF21960C
:100A5A002F923F924F925F929F928F927F926F92C4
:100A6A005F924F923F922F9240E050E060E271E431
:100A7A00810192019BDD2F903F904F905F906F9084
:100A8A007F908F909F90180129019F928F927F9259
:100A9A006F925F924F923F922F9240E050E060E255
:100AAA0071E48301940182DD2F903F904F905F9013
:100ABA006F907F908F909F90380149019F928F92FB
:100ACA007F926F9240E050E068EC72E481019201FB
:100ADA006DDD18012901FFDE6F907F908F909F9046
:100AEA00088719872A873B879F928F927F926F92F6
:100AFA0003EC15EF2CE831E4A301B401A3DB6F90FA
:100B0A007F908F909F900C831D832E833F8308EBE9
:100B1A001EE123E733E4A301B4018ADB08831983C6
:100B2A002A833B830C811D812E813F817F936F93A2
:100B3A005F934F93488159816A817B8137DD4F9159
:100B4A005F916F917F91488559856A857B8570DBB6
:100B5A00A801B9017F936F935F934F9348EB5EE1CE
:100B6A0063E773E46FDB4F915F916F917F910C8321
:100B7A001D832E833F8303EC15EF2CE831E486DBDB
:100B8A00088319832A833B830C811D812E813F812F
:100B9A007F936F935F934F93488159816A817B81D9
:100BAA0005DD4F915F916F917F9140E050E060E2E7
:100BBA0071E448DBA0DC5F904F903F902F902B961A
:0A0BCA00CDBFDEBFDF91CF9108958B
:1008E000CF93DF93CDB7DEB72297CDBFDEBF219682
:1008F0006F927F928F929F925F924F923F922F9230
:1009000040E050E060E070E081019201E0DC00280E
:1009100000E009F001E02F903F904F905F9000239E
:1009200029F000E010E020E030E049C08E013801FD
:100930003ADD5F924F923F922F9240E050E060E0AC
:1009400070E485DC40E050E060E87FE3A4DC2F90B9
:100950003F904F905F901801290148815981415083
:100960005040488359835F924F923F922F92B8E054
:100970008B2EB0E09B2EBEED6B2EB6E17B2E1801C8
:10098000290142DD2F903F904F905F90180129017F
:100990000881198120E017FD2FEF322F86DC5F924E
:1009A0004F923F922F9248E152E761E37FE34FDCA1
:1009B0002F903F904F905F90A101B2013EDC9F903D
:1009C0008F907F906F902196CDBFDEBFDF91CF914A
:0209D000089588
:1003A600CF93DF93CDB7DEB72497CDBFDEBF2196BF
:1003B600288239824A825B820A811B8100781F77F4
:1003C600B7E016950795BA95E1F70E571040F30179
:1003D600019311932A813B818901B0E00B27BFE38A
:1003E6001B2700781F77022713270A831B830881A0
:1003F60019812A813B812396CDBFDEBFDF91CF9144
:02040600089557
:100408008401000F111F000F111FF801E60DF71DE1
:100418000591159125913591A801B901B82DB929F2
:1004280071F19F928F925F924F923F922F9281012A
:10043800920109DF2F903F904F905F908F909F908F
:10044800A401415050404A01440F551F440F551F05
:10045800FA01E60DF71D45915591659175919F92A9
:100468008F925F924F923F922F92E3DE2F903F90B0
:100478004F905F908F909F90A801B901CFCF8A01CC
:040488009B01089537
:10024E00042E152E262E372EADDF002E112E222E29
:04025E00332E08959E
:1001B200EADF81F1E62ED52EC42EB32EA22E912E89
:1001C200802E002D112D222D332DDDDF19F16E250C
:1001D2004C0D5D1D40385307F4F441387FEF57074B
:1001E200FCF088279927AA27BB2770E2B695A79526
:1001F20097958795379527951795079520F4880D3C
:10020200991DAA1DBB1D7A9589F7032F3A2F292F15
:10021200182F30DF0AC00FEF102F2FE73FE7FACF7A
:0C0222000027102F202F302FF5CF08955B
:100188006EDF79F0632F6078220F331F432F5FE70C
:10019800451B55275040269530E8232B3327989444
:0A01A80003C0442755276627089579
:10006600002329F4112319F4222309F433230895D4
:000076008A
:10007600F7DF11F19F938F938EE790E0332351F0D2
:10008600369527951795079548175907B4F44F5F86
:100096005F4FF4CF80959095019622239AF0000F3A
:1000A600111F221F481759071CF041505040F5CF29
:1000B600002711272227332708C033270FEF102FD9
:0C00C6002FE7322F8F919F91BADF089531
:1000440010D039F041585F4F342F220F3695279541
:04005400362B0895AA
:10023A00042E152E262E372EF8DF002E112E222EF2
:04024A00332E0895B2
:06023400E8944DDF08957F
:1000D200C2DF09F441C0E62ED52EC42EB32EA22EC5
:1000E200912E802E002D112D222D332DB4DF09F4F7
:1000F2003DC0842F952F8C199D09B9F072F490950B
:10010200809501964C2D5D2D883180F5359527958A
:10011200179507950197D1F708C08831E8F4B5948F
:10012200A794979487940197D1F766272EF0080D2C
:10013200191D2A1D3B1D09C0801A910AA20AB30A81
:10014200082D192D2A2D3B2D332312F471DF60E87F
:1001520091DF01C076DF16C0002D112D222D332D27
:10016200D6F780DFC1F340E83427F5CF082D192DEB
:100172002A2D3B2D4C2D5D2D6E2D33235AF758DF42
:0601820060E8E8CF0895DB
:0E00580097D021F0662309F0E8DF9894089510
:1000320000951095209530950F5F1F4F2F4F3F4F22
:0200420008951F
:1002CE00002E112E222E332E042F152F262F372FD0
:1002DE00CBDF00231CF00024039401C000240895FA
:0002EE0010
:10027600DBDF332332F0F4DE11F001E003C00027A8
:0602860001C00FEF089516
:06022E00689450DF089502
:10029600042E152E262E372EC7DF002E112E222EC7
:0402A600332E089556
:0602AA00E894DADF08957C
:1002620047E16627552726F0332312F4E1DE60E8E2
:0402720001DF08950B
:1005B600042E152E262E372E97DE002E112E222ED5
:0405C600332E089533
:1002EE003F932F931F930F93002D112D222D332DFE
:1002FE0044DF09F44BC0E62ED52EC42EB32EA22E0B
:10030E00912E802E0F911F912F913F9136DF61F12B
:10031E006E254C195D09403853073CF541387FEF87
:10032E0057077CF180E27724632E522E412E302F18
:10033E00222711270027000F111F221F331F441CD5
:10034E00551C661C771C28F0481859086A087B084B
:10035E0004C0480C591C6A1C7B1C0AF001608A956B
:10036E0051F74150504080DE16C00FEF102F2FE78F
:10037E003FE76623C9F370DEB9F3342D30E8342538
:10038E00F3CF0027102F202F302FEECF0F900F908E
:08039E000F900F90EACF0895C3
:1005000043DEF1F05523C2F04F31A8F44731C1F07A
:1005100050F44195495E05C0359527951795079587
:100520004A95D1F70DC04751000F111F221F331FED
:100530004A95D1F705C03FE7232F132F032F03C0A0
:08054000662309F076DD089541
:100BDE00CF93DF93CDB7DEB76697CDBFDEBF21963D
:100BEE002F923F924F925F9200E010E04016510616
:100BFE00C4F400E010E0041915092801BDE2B88321
:100C0E00B0E0B9838E015F924F923F922F923F9246
:100C1E002801322C2F90FED12F903F904F905F9055
:100C2E0014C0B0E2BA83B0E0BB838E010E5F1F4FDB
:100C3E005F924F923F922F923F922801322C2F902B
:100C4E00E9D12F903F904F905F9007EE13E004157F
:100C5E0015050CF07EC00FE017E2041515050CF417
:100C6E0078C05F924F923F922F9248EE53E08201EE
:100C7E0016DC8B012F903F90102F105D022D0F5F11
:100C8E003F922F92412E232C302E57DC2F903F90E7
:100C9E004F905F905F924F923F922F9244E650E0BA
:100CAE008201FDDB8B014AE050E0F9DB8C012F90D5
:100CBE003F90102F105D022D0E5F3F922F92412E0E
:100CCE00232C302E3ADC2F903F904F905F905F9206
:100CDE004F923F922F924AE050E08201E0DB8B016F
:100CEE004AE050E0DCDB8C012F903F90102F105D1E
:100CFE00022D0D5F3F922F92412E232C302E1DDCA4
:100D0E002F903F90BEE2BC83B0E0BD831C2F2D2FF1
:100D1E001C5F2F4F022D0C5F3F922F92412E522EB1
:100D2E00232C302E77D12F903F904F905F903F9293
:100D3E002F924AE050E08201B2DB8C012F903F905F
:100D4E00102F105D022D0B5F412E232C302EF5DB64
:100D5E0057C103E610E0041515050CF078C007EE38
:100D6E0013E0041515050CF472C0B0E2BE83B0E0BA
:100D7E00BF831C2F2D2F1A5F2F4F022D0F5F5F92F7
:100D8E004F923F922F92412E522E232C302E42D133
:100D9E002F903F904F905F905F924F923F922F9285
:100DAE0044E650E082017BDB8B012F903F90102FA9
:100DBE00105D022D0E5F3F922F92412E232C302E6E
:100DCE00BCDB2F903F904F905F905F924F923F927F
:100DDE002F924AE050E0820162DB8B014AE050E044
:100DEE005EDB8C012F903F90102F105D022D0D5F5A
:100DFE003F922F92412E232C302E9FDB2F903F902F
:100E0E00BEE2B887B0E0B9871C2F2D2F185F2F4F89
:100E1E00022D0C5F3F922F92412E522E232C302EFC
:100E2E00F9D02F903F904F905F903F922F924AE0D3
:100E3E0050E0820134DB8C012F903F90102F105D1B
:100E4E00022D0B5F412E232C302E77DBD9C009E00B
:100E5E0010E0041515050CF06EC003E610E0041545
:100E6E0015050CF468C0B0E2BA87B0E0BB871C2F42
:100E7E002D2F165F2F4F022D0F5F5F924F923F92D5
:100E8E002F92412E522E232C302EC4D02F903F90D5
:100E9E00B0E2BC87B0E0BD871C2F2D2F145F2F4F03
:100EAE00022D0E5F3F922F92412E522E232C302E6A
:100EBE00B1D02F903F904F905F905F924F923F92A4
:100ECE002F924AE050E08201EADA8B012F903F9098
:100EDE00102F105D022D0D5F3F922F92412E232C6D
:100EEE00302E2BDB2F903F90BEE2BE87B0E0BF8747
:100EFE001C2F2D2F125F2F4F022D0C5F3F922F9222
:100F0E00412E522E232C302E85D02F903F904F9075
:100F1E005F903F922F924AE050E08201C0DA8C013E
:100F2E002F903F90102F105D022D0B5F412E232C22
:100F3E00302E03DB65C000E010E0401651060CF4C5
:100F4E005FC009E010E0041515050CF459C0B0E2BD
:100F5E00B88BB0E0B98B1C2F2D2F105F2F4F022DA9
:100F6E000F5F5F924F923F922F92412E522E232C63
:100F7E00302E50D02F903F90B0E2BA8BB0E0BB8BAA
:100F8E001C2F2D2F1E5E2F4F022D0E5F3F922F9284
:100F9E00412E522E232C302E3DD02F903F90022DDD
:100FAE000D5F3F922F92B0E34B2E232C302EC5DADD
:100FBE002F903F90BEE2BC8BB0E0BD8B1C2F2D2F2F
:100FCE001C5E2F4F022D0C5F3F922F92412E522E00
:100FDE00232C302E1FD02F903F904F905F903F923A
:100FEE002F924AE050E082015ADA8C012F903F9006
:100FFE00102F105D022D0B5F412E232C302E9DDA0B
:10100E005F904F903F902F906596CDBFDEBFDF91E2
:04101E00CF910895D1
:1004AC00C801BA0197FB092E07260AD077FD04D0A4
:1004BC000CD006D000201AF4709561957F4F0895EA
:1004CC00F6F7909581959F4F0895AA1BBB1B51E1A0
:1004DC0007C0AA1FBB1FA617B70710F0A61BB70BA8
:1004EC00881F991F5A95A9F780959095BC01CD014D
:0404FC0008950895C2
:0A0BD40005900D920197E1F70895D6
:10172000A0E6B0E0EEE7F3E181E090E053DA08955F
:101304000F931F932F93BF93BFB7BF9311E620E0B2
:1013140000916000E02FF0E0E10FF21F02B70083BC
:10132400009160000F5F0093600002B7083C18F062
:10133400BAE2B0936000009160000A3298F0B1B351
:10134400BB7FB1BBB0E0BBBFB0E0B5BFB0E0B3BFE3
:10135400B0E0BABFBFB7BF77BFBFB0918B00B26078
:10136400B0938B00B0E0B2BFBF91BFBFBF912F91CC
:0A1374001F910F91FF91EF91189562
:081718000006090906000000AB
:1016DE00FFE6DB2EC4FF7F3F80EFFFBE90E1A93E09
:1016EE00EC8276BE82AD2B3E0E3CC3BD87D1133D40
:0416FE004178D3BBA1
:01137E00006E
:07168000522E482F253A000D
:07168700542E2F20433A000E
:07168E0044502F20433A00F5
:0F1695004E6F204572726F72202020202020009F
:0516A4002D2D2E2D008C
:0516A9002D2D2E2D0087
:0516AE002D2D2E2D0082
:0D16B300435243204572726F7220202000C8
:0D16C00053594E43204572726F7220200076
:0D16CD0053656E736F72204572726F72006C
:0216DA0000000E
:0216DC0000000C
:021702002D00B8
:021704002000C3
:021706002E00B3
:021708002000BF
:02170A002E00AF
:02170C002000BB
:02170E002000B9
:021710002E00A9
:021712002000B5
:021714002000B3
:021716002E00A3
:00000001FF
